:020000040800F2
:1000000040750024AD020008B15C0008515A000898
:10001000A95C000839080008998000080000000069
:10002000000000000000000000000000F160000877
:100030004108000800000000395D0008596100080F
:10004000C7020008C7020008C7020008C70200086C
:10005000C7020008C7020008C7020008C70200085C
:10006000C7020008C7020008C7020008C70200084C
:10007000C7020008C7020008C7020008C70200083C
:10008000C7020008C7020008C7020008C70200082C
:10009000C7020008C7020008C7020008C70200081C
:1000A000C7020008C7020008C7020008C70200080C
:1000B000C7020008C7020008C7020008C7020008FC
:1000C000C7020008C7020008C7020008C7020008EC
:1000D000C702000841800008C7020008C7020008E4
:1000E000C7020008C702000800000000C70200089D
:1000F000C7020008C7020008C7020008C7020008BC
:10010000C7020008C7020008C7020008C7020008AB
:10011000C7020008C7020008C7020008C70200089B
:10012000C7020008C7020008C7020008C70200088B
:10013000C7020008C7020008C7020008C70200087B
:1001400000000000000000000000000000000000AF
:10015000C7020008C7020008C7020008C70200085B
:10016000C7020008C7020008C7020008C70200084B
:10017000C7020008C7020008C7020008000000000C
:10018000C7020008C7020008C7020008C70200082B
:10019000C7020008C7020008C7020008C70200081B
:1001A000C7020008C7020008C7020008C70200080B
:1001B000C7020008C7020008C7020008C7020008FB
:1001C000C7020008C7020008C7020008C7020008EB
:1001D000C7020008C7020008C7020008C7020008DB
:1001E000C7020008C7020008C7020008C7020008CB
:1001F000C7020008C7020008C7020008C7020008BB
:10020000C7020008C7020008C7020008C7020008AA
:10021000C7020008C7020008C7020008C70200089A
:10022000C7020008C7020008C7020008000000005B
:10023000C7020008C702000800000000C70200084B
:10024000C7020008C7020008C7020008C70200086A
:10025000C7020008C7020008C7020008C70200085A
:10026000C7020008C7020008C7020008C70200084A
:10027000C7020008C7020008C7020008000000000B
:10028000C7020008C7020008C702000800000000FB
:1002900000000000C7020008DFF80CD000F048FAA8
:1002A00000480047798100084075002406488047CF
:1002B00006480047FEE7FEE7FEE7FEE7FEE7FEE74B
:1002C000FEE7FEE7FEE7FEE7C962000899020008C4
:1002D0002DE9F05F0546002092469B46884606467B
:1002E000814640241BE0284641464746224600F00E
:1002F00057F853465A46C01A914110D31146184632
:10030000224600F03EF82D1A67EB01084F462246C0
:100310000120002100F035F817EB00094E41201EA6
:10032000A4F10104DFDC484631462A464346BDE8D5
:10033000F09FD2B201E000F8012B491EFBD27047BA
:100340000022F6E710B513460A4604461946FFF7A1
:10035000F0FF204610BD30B50B460146002020229C
:10036000012409E021FA02F59D4205D303FA02F5C2
:10037000491B04FA02F52844151EA2F10102F1DC22
:1003800030BD202A04DB203A00FA02F10020704739
:100390009140C2F1200320FA03F3194390407047C3
:1003A000202A04DB203A21FA02F00021704721FACA
:1003B00002F3D040C2F12002914008431946704731
:1003C0002DE9FE4F804681EA0300C00F0C460090E5
:1003D00021F0004123F00045B8EB0200A94105D20D
:1003E0004046214690461C460B46024623F00040FC
:1003F000104347D0270DC7F30A00C3F30A510290F8
:10040000401A019040286BDAC3F3130040F4801BBC
:100410000098924620B10023D2EB030A63EB0B0B4A
:1004200001985946C0F140025046FFF7AAFF064620
:100430000D4650465946019A00F08CF910EB080021
:100440006141002487EA115284EAE7731A4340D0DD
:10045000009A62B3019A012A4FEA075215DC001B89
:1004600061EB02014FF0004202EA0752CDE900427F
:10047000001C41F5801132462B4600F08CF903B088
:10048000BDE8F08F40462146F9E7001B61EB020111
:10049000001C41F5801300185B412018A2F50017DD
:1004A00047EB030140EAD570B6196D4111E06D08C4
:1004B0004FEA360645EAC0754FEA0752001B61EB6A
:1004C0000201001C41F5801149084FEA3000001973
:1004D000514132462B4603B0BDE8F04F00F04CB915
:1004E0000098012240000023D0EB020263EBE0738E
:1004F000009821464FEAE074B8EB000061EB04017C
:10050000E9E783F000435BE781F0004158E72DE91C
:10051000FE4F81EA030404F0004421F000410094FE
:100520004FF0000B23F0004350EA01045ED052EA82
:1005300003045BD0C3F30A54C1F30A552C44A4F25C
:10054000F3340194A0FB0254C1F3130141F4801170
:10055000C3F3130343F4801301FB024400FB034E77
:10056000840A970A44EA815447EA8357A4FB076840
:1005700002958D0A05FB07854FEA932C04FB0C546A
:100580002705029D4FEA065847EA1637B5EB0805DE
:100590006EEB070C870E920E47EA811742EA831230
:1005A000A7FB0201B6EB0B0164EB00042B0D43EA41
:1005B0000C335E1844EB1C50DA465146E7FB02014F
:1005C000C5F313044FEA0B3343EA14534FEA0432E2
:1005D000019C43EA0603A4F10C040294009CCDE9BB
:1005E00000B400F0D8F803B0BDE8F08F0020014659
:1005F000F9E72DE9F04D81EA030404F0004B21F006
:10060000004514464FF0000A23F0004150EA05026D
:1006100020D054EA01021DD0C5F30A570246C5F3A3
:100620001303C1F31300C1F30A5640F4801543F4D9
:100630008013A7EB0608101BD64608F2FD3873EBB3
:10064000050002D308F1010801E092185B41B8F1FE
:10065000000F03DA00200146BDE8F08D00204FF4C2
:100660008011064684460EE0171B73EB050705D381
:10067000121B63EB050306434CEA010C49084FEAE1
:10068000300092185B4150EA0107EDD152EA0300B5
:1006900012D082EA040083EA0501084305D0101B4A
:1006A000AB4106D20122002306E000224FF00043B6
:1006B00002E06FF0010253101AEB06004CEB0851F8
:1006C00010EB0A0041EB0B01BDE8F04D00F054B80F
:1006D000C1F30A52C1F3130140F2FF3341F4801118
:1006E0009A4202DA00200146704740F233439A42B0
:1006F000A2F2334202DC5242FFF752BEFFF741BE84
:1007000030B5041E71F1000404DB4FF00044404298
:1007100064EB0101141E73F1000405DB1C464FF06D
:100720000043524263EB0403994208BF904230BD3C
:10073000064C074D06E0E06840F0010394E807002E
:1007400098471034AC42F6D3FFF7AAFDD88B0008C7
:10075000F88B0008202A06DBCB17203A41FA02F07A
:1007600043EAE07306E041FA02F3D040C2F120020E
:10077000914008431946704710B5141E73F10004E8
:1007800008DA401C41F1000192185B411A4301D183
:1007900020F0010010BD2DE9F04D92469B4611B1AD
:1007A000B1FA81F202E0B0FA80F220329046FFF70F
:1007B000E8FD04460F4640EA0A0041EA0B015346B1
:1007C0005A46084313D0114653EA010019D0C8F124
:1007D00040025046FFF7E4FD05460E465046594696
:1007E0004246FFF7CEFD084305D0012004E0204635
:1007F0003946BDE8F08D0020054346EAE0762C43FB
:1008000037430A986305E40AA0EB08000022FD0ABA
:1008100044EA47540A3002D500200146E9E70105C1
:1008200010196941DDE9084500196941BDE8F04D3D
:10083000A2E7000000000000FFE7FEE70000000064
:10084000704700000000000081B0EFF3108072B626
:100850000090FFE7FEE7000080B58EB001460C90E7
:10086000079101F025FA08900C98002805D1FFE7C0
:1008700001208DF8370000F0B8BC0C9890F83500D6
:1008800002280ED0FFE70C9880214165FFE70C9805
:10089000002180F83410FFE701208DF8370000F0C8
:1008A000A4BC0C98006801211022C4F202029042FC
:1008B000069100F0A380FFE70C9800680121282230
:1008C000C4F202029042069100F09880FFE70C9873
:1008D000006801214022C4F202029042069100F019
:1008E0008D80FFE70C98006801215822C4F20202B3
:1008F0009042069100F08280FFE70C980068012189
:100900007022C4F202029042069177D0FFE70C9861
:10091000006801218822C4F20202904206916DD043
:10092000FFE70C9800680121A022C4F20202904265
:10093000069163D0FFE70C9800680121B822C4F249
:1009400002029042069159D0FFE70C9800680121FD
:1009500040F21042C4F20202904206914ED0FFE7EC
:100960000C980068012140F22842C4F20202904231
:10097000069143D0FFE70C980068012140F2404205
:10098000C4F202029042069138D0FFE70C9800684A
:10099000012140F25842C4F20202904206912DD049
:1009A000FFE70C980068012140F27042C4F2020295
:1009B0009042069122D0FFE70C980068012140F296
:1009C0008842C4F202029042069117D0FFE70C98C9
:1009D0000068012140F2A042C4F202029042069156
:1009E0000CD0FFE70C9800684FF64831CBF6FD714C
:1009F0000844B0FA80F040090690FFE70698C00767
:100A0000002810D0FFE70C980068016821F01E0153
:100A100001600C980068416921F0800141610C98E7
:100A20000068099009E00C980068016821F00E0147
:100A300001600C9800680990FFE70C98006801219C
:100A40001022C4F202029042059100F00381FFE7F8
:100A50000C98006801212822C4F2020290420591FC
:100A600000F0F880FFE70C98006801214022C4F2F2
:100A700002029042059100F0ED80FFE70C980068BB
:100A800001215822C4F202029042059100F0E28056
:100A9000FFE70C98006801217022C4F20202904224
:100AA000059100F0D780FFE70C98006801218822AB
:100AB000C4F202029042059100F0CC80FFE70C984E
:100AC00000680121A022C4F202029042059100F0C8
:100AD000C180FFE70C9800680121B822C4F202022D
:100AE0009042059100F0B680FFE70C980068012164
:100AF00040F21042C4F202029042059100F0AA8036
:100B0000FFE70C980068012140F22842C4F202027B
:100B10009042059100F09E80FFE70C98006801214B
:100B200040F24042C4F202029042059100F09280ED
:100B3000FFE70C980068012140F25842C4F202021B
:100B40009042059100F08680FFE70C980068012133
:100B500040F27042C4F20202904205917AD0FFE75F
:100B60000C980068012140F28842C4F202029042CF
:100B700005916FD0FFE70C980068012140F2A04278
:100B8000C4F202029042059164D0FFE70C9800681D
:100B9000012140F2B842C4F202029042059159D0BC
:100BA000FFE70C980068012145F20842C5F60202F1
:100BB000904205914ED0FFE70C980068012145F264
:100BC0001C42C5F602029042059143D0FFE70C9803
:100BD0000068012145F23042C5F6020290420591BB
:100BE00038D0FFE70C980068012145F24442C5F671
:100BF0000202904205912DD0FFE70C980068012178
:100C000045F25842C5F602029042059122D0FFE714
:100C10000C980068012145F26C42C5F60202904230
:100C2000059117D0FFE70C980068012145F280423A
:100C3000C5F60202904205910CD0FFE70C980068BF
:100C40004AF66C31CAF2FD710844B0FA80F04009EE
:100C50000590FFE70598C007002807D0FFE70C982C
:100C6000006E016821F480710160FFE70C98006854
:100C70001021C4F20201884200F08180FFE70C9845
:100C800000682821C4F20201884278D0FFE70C985E
:100C900000684021C4F20201884270D0FFE70C983E
:100CA00000685821C4F20201884268D0FFE70C981E
:100CB00000687021C4F20201884260D0FFE70C98FE
:100CC00000688821C4F20201884258D0FFE70C98DE
:100CD0000068A021C4F20201884250D0FFE70C98BE
:100CE0000068B821C4F20201884248D0FFE70C989E
:100CF000006840F21041C4F2020188423FD0FFE791
:100D00000C98006840F22841C4F20201884236D0B3
:100D1000FFE70C98006840F24041C4F202018842AB
:100D20002DD0FFE70C98006840F25841C4F2020150
:100D3000884224D0FFE70C98006840F27041C4F26A
:100D4000020188421BD0FFE70C98006840F28841FE
:100D5000C4F20201884212D0FFE70C98006840F20A
:100D6000A041C4F20201884209D0FFE70C98006854
:100D700040F2B841C4F20201884209D1FFE70C9861
:100D80000068016821F001010A460160049208E050
:100D90000C980068016821F001010A460160039285
:100DA000FFE7FFE709980068C00700281BD0FFE7AE
:100DB00000F07EFFDDF820E0A0EB0E00062811D346
:100DC000FFE70C98202141650C98032180F835102D
:100DD000FFE70C98002180F83410FFE701208DF820
:100DE000370002E2DEE70C98006801211022C4F20D
:100DF00002029042029100F0A380FFE70C98006885
:100E000001212822C4F202029042029100F098804F
:100E1000FFE70C98006801214022C4F202029042D0
:100E2000029100F08D80FFE70C98006801215822A4
:100E3000C4F202029042029100F08280FFE70C9817
:100E4000006801217022C4F202029042029177D020
:100E5000FFE70C98006801218822C4F20202904248
:100E600002916DD0FFE70C9800680121A022C4F226
:100E700002029042029163D0FFE70C9800680121C2
:100E8000B822C4F202029042029159D0FFE70C98B6
:100E90000068012140F21042C4F202029042029125
:100EA0004ED0FFE70C980068012140F22842C4F2BE
:100EB00002029042029143D0FFE70C9800680121A2
:100EC00040F24042C4F202029042029138D0FFE761
:100ED0000C980068012140F25842C4F2020290428C
:100EE00002912DD0FFE70C980068012140F270427A
:100EF000C4F202029042029122D0FFE70C980068EF
:100F0000012140F28842C4F202029042029117D0BD
:100F1000FFE70C980068012140F2A042C4F20202EF
:100F2000904202910CD0FFE70C9800684FF64831D0
:100F3000CBF6FD710844B0FA80F040090290FFE75B
:100F40000298C00700280DD0FFE70C98806D0B9029
:100F50000C98C06D00F01F003F2101FA00F00B99C2
:100F600088600CE00C98806D0A900C98C06D00F0C1
:100F70001F00012101FA00F00A994860FFE70C9870
:100F8000006801211022C4F202029042019100F097
:100F90000381FFE70C98006801212822C4F20202B5
:100FA0009042019100F0F880FFE70C980068012161
:100FB0004022C4F202029042019100F0ED80FFE76E
:100FC0000C98006801215822C4F20202904201915B
:100FD00000F0E280FFE70C98006801217022C4F263
:100FE00002029042019100F0D780FFE70C98006860
:100FF00001218822C4F202029042019100F0CC80CB
:10100000FFE70C9800680121A022C4F2020290427E
:10101000019100F0C180FFE70C9800680121B8221F
:10102000C4F202029042019100F0B680FFE70C98F2
:101030000068012140F21042C4F202029042019184
:1010400000F0AA80FFE70C980068012140F22842D6
:10105000C4F202029042019100F09E80FFE70C98DA
:101060000068012140F24042C4F202029042019124
:1010700000F09280FFE70C980068012140F258428E
:10108000C4F202029042019100F08680FFE70C98C2
:101090000068012140F27042C4F2020290420191C4
:1010A0007AD0FFE70C980068012140F28842C4F230
:1010B0000202904201916FD0FFE70C980068012175
:1010C00040F2A042C4F202029042019164D0FFE7D4
:1010D0000C980068012140F2B842C4F2020290422A
:1010E000019159D0FFE70C980068012145F20842B0
:1010F000C5F60202904201914ED0FFE70C980068BD
:10110000012145F21C42C5F602029042019143D0F2
:10111000FFE70C980068012145F23042C5F6020253
:101120009042019138D0FFE70C980068012145F208
:101130004442C5F60202904201912DD0FFE70C987F
:101140000068012145F25842C5F602029042019121
:1011500022D0FFE70C980068012145F26C42C5F6E9
:1011600002029042019117D0FFE70C98006801211C
:1011700045F28042C5F60202904201910CD0FFE791
:101180000C9800684AF66C31CAF2FD710844B0FA56
:1011900080F040090190FFE70198C007002815D0B2
:1011A000FFE70C98416E806E48600C98C06E002876
:1011B0000BD0FFE70C98C06E016821F480710160CC
:1011C0000C98016F406F4860FFE7FFE70C98012122
:1011D00080F83510FFE70C98002180F83410FFE705
:1011E000FFE700208DF83700FFE79DF837000EB0CD
:1011F00080BD00000000000080B58AB00146089064
:1012000008980028069104D1FFE701208DF82700F7
:1012100052E3089890F83500022807D0FFE70898B5
:101220008021416501208DF8270045E3089800687A
:1012300001211022C4F202029042059100F0A38025
:10124000FFE70898006801212822C4F202029042B8
:10125000059100F09880FFE708980068012140227E
:10126000C4F202029042059100F08D80FFE70898D9
:10127000006801215822C4F202029042059100F058
:101280008280FFE70898006801217022C4F2020200
:101290009042059177D0FFE70898006801218822E5
:1012A000C4F20202904205916DD0FFE708980068F1
:1012B0000121A022C4F202029042059163D0FFE70F
:1012C000089800680121B822C4F2020290420591F8
:1012D00059D0FFE708980068012140F21042C4F29B
:1012E0000202904205914ED0FFE708980068012164
:1012F00040F22842C4F202029042059143D0FFE737
:1013000008980068012140F24042C4F20202904273
:10131000059138D0FFE708980068012140F2584253
:10132000C4F20202904205912DD0FFE708980068B0
:10133000012140F27042C4F202029042059122D093
:10134000FFE708980068012140F28842C4F20202D7
:101350009042059117D0FFE708980068012140F2FC
:10136000A042C4F20202904205910CD0FFE7089817
:1013700000684FF64831CBF6FD710844B0FA80F0B2
:1013800040090590FFE70598C007002800F0A180FC
:10139000FFE70898042180F83510089800681021AC
:1013A000C4F20201884200F08180FFE708980068DB
:1013B0002821C4F20201884278D0FFE7089800682B
:1013C0004021C4F20201884270D0FFE7089800680B
:1013D0005821C4F20201884268D0FFE708980068EB
:1013E0007021C4F20201884260D0FFE708980068CB
:1013F0008821C4F20201884258D0FFE708980068AB
:10140000A021C4F20201884250D0FFE7089800688A
:10141000B821C4F20201884248D0FFE7089800686A
:1014200040F21041C4F2020188423FD0FFE7089821
:10143000006840F22841C4F20201884236D0FFE73A
:101440000898006840F24041C4F2020188422DD061
:10145000FFE70898006840F25841C4F20201884250
:1014600024D0FFE70898006840F27041C4F20201FE
:1014700088421BD0FFE70898006840F28841C4F218
:101480000201884212D0FFE70898006840F2A041AC
:10149000C4F20201884209D0FFE70898006840F2D0
:1014A000B841C4F20201884209D1FFE708980068F8
:1014B000016821F001010A460160049208E00898E1
:1014C0000068016821F001010A4601600392FFE70C
:1014D000EDE108980068016821F00E0101600898AC
:1014E00000681021C4F20201884200F08180FFE709
:1014F000089800682821C4F20201884278D0FFE7EA
:10150000089800684021C4F20201884270D0FFE7C9
:10151000089800685821C4F20201884268D0FFE7A9
:10152000089800687021C4F20201884260D0FFE789
:10153000089800688821C4F20201884258D0FFE769
:1015400008980068A021C4F20201884250D0FFE749
:1015500008980068B821C4F20201884248D0FFE729
:101560000898006840F21041C4F2020188423FD05E
:10157000FFE70898006840F22841C4F2020188425F
:1015800036D0FFE70898006840F24041C4F20201FB
:1015900088422DD0FFE70898006840F25841C4F215
:1015A0000201884224D0FFE70898006840F27041A9
:1015B000C4F2020188421BD0FFE70898006840F29D
:1015C0008841C4F20201884212D0FFE708980068FF
:1015D00040F2A041C4F20201884209D0FFE7089816
:1015E000006840F2B841C4F20201884209D1FFE725
:1015F00008980068016821F001010A460160029222
:1016000008E008980068016821F001010A460160BD
:101610000192FFE70898006801211022C4F202023B
:101620009042009100F00381FFE7089800680121D3
:101630002822C4F202029042009100F0F880FFE7F5
:101640000898006801214022C4F2020290420091F1
:1016500000F0ED80FFE70898006801215822C4F2ED
:1016600002029042009100F0E280FFE708980068D3
:1016700001217022C4F202029042009100F0D78052
:10168000FFE70898006801218822C4F20202904214
:10169000009100F0CC80FFE7089800680121A022AB
:1016A000C4F202029042009100F0C180FFE7089866
:1016B00000680121B822C4F202029042009100F0B9
:1016C000B680FFE708980068012140F21042C4F29A
:1016D00002029042009100F0AA80FFE7089800689B
:1016E000012140F22842C4F202029042009100F02F
:1016F0009E80FFE708980068012140F24042C4F252
:1017000002029042009100F09280FFE70898006882
:10171000012140F25842C4F202029042009100F0CE
:101720008680FFE708980068012140F27042C4F209
:101730000202904200917AD0FFE7089800680121E8
:1017400040F28842C4F20202904200916FD0FFE75B
:1017500008980068012140F2A042C4F202029042BF
:10176000009164D0FFE708980068012140F2B84278
:10177000C4F202029042009159D0FFE70898006835
:10178000012145F20842C5F60202904200914ED076
:10179000FFE708980068012145F21C42C5F60202E5
:1017A0009042009143D0FFE708980068012145F27C
:1017B0003042C5F602029042009138D0FFE7089807
:1017C0000068012145F24442C5F6020290420091B0
:1017D0002DD0FFE708980068012145F25842C5F670
:1017E00002029042009122D0FFE708980068012190
:1017F00045F26C42C5F602029042009117D0FFE715
:1018000008980068012145F28042C5F60202904224
:1018100000910CD0FFE7089800684AF66C31CAF2D4
:10182000FD710844B0FA80F040090090FFE700988D
:10183000C007002827D0FFE70898006E016821F450
:10184000807101600898806D07900898C06D00F065
:101850001F00012101FA00F0079948600898416EC5
:10186000806E48600898C06E00280BD0FFE708988B
:10187000C06E016821F4807101600898016F406FAB
:101880004860FFE7FFE70898012180F83510FFE77F
:101890000898002180F83410FFE70898006D0028B0
:1018A00004D0FFE70898016D8847FFE7FFE7FFE7EF
:1018B00000208DF82700FFE79DF827000AB080BDC3
:1018C00093B00A4603461290119100201090802098
:1018D000C5F600000D900B920A93FFE7119800687F
:1018E0001099C840002800F0D681FFE711980068E1
:1018F0001099012202FA01F108400F900F98002878
:1019000000F0C581FFE71198406800F0030001284E
:1019100007D0FFE71198406800F0030002282FD19C
:10192000FFE7129880680E9010984000032101FA9A
:1019300000F00E9921EA00000E901198C0681099ED
:10194000490088400E9908430E900E9812998860BD
:10195000129840680E901098012101FA00F00E993B
:1019600021EA00000E9011984068C0F30010109911
:1019700088400E9908430E900E9812994860FFE730
:101980001198406800F00300032818D0FFE7129870
:10199000C0680E9010984000032101FA00F00E99E3
:1019A00021EA00000E901198806810994900884043
:1019B0000E9908430E900E981299C860FFE711988F
:1019C000406800F00300022826D1FFE71298109922
:1019D0006FF0030202EA51010844006A0E90109869
:1019E00000F0070080000F2101FA00F00E9921EAB3
:1019F00000000E9011980069109901F0070189000C
:101A000088400E9908430E900E981299109B02EA96
:101A1000530211440862FFE7129800680E90109874
:101A20004000032101FA00F00E9921EA00000E9017
:101A30001198406800F003001099490088400E9901
:101A400008430E900E9812990860119880798007CB
:101A5000002800F01B81FFE7FFE744F2F440C5F6E1
:101A60000200016841F002010160006800F002001C
:101A70000C900C980990FFE7109820F0030040F2BA
:101A80000841C5F6000140580E90109800F0030080
:101A900080000F2101FA00F00E9921EA00000E905B
:101AA00012980021C5F60201884203D1FFE7002009
:101AB00008907AE0129840F20041C5F6020188428F
:101AC00003D1FFE7012007906CE0129840F6000177
:101AD000C5F60201884203D1FFE7022006905EE0CE
:101AE000129840F60041C5F60201884203D1FFE793
:101AF0000320059050E0129841F20001C5F6020162
:101B0000884203D1FFE70420049042E0129841F29A
:101B10000041C5F60201884203D1FFE7052003908A
:101B200034E0129841F60001C5F60201884203D163
:101B3000FFE70620029026E0129841F60041C5F624
:101B40000201884203D1FFE70720019018E01298B4
:101B500042F20001C5F60201884203D1FFE70820E6
:101B600000900AE0129842F20041C5F602010A22F2
:101B7000884208BF09220092FFE700980190FFE722
:101B800001980290FFE702980390FFE70398049002
:101B9000FFE704980590FFE705980690FFE7069891
:101BA0000790FFE707980890FFE70898109901F061
:101BB0000301890088400E9908430E900E981099F1
:101BC00021F0030140F20842C5F6000288504FF0B0
:101BD000B04000680E900F980E9921EA00000E9018
:101BE00011988079C006002805D5FFE70F980E9957
:101BF00008430E90FFE70E984FF0B04108600420B4
:101C0000C5F6000000680E900F980E9921EA0000BA
:101C10000E90119880798006002805D5FFE70F986F
:101C20000E9908430E90FFE70E980421C5F60001B7
:101C300008600D9840680E900F980E9921EA0000F8
:101C40000E90119880798007002805D5FFE70F983E
:101C50000E9908430E90FFE70E980D9948600D9875
:101C600000680E900F980E9921EA00000E901198CE
:101C70008079C007002805D0FFE70F980E99084328
:101C80000E90FFE70E980D990860FFE7FFE71098A8
:101C90000130109022E613B07047000000000000F1
:101CA00041F20000C5F600400068000C70470000DB
:101CB00040F23C10C2F20040006870470000000093
:101CC00040F20800C2F20040007840F23C11C2F23B
:101CD00000410A68104408607047000000000000DE
:101CE00080B582B0032000F047F901F0B9FF44F25B
:101CF000184EC5F6020EDEF80010C1F3032148F6B7
:101D00008832C0F60002515C01F01F01C84000900B
:101D10000098DEF8001001F00F01515C01F01F0186
:101D2000C84040F20401C2F200410860009840F24D
:101D30000001C2F2004108600F2000F015F80028F1
:101D400004D0FFE701208DF8070006E000F0D0F88E
:101D50004FF0000E8DF807E0FFE79DF8070002B096
:101D600080BD00000000000080B584B001460290F4
:101D700040F20800C2F2004000780028019104D12E
:101D8000FFE701208DF80F0031E040F20000C2F2C1
:101D90000040006840F20801C2F2004109784FF4A7
:101DA0007A72B2FBF1F1B0FBF1F002F0C1FE002853
:101DB00004D0FFE701208DF80F0018E002980F28EB
:101DC0000DD8FFE702994FF0FF30002200F0B0F885
:101DD000029840F20C01C2F20041086003E00120C9
:101DE0008DF80F0003E000208DF80F00FFE79DF84D
:101DF0000F0004B080BD000080B582B001460190A4
:101E0000019840784EF69852CEF200021060019888
:101E10000078002800912BD0FFE7019840684EF62B
:101E20009C51CEF2000108600198017B0907C27A3B
:101E300041EA02610278037A90F809C090F80AE05A
:101E400041EACE4190F80DE041EA8E4190F80EE073
:101E500041EA4E41C07B41EA004040EA0C2040EAA2
:101E6000430010434EF6A051CEF2000108600BE093
:101E70004EF69C50CEF20000002101604EF6A050BC
:101E8000CEF200000160FFE702B080BD000000005C
:101E9000BFF35F8F4EF62450CEF20000016821F4AC
:101EA000803101604EF69450CEF2000000210160B6
:101EB000704700000000000082B0014601900198C8
:101EC00040F001004EF69452CEF2000210604EF641
:101ED0002450CEF20000026842F480320260BFF368
:101EE0004F8FBFF36F8F009102B07047000000006A
:101EF00082B0FFE744F2F440C5F60200016841F009
:101F000002010160006800F0020001900198009059
:101F1000FFE702B07047000080B582B00146ADF81F
:101F20000600BDF90600009106F0BAF802B080BDC7
:101F300080B58AB013468C468646ADF826000891D7
:101F400007920593CDF810C0CDF80CE006F0C4F868
:101F50000690BDF926000699089A079B029008464C
:101F600011461A4603F0A8FE02990190084601990D
:101F700006F0BAF80AB080BD80B582B00146019083
:101F80000198009106F0D8F802B080BD0000000072
:101F900080B584B00146029044F60C00C5F60200FC
:101FA000006800F004000022B2EB900F009113D102
:101FB000FFE744F60C00C5F60200006800F00700D9
:101FC0000299884204D0FFE701208DF80F0030E02D
:101FD00000208DF80F002CE044F60C00C5F602003E
:101FE000016821F00701029A11430160FFF760FECA
:101FF0000190FFE744F60400C5F60200006800F413
:1020000000500021B1EB503F0FD1FFE7FFF750FE2A
:10201000DDF804E0A0EB0E00B0F57A7F04D9FFE70D
:1020200001208DF80F0004E0E4E700208DF80F0098
:10203000FFE79DF80F0004B080BD00000000000025
:1020400080B501F0B1FD44F2204EC5F6020EDEF877
:1020500000E0CEF3021E48F68831C0F6000111F808
:102060000E1001F01F01C84080BD000000000000FC
:1020700089B00146089044F22840C5F60200026883
:1020800002F0030207920068C0F30530069044F2A4
:102090002C40C5F602000068C0F3001005900598BA
:1020A00044F23C42C5F60202126892B2D208504392
:1020B00000EE100AB8EE400A8DED030A06980028DB
:1020C000019100F01D81FFE707980028009009D0DA
:1020D000FFE7009801286AD0FFE70098022800F087
:1020E0008A80ACE044F20040C5F60200006800F0CF
:1020F00020000021B1EB501F34D0FFE744F2004034
:10210000C5F602000068C0F3C10049F20001C0F248
:10211000D03121FA00F004909DED040AB8EE400A97
:102120009DED061AB8EE411A80EE010A44F23840DD
:10213000C5F6020000686FF35F2001EE100AB8EEEA
:10214000411A9DED032A9FED743A82EE032A31EE87
:10215000021AB7EE002A31EE021A20EE010A8DEDC6
:10216000020A23E09DED060AB8EE400A9FED6C1AC4
:1021700081EE000A44F23840C5F6020000686FF3B1
:102180005F2001EE100AB8EE411A9DED032A9FED83
:10219000623A82EE032A31EE021AB7EE002A31EEDD
:1021A000021A20EE010A8DED020AFFE76BE09DEDB9
:1021B000060AB8EE400A9FED591A81EE000A44F271
:1021C0003840C5F6020000686FF35F2001EE100A88
:1021D000B8EE411A9DED032A9FED4F3A82EE032A95
:1021E00031EE021AB7EE002A31EE021A20EE010A91
:1021F0008DED020A47E09DED060AB8EE400A9FED1C
:10220000451A81EE000A44F23840C5F60200006823
:102210006FF35F2001EE100AB8EE411A9DED032A1C
:102220009FED3D3A82EE032A31EE021AB7EE002A04
:1022300031EE021A20EE010A8DED020A23E09DED37
:10224000060AB8EE400A9FED351A81EE000A44F204
:102250003840C5F6020000686FF35F2001EE100AF7
:10226000B8EE411A9DED032A9FED2B3A82EE032A28
:1022700031EE021AB7EE002A31EE021A20EE010A00
:102280008DED020AFFE79DED020A44F23840C5F6E3
:102290000200016889B2490A01EE101AB8EE411A2B
:1022A000B7EE002A31EE021A80EE010A0899BCEE60
:1022B000C00A81ED000A9DED020A0168C1F30641E2
:1022C00001EE101AB8EE411A31EE021A80EE010A40
:1022D0000899BCEEC00A81ED010A9DED020A006872
:1022E000C0F3066001EE100AB8EE411A31EE021A90
:1022F00080EE010A0898BCEEC00A80ED020A07E0F1
:102300000898002101600898416008988160FFE703
:1023100009B0704720BCBE4B000000460024744A40
:102320000024744C0000000089B00146089044F27B
:102330002840C5F60200026802F003020792006816
:10234000C0F30550069044F22C40C5F60200006828
:10235000C0F300200590059844F24442C5F60202FD
:10236000126892B2D208504300EE100AB8EE400A4A
:102370008DED030A06980028019100F01D81FFE70A
:1023800007980028009009D0FFE7009801286AD03C
:10239000FFE70098022800F08A80ACE044F2004099
:1023A000C5F60200006800F020000021B1EB501FCC
:1023B00034D0FFE744F20040C5F602000068C0F3E5
:1023C000C10049F20001C0F2D03121FA00F00490BE
:1023D0009DED040AB8EE400A9DED061AB8EE411ACA
:1023E00080EE010A44F24040C5F6020000686FF337
:1023F0005F2001EE100AB8EE411A9DED032A9FED11
:10240000743A82EE032A31EE021AB7EE002A31EE58
:10241000021A20EE010A8DED020A23E09DED060A64
:10242000B8EE400A9FED6C1A81EE000A44F240407B
:10243000C5F6020000686FF35F2001EE100AB8EEE7
:10244000411A9DED032A9FED623A82EE032A31EE96
:10245000021AB7EE002A31EE021A20EE010A8DEDC3
:10246000020AFFE76BE09DED060AB8EE400A9FED19
:10247000591A81EE000A44F24040C5F60200006895
:102480006FF35F2001EE100AB8EE411A9DED032AAA
:102490009FED4F3A82EE032A31EE021AB7EE002A80
:1024A00031EE021A20EE010A8DED020A47E09DEDA1
:1024B000060AB8EE400A9FED451A81EE000A44F282
:1024C0004040C5F6020000686FF35F2001EE100A7D
:1024D000B8EE411A9DED032A9FED3D3A82EE032AA4
:1024E00031EE021AB7EE002A31EE021A20EE010A8E
:1024F0008DED020A23E09DED060AB8EE400A9FED3D
:10250000351A81EE000A44F24040C5F60200006828
:102510006FF35F2001EE100AB8EE411A9DED032A19
:102520009FED2B3A82EE032A31EE021AB7EE002A13
:1025300031EE021A20EE010A8DED020AFFE79DED51
:10254000020A44F24040C5F60200016889B2490A15
:1025500001EE101AB8EE411AB7EE002A31EE021A57
:1025600080EE010A0899BCEEC00A81ED000A9DEDDB
:10257000020A0168C1F3064101EE101AB8EE411AD1
:1025800031EE021A80EE010A0899BCEEC00A81ED14
:10259000010A9DED020A0068C0F3066001EE100A10
:1025A000B8EE411A31EE021A80EE010A0898BCEE2C
:1025B000C00A80ED020A07E008980021016008982F
:1025C000416008988160FFE709B0704720BCBE4BAE
:1025D000000000460024744A0024744C00000000EF
:1025E00080B59EB001461C9000208DF867008DF8E4
:1025F00066001C98C0780007002818914AD5FFE7AC
:102600001C98806E002817900FD0FFE71798B0F540
:10261000801F13D0FFE71798B0F5001F16D0FFE713
:102620001798B0F5401F19D019E044F22C40C5F6B8
:102630000200016841F40031016014E01C98083088
:10264000022103F07DFB8DF867000CE01C98283018
:10265000022103F061FC8DF8670004E003E0012033
:102660008DF86700FFE79DF8670000280CD1FFE7B1
:1026700044F25040C5F60200016821F440111C9A52
:10268000926E1143016004E09DF867008DF86600CA
:10269000FFE7FFE71C984078C007002841D0FFE71C
:1026A0001C98806D0428169020D81699DFE801F058
:1026B000030C141C1D0044F22C40C5F602000168F6
:1026C00041F40031016015E01C980830002103F04E
:1026D00037FB8DF867000DE01C982830002103F0CF
:1026E0001BFC8DF8670005E004E003E001208DF895
:1026F0006700FFE79DF8670000280CD1FFE744F270
:102700005040C5F60200016821F007011C9A926D45
:102710001143016004E09DF867008DF86600FFE753
:10272000FFE71C984078800700284DD5FFE71C98EC
:10273000C06D0028159011D0FFE71598402816D0DD
:10274000FFE7159880281AD0FFE71598C0281ED0FB
:10275000FFE71598B0F5807F1AD01AE044F22C40BC
:10276000C5F60200016841F40031016015E01C98D3
:102770000830002103F0E4FA8DF867000DE01C98A2
:102780002830002103F0C8FB8DF8670005E004E065
:1027900003E001208DF86700FFE79DF8670000283F
:1027A0000CD1FFE744F25040C5F60200016821F465
:1027B000E0711C9AD26D1143016004E09DF867003E
:1027C0008DF86600FFE7FFE71C9840784007002877
:1027D00052D5FFE71C98D0F8A8000028149014D018
:1027E000FFE71498B0F5001F18D0FFE71498B0F574
:1027F000800F1BD0FFE71498B0F5C00F1ED0FFE785
:102800001498B0F5000F1AD01AE044F22C40C5F627
:102810000200016841F40031016015E01C980830A5
:10282000002103F08DFA8DF867000DE01C98283028
:10283000002103F071FB8DF8670005E004E003E080
:1028400001208DF86700FFE79DF8670000280DD193
:10285000FFE744F25840C5F60200016821F4600128
:102860001C9AD2F8A8201143016004E09DF867008B
:102870008DF86600FFE7FFE71C9840780007002806
:1028800052D5FFE71C98D0F8AC000028139014D064
:10289000FFE71398B0F1807F18D0FFE71398B0F1ED
:1028A000007F1BD0FFE71398B0F1407F1ED0FFE7F9
:1028B0001398B0F1806F1AD01AE044F22C40C5F69C
:1028C0000200016841F40031016015E01C980830F5
:1028D000002103F035FA8DF867000DE01C982830D0
:1028E000002103F019FB8DF8670005E004E003E028
:1028F00001208DF86700FFE79DF8670000280DD1E3
:10290000FFE744F25840C5F60200016821F0E0619B
:102910001C9AD2F8AC201143016004E09DF86700D6
:102920008DF86600FFE7FFE71C98C0788007002855
:1029300040D5FFE71C98C06C002812901ED0FFE71E
:102940001298102808D0FFE7129820280DD0FFE732
:102950001298302811D012E044F22C40C5F6020043
:10296000016841F4003101600DE01C98083002213B
:1029700003F0E6F98DF8670005E004E003E00120CC
:102980008DF86700FFE79DF8670000280CD1FFE78E
:1029900044F24C40C5F60200016821F030011C9A57
:1029A000D26C1143016004E09DF867008DF8660069
:1029B000FFE7FFE71C984078C006002850D5FFE7E6
:1029C0001C98006E0028119014D0FFE71198B0F504
:1029D000805F18D0FFE71198B0F5005F1BD0FFE7CC
:1029E0001198B0F5405F1ED0FFE71198B0F5804F09
:1029F0001AD01AE044F22C40C5F60200016841F4F6
:102A00000031016015E01C980830002103F098F9AE
:102A10008DF867000DE01C982830002103F07CFA47
:102A20008DF8670005E004E003E001208DF8670001
:102A3000FFE79DF8670000280CD1FFE744F2504003
:102A4000C5F60200016821F4E0411C9A126E1143A0
:102A5000016004E09DF867008DF86600FFE7FFE77E
:102A60001C984078800600284ED5FFE71C98406EE1
:102A70000028109019D0FFE71098B0F5803F15D0CE
:102A8000FFE71098B0F5003F18D0FFE71098B0F5B9
:102A9000403F1BD0FFE71098B0F5802F17D0FFE71D
:102AA0001098B0F5A02F13D013E016E01C98083052
:102AB000012103F045F98DF867000EE01C982830DD
:102AC000012103F029FA8DF8670006E005E004E033
:102AD00003E001208DF86700FFE79DF867000028FC
:102AE0000CD1FFE744F25040C5F60200016821F422
:102AF000E0211C9A526E1143016004E09DF86700CA
:102B00008DF86600FFE7FFE71C9840784006002834
:102B100050D5FFE71C98D0F8B00000280F9019D0CE
:102B2000FFE70F98B0F1805F15D0FFE70F98B0F185
:102B3000005F18D0FFE70F98B0F1405F1BD0FFE7B0
:102B40000F98B0F1804F17D0FFE70F98B0F1A04F6A
:102B500013D013E016E01C980830012103F0F0F8C0
:102B60008DF867000EE01C982830012103F0D4F99D
:102B70008DF8670006E005E004E003E001208DF831
:102B80006700FFE79DF8670000280DD1FFE744F2DA
:102B90005840C5F60200016821F0E0411C9AD2F8C5
:102BA000B0201143016004E09DF867008DF86600D5
:102BB000FFE7FFE71C984078000600283DD5FFE7B7
:102BC0001C98006F00280E901BD0FFE70E98B0F104
:102BD000805F05D0FFE70E98B0F1005F09D011E0EB
:102BE00044F22C40C5F60200016841F40031016056
:102BF0000CE01C980830012103F0A2F88DF8670062
:102C000004E003E001208DF86700FFE79DF867000E
:102C100000280CD1FFE744F25040C5F602000168DD
:102C200021F040511C9A126F1143016004E09DF89D
:102C300067008DF86600FFE7FFE71C98C078C007C3
:102C4000002838D0FFE71C98806C03280D9017D817
:102C50000D99DFE801F014020B1344F22C40C5F685
:102C60000200016841F4003101600DE01C98083059
:102C7000022103F065F88DF8670005E004E003E049
:102C800001208DF86700FFE79DF8670000280CD150
:102C9000FFE744F24C40C5F60200016821F0030151
:102CA0001C9A926C1143016004E09DF867008DF856
:102CB0006600FFE7FFE71C9880784006002840F197
:102CC000BD80FFE744F60000C5F60200016841F44C
:102CD00080710160FEF7ECFF1A90FFE744F60000F8
:102CE000C5F602000068C00500280ED4FFE7FEF715
:102CF000DFFFDDF868E0A0EB0E00652804D3FFE7F6
:102D000003208DF8670000E0E8E79DF867000028E1
:102D100040F08E80FFE744F27040C5F60200006884
:102D200000F440701C99D1F8B41001F4407188424D
:102D300013D0FFE744F27040C5F60200016821F4A9
:102D400040711B91016841F480310160016821F4F8
:102D5000803101601B990160FFE71C98D0F8B40036
:102D6000B0F5807F21D1FFE7FEF7A2FF1A90FFE7C1
:102D700044F27040C5F60200006800F00200002135
:102D8000B1EB500F10D1FFE7FEF792FFDDF868E0DE
:102D9000A0EB0E0041F2893E704504D3FFE703200B
:102DA0008DF8670000E0E3E7FFE79DF86700002883
:102DB00038D1FFE7FFE71C98D0F8B40000F440706A
:102DC000B0F5407F15D1FFE744F21040C5F6020090
:102DD000016821F47C511C9AD2F8B4204FF6F043DC
:102DE000C0F6FF731A4041EA12110A4601600C92C4
:102DF0000AE044F21040C5F60200016821F47C515B
:102E00000A4601600B92FFE71C98D0F8B4006FF3FC
:102E10001F3044F27041C5F602010A681043086091
:102E2000FFE704E09DF867008DF86600FFE704E027
:102E30009DF867008DF86600FFE7FFE71C980068C3
:102E4000C007002800F04D80FFE71C98C06F2828BD
:102E50000A902BD80A99DFE801F015292929292998
:102E6000292916292929292929291E2929292929F0
:102E700029292629292929292929272929292929C7
:102E80002929280016E01C980830012102F058FF7B
:102E90008DF867000EE01C982830012103F03CF803
:102EA0008DF8670006E005E004E003E001208DF8FE
:102EB0006700FFE79DF8670000280CD1FFE744F2A8
:102EC0005440C5F60200016821F038011C9AD26F07
:102ED0001143016004E09DF867008DF86600FFE78C
:102EE000FFE71C980078800700283AD5FFE71C9878
:102EF000806F0528099019D80999DFE801F00304CB
:102F00000C14151616E01C980830012102F018FF69
:102F10008DF867000EE01C982830012102F0FCFFBC
:102F20008DF8670006E005E004E003E001208DF87D
:102F30006700FFE79DF8670000280CD1FFE744F227
:102F40005440C5F60200016821F007011C9A926FF7
:102F50001143016004E09DF867008DF86600FFE70B
:102F6000FFE71C980078400700283CD5FFE71C9835
:102F7000D0F894000528089019D80899DFE801F0E6
:102F800003040C14151616E01C980830012102F0F9
:102F9000D7FE8DF867000EE01C982830012102F062
:102FA000BBFF8DF8670006E005E004E003E00120C8
:102FB0008DF86700FFE79DF8670000280DD1FFE757
:102FC00044F25840C5F60200016821F007011C9A3E
:102FD000D2F894201143016004E09DF867008DF859
:102FE0006600FFE7FFE71C9800788006002850D5B0
:102FF000FFE71C98D0F890000028079019D0FFE751
:103000000798B0F1805F15D0FFE70798B0F1005F37
:1030100018D0FFE70798B0F1405F1BD0FFE7079893
:10302000B0F1804F17D0FFE70798B0F1A04F13D051
:1030300013E016E01C980830002102F081FE8DF8A4
:1030400067000EE01C982830022102F065FF8DF821
:10305000670006E005E004E003E001208DF867006A
:10306000FFE79DF8670000280DD1FFE744F25440C8
:10307000C5F60200016821F0E0411C9AD2F89020C8
:103080001143016004E09DF867008DF86600FFE7DA
:10309000FFE71C9800784006002850D5FFE71C98F1
:1030A000D0F89C000028069019D0FFE70698B0F5EC
:1030B000806F15D0FFE70698B0F5006F18D0FFE7D6
:1030C0000698B0F5406F1BD0FFE70698B0F5805F1B
:1030D00017D0FFE70698B0F5A05F13D013E016E015
:1030E0001C980830002102F02BFE8DF867000EE0DE
:1030F0001C982830022102F00FFF8DF8670006E0CF
:1031000005E004E003E001208DF86700FFE79DF88B
:10311000670000280DD1FFE744F25840C5F60200D1
:10312000016821F4E0511C9AD2F89C2011430160FF
:1031300004E09DF867008DF86600FFE7FFE71C9844
:1031400000780006002850D5FFE71C98D0F8A000B2
:103150000028059019D0FFE70598B0F5005F15D05D
:10316000FFE70598B0F5804F18D0FFE70598B0F558
:10317000C04F1BD0FFE70598B0F5004F17D0FFE711
:103180000598B0F5204F13D013E016E01C980830D6
:10319000002102F0D5FD8DF867000EE01C98283064
:1031A000022102F0B9FE8DF8670006E005E004E0B8
:1031B00003E001208DF86700FFE79DF86700002815
:1031C0000DD1FFE744F25840C5F60200016821F432
:1031D00060411C9AD2F8A0201143016004E09DF8E0
:1031E00067008DF86600FFE7FFE71C98007800078E
:1031F000002821D5FFE71C98D0F88400B0F5805F47
:103200000DD1FFE71C982830022102F085FE00282E
:1032100004D0FFE701208DF86600FFE7FFE744F2E6
:103220005440C5F60200016821F440511C9AD2F8BE
:10323000842011430160FFE71C980078C006002835
:1032400021D5FFE71C98D0F89800B0F5807F0DD10C
:10325000FFE71C982830022102F05EFE002804D00F
:10326000FFE701208DF86600FFE7FFE744F25840D2
:10327000C5F60200016821F440711C9AD2F898202A
:1032800011430160FFE71C988078000700283ED5B5
:10329000FFE71C98D0F8A400002804900AD0FFE7AC
:1032A0000498B0F5803F0DD0FFE70498B0F5003FDB
:1032B00010D010E01C980830002102F041FD8DF87C
:1032C00067000CE01C982830022102F025FE8DF8E2
:1032D000670004E003E001208DF86700FFE79DF838
:1032E000670000280DD1FFE744F25840C5F6020000
:1032F000016821F440311C9AD2F8A42011430160E6
:1033000004E09DF867008DF86600FFE7FFE71C9872
:1033100080784007002840D5FFE71C98D0F8880047
:10332000B0F5801F03900AD0FFE70398B0F5001FA7
:103330000ED0FFE70398B0F5401F11D011E044F222
:103340002C40C5F60200016841F4003101600CE038
:103350001C982830012102F0DFFD8DF8670004E0A1
:1033600003E001208DF86700FFE79DF86700002863
:103370000DD1FFE744F25440C5F60200016821F484
:1033800040111C9AD2F888201143016004E09DF896
:1033900067008DF86600FFE7FFE71C988078C0079C
:1033A000002837D0FFE71C98006D0028029005D058
:1033B000FFE70298B0F5803F09D010E044F22C40BE
:1033C000C5F60200016841F4003101600BE01C9871
:1033D0000830022102F0B4FC8DF8670003E0012000
:1033E0008DF86700FFE79DF8670000280CD1FFE724
:1033F00044F24C40C5F60200016821F480311C9A69
:10340000126D1143016004E09DF867008DF86600BD
:10341000FFE7FFE71C98C078800600280DD5FFE77E
:103420001C982830022102F077FD002804D0FFE725
:1034300001208DF86600FFE7FFE71C988078800781
:1034400000283ED5FFE71C98D0F8800000280190A6
:103450001AD0FFE70198B0F5807F0AD0FFE7019806
:10346000B0F5007F0ED0FFE70198B0F5407F0AD09D
:103470000BE044F22C40C5F60200016841F4003133
:10348000016006E005E004E003E001208DF867003C
:10349000FFE79DF8670000280DD1FFE744F2544094
:1034A000C5F60200016821F440711C9AD2F8802010
:1034B0001143016004E09DF867008DF86600FFE7A6
:1034C000FFE71C988078C00600280CD5FFE744F27F
:1034D0005040C5F60200016821F000411C9A526F6D
:1034E00011430160FFE71C98C078C00600280DD585
:1034F000FFE744F21040C5F60200016821F4804164
:103500001C9AD2F8B82011430160FFE71C9880781C
:10351000800600280CD5FFE744F25040C5F60200B3
:10352000016821F080711C9AD26E11430160FFE79F
:103530001C98C0784006002811D5FFE7FFE744F249
:103540001040C5F60200016821F4004101601C9999
:10355000D1F8BC10026811430160FFE7FFE71C9837
:10356000C078000600280CD5FFE744F24C40C5F6B1
:103570000200016821F040511C9A526D1143016014
:10358000FFE71C988078000600280DD5FFE744F27D
:103590005440C5F60200016821F440011C9AD2F89B
:1035A0008C2011430160FFE71C980079C0070028B8
:1035B00013D0FFE71C980830002102F0C1FB8DF802
:1035C00067009DF86700002801D1FFE704E09DF83F
:1035D00067008DF86600FFE7FFE71C980079800719
:1035E000002813D5FFE71C980830012102F0A8FB42
:1035F0008DF867009DF86700002801D1FFE704E01F
:103600009DF867008DF86600FFE7FFE71C980079DA
:103610004007002813D5FFE71C980830022102F06C
:103620008FFB8DF867009DF86700002801D1FFE748
:1036300004E09DF867008DF86600FFE7FFE71C983F
:1036400000790007002813D5FFE71C9828300021D7
:1036500002F062FC8DF867009DF86700002801D138
:10366000FFE704E09DF867008DF86600FFE7FFE7DD
:103670001C980079C006002813D5FFE71C98283055
:10368000012102F049FC8DF867009DF867000028D1
:1036900001D1FFE704E09DF867008DF86600FFE7C1
:1036A000FFE71C9800798006002813D5FFE71C98D7
:1036B0002830022102F030FC8DF867009DF8670089
:1036C000002801D1FFE704E09DF867008DF866004F
:1036D000FFE7FFE79DF86600002804D1FFE7002020
:1036E0008DF8770003E001208DF87700FFE79DF863
:1036F00077001EB080BD000080B588B00A46034642
:1037000006900591069800280192009304D1FFE7E6
:1037100001208DF81F0040E2059842F20001C5F239
:103720000021096801F00F01884216D9FFE742F233
:103730000000C5F20020016821F00F01059A114335
:103740000160006800F00F000599884204D0FFE78F
:1037500001208DF81F0020E2FFE70698006840076F
:10376000002819D5FFE70698006944F21841C5F60C
:103770000201096801F0700188420CD9FFE744F2A8
:103780001840C5F60200016821F07001069A12691E
:1037900011430160FFE7FFE7069800680007002873
:1037A00019D5FFE70698406944F21C41C5F60201AD
:1037B000096801F0700188420CD9FFE744F21C400F
:1037C000C5F60200016821F07001069A52691143A2
:1037D0000160FFE7FFE706980068C006002819D5DA
:1037E000FFE70698806944F21C41C5F602010968AA
:1037F00001F4E06188420CD9FFE744F21C40C5F6B1
:103800000200016821F4E061069A926911430160A7
:10381000FFE7FFE7069800688006002819D5FFE754
:103820000698C06944F22041C5F60201096801F01A
:10383000700188420CD9FFE744F22040C5F602002F
:10384000016821F07001069AD26911430160FFE717
:10385000FFE7069800688007002819D5FFE706985B
:10386000C06844F21841C5F60201096801F00F0171
:1038700088420CD9FFE744F21840C5F602000168FF
:1038800021F00F01069AD26811430160FFE7FFE7BC
:1038900006980068C007002800F08E80FFE744F219
:1038A0001840C5F60200016821F47061069A92681A
:1038B0001143016006984068022811D1FFE744F2E5
:1038C0000040C5F60200006800F400300021B1EBB2
:1038D000504F04D1FFE701208DF81F005DE13EE06D
:1038E00006984068032811D1FFE744F20040C5F66E
:1038F0000200006800F000700021B1EB506F04D1AD
:10390000FFE701208DF81F0047E127E00698406897
:10391000012811D1FFE744F20040C5F6020000681B
:1039200000F480700021B1EB102F04D1FFE70120DB
:103930008DF81F0031E110E044F20040C5F60200AE
:10394000006800F004000021B1EB900F04D1FFE704
:1039500001208DF81F0020E1FFE7FFE7FFE744F2B9
:103960001040C5F60200016821F00701069A52686E
:1039700011430160FEF79CF90390FFE744F2104009
:10398000C5F60200006800F0380006994968B0EBFF
:10399000C10F10D0FFE7FEF78BF9DDF80CE0A0EBCC
:1039A0000E0041F2893E704504D3FFE703208DF8F5
:1039B0001F00F2E0E2E7FFE70698006880070028B2
:1039C00019D5FFE70698C06844F21841C5F6020110
:1039D000096801F00F0188420CD2FFE744F2184059
:1039E000C5F60200016821F00F01069AD268114362
:1039F0000160FFE7FFE7059842F20001C5F20021F0
:103A0000096801F00F01884216D2FFE742F2000078
:103A1000C5F20020016821F00F01059A11430160F1
:103A2000006800F00F000599884204D0FFE70120EC
:103A30008DF81F00B1E0FFE70698006840070028F6
:103A400019D5FFE70698006944F21841C5F602014E
:103A5000096801F0700188420CD2FFE744F2184077
:103A6000C5F60200016821F07001069A126911433F
:103A70000160FFE7FFE7069800680007002819D5F6
:103A8000FFE70698406944F21C41C5F60201096847
:103A900001F0700188420CD2FFE744F21C40C5F6E9
:103AA0000200016821F07001069A52691143016019
:103AB000FFE7FFE706980068C006002819D5FFE772
:103AC0000698806944F21C41C5F60201096801F4B8
:103AD000E06188420CD2FFE744F21C40C5F60200C8
:103AE000016821F4E061069A926911430160FFE7E1
:103AF000FFE7069800688006002819D5FFE70698BA
:103B0000C06944F22041C5F60201096801F0700164
:103B100088420CD2FFE744F22040C5F6020001685B
:103B200021F07001069AD26911430160FFE7FFE7B7
:103B300000F096F844F2184EC5F6020EDEF80010BA
:103B4000C1F3032148F68832C0F60002515C01F04F
:103B50001F01C84002900298DEF8001001F00F012A
:103B6000515C01F01F01C84040F20401C2F2004163
:103B70000860029840F20001C2F20041086040F281
:103B80000C00C2F200400068FEF7EEF88DF813005A
:103B90009DF813008DF81F00FFE79DF81F0008B087
:103BA00080BD00000000000080B582B000F058F831
:103BB00044F2184EC5F6020EDEF80010C1F30321E0
:103BC00048F68832C0F60002515C01F01F01C8407F
:103BD00001900198DEF8001001F00F01515C01F036
:103BE0001F01C84040F20401C2F200410860019880
:103BF00040F20002C2F200421060086802B080BDCC
:103C000080B5FFF7D1FF44F21C4EC5F6020EDEF878
:103C100000E0CEF3021E48F68831C0F6000111F82C
:103C20000E1001F01F01C84080BD00000000000020
:103C300080B5FFF7B9FF44F21C4EC5F6020EDEF860
:103C400000E0CEF3022E48F68831C0F6000111F8EC
:103C50000E1001F01F01C84080BD000000000000F0
:103C60008AB044F21040C5F60200006800F0380047
:103C700001461828019100F26C810199DFE811F0EA
:103C80001900690169016901690169016901690135
:103C90003B00690169016901690169016901690103
:103CA00041006901690169016901690169016901ED
:103CB000470044F20040C5F60200006800F0200012
:103CC0000021B1EB501F0FD0FFE744F20040C5F6D2
:103CD00002000068C0F3C10049F20001C0F2D03117
:103CE00021FA00F0029005E049F20000C0F2D03065
:103CF0000290FFE733E140F60010C0F23D00029071
:103D00002DE147F64000C0F27D10029027E144F219
:103D10002840C5F60200016801F00301089100681F
:103D2000C0F30510079044F22C40C5F6020000686D
:103D300000F001000690069844F23441C5F60201F5
:103D4000096889B2C908484300EE100AB8EE400A73
:103D50008DED040A0798002800F0F780FFE7089827
:103D60000028009009D0FFE7009801286AD0FFE7FB
:103D70000098022800F08A80ACE044F20040C5F6CA
:103D80000200006800F020000021B1EB501F34D089
:103D9000FFE744F20040C5F602000068C0F3C1002E
:103DA00049F20001C0F2D03121FA00F005909DEDFA
:103DB000050AB8EE400A9DED071AB8EE411A80EEEA
:103DC000010A44F23040C5F6020000686FF35F203C
:103DD00001EE100AB8EE411A9DED042A9FED623AF9
:103DE00082EE032A31EE021AB7EE002A31EE021AF1
:103DF00020EE010A8DED030A23E09DED070AB8EEDF
:103E0000400A9FED5B1A81EE000A44F23040C5F68D
:103E1000020000686FF35F2001EE100AB8EE411A4D
:103E20009DED042A9FED503A82EE032A31EE021AEC
:103E3000B7EE002A31EE021A20EE010A8DED030AD8
:103E4000FFE76BE09DED070AB8EE400A9FED471AC9
:103E500081EE000A44F23040C5F6020000686FF3BC
:103E60005F2001EE100AB8EE411A9DED042A9FED85
:103E70003E3A82EE032A31EE021AB7EE002A31EE04
:103E8000021A20EE010A8DED030A47E09DED070AB4
:103E9000B8EE400A9FED331A81EE000A44F230403A
:103EA000C5F6020000686FF35F2001EE100AB8EE5D
:103EB000411A9DED042A9FED2C3A82EE032A31EE41
:103EC000021AB7EE002A31EE021A20EE010A8DED39
:103ED000030A23E09DED070AB8EE400A9FED231A7E
:103EE00081EE000A44F23040C5F6020000686FF32C
:103EF0005F2001EE100AB8EE411A9DED042A9FEDF5
:103F00001A3A82EE032A31EE021AB7EE002A31EE97
:103F1000021A20EE010A8DED030AFFE744F2304059
:103F2000C5F60200006880B2012101EB5020099023
:103F30009DED030A9DED091AB8EE411A80EE010AC3
:103F4000BCEEC00A8DED020A02E000200290FFE7FD
:103F500005E040F60010C0F23D000290FFE7029835
:103F60000AB0704720BCBE4B000000460024744AD3
:103F70000024744C0000000080B58CB001460A900B
:103F80000A980028009105D1FFE701208DF82F0045
:103F900000F0C9BD0A980068C007002800F0C08082
:103FA000FFE744F21040C5F60200006800F0380058
:103FB000069044F22840C5F6020000680590069875
:103FC00010280AD0FFE7069818281DD1FFE70598AA
:103FD00000F00300022817D1FFE744F20040C5F6C5
:103FE0000200006800F400300021B1EB504F0AD00D
:103FF000FFE70A984068002805D1FFE701208DF807
:104000002F0000F090BD8AE0FFE70A984068B0F505
:10401000803F09D1FFE744F20040C5F60200016885
:1040200041F48031016033E00A98406800280DD1E6
:10403000FFE744F20040C5F60200016821F4803138
:104040000160016821F48021016020E00A98406845
:10405000B0F5A02F0DD1FFE744F20040C5F60200F5
:10406000016841F480210160016841F48031016000
:104070000CE044F20040C5F60200016821F48031F2
:104080000160016821F480210160FFE7FFE7FFE79D
:10409000FFE70A984068002820D0FFE7FDF708FEF8
:1040A0000990FFE744F20040C5F60200006800F402
:1040B00000300021B1EB504F0FD1FFE7FDF7F8FDC5
:1040C000DDF824E0A0EB0E00652805D3FFE7032010
:1040D0008DF82F0000F027BDE4E71FE0FDF7E8FDB5
:1040E0000990FFE744F20040C5F60200006800F4C2
:1040F00000300021B1EB504F0FD0FFE7FDF7D8FDA6
:10410000DDF824E0A0EB0E00652805D3FFE70320CF
:104110008DF82F0000F007BDE4E7FFE7FFE7FFE7BA
:104120000A9800688007002840F11E81FFE744F2EA
:104130001040C5F60200006800F03800049044F218
:104140002840C5F6020000680390049800280AD0B1
:10415000FFE7049818287BD1FFE79DF80C00800743
:10416000002875D1FFE744F20040C5F60200006860
:1041700000F004000021B1EB900F0AD0FFE70A988D
:10418000C068002805D1FFE701208DF82F0000F05E
:10419000CABC44F20040C5F60200016821F01901D2
:1041A0000A9AD26811430160FDF782FD0990FFE78A
:1041B00044F20040C5F60200006800F0040000214F
:1041C000B1EB900F0FD1FFE7FDF772FDDDF824E0B2
:1041D000A0EB0E00032805D3FFE703208DF82F0086
:1041E00000F0A1BCE4E7FFE7FDF75AFD41F2030E42
:1041F00070451DD8FFE70A98006940280AD1FFE7FB
:1042000044F20440C5F602000168202262F3113135
:1042100001600CE044F20440C5F60200016821F49C
:104220007C310A9A126941EA02310160FFE70CE031
:1042300044F20440C5F60200016821F0FE410A9AEA
:10424000126941EA02610160FFE7FFE7FFE78AE0E8
:104250000A98C06800285ED0FFE744F20040C5F627
:104260000200016821F019010A9AD2681143016025
:10427000FDF71EFD0990FFE744F20040C5F602007D
:10428000006800F004000021B1EB900F0FD1FFE7B0
:10429000FDF70EFDDDF824E0A0EB0E00032805D3AA
:1042A000FFE703208DF82F0000F03DBCE4E7FFE7B7
:1042B000FDF7F6FC41F2030E70451DD8FFE70A98A2
:1042C000006940280AD1FFE744F20440C5F6020025
:1042D0000168202262F3113101600CE044F20440D5
:1042E000C5F60200016821F47C310A9A126941EA9C
:1042F00002310160FFE70CE044F20440C5F6020021
:10430000016821F0FE410A9A126941EA02610160E6
:10431000FFE7FFE726E044F20040C5F6020001682F
:1043200021F001010160FDF7C3FC0990FFE744F2B1
:104330000040C5F60200006800F004000021B1EB67
:10434000900F0ED0FFE7FDF7B3FCDDF824E0A0EB03
:104350000E00032804D3FFE703208DF82F00E2E3CB
:10436000E5E7FFE7FFE7FFE70A980068C0060028D7
:1043700040F1EF80FFE744F21040C5F6020000680C
:1043800000F03800029044F22840C5F602000068B0
:104390000190029808280AD0FFE70298182850D107
:1043A000FFE7019800F0030001284AD1FFE744F23B
:1043B0000040C5F60200006800F480700021B1EBF7
:1043C000102F09D0FFE70A98C069802804D0FFE7C2
:1043D00001208DF82F00A6E3FFE7FDF761FC41F215
:1043E000030E70451DD8FFE70A98006A20280AD1FD
:1043F000FFE744F20440C5F602000168102262F3B0
:104400009E6101600CE044F20440C5F602000168C0
:1044100021F0F8410A9A126A41EA82610160FFE7DD
:104420000CE044F20C40C5F60200016821F07C511A
:104430000A9A126A41EA02610160FFE7FFE7FFE7BB
:1044400086E00A98C06900285AD0FFE744F200408D
:10445000C5F60200016841F080010160FDF728FC0B
:104460000990FFE744F20040C5F60200006800F43E
:1044700080700021B1EB102F0ED1FFE7FDF718FC83
:10448000DDF824E0A0EB0E00032804D3FFE70320AF
:104490008DF82F0047E3E5E7FFE7FDF701FC41F268
:1044A000030E70451DD8FFE70A98006A20280AD13C
:1044B000FFE744F20440C5F602000168102262F3EF
:1044C0009E6101600CE044F20440C5F60200016800
:1044D00021F0F8410A9A126A41EA82610160FFE71D
:1044E0000CE044F20C40C5F60200016821F07C515A
:1044F0000A9A126A41EA02610160FFE7FFE726E0DB
:1045000044F20040C5F60200016821F0800101601C
:10451000FDF7CEFB0990FFE744F20040C5F602002C
:10452000006800F480700021B1EB102F0ED0FFE77F
:10453000FDF7BEFBDDF824E0A0EB0E00032804D35A
:10454000FFE703208DF82F00EDE2E5E7FFE7FFE747
:10455000FFE70A9800680007002854D5FFE70A988B
:104560004069002827D0FFE744F27440C5F60200F6
:10457000016841F001010160FDF79AFB0990FFE736
:1045800044F27440C5F60200006800F00200002109
:10459000B1EB500F0ED1FFE7FDF78AFBDDF824E009
:1045A000A0EB0E00032804D3FFE703208DF82F00B3
:1045B000B9E2E5E726E044F27440C5F6020001687E
:1045C00021F001010160FDF773FB0990FFE744F260
:1045D0007440C5F60200006800F002000021B1EB53
:1045E000500F0ED0FFE7FDF763FBDDF824E0A0EBF2
:1045F0000E00032804D3FFE703208DF82F0092E27A
:10460000E5E7FFE7FFE70A9800688006002854D531
:10461000FFE70A988069002827D0FFE744F20040AE
:10462000C5F60200016841F480510160FDF740FBCE
:104630000990FFE744F20040C5F60200006800F46C
:1046400000500021B1EB503F0ED1FFE7FDF730FBEA
:10465000DDF824E0A0EB0E00032804D3FFE70320DD
:104660008DF82F005FE2E5E726E044F20040C5F652
:104670000200016821F480510160FDF719FB0990E7
:10468000FFE744F20040C5F60200006800F4005065
:104690000021B1EB503F0ED0FFE7FDF709FBDDF83D
:1046A00024E0A0EB0E00032804D3FFE703208DF8DD
:1046B0002F0038E2E5E7FFE7FFE70A9800684007C8
:1046C000002840F1AF80FFE744F60000C5F6020085
:1046D000016841F480710160FDF7EAFA0990FFE793
:1046E00044F60000C5F602000068C00500280ED49C
:1046F000FFE7FDF7DDFADDF824E0A0EB0E0065280A
:1047000004D3FFE703208DF82F000CE2E8E7FFE772
:104710000A988068012809D1FFE744F27040C5F685
:104720000200016841F00101016032E00A988068EE
:1047300000280DD1FFE744F27040C5F60200016881
:1047400021F001010160016821F0040101601FE016
:104750000A98806805280DD1FFE744F27040C5F63D
:104760000200016841F004010160016841F00101AB
:1047700001600CE044F27040C5F60200016821F0CF
:1047800001010160016821F004010160FFE7FFE71A
:10479000FFE7FFE70A988068002821D0FFE7FDF7D0
:1047A00087FA0990FFE744F27040C5F602000068FE
:1047B00000F002000021B1EB500F10D1FFE7FDF730
:1047C00077FADDF824E0A0EB0E0041F2893E704557
:1047D00004D3FFE703208DF82F00A4E1E3E720E0F6
:1047E000FDF766FA0990FFE744F27040C5F6020053
:1047F000006800F002000021B1EB500F10D0FFE77D
:10480000FDF756FADDF824E0A0EB0E0041F2893EF8
:10481000704504D3FFE703208DF82F0083E1E3E721
:10482000FFE7FFE70A98406A002800F07881FFE779
:1048300044F21040C5F60200006800F03800182865
:1048400000F0E480FFE70A98406A022840F0B68052
:10485000FFE744F20040C5F60200016821F08071D4
:104860000160FDF725FA0990FFE744F20040C5F624
:104870000200006800F000700021B1EB506F0ED014
:10488000FFE7FDF715FADDF824E0A0EB0E000328A2
:1048900004D3FFE703208DF82F0044E1E5E7FFE7AD
:1048A00044F22840C5F60200016840F2F332914319
:1048B0000A9A936AD26A43EA0212114301600A9883
:1048C000016B426B836BC06B01396FF35F214FF655
:1048D000006CCFF6FF7C0CEB422292B21144002216
:1048E000CFF6FF7202EB034202F4FE0211444FF0D6
:1048F0007F4202EB006000F0FE40084444F2304189
:10490000C5F602010860FFE744F22C40C5F602003C
:10491000016821F00101016044F23441C5F6020151
:104920000A684FF6F8739A430A9B9B6C42EAC302EB
:104930000A60016821F00C010A9A126C11430160AF
:10494000016821F002010A9A526C1143016001686A
:1049500041F480310160016841F400310160016877
:1049600041F480210160016841F00101016044F2DD
:104970000040C5F60200016841F080710160FDF75A
:1049800097F90990FFE744F20040C5F6020000687D
:1049900000F000700021B1EB506F0ED1FFE7FDF782
:1049A00087F9DDF824E0A0EB0E00032804D3FFE72D
:1049B00003208DF82F00B6E0E5E726E044F2004042
:1049C000C5F60200016821F080710160FDF770F901
:1049D0000990FFE744F20040C5F60200006800F0CD
:1049E00000700021B1EB506F0ED0FFE7FDF760F9CA
:1049F000DDF824E0A0EB0E00032804D3FFE703203A
:104A00008DF82F008FE0E5E7FFE787E044F22840CC
:104A1000C5F602000068089044F23040C5F6020076
:104A2000006807900A98406A012837D0FFE7089885
:104A300000F003000A99896A88422FD1FFE708989D
:104A400000F47C700A99C96AB1EB101F26D1FFE708
:104A500007986FF35F200A99096B013988421DD1CD
:104A6000FFE7BDF81C000A99496B0139B1EB502FE3
:104A700014D1FFE7079800F4FE000A99896B013909
:104A8000B1EB104F0AD1FFE7079800F0FE400A99FA
:104A9000C96B0139B1EB106F04D0FFE701208DF82D
:104AA0002F0040E044F23440C5F60200006880B2B6
:104AB000C00808900A98806C089988422CD0FFE7BB
:104AC00044F22C40C5F60200016821F001010160AA
:104AD000FDF7EEF80990FFE7FDF7EAF8DDF824E0CE
:104AE000A0EB0E00002801D1FFE7F5E744F23440C7
:104AF000C5F6020001684FF6F87291430A9A926C6B
:104B000041EAC201016044F22C40C5F6020001688E
:104B100041F001010160FFE7FFE7FFE7FFE7002049
:104B20008DF82F00FFE79DF82F000CB080BD00002E
:104B300080B582B0014601900198009101F0DCFA45
:104B400002B080BD0000000087B00A460346059011
:104B5000049101920093FFE7059890F83C0001282A
:104B600004D1FFE702208DF81B0099E00598012190
:104B700080F83C10FFE7FFE70598022180F83D1020
:104B80000598006840680390059800688068029066
:104B9000059800680021C4F20101884209D0FFE7AE
:104BA0000598006840F20041C4F2010188420AD130
:104BB000FFE7039820F4700003900498406803997D
:104BC00008430390FFE7039820F0700003900498D7
:104BD00000680399084303900398059909684860A1
:104BE000059800680021C4F2010188423CD0FFE72B
:104BF00005980068B0F1804F36D0FFE7059800684F
:104C000040F20041C4F2000188422DD0FFE7059830
:104C1000006840F60001C4F20001884224D0FFE79A
:104C20000598006840F60041C4F2000188421BD09C
:104C3000FFE70598006840F20041C4F20101884294
:104C400012D0FFE70598006841F60001C4F20001A8
:104C5000884209D0FFE70598006844F20001C4F2D9
:104C6000010188420ED1FFE7029820F080000290F7
:104C7000049880680299084302900298059909688F
:104C80008860FFE70598012180F83D10FFE705984F
:104C9000002180F83C10FFE700208DF81B00FFE7A3
:104CA0009DF81B0007B0704780B584B001460290A4
:104CB00002980028019104D1FFE701208DF80F0030
:104CC00049E0029890F83D00002808D1FFE70298DB
:104CD000002180F83C10029800F042F8FFE70298AB
:104CE000022180F83D10029850F8041B00900846FD
:104CF000009901F099FB0298012180F84810FFE724
:104D00000298012180F83E10029880F83F10029826
:104D100080F84010029880F84110029880F8421004
:104D2000029880F84310FFE7FFE70298012180F81E
:104D30004410029880F84510029880F846100298B6
:104D400080F84710FFE70298012180F83D1000200D
:104D50008DF80F00FFE79DF80F0004B080BD000044
:104D600084B0014603900398006841F20042C4F207
:104D700000029042019111D1FFE7FFE744F2E840C1
:104D8000C5F60200016841F020010160006800F0F2
:104D90002000029002980090FFE7FFE704B0704700
:104DA00084B0014602900091FFE7029890F88400D9
:104DB000012804D1FFE702208DF80F002CE00298B3
:104DC000012180F88410FFE7FFE702982421C0F852
:104DD00088100298006800680190029800680168D5
:104DE00021F001010160019820F00050019002982B
:104DF0000021416601980299096808600298202103
:104E0000C0F88810FFE70298002180F88410FFE7BF
:104E100000208DF80F00FFE79DF80F0004B07047E9
:104E200084B00A4603460390ADF80A10019200933D
:104E300004B070470000000082B00146019000916C
:104E400002B070470000000080B586B00A460346F5
:104E50000490039101920093FFE7049890F8840076
:104E6000012804D1FFE702208DF8170032E00498F2
:104E7000012180F88410FFE7FFE704982421C0F89F
:104E8000881004980068006802900498006801681F
:104E900021F00101016004980068806820F06060E2
:104EA00003990843049909688860049801F090FB0D
:104EB000029804990968086004982021C0F88810B5
:104EC000FFE70498002180F88410FFE700208DF8A8
:104ED0001700FFE79DF8170006B080BD0000000036
:104EE00080B586B00A460346049003910192009370
:104EF000FFE7049890F88400012804D1FFE702201E
:104F00008DF8170032E00498012180F88410FFE743
:104F1000FFE704982421C0F888100498006800680E
:104F2000029004980068016821F001010160049872
:104F30000068806820F0604003990843049909687C
:104F40008860049801F044FB02980499096808609D
:104F500004982021C0F88810FFE70498002180F809
:104F60008410FFE700208DF81700FFE79DF8170079
:104F700006B080BD0000000082B0014601900091A3
:104F800002B070470000000082B00146019000911D
:104F900002B070470000000082B00146019000910D
:104FA00002B070470000000080B594B00146139035
:104FB00013980068C06912901398006800681190F7
:104FC0001398006880681090129840F60F02104005
:104FD0000F900F98002803911DD1FFE79DF848001E
:104FE0008006002816D5FFE79DF8440080060028BB
:104FF00006D4FFE79DF84300C00600280AD5FFE766
:105000001398406F002804D0FFE71398416F88473A
:10501000FFE73AE3FFE70F98002800F01481FFE76D
:1050200010980121C1F20001084209D1FFE711984F
:1050300040F22011C0F20041084200F00481FFE775
:105040009DF84800C007002812D0FFE79DF84500F2
:10505000C00700280CD0FFE7139800680121016207
:105060001398D0F8901041F00101C0F89010FFE7BC
:105070009DF848008007002812D5FFE79DF8400002
:10508000C00700280CD0FFE71398006802210162D6
:105090001398D0F8901041F00401C0F89010FFE789
:1050A0009DF848004007002812D5FFE79DF8400012
:1050B000C00700280CD0FFE71398006804210162A4
:1050C0001398D0F8901041F00201C0F89010FFE75B
:1050D0009DF848000007002819D5FFE79DF8440017
:1050E0008006002807D4FFE710980121C1F20001D3
:1050F00008420CD0FFE7139800680821016213985A
:10510000D0F8901041F00801C0F89010FFE79DF82A
:1051100049000007002813D5FFE79DF84700400726
:1051200000280DD5FFE7139800684FF40061016275
:105130001398D0F8901041F02001C0F89010FFE7CC
:105140001398D0F8900000287CD0FFE79DF8480025
:105150008006002816D5FFE79DF844008006002849
:1051600006D4FFE79DF84300C00600280AD5FFE7F4
:105170001398406F002804D0FFE71398416F8847C9
:10518000FFE7FFE71398D0F890000E90139800689F
:10519000806800F04000402806D0FFE79DF8380006
:1051A00010F0280F44D0FFE7139801F0B5FB1398D7
:1051B000006880684006002835D5FFE7FFE7FFE775
:1051C0001398006850E8020F20F040000D90FFE7B0
:1051D0000D981399096841E80202002AF0D1FFE70F
:1051E000FFE71398D0F88000002817D0FFE7139846
:1051F000D0F8800046F6F101C0F600010165139871
:10520000D0F88000FBF7F8FF002806D0FFE71398DE
:10521000D0F88000016D8847FFE703E01398FFF79F
:10522000BBFEFFE703E01398FFF7B6FEFFE708E0D9
:105230001398FFF7B1FE13984FF0000EC0F890E0FE
:10524000FFE7FFE721E21398C06E012840F0BC8120
:10525000FFE79DF84800C006002840F1B581FFE750
:105260009DF84400C006002840F1AE81FFE7139886
:1052700000681021016213980068806840060028C9
:1052800040F14081FFE71398D0F8800000681021BA
:10529000C4F20201884200F0A280FFE71398D0F820
:1052A000800000682821C4F20201884200F0978043
:1052B000FFE71398D0F8800000684021C4F2020193
:1052C000884200F08C80FFE71398D0F880000068D7
:1052D0005821C4F20201884200F08180FFE7139850
:1052E000D0F8800000687021C4F20201884276D0B4
:1052F000FFE71398D0F8800000688821C4F202010B
:1053000088426CD0FFE71398D0F880000068A02195
:10531000C4F20201884262D0FFE71398D0F88000FF
:105320000068B821C4F20201884258D0FFE7139800
:10533000D0F88000006840F21041C4F202018842B7
:105340004DD0FFE71398D0F88000006840F2284164
:10535000C4F20201884242D0FFE71398D0F88000DF
:10536000006840F24041C4F20201884237D0FFE7B2
:105370001398D0F88000006840F25841C4F202014E
:1053800088422CD0FFE71398D0F88000006840F2E4
:105390007041C4F20201884221D0FFE71398D0F88F
:1053A0008000006840F28841C4F20201884216D0B1
:1053B000FFE71398D0F88000006840F2A041C4F2E3
:1053C000020188420BD0FFE71398D0F880000068F4
:1053D00040F2B841C4F20201884207D1FFE71398B6
:1053E000D0F8800000684068029006E01398D0F87A
:1053F0008000006840680290FFE70298ADF8320034
:10540000BDF8320000287CD0FFE7BDF832001399C8
:10541000B1F85C10884274DAFFE7BDF832001399E6
:10542000A1F85E001398D0F88000C069B0F5807FC5
:105430005AD0FFE7FFE7FFE71398006850E8000F36
:1054400020F480700B90FFE70B981399096841E8EE
:105450000002002AF0D1FFE7FFE7FFE7FFE713981C
:10546000006850E8020F20F001000A90FFE70A9858
:105470001399096841E80202002AF0D1FFE7FFE72B
:10548000FFE7FFE71398006850E8020F20F04000A4
:105490000990FFE709981399096841E80202002A78
:1054A000F0D1FFE7FFE713982021C0F88C10139884
:1054B0000021C166FFE7FFE71398006850E8000F7E
:1054C00020F010000890FFE708981399096841E858
:1054D0000002002AF0D1FFE7FFE71398D0F8800020
:1054E000FBF7BAF90190FFE71398022101671398BF
:1054F000B0F85C10B0F85E20891A89B2FFF790FC12
:10550000FFE7C2E01398B0F85C10B0F85E00081A2C
:10551000ADF81E001398B0F85E00002853D0FFE7E6
:10552000BDF81E0000284ED0FFE7FFE7FFE7139805
:10553000006850E8000F20F490700690FFE706988E
:105540001399096841E80002002AF0D1FFE7FFE75C
:10555000FFE7FFE71398006850E8020F4FF6FE716F
:10556000CEF6FF7108400590FFE70598139909688A
:1055700041E80202002AEDD1FFE7FFE7139820215E
:10558000C0F88C1013980021C16613984167FFE79B
:10559000FFE71398006850E8000F20F01000049017
:1055A000FFE704981399096841E80002002AF0D146
:1055B000FFE7FFE71398022101671398BDF81E105B
:1055C000FFF72EFCFFE760E09DF84A00C0060028C8
:1055D0000FD5FFE79DF842004006002809D5FFE7F8
:1055E000139800684FF4801101621398FFF7CCFC08
:1055F0004BE09DF848000006002816D5FFE79DF80F
:1056000044000006002806D4FFE79DF8420000068B
:1056100000280AD5FFE71398806F002804D0FFE721
:105620001398816F8847FFE72FE09DF848004006F8
:1056300000280AD5FFE79DF844004006002804D55D
:10564000FFE7139801F0BCF91FE09DF84A0000063F
:1056500000280AD5FFE79DF847004006002804D53A
:10566000FFE71398FFF788FC0FE09DF84B00C00799
:1056700000280AD0FFE79DF847000006002804D55F
:10568000FFE71398FFF7D8FBFFE714B080BD0000D9
:1056900080B584B00146029002980028019104D19F
:1056A000FFE701208DF80F0049E00298806900288B
:1056B00001D0FFE700E0FFE70298D0F8880000285B
:1056C00008D1FFE70298002180F88410029800F0CA
:1056D0003BF8FFE702982421C0F888100298006880
:1056E000016821F001010160029801F031FE0128FA
:1056F00004D1FFE701208DF80F0020E00298806AB6
:10570000002804D0FFE7029800F0AAFFFFE7029804
:105710000068416821F49041416002980068816806
:1057200021F02A01816002980068016841F00101BE
:105730000160029801F034F88DF80F00FFE79DF842
:105740000F0004B080BD000080B5BEB001463D90A2
:1057500000203C903B903A903990389008A8C022A5
:1057600005911146FAF7ECFD3D98006841F2000101
:10577000C4F2010188424CD1FFE7002009900121C9
:105780000891279008A8FCF72BFF002803D0FFE71B
:10579000FBF75AF8FFE7FFE744F2F040C5F60200D6
:1057A000016841F010010160006800F010000790EE
:1057B00007980490FFE7FFE744F2E040C5F60200D7
:1057C000016841F002010160006800F002000690EB
:1057D00006980390FFE74FF440403890022039903C
:1057E00000203A903B9004213C9140F20041C5F6E4
:1057F000020138AA029008461146FCF761F82520FC
:1058000001900299029AFCF793FB0198FCF784FB44
:10581000FFE73EB080BD000080B588B013468C46DF
:10582000864606900591ADF812200698D0F88C00B7
:1058300020280293CDF804C0CDF800E03ED1FFE768
:105840000598002805D0FFE7BDF81200002804D114
:10585000FFE701208DF81F0034E006980021C166A3
:105860000698006840F60041C5F6000188421CD049
:10587000FFE70698006840680002002814D5FFE79B
:10588000FFE7FFE70698006850E8000F40F08060EF
:105890000390FFE703980699096841E80002002A8F
:1058A000F0D1FFE7FFE7FFE7FFE706980599BDF8AE
:1058B000122002F0EDF98DF81F0003E002208DF8B0
:1058C0001F00FFE79DF81F0008B080BD000000002A
:1058D00082B001460190009102B0704700000000C4
:1058E000B0B58EB09C4696460C4605460C900B9182
:1058F000ADF82A2009930C98D0F888002028CDF81C
:1059000014C0CDF810E00394029540F08E80FFE7BC
:105910000B98002805D0FFE7BDF82A00002804D125
:10592000FFE701208DF8370083E00C980021C0F8D4
:1059300090100C982121C0F88810FCF7B9F9069056
:10594000BDF82A000C99A1F85400BDF82A000C9962
:10595000A1F856000C988068B0F5805F0AD1FFE787
:105960000C980069002805D1FFE7002008900B98EB
:10597000079004E00B98089000200790FFE7FFE7EE
:105980000C98B0F85600002833D0FFE70C98069B1F
:1059900009996A4611608021002202F09DFA0028D0
:1059A00008D0FFE70C982021C0F8881003208DF85C
:1059B00037003EE0089800280BD1FFE707980088E1
:1059C0006FF35F200C99096888620798023007908E
:1059D00008E0089800780C990968886208980130F6
:1059E0000890FFE70C98B0F856100139A0F856104F
:1059F000C6E70C98069B09996A461160402100226F
:105A000002F06AFA002808D0FFE70C982021C0F8BD
:105A1000881003208DF837000BE00C982021C0F887
:105A2000881000208DF8370003E002208DF8370041
:105A3000FFE79DF837000EB0B0BD00000000000089
:105A400082B001460190009102B070470000000052
:105A5000FFE7FEE70000000080B58AB00020099053
:105A60000890079006900590FCF712FA01208DF837
:105A70001800DDF814E08DF819E04FF0105107918F
:105A800012218DF820108DF821E08DF822000321DD
:105A90008DF823108DF824E08DF825E08DF8260090
:105AA0008DF8270006AA0490104603920291FCF795
:105AB000A3F904988DF819004FF040510791102177
:105AC0008DF8201005998DF826108DF82710039871
:105AD000FCF792F902208DF819000020C3F20200B1
