:020000040800F2
:10000000581A00206D040008ED010008EF010008F7
:10001000F9010008FB010008FD01000800000000D4
:10002000000000000000000000000000FF010008C8
:100030000102000800000000030200080502000899
:100040008704000887040008870400088704000864
:100050008704000887040008870400088704000854
:100060008704000887040008870400088704000844
:100070008704000887040008870400088704000834
:100080008704000887040008870400088704000824
:100090008704000887040008870400088704000814
:1000A0008704000887040008870400088704000804
:1000B0008704000807020008870400088704000876
:1000C00087040008870400088704000887040008E4
:1000D00087040008612300088704000887040008DB
:1000E00087040008870400088704000800F002F86D
:1000F00000F06AF80AA090E8000C82448344AAF158
:100100000107DA4501D100F05FF8AFF2090EBAE855
:100110000F0013F0010F18BFFB1A43F0010318473B
:10012000AC7D0000CC7D00000A444FF0000C10F8BC
:10013000013B13F0070408BF10F8014B1D1108BF65
:1001400010F8015B641E05D010F8016B641E01F805
:10015000016BF9D113F0080F1EBF10F8014BAD1C55
:100160000C1B09D16D1E58BF01F801CBFAD505E073
:1001700014F8016B01F8016B6D1EF9D59142D6D3CD
:10018000704700000023002400250026103A28BFF5
:1001900078C1FBD8520728BF30C148BF0B607047F9
:1001A000662906F0A087782903F0EC8700207047C5
:1001B0001FB504F057FB04000020002105F0B2FE3B
:1001C000E0601FBD10B510BD04F054FC1146FFF7F0
:1001D000EFFF02F027F904F072FC03B4FFF7F2FF1F
:1001E00003BC02F059F8000030BF000070471AA0AD
:1001F00003F080FF00BFFEE770477047704770470D
:1002000070477047704710B501211A4801F036FE5B
:1002100019480068401C184908601848006828B14F
:1002200017480068401C1649086002E00020144985
:10023000086014480088401C12490880084600885D
:100240000A2807D110480068401C0F4908600020A8
:100250000C49088010BD00000D0A486172644661B7
:10026000756C745F48616E646C6572204552524FC4
:10027000520D0A0000040040E802002000030020A4
:10028000F402002000000020040000200CB5002033
:10029000019000906C48006840F480306A49086022
:1002A00000BF6948006800F4003000900198401CCD
:1002B0000190009818B90198B0F5A06FF1D162488B
:1002C000006800F4003010B10120009001E000202F
:1002D00000900098012843D15C48006840F010006D
:1002E0005A4908600846006820F003000860084684
:1002F000006840F002000860534840685249486076
:100300000846406848600846406840F4806048609D
:100310000846406820F47C1048600846406840F475
:10032000E81048600846006840F08070086000BF30
:100330004548006800F000700028F9D04248406845
:1003400020F00300404948600846406840F0020041
:10035000486000BF3C48406800F00C000828F9D114
:100360000CBD10B5FFF792FF10BD10B53648006800
:1003700040F00100344908600846406834490840AC
:100380003149486008460068324908402E490860F3
:100390000846006820F4802008600846406820F481
:1003A000FE0048604FF41F008860FFF7DAFF4FF04F
:1003B00000602949086010BD10B50021002000220E
:1003C000214B5B6803F00C0121B1042906D00829F8
:1003D00028D107E0214B224C236027E01F4B204C03
:1003E000236023E0184B5B6803F47010164B5B68C6
:1003F00003F48032022303EB904022B9194B4343AC
:10040000174C23600DE0104B5B6803F4003323B1FD
:10041000144B4343124C236003E0104B4343104CF6
:10042000236003E00D4B0E4C236000BF00BF064B62
:100430005B68C3F303130C4CE15C094B1B68CB40B6
:10044000074C236010BD0000001002400020024055
:100450000000FFF8FFFFF6FE08ED00E000127A0052
:100460000800002000093D000C00002009488047DA
:1004700009480047FEE7FEE7FEE7FEE7FEE7FEE786
:10048000FEE7FEE7FEE7FEE704480549054A064B9E
:10049000704700006B030008ED00000858140020AE
:1004A000581A0020581600205816002031490143E0
:1004B000314A1160704770B5002100230F22C478C3
:1004C00004B32D4C246804F4E064C4F5E064210A0C
:1004D000C1F10403CA40447804FA03F1847814405B
:1004E00021430901254C0678A155047804F01F0525
:1004F0000124AC4005786D11AD0005F1E025C5F88B
:10050000004109E0047804F01F050124AC401C4DB3
:100510000678761145F8264070BD1A4A0A40024313
:10052000154B1B1F1A60704739B1134A121D126810
:100530000243114B1B1D1A6006E00F4A121D126880
:1005400082430D4B1B1D1A607047042808D14FF0E1
:10055000E021096941F004014FF0E022116107E058
:100560004FF0E021096921F004014FF0E022116110
:10057000704700000000FA050CED00E000E400E028
:1005800080E100E080FFFF1F10B50446CC488442A4
:1005900008D10121042000F02DFB0021042000F0EF
:1005A00029FB46E0C748844208D10121082000F019
:1005B00021FB0021082000F01DFB3AE0C2488442E4
:1005C00008D10121102000F015FB0021102000F0BF
:1005D00011FB2EE0BD48844208D10121202000F00B
:1005E00009FB0021202000F005FB22E0B8488442EE
:1005F00008D10121402000F0FDFA0021402000F048
:10060000F9FA16E0B348844208D10121802000F0B5
:10061000F1FA0021802000F0EDFA0AE0AE488442B1
:1006200007D10121801500F0E5FA0021A01500F0A6
:10063000E1FA10BD10B50121084600F0DBFA0021F7
:10064000012000F0D7FA10BD2DE9F0410246002547
:100650000026002000230024002791F803C00CF09E
:100660000F0591F803C00CF0100CBCF1000F03D083
:1006700091F802C04CEA050591F800C0BCF1000FEA
:1006800031D0146800202BE04FF0010C0CFA00F37D
:10069000B1F800C00CEA03069E4220D183004FF05F
:1006A0000F0C0CFA03F7BC4305FA03FC4CEA0404F4
:1006B00091F803C0BCF1280F06D14FF0010C0CFAE1
:1006C00000FCC2F814C00AE091F803C0BCF1480F66
:1006D00005D14FF0010C0CFA00FCC2F810C0401C10
:1006E0000828D1D31460B1F800C0BCF1FF0F34DD8D
:1006F000546800202EE000F1080C4FF0010808FAC1
:100700000CF3B1F800C00CEA03069E4221D183002D
:100710004FF00F0C0CFA03F7BC4305FA03FC4CEA4C
:10072000040491F803C0BCF1280F05D100F1080CB6
:1007300008FA0CF8C2F8148091F803C0BCF1480F15
:1007400007D100F1080C4FF0010808FA0CF8C2F8C4
:100750001080401C0828CED35460BDE8F0814FF6CD
:10076000FF710180022181700421C170704702462F
:10077000002093680B400BB1012000E0002070477F
:100780000146886880B2704702460020D3680B405B
:100790000BB1012000E0002070470146C86880B21C
:1007A000704701617047416170470AB1016100E023
:1007B00041617047C16070474FF480320A438261E3
:1007C0008161826182698269704702460020434BE1
:1007D00018684FF68073184040EA021008433F4BF8
:1007E000186070473E49C8617047F0B50A4600235B
:1007F00000240021002500F00046B6F1004F02D190
:10080000364EF16901E0354E7168C0F3034583B29D
:1008100000F44016B6F5401F08D121F070612F4E4C
:10082000766826F070662D4F7E6012E000F4801628
:10083000B6F5801F06D1032606FA05F4A14341F060
:10084000706106E0460D360103FA06F6B14341F049
:10085000706122B1460D360103FA06F6314300F00D
:100860000046B6F1004F02D11C4EF16101E01B4E73
:100870007160F0BD30B500228B071C0F0F2303FA07
:1008800004F2164B08338C1053F824309343134C66
:1008900008348D1044F8253023468C1053F824304A
:1008A0008C07240F00FA04F423430C4C08348D10F9
:1008B00044F8253030BD0A49DC310860704700003B
:1008C00000080140000C01400010014000140140EC
:1008D00000180140001C01400020014000000140C0
:1008E00000002042DF48006840F00100DD49086058
:1008F00008464068DC490840DA4948600846006814
:10090000DA490840D74908600846006820F480208A
:1009100008600846406820F4FE0048604FF41F005D
:1009200088607047CF49096821F48031CD4A116051
:100930001146096821F480211160B0F5803F03D091
:10094000B0F5802F0ED106E0C649096841F4803128
:10095000C44A116007E0C349096841F4A021C14AB3
:10096000116000E000BF00BF704710B501460022D3
:10097000002300204A11012A02D1BA4C236806E064
:10098000022A02D1B74C236A01E0B64C636A01F037
:100990001F02012494401C400CB1012000E0002003
:1009A00010BD38B5002000900024002500BF312084
:1009B000FFF7DBFF05460098401C00900098B0F55B
:1009C000A06F01D0002DF2D03120FFF7CEFF08B18B
:1009D000012400E00024204638BD01460020A14A41
:1009E000106820F0F80040EAC10010607047A0498C
:1009F00008607047024600209A4B586820F47C102B
:100A000042EA01031843974B5860704798490866BB
:100A1000704701460020934A506820F003000843C5
:100A2000506070478F48406800F00C0070470146E6
:100A300000208C4A506820F0F00008435060704756
:100A400001460020874A506820F4E0600843506067
:100A5000704701460020834A506820F4605040EA05
:100A6000C1005060704729B17E4A527A02437D4BE3
:100A70005A7204E07B4A527A82437A4B5A72704728
:100A80007B49D8310860704701460020754A50689C
:100A900020F440400843506070470021714A2032E2
:100AA0001170704A82F82010012802D004280AD15F
:100AB00004E001216B4A2032117005E00521694AEA
:100AC0002032117000E000BF00BF70476949086024
:100AD00070476449096A0143624A11627047654977
:100AE00044390860704730B50021002200240023FB
:100AF0005C4D6D6805F00C0121B1042905D0082971
:100B000023D105E05C4D056022E05B4D05601FE0F0
:100B1000544D6D6805F47012524D6D6805F48034C3
:100B2000022505EB92421CB9544D554305600BE07C
:100B30004C4D6D6805F400351DB1504D55430560B1
:100B400002E04D4D5543056002E04B4D056000BF8E
:100B500000BF444D6D6805F0F0010909484D6B5C1C
:100B60000568DD4045603F4D6D6805F4E061090AA8
:100B7000434D6B5C4568DD4085603A4D6D6805F41A
:100B80006051C90A3E4D6B5C4568DD40C560354D1E
:100B90006D6805F44041890B3A4D6B5CC568B5FB47
:100BA000F3F5056130BD29B12E4A526902432D4B40
:100BB0005A6104E02B4A526982432A4B5A617047BA
:100BC00029B1284A92690243264B9A6104E0254ADA
:100BD00092698243234B9A61704729B1214AD269B5
:100BE0000243204BDA6104E01E4AD26982431D4B66
:100BF000DA61704729B11B4AD2680243194BDA60A7
:100C000004E0184AD2688243164BDA60704729B173
:100C1000144A12690243134B1A6104E0114A126923
:100C20008243104B1A61704712494039086070477F
:100C30000F49C86470470B49C87170470948406A3A
:100C400040F0807007494862704701460020054A1D
:100C500092680A400AB1012000E000207047014973
:100C600088727047001002400000FFF8FFFFF6FE98
:100C7000000042428004424200127A0000093D0016
:100C80001C0000202C00002010B50446FB488442C4
:100C900009D101218803FFF7ADFF00214FF4804007
:100CA000FFF7A8FF32E0F648844209D10121480449
:100CB000FFF7ADFF00214FF40030FFF7A8FF25E05C
:100CC000F048844209D101218804FFF7A0FF0021E8
:100CD0004FF48020FFF79BFF18E0EB48844209D1D6
:100CE0000121C804FFF793FF00214FF40020FFF714
:100CF0008EFF0BE0E548844208D101210805FFF78B
:100D000086FF00214FF48010FFF781FF10BD2DE911
:100D1000F04786B005460E460024A24600BFA14615
:100D20000027B08900B100BF2F462C8A4CF6FF7017
:100D30000440F08804432C82AC894EF6F310044042
:100D4000B08831890843718908430443AC81AC8A77
:100D50004FF6FF400440B0890443AC8201A8FFF77E
:100D6000C2FEC648874202D1DDF810A001E0DDF8DE
:100D70000CA0A88900F4004040B10AEBCA0000EBC7
:100D80000A1031684900B0FBF1F807E00AEBCA002D
:100D900000EB0A1031688900B0FBF1F86420B8FB61
:100DA000F0F004012009642101FB1089A88900F4F6
:100DB000004040B1322000EBC900B0FBF1F000F080
:100DC0000700044308E0322000EB09106421B0FB67
:100DD000F1F000F00F0004432C8106B0BDE8F0876D
:100DE0004FF41651016000218180C18001810C21E6
:100DF000418100218181704710B502460020108A90
:100E00004FF2FF0318400B884C8823438C88234300
:100E1000CC8823431843108210BD002101804180FB
:100E20008180C180704721B1828942F40052828161
:100E300004E082894DF6FF731A4082817047F0B555
:100E40000346002400260025002040F66A17B94218
:100E500000D100BF1846C1F3421401F01F0601275C
:100E600007FA06F5012C01D10C3004E0022C01D167
:100E7000103000E014301AB107682F43076002E019
:100E80000768AF430760F0BD1AB1838A0B438382C2
:100E900002E0838A8B4383827047028A4FF6F073A5
:100EA0001A400282028A0A430282704782894FF204
:100EB000FF731A40828182890A438281704721B17F
:100EC000828942F00202828104E082894FF6FD733A
:100ED0001A4082817047028A4FF6DF731A400282FD
:100EE000028A0A430282704721B1028A42F4804298
:100EF000028204E0028A4BF6FF731A4002827047B6
:100F0000C1F308028280704701468888C0F3080058
:100F10007047818941F0010181817047028BD2B213
:100F20000283028B42EA012202837047028B02F4A1
:100F30007F420283028B0A430283704721B1828A77
:100F400042F02002828204E0828A4FF6DF731A4068
:100F50008282704721B1828A42F01002828204E0CC
:100F6000828A4FF6EF731A408282704721B1828ADB
:100F700042F00802828204E0828A4FF6F7731A4038
:100F80008282704721B1828942F40042828103E06B
:100F90008289C2F30E028281704721B1828A42F4B3
:100FA0000062828204E0828A4FF2FF731A408282DA
:100FB0007047828A4FF6FB731A408282828A0A4304
:100FC0008282704721B1828A42F00202828204E06A
:100FD000828A4FF6FD731A408282704702460020D3
:100FE000B1F5007F00D100BF13880B400BB1012089
:100FF00000E00020704701F40072B2F5007F00D1DC
:1010000000BFCA430280704770B502460024002327
:101010000025002040F66A16B14200D100BFC1F39E
:10102000421501F01F03012606FA03F3012D02D138
:101030009689334006E0022D02D1168A334001E042
:10104000968A33400C12012606FA04F416883440BE
:1010500013B10CB1012000E0002070BD10B50022DA
:10106000002340F66A14A14200D100BF0A120124F5
:101070009440A3B2DC43048010BD0000003801405E
:101080000044004000480040004C00400050004038
:1010900010B50446FE48844208D10121C014FFF770
:1010A000A9FD0021E014FFF7A5FDC4E0B4F1804FD5
:1010B00008D101210846FFF7AAFD00210120FFF712
:1010C000A6FDB8E0F348844208D101210220FFF7D1
:1010D0009EFD00210220FFF79AFDACE0EE4884421D
:1010E00008D101210420FFF792FD00210420FFF721
:1010F0008EFDA0E0E948844208D101210820FFF7D5
:1011000086FD00210820FFF782FD94E0E448844238
:1011100008D101211020FFF77AFD00211020FFF7F0
:1011200076FD88E0DF48844208D101212020FFF7C6
:101130006EFD00212020FFF76AFD7CE0DA48844242
:1011400008D101214014FFF755FD00216014FFF77D
:1011500051FD70E0D548844209D10121C804FFF750
:1011600049FD00214FF40020FFF744FD63E0D04823
:10117000844209D101210805FFF73CFD00214FF40D
:101180008010FFF737FD56E0CA48844209D101219B
:101190004805FFF72FFD00214FF40010FFF72AFD4F
:1011A00049E0C548844208D101214020FFF72FFDC6
:1011B00000214020FFF72BFD3DE0C048844208D1CC
:1011C00001218020FFF723FD00218020FFF71FFD74
:1011D00031E0BB48844208D101218015FFF717FD9B
:1011E0000021A015FFF713FD25E0B648844209D180
:1011F00001210804FFF7FEFC00214FF48030FFF7C7
:10120000F9FC18E0B048844209D101214804FFF7F5
:10121000F1FC00214FF40030FFF7ECFC0BE0AB4891
:10122000844208D101218804FFF7E4FC00214FF437
:101230008020FFF7DFFC10BD00220288944B98420B
:101240000ED0994B98420BD0B0F1804F08D0914B03
:10125000984205D0904B984202D0904B984204D1CE
:101260004FF68F731A404B881A438D4B984207D024
:101270008C4B984204D04FF6FF431A40CB881A4358
:1012800002808B8883850B880385814B98420BD025
:10129000854B984208D08B4B984205D08A4B984298
:1012A00002D08A4B984201D10B7A038601238382B4
:1012B000704770B5002400220023058C4FF6FE769F
:1012C00035400584028C8388048B4FF68F752C4043
:1012D000B51E2C400D882C43751E2A400D892A43CB
:1012E0004D882A436A4DA8420BD06F4DA84208D0C2
:1012F000744DA84205D0744DA84202D0734DA84247
:1013000013D14FF6F7752A404D892A434FF6FB75E6
:101310002A408D882A434FF6FF652B404FF6FF5534
:101320002B408D892B43CD892B4383800483CD882B
:101330008586028470BD70B5002400220023058CD0
:101340004FF6EF7635400584028C8388048B48F68F
:10135000FF752C404FF6FF452C400D884FF6FF7669
:1013600006EA05252C434FF6DF752A400D8906EA6B
:1013700005152A434D8806EA05152A43444DA8421F
:1013800002D0494DA8421DD14FF67F752A404D89A4
:101390004FF6FF7606EA05152A434FF6BF752A4039
:1013A0008D8806EA05152A434FF6FF352B404FF28C
:1013B000FF752B408D8906EA85052B43CD8906EA0A
:1013C00085052B4383800483CD880587028470BD07
:1013D00070B5002400220023058C4FF6FF663540CF
:1013E0000584028C8388848B4FF68F752C404FF6D2
:1013F000FC752C400D882C434FF6FF552A400D8973
:101400004FF6FF7606EA05252A434D8806EA0525AC
:101410002A431F4DA84202D0234DA8421DD14FF2AE
:10142000FF752A404D894FF6FF7606EA05252A43C7
:101430004FF6FF352A408D8806EA05252A434EF6E9
:10144000FF752B404DF6FF752B408D8906EA05157B
:101450002B43CD8906EA05152B4383808483CD88F1
:101460008587028470BD70B5002200230024058C9E
:101470004EF6FF7635400584038C8488828B48F6CF
:10148000FF752A404FF6FF452A400D8820E00000F6
:10149000002C01400004004000080040000C004007
:1014A000001000400014004000340140004C014096
:1014B000005001400054014000180040001C004052
:1014C000002000400040014000440140004801402D
:1014D0004FF6FF7606EA05252A434DF6FF752B40A9
:1014E0000D8906EA05352B434D8806EA05352B4361
:1014F000FA4DA84202D0FA4DA84208D14BF6FF752A
:101500002C408D894FF6FF7606EA85152C438480A2
:101510008283CD88A0F84050038470BD828B4FF247
:10152000FF331A408283828B4FF6FF7303EA012355
:101530001A4382837047F0B50C46154600220021FD
:101540000026078C4EF6FF7C07EA0C070784828B87
:10155000018C4FF6FF7707EA043640F6FF473A4022
:101560004FF6FF7707EA05273A434FF6FF7707EA7A
:1015700003373A43D94FB8420ED0D94FB8420BD0B7
:10158000B0F1804F08D0D74FB84205D0D64FB842FF
:1015900002D0D64FB84206D14DF6FF77394046F417
:1015A0008057394305E047F6FF57394044F48057E8
:1015B000394382830184F0BD828B4FF6F3731A4066
:1015C0008283828B0A4382837047F0B50C461546AE
:1015D000002200210026078C4FF6FF6C07EA0C075B
:1015E0000784828B018C4FF6FF7707EA04264FF6BB
:1015F0000C773A404FF6FF7707EA03172F433A4339
:10160000B64FB8420ED0B64FB8420BD0B0F1804FB3
:1016100008D0B44FB84205D0B34FB84202D0B34F50
:10162000B84206D14FF6FF57394046F48077394328
:1016300005E04FF2FF57394044F480773943828305
:101640000184F0BD028B4FF2FF331A400283028BFC
:101650004FF6FF7303EA01231A4302837047F0B584
:101660000C461546002200210026078C4FF6EF7C21
:1016700007EA0C070784028B018C4FF6FF7707EA15
:10168000041640F6FF473A404FF6FF7707EA033764
:101690003A434FF6FF7707EA05273A438F4FB842A0
:1016A0000ED08F4FB8420BD0B0F1804F08D08D4F85
:1016B000B84205D08C4FB84202D08C4FB84206D108
:1016C0004FF6DF77394046F01007394305E04FF613
:1016D0005F77394044F01007394302830184F0BD3D
:1016E000028B4FF6F3731A400283028B0A43028384
:1016F0007047F0B50C46154600220021068C4FF6C7
:10170000FE773E400684028B018C4FF60C76324009
:101710007E1C06EA03162E433243704EB0420ED0B2
:101720006F4EB0420BD0B0F1804F08D06D4EB0423A
:1017300005D06D4EB04202D06C4EB04206D14FF68D
:10174000FD76314044F00106314305E04FF6F57671
:10175000314044F00106314302830184F0BD70B58D
:1017600005460C465D4885420ED05D4885420BD04B
:10177000B5F1804F08D05B48854205D05A48854274
:1017800002D05A48854200D100E000BF208850B9FD
:101790002389A28861882846FFF7ABFFE1882846A5
:1017A000FFF79EFF25E0208804280AD12389A2881C
:1017B00061882846FFF753FFE1882846FFF742FF7C
:1017C00017E0208808280AD12389A2886188284642
:1017D000FFF7FBFEE1882846FFF7EEFE09E02389CC
:1017E000A28861882846FFF7A6FEE1882846FFF711
:1017F00095FE70BD2DE9F04105460C4600260127F7
:10180000608808B9022600E00026A088012801D1DE
:10181000022700E001272088A0B92389A2886188D7
:101820002846FFF766FFE1882846FFF759FF23891E
:101830003A4631462846FFF712FFE1882846FFF76F
:1018400001FF13E02389A28861882846FFF707FF7C
:10185000E1882846FFF7F6FE23893A4631462846B6
:10186000FFF747FFE1882846FFF73AFFBDE8F08120
:101870000A884B881A438B881A43CB881A430B89F2
:101880001A434B891A438B891A43A0F844207047A6
:101890004FF6FF71818000210180C180418001727B
:1018A00070470021018041808180C1800181418198
:1018B0008181C181704700210180418001218180A7
:1018C0000021C18001817047002101804180818019
:1018D000C18001814181818170470000002C01405D
:1018E000003401400004004000080040000C0040AB
:1018F00021B1028842F00102028004E002884FF622
:10190000FE731A400280704731B1B0F8442042F4AF
:101910000042A0F8442005E0B0F84420C2F30E02D3
:10192000A0F8442070471AB183890B43838102E0F9
:1019300083898B43838170478182704741EA020328
:10194000A0F8483070471AB183890B43838102E0C5
:1019500083898B438381704701894FF6F872114068
:10196000018170470A46002101894FF68F731940A3
:1019700011430181704730B504460D462946204683
:10198000FFF7F0FF208940F00700208130BD2DE9EE
:10199000F04104460D4616461F46602D06D13B46D3
:1019A000012231462046FFF75AFE05E03B46012260
:1019B00031462046FFF79DFE29462046FFF7D2FF1D
:1019C000208940F007002081BDE8F08130B50C4649
:1019D00000210189C9B24FF6FF7505EA03251543B9
:1019E00025432943018130BD2DE9F04105460E46CE
:1019F00017469846002443463A4631462846FFF7A4
:101A0000E5FF2C894FF6F870044044F007044FF6C8
:101A10008F70044044F070042C81BDE8F081F0B573
:101A200004460D4616461F463B463246294620468A
:101A3000FFF7CCFF208940F480402081F0BD018574
:101A4000828270470A46002101884FF68F73194041
:101A5000114301807047F0B50C4615461E46002123
:101A6000002200230189028B038C4FF6F87739405E
:101A700021434FF6FC473A4040F201173A434FF6F4
:101A8000DD773B404FF6FF7707EA06172F433B43CE
:101A9000018102830384F0BD0A460021018B4FF6C9
:101AA0008F7319401143018370470A460021018B4F
:101AB00048F6FF7319404FF6FF7303EA02231943F8
:101AC000018370470A460021818B4FF68F731940BE
:101AD0001143818370470A460021818B48F6FF73CA
:101AE00019404FF6FF7303EA0223194381837047BD
:101AF00021B1028842F08002028004E002884FF6A1
:101B00007F731A400280704721B1828842F004023C
:101B1000828004E082884FF6FB731A40828070470F
:101B200021B1828842F00802828004E082884FF668
:101B3000F7731A408280704721B1828842F0010217
:101B4000828004E082884FF6FE731A4082807047DC
:101B50000A460021018B4FF6F773194011430183A8
:101B600070470A460021018B4FF2FF7319404FF670
:101B7000FF7303EA02231943018370470A460021D9
:101B8000818B4FF6F77319401143818370470A46E2
:101B90000021818B4FF2FF7319404FF6FF7303EA68
:101BA00002231943818370470A460021018B4FF6B7
:101BB000FB7319401143018370470A460021018BD2
:101BC0004FF6FF3319404FF6FF7303EA0223194320
:101BD000018370470A460021818B4FF6FB73194041
:101BE0001143818370470A460021818B4FF6FF33F2
:101BF00019404FF6FF7303EA0223194381837047AC
:101C00000A460021018B4FF67F731940114301836F
:101C100070470A460021018BC1F30E014FF6FF7396
:101C200003EA02231943018370470A460021818B8E
:101C30004FF67F7319401143818370470A46002194
:101C4000818BC1F30E014FF6FF7303EA02231943A0
:101C5000818370470A460021018C4FF6FD731940BD
:101C60001143018470470A460021018C4FF6F77337
:101C700019401143018470470A460021018C4FF638
:101C8000DF7319404FF6FF7303EA0213194301840F
:101C900070470A460021018C4FF67F7319404FF6BA
:101CA000FF7303EA02131943018470470A460021B7
:101CB000018C4FF6FF5319404FF6FF7303EA0223DE
:101CC0001943018470470A460021018C4FF2FF73CB
:101CD00019404FF6FF7303EA02231943018470474A
:101CE0000A460021018C4DF6FF7319404FF6FF7331
:101CF00003EA023319430184704730B500230124FD
:101D00008C40A3B2048C9C430484048C02FA01F539
:101D1000ADB22C43048430BD30B5002304248C4084
:101D2000A3B2048C9C430484048C02FA01F5ADB286
:101D30002C43048430BD70B50346002000241846AF
:101D4000183001258D40ACB21D8CA5431D8409B10E
:101D5000082909D100EB6100056825F070050560D0
:101D60000568154305600EE00D1FC5F34E052844B8
:101D7000056825F4E045056005684FF6FF7606EA3C
:101D800002263543056070BD21B1028842F002028F
:101D9000028004E002884FF6FD731A40028070470B
:101DA00021B1028842F00402028004E002884FF66A
:101DB000FB731A400280704721B1828842F0800292
:101DC000828004E082884FF67F731A4082807047D9
:101DD00002884FF6F7731A40028002880A43028095
:101DE000704782884FF68F731A40828082880A4338
:101DF0008280704702894FF6F8731A400281028987
:101E00000A430281704702894FF67F731A400281AC
:101E100002890A4302817047818470478185704737
:101E2000818670470187704781877047A0F840100E
:101E3000704702884FF6FF431A40028002880A4327
:101E4000028070470146888E70470146088F7047B0
:101E50000146888F70470146B1F84000704701463F
:101E6000888C70470146088D704702460020138A0F
:101E70000B400BB1012000E000207047CA430282F2
:101E8000704730B50246002000230024158A05EA79
:101E90000103958905EA010413B10CB1012000E0AA
:101EA000002030BDCA430282704700004FF0E0219D
:101EB000096921F004014FF0E0221161C21700EB23
:101EC0005272C2F3C7022B4B1A701946097801EB04
:101ED0004102C2EBC1114FF6FF7202EAC101264A6C
:101EE000118070470146234A12784A434FF0E0239D
:101EF0005A6100229A611A46126942F001021A617F
:101F000000BF4FF0E022106900F001021AB100F4A6
:101F10008032002AF5D04FF0E022126922F001024F
:101F20004FF0E0231A6100229A6170470146124A7D
:101F300012884A434FF0E0235A6100229A611A4600
:101F4000126942F001021A6100BF4FF0E0221069ED
:101F500000F001021AB100F48032002AF5D04FF0EF
:101F6000E022126922F001024FF0E0231A61002200
:101F70009A6170473000002032000020B94A118871
:101F80000A131303C1F3032203EB0223C1F3031269
:101F900003EB021201F00F031A4491B24D220270BA
:101FA00043224270552282704322C2706122027124
:101FB000702242713A2282714FF47A7291FBF2F2EE
:101FC00032B14FF47A7291FBF2F23032C27101E019
:101FD0002022C2714FF47A7291FBF2F302FB1312CA
:101FE000642392FBF3F230320272642291FBF2F32B
:101FF00002FB13120A2392FBF3F2303242720A22DE
:1020000091FBF2F302FB1312303282724B22C27246
:1020100062220273704770B50446934805682A46E9
:1020200092A1204602F072F870BD934A0A40024322
:102030008D4B08331A60704710B504462046FEF7F2
:1020400035FA10BDF8B504460D4617461E46304613
:10205000FFF7F2FF8DF800708DF801408DF8025007
:1020600001208DF803006846FEF725FAF8BD00B59B
:10207000002082490861C8601420486100208861FE
:10208000C8610846006840F00100086008464068E2
:102090007B4908407949486008460068794908400A
:1020A000764908600846006820F4802008600846E9
:1020B000406820F4FE0048600020886000214FF056
:1020C0000060FFF7B2FF00BD10B567481030006830
:1020D00040F004006449103108606848C06940F06D
:1020E00080506649C8616848406840F4807066491D
:1020F00048600846006840F0040008600846006830
:1021000040F002000860FEF76FF810BD5F485649C6
:102110000C31086070475949896941F00101574AFB
:1021200091615B49496821F0E061594A516011466B
:10213000496841EA00615160704730B504460025A6
:10214000FFF795FF4D48006840F480304B49086028
:1021500000BF4A480068400C0028FAD04FF4806065
:1021600046494860A01EC4B20846406840EA844020
:1021700048600846406840F4803048604548006840
:1021800040F03200434908603C48006840F08070ED
:102190003A49086000BF39480068400E0028FAD06C
:1021A0003648406840F002003449486005E0334852
:1021B0004068C0F3870505F00305022DF7D130BD57
:1021C00001460A2091FBF0F200FB12100A2291FB5B
:1021D000F2F240EA0210C0B27047014601F00F006F
:1021E0000A1102EB820200EB4200C0B270470146C6
:1021F0004FF47A7091FBF0F000034FF47A7291FB88
:10220000F2F302FB1312642392FBF3F240EA022082
:102210001A4691FBF2F302FB13120A2392FBF3F22C
:1022200040EA02101A4691FBF2F302FB131210432C
:1022300080B27047014608134FF47A725043C1F3DD
:10224000032202EBC20303EB021200EB8200C1F394
:10225000031202EB820200EB420001F00F02104475
:1022600080B27047E0F7FF1F00ED00E043505520BB
:1022700049443A253038580080FFFF1F00100240C3
:102280000000FFF8FFFFF6FE007000400400FA05B2
:102290000000014000200240014600BF704700BF1F
:1022A0005C4A128802F04002002AF9D0C2B2594BAF
:1022B0001B1D1A80704710B586B0044655480C3077
:1022C000008840F4807053490C310880084600882B
:1022D00040F0200008804FF4A06325220321084627
:1022E000FFF7B0FE012144F20400FEF769FC494803
:1022F000FEF7CAFC4FF40070ADF8140003208DF80F
:10230000160018208DF8170005A94348FEF79CF920
:102310004FF48060ADF8140004208DF8170005A973
:102320003D48FEF791F901940020ADF80800ADF8A2
:102330000A00ADF80C00ADF810000C20ADF80E004E
:1023400001A93448FEF7E3FC012240F2255131484F
:10235000FEF775FD01212F48FEF765FD06B010BDA3
:1023600010B540F225512B48FEF74EFE002850D004
:102370002848FEF7C9FDC4B22848008800F4004090
:10238000002846D12548008800F4804038B30A2C44
:102390001ED00D2021490988C1F30D01204A505457
:1023A0001E480088401C1D49088008460088C0F36C
:1023B0000D0011460C5419480088401C174908802C
:1023C000084600884BF6FF7108401449088020E059
:1023D0001248008840F400401049088019E00D2C94
:1023E00006D10E48008840F480400C49088010E077
:1023F0000A480088C0F30D0009490C5407480088BA
:10240000401C06490880084600883E2801DD00205F
:10241000088010BD0038014000080140380000204D
:102420001803002000244FF4A060FFF705FE4820A9
:10243000FFF73CFD00F054F801F04EF900F0E3F82E
:1024400000F05DF900F03DF941E0601C84B201F05C
:102450008EF91F48007858B101280FD0022813D0F8
:10246000032817D11A491B48006801F06FFB11E0DF
:1024700017491848006801F04FFC0BE01449154853
:10248000006801F0D1FC05E011491248006801F034
:1024900040FD00BF00BF0F48006808B100F011F90F
:1024A0000D48007820B100200B49087000F009F9B0
:1024B00042F21070844208DD0848006808B9012023
:1024C00000E0002005490860002401F0D5F9BCE7D0
:1024D0003A000020EC0200200A03002088812142FB
:1024E00008B501210C20FEF76BFB0420ADF80000BD
:1024F00002208DF8020010208DF8030069460B4879
:10250000FEF7A2F84FF40040ADF800006946084815
:10251000FEF79AF84FF400410548FEF742F94FF4F0
:1025200000410248FEF73DF908BD0000000C0140E3
:102530000008014008B501212820FEF741FB4FF4B7
:102540007870ADF8000010208DF8030003208DF89E
:1025500002006946F748FEF777F84FF47871F548BE
:10256000FEF71FF90420ADF800006946F248FEF7B7
:102570006BF80421F048FEF714F908BD0022EF4B78
:102580001A60EF4BC3F89C21002116E00022EB4BB0
:102590000C331A6000F080021AB101221B1D1A6070
:1025A00003E00022E54B10331A600122E34B0C33A9
:1025B0001A60420010464A1CD1B20829E6DB704777
:1025C0000022DE4B1A600122DD4BC3F89C21002162
:1025D00016E00022D94B0C331A6000F080021AB1C9
:1025E00001221B1D1A6003E00022D44B10331A6035
:1025F0000122D24B0C331A60420010464A1CD1B261
:102600000829E6DB704710B5FFF794FF0020CB499F
:102610000860CB49C1F898016420FFF787FC0120CE
:10262000C649091D08601420FFF780FCE220FFF76F
:10263000A5FF0520FFF77AFC2C20FFF79FFF052060
:10264000FFF774FC2E20FFF799FF0520FFF76EFCC3
:102650002F20FFF793FF0520FFF768FC2320FFF7EB
:102660008DFF8120FFF78AFF2820FFF787FFA22038
:10267000FFF784FFC820FFF781FFA020FFF77EFF50
:102680004020FFF77BFFAF20FFF778FF0120AC4928
:10269000C1F8940110BD30B505460C460020A7498D
:1026A000086000BF00BF05F1B000FFF767FF102111
:1026B00001EB1410FFF762FF04F00F00FFF75EFF5D
:1026C00030BD30B500209D490860002411E0002194
:1026D0002046FFF7E0FF002507E09A4901EBC5011E
:1026E000085DFFF76DFF681CC5B2802DF5DB601C2F
:1026F000C4B2082CEBDB01209049086030BD30B536
:1027000000208E49086000240CE0002506E000202F
:102710008C4901EBC5010855681CC5B2802DF6DB5C
:10272000601CC4B2082CF0DB012084490860FFF76C
:10273000C8FF30BDF0B5144600267F2801DC3F29D4
:1027400000DDF0BD0B46CF1701EB5777C7F3C7028B
:10275000CF1701EB5777FF10A1EBC707FDB201239D
:10276000AB40DEB24CB1774B03EBC0039B5C334311
:10277000744F07EBC007BB5408E0724B03EBC00378
:102780009B5CB3436F4F07EBC007BB5400BFD8E758
:102790002DE9F04706460F4690469946DDF820A001
:1027A00034460CE03D4606E0524629462046FFF7F7
:1027B000C1FF681CC5B24D45F6DD601CC4B244457E
:1027C000F0DDBDE8F087F8B504460D4616461F4615
:1027D00001203B462246294600902046FFF7D8FFBD
:1027E00001202B463246294600902046FFF7D0FFB5
:1027F00001203B463246394600902046FFF7C8FF8D
:1028000001203B463246294600903046FFF7C0FF84
:10281000F8BDF0B5144600257F2802DDA0F17F0346
:10282000D8B23F2902DDA1F13F03D9B20B46CF1741
:1028300001EB5777C7F3C702CF1701EB5777FF10AC
:10284000A1EBC707FEB20123B340DDB24CB13D4B53
:1028500003EBC0039B5C2B433A4F07EBC007BB5411
:1028600008E0384B03EBC0039B5CAB43354F07EBF1
:10287000C007BB54F0BD38B505460C463248007859
:10288000401C3149087031480078A84203D13048D3
:102890000078A0420DD0002000902D480078103024
:1028A000C3B22A4802782A48017828480078FFF7FE
:1028B0006FFF254800782749097888420ADA012005
:1028C000009004F11000C3B22A4621462846FFF7C3
:1028D0005FFF14E01F4800781B490978B1EB400FF7
:1028E0000ADA0020009004F11000C3B22A46214603
:1028F0002846FFF74DFF02E00020134908701348F7
:1029000005701348047038BD2DE9F04F80460C4621
:1029100015461E46A346A5F12000C5B2002752E089
:102920000C2E1BD105EB45000B4901EB800010F884
:10293000079018E0000C01400014014094812142EE
:102940000080214275030020E3020020E502002000
:10295000E6020020E4020020DA710008F84800EBEB
:10296000051010F807904FF0000A26E009F08000EB
:1029700028B121464046099AFFF7DCFE09E0099894
:1029800008B9012000E00020024621464046FFF73A
:10299000D1FE4FEA49604FEA1069601CC4B2A4EB53
:1029A0000B00B04205D15C4608F1010000F0FF08C1
:1029B00006E00AF1010000F0FF0ABAF1080FD5DBCA
:1029C00000BF781CC7B2B742AADBBDE8F08F2DE983
:1029D000F04F07460C4615461E46A3464FF0000929
:1029E00031E095F800804FF0000A23E008F0800005
:1029F00028B1324621463846FFF70BFF08E00EB9F2
:102A0000012000E00020024621463846FFF701FF82
:102A10004FEA48604FEA1068601CC4B2A4EB0B0098
:102A2000102803D15C46781CC7B206E00AF1010009
:102A300000F0FF0ABAF1080FD8DB00BF6D1C09F1E6
:102A4000010000F0FF09B9F1200FCADBBDE8F08FEB
:102A50002DE9F04180460D4616461F467F2D01DDCB
:102A6000BDE8F0813F2E00DDFAE7002420E0387851
:102A700004EB0411B34A12F81110884216D1787889
:102A800004EB041102EB4101497888420ED104EBBA
:102A90000410114601EB4000821C43463146284693
:102AA000FFF795FF05F11000C5B203E0601CC4B24A
:102AB0000E2CDCD300BF00BFD2E7F8B507460D46A9
:102AC00016461C461EE07A2D00DDF8BD3A2E00DDCC
:102AD000FBE720787F280ADD234632462946384620
:102AE000FFF7B6FFA41C05F11000C5B20AE000977D
:102AF0002278102331462846FFF706FF05F108002B
:102B0000C5B2641C20780028DDD100BFDDE770B5B8
:102B100004460D461646E806020EE1B23346012091
:102B2000FFF7CBFF70BDF0B504460D4616461F46B5
:102B3000E806020EE1B233463846FFF7BEFFF0BDAD
:102B400070B504460D461646E806020E3346214689
:102B50000120FFF7B2FF70BDF8B507460C461546D9
:102B60001E4617E07A2C03DD002405F11000C5B2E3
:102B70003A2D04DD002004460546FFF7C0FD00970E
:102B80003278102329462046FFF7BEFE04F10800E4
:102B9000C4B2761C30780028E4D1F8BDF8B50746F9
:102BA0000C4615461E4617E07A2C03DD002405F17D
:102BB0001000C5B23A2D04DD002004460546FFF79B
:102BC0009EFD009732780C2329462046FFF79CFE95
:102BD00004F10800C4B2761C30780028E4D1F8BDB6
:102BE0002DE9F04381460E4690461F467F2E01DDBB
:102BF000BDE8F083B8F13F0F00DDF9E7002428E0DD
:102C0000002521E0385D05EB05114E4A12F8111040
:102C1000884217D1601C385C05EB051102EB4101BD
:102C2000497888420ED105EB0510114601EB4000B2
:102C3000821C4B4641463046FFF7C9FE06F11000A4
:102C4000C6B203E0681CC5B20E2DDBD300BFA01CCA
:102C5000C4B2385D0028D3D100BFC9E72DE9FF4FCA
:102C600083B0BDF81410BDF80C20881A002801DBD1
:102C7000014600E0414289B20291BDF81810BDF84A
:102C80001020881A002801DB014600E0414289B289
:102C900001914FF00009BDF80800BDF8041088420A
:102CA0000DDA4FF0010904A903A803F02DF906A9D4
:102CB00005A803F029F901A902A803F025F9BDF838
:102CC0001400BDF80C10401A002801DD012001E0BD
:102CD0004FF0FF308246BDF81800BDF81010401AC2
:102CE000002801DD012001E04FF0FF308346BDF8F0
:102CF0000C40BDF81060BDF804004700BDF80400AA
:102D0000BDF80810401A4FEA4008BDF80400BDF8AD
:102D10000810C1EB4005B9F1000F15D00BE0002DF4
:102D200001DA3D4401E05E444544E1B2F0B2109A5C
:102D3000FFF700FD5444BDF814008442EFD114E0C5
:102D40004E7600083B0000200BE0002D01DA3D44E8
:102D500001E05E444544F1B2E0B2109AFFF7EAFCAC
:102D60005444BDF814008442EFD107B0BDE8F08FA1
:102D70002DE9F84305460E4617469846089C33460B
:102D80003A46314628460094FFF768FF43462A46F4
:102D9000314628460094FFF761FF43463A464146D4
:102DA00028460094FFF75AFF43463A4631463846D4
:102DB0000094FFF753FFBDE8F8832DE9FF4F81B082
:102DC000834617469946DDF838A000243D46780032
:102DD000C0F10306B9F1000F1FD01BE0A0460AE0C6
:102DE0001FFA88F3A2B2CDF800A05846029902F06B
:102DF000D3FF08F10108A845F2DD002E04DA042013
:102E000000FB0460861D04E0601B042101FB0066DA
:102E10006D1E641CAC42E1DD17E014E0ABB2A2B25F
:102E2000CDF800A05846029902F0B6FF002E04DA51
:102E3000042000FB0460861D04E0601B042101FBEC
:102E400000666D1E641CAC42E8DD05B0BDE8F08F85
:102E500008B501211020FDF7B3FE4FF4C050ADF8C6
:102E6000000010208DF8030003208DF80200694651
:102E7000FA48FDF7E9FB4FF4C051F848FDF791FC23
:102E800008BD10B51420FFF72DF810BD10B50120B6
:102E9000F3490860FFF7F5FF10BD10B50020F049B9
:102EA0000860FFF7EEFF10BD10B50120EC49091FC7
:102EB0000860FFF7E6FF10BD10B50020E849091FC4
:102EC0000860FFF7DEFF10BD10B5E448406820F44D
:102ED0007020E24948600846406840F4403048604D
:102EE0000020DF49091F0860DE49C1F8B001042055
:102EF000FEF7F8FF0120DA49091F0860D949C1F837
:102F0000B0010420FEF7EEFF10BD10B50024D34839
:102F1000406820F47020D14948600846406840F479
:102F2000002048600120CE490860FEF7DBFF012049
:102F3000CC49C1F8AC01FEF7D5FF06E0601CC4B275
:102F4000FA2C02DDFFF7C0FF10BDC54880380068CD
:102F50000028F3D1C249091F086000BFF4E710B58B
:102F60000020BF49091F0860BC48406820F4702059
:102F7000BA4948600846406840F440304860012043
:102F8000B849C1F8B0010220FEF7ACFF0120B449F6
:102F9000091F08600220FEF7A5FF0020B149C1F813
:102FA000AC0110BD10B5AD48406820F47020AB49AD
:102FB00048600846406840F4403048600120A84915
:102FC0000860A849C1F8AC010420FEF78BFF00207F
:102FD000A34908600420FEF785FF0020A149C1F83D
:102FE000AC0110BD70B504469C48406820F47020C8
:102FF0009A4948600846406840F4403048600020E4
:103000009749091F0860002517E0E0099449086006
:103010006006040E0220FEF765FF01209149C1F809
:10302000AC010220FEF75EFF00208D49091F0860F9
:103030000220FEF757FF681CC5B2082DE5DB70BD06
:1030400070B500248548406820F4702083494860AA
:103050000846406840F400204860002517E0002042
:103060007F49091F08600220FEF73CFF01207D49CF
:10307000C1F8AC016006040E79488038006808B1D8
:10308000601CC4B20120FEF72DFF681CC5B2082DDC
:10309000E5DBFFF764FF204670BD70B506460C46C1
:1030A0001A25FFF77FFF2846FFF79CFFFFF72DFF4C
:1030B0003046FFF797FFFFF728FFE0B2FFF792FFD8
:1030C000FFF723FFFFF700FF70BD70B505461A2418
:1030D000FFF768FF2046FFF785FFFFF716FFB020D8
:1030E000FFF780FFFFF711FF2846FFF77BFFFFF791
:1030F0000CFFFFF7E9FE70BD70B505462846FFF7E7
:10310000E4FF1B24FFF74EFF2046FFF76BFFFFF79E
:10311000FCFEFFF795FF0446FFF721FFFFF7D4FE03
:10312000204670BD10B593218020FFF7B6FF922096
:10313000FFF7E2FF044624029320FFF7DDFF04447B
:10314000A400A0B210BD2DE9F04105460E460027AF
:103150001BE0002413E0621C55F8221055F82400EF
:1031600003F01AFF09D255F82480601C55F820009E
:1031700045F82400601C45F82080601C84B2F01BD8
:10318000401EA042E7DC781C87B2701EB842E0DC2B
:10319000BDE8F0812DE9F047044621463248FFF7AB
:1031A000D2FF3148D0F800A0204604EBD072521074
:1031B0002146E31704EB9373A2EBA3021FFA82F9F3
:1031C0000FE0294850F82910504603F089FC0546C5
:1031D0004FF0804103F0F2FC824609F101001FFA32
:1031E00080F9E21704EB9272921004EBD47302EBB5
:1031F00063024A45E5DC504603F046FC07461B4A9D
:103200001B4B03F067F9054602F0A2FEBDE8F0870C
:103210002DE9F04782460C46504603F035FC074640
:10322000144A154B03F056F9054603F0FBF88146A6
:103230004FEA194020704FEA1920607084F802901C
:10324000BDE8F0872DE9FF4F91B082468B461E46C0
:1032500031780120884388B1052010E0001001403A
:10326000B0012242000022427807002068B7AF5D1B
:103270006EFC9741B30669014C004040012010905C
:10328000307800F0F000302801D1012000E000206B
:103290000F90307800F00F080027FFF7D9FD822447
:1032A000002506E01AF80510E0B2FFF7F6FE641CF0
:1032B0006D1C032DF6DB8524002506E01BF80510A8
:1032C000E0B2FFF7EAFE641C6D1C032DF6DB8824D8
:1032D000002506E0139A515DE0B2FFF7DEFE641CA4
:1032E0006D1C022DF6DB802448F0B0012046FFF76C
:1032F000D4FE641C7178E0B2FFF7CFFE641C48F086
:1033000010018020FFF7C9FE0A20FEF70FFE48F0EB
:1033100020018020FFF7C1FEA7E008E08F20FFF723
:10332000EBFE0E900E9800F0020000B100E0F5E711
:1033300000BF9420FFF7E0FE0B909520FFF7DCFE26
:103340000C90DDE90B0101EB00200D909620FFF7BA
:10335000D3FE08909720FFF7CFFE0990DDE9080122
:1033600001EB00200A900D9803F089F8CDE90201E5
:103370000A9803F084F8CDE90001DDE9022302F0A8
:10338000FDFBC54AC54BCDE9040103F093FACDE935
:10339000060102F0DDFDC24941F827000D98B0F5A5
:1033A000004F0FDB4FF6FF710D9848400D900D98C0
:1033B00080F400400D900D98401C0D900D9880F405
:1033C00000400D900A98B0F5004F0FDB4FF6FF71EB
:1033D0000A9848400A900A9880F400400A900A9897
:1033E000401C0A900A9880F400400A90AD490D985C
:1033F00041F82700AC490A9841F827000D99494344
:103400000A9A02FB021003F03AF8CDE9040102F037
:1034100055FDCDE9060102F09BFD8146109803F0B1
:10342000A7FC4946069003F0EBFC014607904FF0DD
:103430007E5003F0C3FB39467F1C9C4A42F82100B2
:103440008F20FFF759FE0E900E9800F0040000B197
:103450000CE00F98012804D131788020FFF71DFE81
:1034600003E031788020FFF718FE56E700BFA12166
:103470008020FFF712FE484615B0BDE8F08F2DE919
:10348000FF4780460D4614461E46DDE90C9A00278C
:1034900003A94046FFF7BCFE02A92846FFF7B8FE85
:1034A00020128DF80400E0B28DF8050046EA09000C
:1034B00040EA0A0738128DF80000F8B28DF80100D2
:1034C0006B4601AA02A903A8FFF7BCFE002004B0C6
:1034D000BDE8F0872DE9F04F85B04FF440504FF430
:1034E000807100232822CDE900104FF07E517048F2
:1034F000FFF7C5FF2820FFF74DFE049068490868D4
:1035000003F0C2FA804602F0F9FB06460F46049823
:1035100003F0BAFA824632463B4602F0DBFF04462D
:1035200002F016FD03905E49086803F0ADFA80468C
:1035300002F074FC04460D46049803F0A5FA064612
:1035400022462B4602F0C6FF824602F001FD0290A1
:10355000049805B0BDE8F08F2DE9F05F4FF07E597B
:103560005049086803F0ECFB8346494603F048FCE9
:10357000824603F089FA07463A460B464D484E49C3
:1035800002F0C8FD054602F0E3FC04462046BDE813
:10359000F09F2DE9F04F85B04FF440504FF480710B
:1035A00000231422CDE900104FF07E514348FFF76D
:1035B00066FF1420FFF7EEFD04903949086803F018
:1035C00063FA824602F02AFC06460F46049803F08E
:1035D0005BFA804632463B4602F07CFF044602F02E
:1035E000B7FC0390039803F04FFA8046344A354BFA
:1035F00002F070FF06460022334B02F08BFD0446BA
:1036000022460B463148324902F084FD824602F0E0
:103610009FFC0290029805B0BDE8F08F2DE9F04FB5
:1036200085B04FF440504FF4807100231422CDE94F
:1036300000104FF07E512148FFF721FF1420FFF7C3
:10364000A9FD03901649086803F01EFA804602F0AF
:10365000E5FB04460D46039803F016FA064622469B
:103660002B4602F037FF824602F072FC02901949A5
:10367000029803F0C5FB804603F006FA0646104A9E
:10368000104B02F047FD044602F062FC04900498DF
:1036900005B0BDE8F08F00004DF1331F3382573F76
:1036A000980A0020B80D0020D810002078070020CC
:1036B00000401C46343333F35FE376410050C34788
:1036C0004AD8124DFB211940D01263412D431CEB07
:1036D000E236EE3F00007A4400B585B001210820B3
:1036E000FDF76EFA01210220FDF777FA48208DF8E8
:1036F00013004FF47840ADF8100001208DF812004F
:1037000004A96248FCF7A0FF6148FDF7C1FC47200F
:10371000ADF8040040F2E730ADF808000020ADF845
:103720000A00ADF8060001A95948FDF785FD012200
:1037300041215748FEF7F7F801215548FEF7D8F820
:103740001D208DF8000001208DF803008DF8010088
:103750008DF802006846FCF7AEFE05B000BD4B498F
:1037600008310968C1F3CF2161F01F00704700B52F
:10377000FFF7F5FFC2434749096882EA010010409C
:1037800045490860434802604448006820B94448FD
:1037900000680A30434908603F48006810B10120C2
:1037A0003E4908603D48006890B33D4800683D4987
:1037B000096888422CD93A48006810F10A0F27D2CC
:1037C00034480068042812D004DC012807D00228FD
:1037D00019D108E008280ED0102814D10FE00120DC
:1037E0003149086013E002202F4908600FE00320F0
:1037F0002D4908600BE004202B49086007E00520F4
:103800002949086003E000202749086000BF00BF85
:1038100026480068B0F57A7F2BD340F29E202349DA
:1038200008601C480068042812D004DC012807D076
:10383000022819D108E008280ED0102814D10FE072
:103840000B201949086013E00C20174908600FE0AD
:103850000D20154908600BE00E201349086007E0B1
:103860000F201149086003E000200F49086000BFE5
:1038700000BF0D48006800BD0B48006820B1002063
:10388000064908600849086070470000000C0140C4
:103890000004004000030020FC020020040300207C
:1038A000E8020020F8020020EC020020F4020020D0
:1038B0000246F648007838B9F54800681044F54BE0
:1038C00018600120F14B1870F1480068F14B1B683B
:1038D000984205D30020ED4B187001200870704706
:1038E0000020FCE710B50346087808B9002010BD99
:1038F000E948007838B9E64800681844E74C206089
:103900000120E54C2070E2480068E44C2468A042A5
:1039100006D30020E04C2070087001201070E6E70C
:103920000020E4E77FB50020019002900390009012
:103930000A24322501208DF80E008DF80200D8A24D
:1039400006210020FFF7E3F8D7A206213820FFF771
:10395000DEF8A2E001AA0DF10E012046FFF7C2FF3A
:1039600020B1D3A200212020FFF7D1F80DF10502EC
:1039700001A92046FFF7B6FF20B1CEA200213020DA
:10398000FFF7C5F80DF10602511E2046FFF7AAFF0A
:1039900020B1C9A200214020FFF7B9F80DF10702BC
:1039A000511E2046FFF79EFF20B1C4A200215020E7
:1039B000FFF7ADF802AA511E2046FFF793FF20B192
:1039C000BFA202211020FFF7A2F80DF1090202A9FF
:1039D0002046FFF787FF20B1BAA202212020FFF77F
:1039E00096F80DF10A02511E2046FFF77BFF20B129
:1039F000B5A202213020FFF78AF80DF10B02511E0B
:103A00002046FFF76FFF20B1B0A202214020FFF750
:103A10007EF803AA511E2046FFF764FF20B1ACA236
:103A200002215020FFF773F80DF10D0203A9204683
:103A3000FFF758FF20B1A7A202216020FFF767F827
:103A400001AA0DF10D012046FFF74CFF00B125E062
:103A50006A46911C2846FFF745FF20B19EA2062129
:103A60006820FFF754F80DF1010269462846FFF778
:103A700039FF20B199A206217020FFF748F80DF117
:103A80000202511E2846FFF72DFF20B193A2062106
:103A90007820FFF73CF8FEF714FE5BE700BF7FBD20
:103AA0002DE9F04107460D46164600244FF0010867
:103AB00025B1012D19D0022D45D12DE0711B04EB4C
:103AC000D472B1EB620F02D14FF0000801E04FF069
:103AD0000108434682A221463846FFF724F8A01C7D
:103AE000C4B2062C00D12EE000BF711B04EBD472CF
:103AF000B1EB620F02D14FF0000801E04FF0010876
:103B0000434679A221463846FFF70DF8A01CC4B2FF
:103B1000062C00D117E000BF711B04EBD472B1EB8F
:103B2000620F02D14FF0000801E04FF00108434658
:103B30006FA221463846FEF7F6FFA01CC4B2062C41
:103B400000D100E000BF00BFBDE8F08170B50446C1
:103B50000D46002668480078002820D000206649DD
:103B6000087066490870FEF7CAFD00235CA219467A
:103B70000A20FEF7D8FF01235BA202210A20FEF7EC
:103B8000D2FF01235AA204210A20FEF7CCFF5CA237
:103B900006210020FEF7BBFF01205E490870102CB3
:103BA00040D2DFE804F03F08201427333F3F3F3F77
:103BB0003F0E3F1A2D3951480078401C4F4908707C
:103BC00030E04E480078401C4C4908702AE04B48D1
:103BD0000078401C4949087024E048480078401C9F
:103BE000464908701EE04548007828700120424987
:103BF000087017E041480078401E4049087011E005
:103C00003E480078401E3D4908700BE03B48007874
:103C1000401E3A49087005E038480078401E374990
:103C2000087000BF00BF35480078FF2802D100208F
:103C30003249087031480078022802DB02202F49FF
:103C4000087064B12D480078801EC6B2C82E00DD11
:103C500000262A48027831460A20FFF721FF70BD6E
:103C6000037830330B70437830334B7083783033C4
:103C70008B70C3783033CB702E230B7103793033C4
:103C80004B714D238B710023CB7170470B030020C8
:103C9000040000200C030020100300201403002067
:103CA0004144463433353100B3F5CABCBBAF0000E4
:103CB000BFB50000CDFE0000B5E70000D7D300007F
:103CC000BDDF0000B3CF0000CEAA0000C4FA0000A0
:103CD000B7FE0000CEF100002E2020002E000000D4
:103CE000312CB5E7D7E80000322CB5E7C8DD00007D
:103CF000332CB5E7B8D000000803002009030020EA
:103D0000A1FD20202020C8B7C8CF20202020A1FC62
:103D1000000000000A0300202DE9F04705460C468C
:103D2000B648007888B1FEF7EAFCB5A20021084643
:103D3000FEF7EDFEB7A206210020FEF7E8FE002008
:103D4000AE4908700120B8490870FFF7C3FB8046F0
:103D5000B649404603F020F90ED2B549404602F07C
:103D60002DFF814602F090FE064632460B46B1A179
:103D7000B34800F0CBF936E0AD49404603F00CF90A
:103D80000ED2AB49404602F019FF814602F07CFE9C
:103D9000064632460B46ABA1A94800F0B7F922E02F
:103DA000AC49404603F0F8F80ED2AA49404602F06A
:103DB00005FF814602F068FE064632460B46A6A184
:103DC0009F4800F0A3F90EE0A249404602F0E4FF4C
:103DD00009D2404602F058FE064632460B46A2A1E2
:103DE000974800F093F9964A02211420FEF78FFEBF
:103DF00001208D490870022D0AD00C2D11D103200D
:103E0000207000209B49087001207C49087008E060
:103E1000032020700020974908700120774908701E
:103E200000BF00BFBDE8F0872DE9F04705460C460E
:103E30007248007888B1FEF762FC8FA20021084624
:103E4000FEF765FE73A206210020FEF760FE00204B
:103E50006A4908700120744908708C48FFF799FB83
:103E600080467349404603F097F80ED270494046A9
:103E700002F0A4FE814602F007FE064632460B46DB
:103E800083A16F4800F042F922E07249404603F0F6
:103E900083F80ED26F49404602F090FE814602F050
:103EA000F3FD064632460B467CA1654800F02EF92C
:103EB0000EE06849404602F06FFF09D2404602F02A
:103EC000E3FD064632460B4677A15D4800F01EF939
:103ED0005B4A02211420FEF71AFE012052490870A5
:103EE000022D0AD00C2D11D1032020700020614931
:103EF000087001204149087008E00320207000206C
:103F00005C49087001203D49087000BF00BFBDE852
:103F1000F0872DE9F04705460C463848007888B10F
:103F2000FEF7EDFB63A200210846FEF7F0FD39A283
:103F300006210020FEF7EBFD00203049087001202B
:103F4000394908706048FFF769FB804638494046A8
:103F500003F022F80ED23649404602F02FFE814689
:103F600002F092FD064632460B4658A1344800F056
:103F7000CDF822E03749404603F00EF80ED235491D
:103F8000404602F01BFE814602F07EFD06463246A8
:103F90000B4651A12A4800F0B9F80EE02D494046E1
:103FA00002F0FAFE09D2404602F06EFD06463246A5
:103FB0000B464CA1224800F0A9F8214A0221142006
:103FC000FEF7A5FD012018490870022D0AD00C2D1E
:103FD00011D10320207000202649087001200749D4
:103FE000087008E00320207000202249087001209A
:103FF0000249087000BF00BFBDE8F0870803002039
:1040000020202020B5E7D7E8B2E2C1BF2020202041
:10401000000000002020202020B7B5BBD8202020A1
:1040200020202020000000000A030020C0E1644B93
:1040300000247449202020304CA6B8202000000025
:10404000570300202530332E3033664DA6B820208C
:104050000000000000007A442530332E3033664BD8
:10406000A6B82020000000002530332E303366A68D
:10407000B82020000903002020202020B5E7C8DD5B
:10408000B2E2C1BF202020200000000000401C46FA
:104090002530332E30336675462020002530332EF0
:1040A0003033666E462020002530332E3033667064
:1040B0004620200020202020B5E7B8D0B2E2C1BFC2
:1040C00020202020000000000050C3472530332E60
:1040D0003033666D482020002530332E303366752E
:1040E000482020002530332E3033666E48202000D3
:1040F000704700000FB4044910B503AA029800F0FD
:104100009FFB10BC5DF814FB340000200FB41CB5FD
:10411000074B06AA7B4469460090059800F077FBA0
:104120000020694600F086FB1CBC5DF814FB000013
:104130001D07000070B5044685690068C10601D5F9
:10414000302600E02026C00707D070BDD4E9012149
:1041500030469047206A401C20626D1EF6D570BD27
:1041600070B5044685690078C00707D170BDD4E9F1
:10417000012120209047206A401C20626D1EF6D548
:1041800070BD000070B504460D4621461068AFF3BF
:1041900000802188090502D50F4A7A4402E00E4AC0
:1041A0007A440E32002104F1240305E000F00F06EA
:1041B0000009965D5E54491C0028F7D12078002341
:1041C000000704D5702D02D009B102231132204618
:1041D000BDE8704000F0ADB8A03A00002DE9F05FF6
:1041E000894604464FF0000ADFF824B1FB44C0F8CA
:1041F00020A02046E168884700287DD0252806D0E9
:10420000D4E901219047206A401C2062F1E7002593
:104210005F462046E16888472028064607DB312EA6
:1042200005D2B81910F8200C08B10543F1E7A8072A
:1042300001D525F00405C4F81CA00027C4F818A077
:104240002A2E09D0304601F081FB38B304EB8708F1
:10425000303EC8F8186019E059F8041B204604EBFA
:1042600087029161E1688847012F064618D1E0690D
:10427000002820DA25F020051DE0D8F8180000EB12
:10428000800006EB40003038C8F818002046E1688E
:104290008847064601F05AFB0028EED1012F0AD0CC
:1042A0002E2E08D12046E16888477F1C0646022F43
:1042B00045F02005C4DBA069002803DA404245F040
:1042C0000105A061E80701D025F01005A6B1A6F10F
:1042D0004100192802D8203645F400654A46314687
:1042E000204625604D46FBF75BFF60B1012807D0F3
:1042F000ED1D25F0070000E007E000F1080978E770
:1043000005F1040975E730467AE7206ABDE8F09FB9
:10431000763A0000704770477047704710B500F05C
:10432000A5FA006810BD10B5044600F09FFA0460BD
:1043300010BD2DE9F0470D4699469246044600F11E
:1043400024080168880604D5E06921F01001216085
:1043500000E00120A84201DD471B00E00027A16921
:104360007A1902EB0900081AA0612078C00602D46D
:104370002046FFF7DFFE002608E0D4E901211AF805
:1043800006009047206A401C761C20624E45F4DBF4
:104390002078C0060AD52046FFF7CCFE06E0D4E917
:1043A000012130209047206A401C2062381EA7F16E
:1043B0000107F4DC07E0D4E9012118F80500904773
:1043C000206A401C2062281EA5F10105F3DC20466E
:1043D000FFF7C6FE2078000602D50220BDE8F08770
:1043E0000120FBE770472DE9FF4F0C461E464FF0BA
:1043F000FF378BB0D2E90001DDF860800A908A4671
:10440000C1F30A5505B93D46002108464FF00000AA
:10441000BAF1000F00F4400005DA00EB80004FF421
:10442000400101EA50004FEA9059B9F1010F00DD57
:10443000B9460A9850EA4A000ED044F61050A5F248
:10444000FF3545432F14B8F1000F1ED07542291EC9
:104450001EDDC9F100021CE0B8F1010F4FF00000B1
:1044600001D0302103E0F24305E02154401CB0426A
:10447000FBDB30460022002121540B99C1F8088053
:10448000C1E900200FB0BDE8F08FBD1B6D1CDEE759
:104490004A4600DA694206A800F072FA06AB93E8D1
:1044A000070003AB83E8070050460A9900F050FB71
:1044B0008DE80700A0F500501F3800900398002DEC
:1044C0000ADD42F21F014A460844002303A9039073
:1044D000684600F0B9FD09E0A0F500504A461F38D3
:1044E000002303A90390684600F0C3FD8DE8070090
:1044F0000004000C03D04FF0FF30410800E01046EC
:10450000B8F1000F03D00022009215461EE0751E80
:1045100005D400F0AFF9303262556D1EF9D5B346BF
:104520000122084302D000227F1C04E020783028BA
:1045300001D100227F1E002A099784D01DE0112D91
:1045400007DA00F097F9303262556D1C50EA01022B
:10455000F5D1084302D00098C8B10EE00021681ED2
:1045600005E0235C625C63542254401E491C814276
:10457000F7DBAB46A81B401E0990002004F80B0097
:104580000B98099AC0F80880C0E9002B7AE7112639
:104590004FF0000857E72DE9F04F88460446D21D3A
:1045A00022F0070191B0D1E90001CDE90A0100F044
:1045B00097FE02460B98C00F01D02D2007E020681F
:1045C000810701D52B2002E0202101EAC000032A47
:1045D000099001D0072A05DB03464146204600F03A
:1045E0008FF90BE12078800601D5E06900E0062014
:1045F000B8F1650F814606D0B8F1660F18D0B8F152
:10460000670F70D131E00020B9F1110F009001DB8C
:10461000112301E009F101030AAA01A90CA8FFF77F
:10462000E2FEDDE90C70002609F10105834647E052
:1046300001204B4600904FF000470AAA01A90CA8A0
:10464000FFF7D1FEDDE90DB00C995D46002610B9EB
:1046500009F101000D18B9EB050003D4C0F1FF36D4
:1046600009F10105A5EB09002BE0B9F1010F01DA11
:104670004FF001090020B9F1110F0090484601DD0B
:10468000112300E003460AAA01A90CA8FFF7ABFE1C
:10469000DDE90C704D4600268346207800070AD4D9
:1046A000AB4500DA5D4601A8012D04DD411911F882
:1046B000011C302907D04F4502DA17F1040F04DA44
:1046C000012082460FE06D1EEEE7002F02DCED1B9D
:1046D0003E4403E0781CA84200DD7D1CB81B00F1BD
:1046E000010A4FF000472078000703D4AA4501DBF8
:1046F0004FF0FF3A0021B7F1004F0DF143088DF85C
:10470000431024D002202B23002F01DA7F422D23D7
:104710000A21021EA0F1010000DC5FB197FBF1FC51
:1047200097FBF1F201FB1C7C17460CF1300C08F8EA
:1047300001CDEEE7A8F1010003702188090501D53C
:10474000452100E06521A0F1010800F8011C09984D
:104750000FA9A1EB0807FF1D00B10120411901EBD2
:10476000EA70A1693844081A401EA0612078C0068A
:1047700002D42046FFF7DEFC099828B1D4E90121D4
:104780009047206A401C20622078C00622D520462F
:10479000FFF7D0FC1EE0002E04DBB34502DD01A8CC
:1047A000805D00E03020D4E901219047206A401C60
:1047B0002062761CAAF101005FEA000A0AD100F02B
:1047C00051F8C0680168405CD4E901219047206A33
:1047D000401C2062281EA5F10105DCDC07E0D4E9BD
:1047E000012118F8010B9047206A401C2062381EF6
:1047F000A7F10107F3DC2046FFF7B2FC032011B05C
:1048000041E6000001694A1C02610878704700B562
:104810008FB0CDE901310021059105497944CDE9F9
:10482000031011466846FFF7D9FC0FB000BD000029
:10483000E5FFFFFF0A6802F8010B0A6070470000FD
:10484000074B70B50D467B44FFF7E1FF0446284651
:1048500000F008F910B14FF0FF3070BD204670BD78
:1048600055DAFFFF004870471814002000487047D1
:10487000F813002030B5B0F10A024FEA900E71F142
:1048800000034EEA817EB0EB0E0061EB91014FEA2E
:10489000101E4EEA017E10EB0E0041EB11114FEAA3
:1048A000102E4EEA016E10EB0E0041EB11214FEA83
:1048B000104E4EEA014E10EB0E0041EB1141401834
:1048C00041F100014FEAD00040EA41704FEAD101C6
:1048D00010EB80054FEA810444EA907444EB010434
:1048E0006D1944EB0404521BA3414FF0000348BF71
:1048F0000A3200D530BD401C41F1000130BD00003E
:104900002DE9F0411F46044603260168072A01F4F9
:10491000006004DB08B116A505E016A503E008B1A8
:1049200015A500E015A521F010002060A069C01EAB
:10493000A0610FB1401EA0612046FFF7FBFB4FB105
:10494000D4E9012138469047206A401C2062C01CEF
:10495000206206E0206AFAE7D4E9012115F8010B8C
:104960009047761EF8D22046FFF7FAFBBDE8F081AB
:104970004E414E006E616E00494E4600696E660003
:104980002DE9F047814616468AB0354878440DC86F
:104990008DE80D0032487844801C03AC0DC884E8D3
:1049A0000D0041F69B300844372190FBF1F290FB5B
:1049B000F1F5A5F1800501FB12041B3C02D5644210
:1049C000012000E00020DFF898A080460027FA448C
:1049D000AAF1BE0A0EE0E0070AD03246684607EBAD
:1049E000470101230AEB810100F043FB8DE807003A
:1049F00064107F1C002CEED1194F7F44AE3F19E0AC
:104A0000E80715D007EB04100DF1180A90E80E0026
:104A10008AE80E00C068F04201D198190890324629
:104A2000012306A903A800F024FB03AB83E80700D9
:104A30006D10641C002DE3D14FF00103324669462E
:104A4000B8F1000F03A802D000F0FEFA01E000F078
:104A500010FBC9E90001C9F808200AB0BDE8F087D9
:104A600024350000007B00F080007047004870474C
:104A7000F81300207546FFF7F9FFAE4605006946BA
:104A8000534620F00700854618B020B5FBF7FCFC24
:104A9000BDE820404FF000064FF000074FF000083F
:104AA0004FF0000B21F00701AC46ACE8C009ACE8C0
:104AB000C009ACE8C009ACE8C0098D46704710B524
:104AC0000446AFF300802046BDE81040FBF785BBED
:104AD0004FF0013C50F8042B51F8043B9A4221D18D
:104AE000A2EB0C03934313EACC1317D150F8042B19
:104AF00051F8043B9A4215D1A2EB0C03934313EAFD
:104B0000CC130BD150F8042B51F8043B9A4209D135
:104B1000A2EB0C03934313EACC13DBD04FF000005D
:104B2000704700BFD01A01BAB1FA81F101F0180143
:104B300022FA01F0CB40C1F12001DBB2C0B2C01AB1
:104B40002CFA01F3D11A914311EAC311E6D170474F
:104B50005FEA400C08BF91F0000F4FEA8C234FEA48
:104B6000C12243EA51514FEA1C5018BF00F5F040F2
:104B70004FEA300018BF41F000415FEA6C5C00F082
:104B80002980BCF1FF3F08BF40F080407047130C04
:104B900006BF12044FF0100C4FF0000C130E04BFB0
:104BA00012020CF1080C130F04BF12010CF1040CDB
:104BB000930F04BF92000CF1020CD30F04BF5200FC
:104BC0000CF1010C11464FF00002A0F11F00A0EB08
:104BD0000C00704711F0004F08BF704731F00041E2
:104BE0003FF4D5AF0B0C06BF09044FF0100C4FF08B
:104BF000000C0B0E04BF09020CF1080C0B0F04BFD4
:104C000009010CF1040C8B0F04BF89000CF1020C9C
:104C1000CB0F04BF49000CF1010CCCF12003A0EB39
:104C20000C0022FA03F302FA0CF241EA030100F14C
:104C30000100704720F07F4C80EA030023F07F479B
:104C4000ACEB070303F57C5300F0004003F1FF03D6
:104C50002DE980494FEA154B09B44FEA144325EA80
:104C60000B4E24EA03480FF2042606EB13274908EB
:104C70003E785FEA320203FB0667C7F5000707FBD1
:104C800006F64FEA54374FEAD64606F1020607FB0E
:104C9000066CCCF1005C4FEA1C472CEA074C07FB82
:104CA00006F40CFB06F504EB15464FEA961634BFE6
:104CB00000204FF000404FEAD13706FB07FC4FEAD7
:104CC0001C4C0CFB0BF7D21B03FB0CF761EB070131
:104CD0000CFB0EF7B0EB074072EB17420CFB08F72A
:104CE00034BFA2EB0742B2EB074261EB17414FEA38
:104CF0000C444FEA910706FB07FC4FEA1C4C0CFBE7
:104D00000BF7B0EBC74072EB573203FB0CF734BF25
:104D1000A2EBC742B2EBC74261EB57310CFB0EF777
:104D2000B0EBC70072EB57720CFB08F734BFA2EB75
:104D3000C702B2EBC70261EB5771039F4FEA816173
:104D400041EA921104EBCC044FEAD1374FEA826278
:104D500006FB07FC42EA90124FEA80604FEA1C4CC7
:104D60000CFB0BF7D21B03FB0CF761EB07010CFBF1
:104D70000EF7B0EB074072EB17420CFB08F734BF9D
:104D8000A2EB0742B2EB074261EB17414FEA8C55A9
:104D90004FEA910704EB9C2406FB07FC4FEA1C4CEE
:104DA0000CFB0BF7B0EBC74072EB573203FB0CF771
:104DB00034BFA2EBC742B2EBC74261EB57310CFBE9
:104DC0000EF7B0EBC70072EB57720CFB08F734BF5D
:104DD000A2EBC702B2EBC70261EB577115EB4C2592
:104DE0004FEA816141EA92114FEA82624FEAD1377C
:104DF00042EA901206FB07FC44F100044FEA80608F
:104E00004FEA1C4C0CFB0BF7D21B03FB0CF761EBBE
:104E100007010CFB0EF7B0EB074072EB17420CFBDF
:104E200008F734BFA2EB0742B2EB074261EB174130
:104E300015EB1C154FEA813141EA92414FEA82326B
:104E400042EA90424FEA80304FEA0C7644F1000487
:104E500048EA03434EEA0B484FF0000EB2EB080C51
:104E600071EB030724BF624639464EEB0E0E4FF03E
:104E7000000B0018524149414BEB0B0BB2EB080CF5
:104E800071EB03077BF1000B24BF624639464EEB02
:104E90000E0E4FF0000B0018524149414BEB0B0B2B
:104EA000B2EB080C71EB03077BF1000B24BF6246E9
:104EB00039464EEB0E0E51EA020718BF46F00106C6
:104EC00016EB0E7655F1000254F1000103D5BDE852
:104ED0008901BDE80088BDE88901BDE80048B61930
:104EE000524141EB0101A3F10103704780807F7EB5
:104EF0007D7C7B7A79787776767574737271717050
:104F00006F6E6E6D6C6C6B6A6A6968686766666501
:104F10006464636362616160605F5F5E5E5D5D5C8F
:104F20005C5B5B5A5A595958585757565655555500
:104F30005454535352525251515050504F4F4F4E60
:104F40004E4D4D4D4C4C4C4B4B4B4A4A4A494949AE
:104F500048484847474747464646454545444444F0
:104F6000444343434342424242414141002B9C4619
:104F700030D477002BD01CB54FEA370703B44FF07D
:104F800010004FF01001BAF1000F06D0BCF1000F75
:104F9000DCBF40F0080040F008014FF000000FBCFB
:104FA000BDE810400BF1010BBBF1010F08BF5FEA38
:104FB000170722BF12F1010211F101014FF0004168
:104FC00043F1000300F0004043EA00007047F9D3CA
:104FD0005708D0E746EA064613F1400F4FEA164657
:104FE0001FDD13F1200FDFBF16430A4600212033D7
:104FF0005B42BED0C3F1200746EA064602FA07F735
:105000004FEA164646EA0706C3F1200722FA03F2E2
:1050100001FA07F721FA03F14FF0000342EA070211
:10502000A7E746EA020646EA06464FEA164646EA79
:105030000106BCBF46EA0646360C4FF000034FF0AF
:1050400000024FF0000194E72DE9804C9A46934608
:1050500070B491E8380007C831EA400C48BF34EA20
:10506000430C03D5FFF7E6FDFFF780FFF0BCBDE87A
:10507000008C2DE9804C9A46934670B491E8380034
:1050800007C810F0804F08BF13F0804F03D100F025
:1050900005F8FFF76BFFF0BCBDE8008C20F07F4700
:1050A00080EA030023F07F4C07EB0C03A3F57C534D
:1050B00000F00040A3F1FE0392F0000F00F0B38077
:1050C00095F0000F00F077802DE901494FEA11407B
:1050D0004FEA144621EA004800FB06FC24EA064792
:1050E00008FB06F607FB08F800FB07F718EB064875
:1050F0004CEB164C4FEA124B18EB07484FEA15469B
:105100004CEB174022EA0B4E0BFB06FC25EA064748
:105110000EFB06F607FB0EFE0BFB07F71EEB064E1B
:105120004CEB164C4FF000061EEB074E4CEB174BAA
:1051300018EB0B0840F1000018EB0E0B58EB0008C1
:1051400040F100008F1A4FF000013CBFC943661BBD
:1051500014BFB5EB040C00213CBFC943F61B4FEA5A
:1051600017444EEA8E0E27EA04454FEA1C4704FB1B
:1051700007622CEA074C05FB07F70CFB05F604FB5E
:105180000CFC16EB074642EB174216EB0C4642EBC3
:105190001C421BEB060658EB0202414146EA9E0602
:1051A00001D5BDE80189B619524141EB0101A3F1D6
:1051B0000103BDE801894FEA14454FEA114724EA8B
:1051C000054621EA074C05FB07F406FB07F70CFB35
:1051D00006F105FB0CFC11EB074144EB17444FEAC9
:1051E000124711EB0C4144EB1C4422EA074C05FB2F
:1051F00007F206FB07F70CFB06F605FB0CFC16EBAB
:10520000074642EB174216EB0C4642EB1C456A1868
:1052100054F1000148BF7047B619524141EB0101FA
:10522000A3F10103704795F0000F37D04FEA114208
:105230004FEA144721EA024624EA074C02FB07F131
:1052400006FB07F70CFB06F402FB0CFC14EB07440F
:1052500041EB17414FEA154714EB0C4441EB1C415D
:1052600025EA074C02FB07F506FB07F70CFB06F6E1
:1052700002FB0CFC16EB074645EB174516EB0C46FC
:1052800045EB1C42121951F1000148BF7047B61995
:10529000524141EB0101A3F1010370474FEA14456C
:1052A0004FEA114724EA054621EA074C05FB07F1BE
:1052B00006FB07F70CFB06F24FF0000605FB0CFCA3
:1052C00012EB074241EB174112EB0C4251EB1C4130
:1052D00048BF7047921841EB0101A3F101037047E9
:1052E000490050EAC12018BF04204A0D18BF40F001
:1052F000010040F2FF72B2EB515F08BF40F00200C4
:10530000012808BF052070472DE9F74F144694B0D7
:105310000021C4E902111599079121F00045C949FE
:105320008D4206DC1599C4E9000117B00020BDE8E4
:10533000F08FC549DFF814A3A9423CDD0799C44E9C
:105340000029C44FC44A1599534619DD01F0B2FA39
:10535000554506D0C14AC24B01F0ACFAC4E9000180
:105360000AE04FF0D352BE4B01F0A4FA32463B465E
:1053700001F0A0FAC4E9000117B00120BDE8F08FE8
:1053800000F018FE554506D0B44AB54B00F012FEA9
:10539000C4E900010AE04FF0D352B14B00F00AFE1D
:1053A00032463B4600F006FEC4E9000117B04FF05C
:1053B000FF30BDE8F08FAB49A942159978DB21F0A9
:1053C000004183468846A84AA84B01F083F8002292
:1053D000A74B00F0EFFD00F0F5FF099001F04FF84A
:1053E00006460F469C4A534601F074F843465A4617
:1053F00001F06EF980468A46984A994B3046394604
:1054000001F068F82A0D01250B924246534601F03F
:105410005FF9032DC4E9000139D00B98C1F30A519B
:10542000401A05EB45111139814230DA9148C346E3
:10543000784400EB0510CDF80CA00C90D0E90023C7
:105440003046394601F046F802460B460491069074
:105450005846039901F02EFA80468A4602460B46CA
:105460005846039901F026FA049B069A01F022FAA5
:1054700083460C9803913946D0E90223304601F067
:1054800029F85A46039B01F015FA6D1CBDE70798F1
:105490000028A2BF099817B0BDE8F08F616881F0BD
:1054A00000416160099817B04042BDE8F08FFFE706
:1054B00084461598C1F31301C0F30A50A0F2F530E9
:1054C0004FEA601800F01F06C6F12000139000207C
:1054D0000690079041F4801E05206D4676B1664A1D
:1054E00008EB00017A4452F8213002EB8101B3400D
:1054F0004A68139922FA01F1194305E05F4908EB64
:105500000002794451F82210A1FB0E27A1FB0C13D5
:105510001A449A4234BF0123002303EB070A05EB28
:105520008003D3E901B70F448F4234BF012100212A
:1055300093448B4411B1934502D903E0934501D2C2
:10554000012100E00021C3E901B7514445F82010D2
:10555000011EA0F10100C1DC0298059F00F100507E
:10556000800F12900298DDE90356800000F087FF5B
:10557000834628460D9100F099FF6FF01D0201F05F
:10558000E6FDCDE90E01304600F090FF6FF03D02E0
:1055900001F0DDFD80468A46384600F087FF6FF057
:1055A0005D0201F0D4FD074642465346119100F0DA
:1055B00001FDDDE90E2300F0FDFC5A460D9B00F0D5
:1055C000F9FC00250E465A4628460D9B01F072F95B
:1055D000DDE90E2301F06EF94246534601F06AF907
:1055E0003A46119B01F074F8DFF898A0244A53461C
:1055F00000F070FF07468846234A244B3146284670
:1056000000F068FF3A46434600F0D4FC074688465F
:105610004FF0A84253463146284600F05BFF3A4619
:10562000434600F0C7FC159A12F0004F04D0129ABE
:1056300081F0004152421292C4E90001129817B061
:10564000BDE8F08FFB21E93F7CD90240FB21F93F07
:105650007370032E8A19A33B000040543163621A11
:1056600061B4D03DFB21394183C8C96D305FE43F4F
:105670000000E03F1429000090280000722800007C
:10568000182D4454FB21F93D3326A611460B113C3D
:105690002DE9FF4D21F0004807460C46B8F1795F2F
:1056A00008DA00F08FFE002801BF0020324904B064
:1056B000BDE8F08D3A4623461046194600F00AFF31
:1056C000054602462D480E460B460621784400F05A
:1056D0005DF82A46334600F0FDFEDDE902238246EE
:1056E0008B463846214600F0F5FE04460F465246EA
:1056F0005B462846314600F0EDFE22463B4601F06F
:10570000D9F807468A464FF0FF322846314601F065
:105710001EFD1B4A90450ADA3A46534601F0CAF884
:1057200004B00022BDE8F04D134B00F0D1BF154A84
:105730004245A8BFA8F500154FF00004B8BF124DB0
:1057400022462B4601F0B6F80646884622462B46EE
:105750000020094901F0AEF804460D463A4653468A
:105760003046414601F0A6F804B022462B46BDE87B
:10577000F04D00F0ADBF00000000F03F40260000FB
:105780003333D33F0000E93F0000D23F2DE9F04121
:105790004F1E00EBC7010446D1E9000115461E4625
:1057A00037F006020DD02A46334600F093FE7F1EE6
:1057B00004EBC703D3E9002300F0FCFB37F006023B
:1057C000F1D1022F25D0042F13D0062F18BFBDE82A
:1057D000F0812A46334600F07DFED4E90A2300F02A
:1057E000E9FB2A46334600F075FED4E9082300F0B1
:1057F000E1FB2A46334600F06DFED4E9062300F0B3
:10580000D9FB2A46334600F065FED4E9042300F0B4
:10581000D1FB2A46334600F05DFED4E9022300F0B6
:10582000C9FB2A46334600F055FED4E90023BDE803
:10583000F04100F0BFBB00002DE9FF4D054621F00F
:10584000004084B00C46B0F1795F0BDA2846FFF7D0
:1058500047FD042808BF00F071F8284608B021462B
:10586000BDE8F08D2A460B46104600F033FE064692
:105870000F462A46234600F02DFE804626488A46DB
:1058800032463B4605217844FFF780FF8346109857
:10589000029160B3214A224B4046514600F01AFE65
:1058A000CDE900015A4640465146029B00F012FEE7
:1058B00082468846DDE906014FF0FF3201F047FCE1
:1058C0005246434600F0F6FF32463B4600F002FEE9
:1058D000DDE9062300F0EEFFDDE9002300F0EAFF3A
:1058E00008B02A462346BDE8F04D00F0F1BE0B4655
:1058F0005A463046394600F0EDFD084A084B00F0A4
:1059000059FB4246534600F0E5FD08B02A462346BF
:10591000BDE8F04D00F04EBB8625000049555555B9
:105920005555C5BF012201F012BC00F043BB002257
:1059300013461046114600F0EDBB0000024A00205D
:10594000110701F004BC000001FDFFFF30380A28F8
:1059500001D2012070470020704700002DE9F84F68
:1059600004460D4621F0004000917349814211DC4C
:105970007249884201DC06D12CB120462946BDE897
:10598000F84FFFF7CFBF6E48002DCCBF6D496E4971
:10599000BDE8F88F6D49814211DD6D498142D8BF64
:1059A0004FF0FF366DDD20462946FFF799FC0428AD
:1059B00008BFFFF7C3FF20462946BDE8F88F6549B9
:1059C000654F25F00045814233DD6449814219DD90
:1059D000002632464FF080432046294600F0EAFA7E
:1059E00080468A4601222046294601F0B0FB00226B
:1059F0003B4600F05FFF4246534600F08BFB0446F7
:105A00000D463EE001260022BA463B462046294686
:105A100000F0D0FA80460F46002253462046294621
:105A200000F048FF42463B4600F074FB04460D463A
:105A300027E04B4981421BDDDFF828A10226002226
:105A400053462046294600F045FD00223B4600F023
:105A5000B1FA80460F46002253462046294600F000
:105A600029FF42463B4600F055FB04460D4608E040
:105A7000032622462B4600203B4900F04BFB044600
:105A80000D4622462B461046194600F023FD8B4654
:105A9000824602460B4600F01DFD0746024633488B
:105AA00088460B4606217844FFF770FE52465B4657
:105AB00000F010FD82462E488B463A4643460521AB
:105AC0007844FFF763FE3A46434600F003FD024682
:105AD0000B46002E504659460CDA00F06BFA22466F
