:020000040800F2
:10000000F8740024AD020008E71F0008F11E000884
:10001000E51F0008B9030008FB2A000800000000E3
:10002000000000000000000000000000ED210008BA
:10003000BB03000800000000E91F0008EF210008D2
:10004000C7020008C7020008C7020008C70200086C
:10005000C7020008C7020008C7020008C70200085C
:10006000C7020008C7020008C7020008C70200084C
:10007000C7020008C7020008C7020008C70200083C
:10008000C7020008C7020008C7020008C70200082C
:10009000C7020008C7020008C7020008C70200081C
:1000A000C7020008C7020008C7020008C70200080C
:1000B000C7020008C7020008C7020008C7020008FC
:1000C000C7020008C7020008C7020008C7020008EC
:1000D000C7020008C7020008C7020008C7020008DC
:1000E000C7020008C702000800000000C70200089D
:1000F000C7020008C7020008C7020008C7020008BC
:10010000C7020008C7020008C7020008C7020008AB
:10011000C7020008C7020008C7020008C70200089B
:10012000C7020008C7020008C7020008C70200088B
:10013000C7020008C7020008C7020008C70200087B
:1001400000000000000000000000000000000000AF
:10015000C7020008C7020008C7020008C70200085B
:10016000C7020008C7020008C7020008C70200084B
:10017000C7020008C7020008C7020008000000000C
:10018000C7020008C7020008C7020008C70200082B
:10019000C7020008C7020008C7020008C70200081B
:1001A000C7020008C7020008C7020008C70200080B
:1001B000C7020008C7020008C7020008C7020008FB
:1001C000C7020008C7020008C7020008C7020008EB
:1001D000C7020008C7020008C7020008C7020008DB
:1001E000C7020008C7020008C7020008C7020008CB
:1001F000C7020008C7020008C7020008C7020008BB
:10020000C7020008C7020008C7020008C7020008AA
:10021000C7020008C7020008C7020008C70200089A
:10022000C7020008C7020008C7020008000000005B
:10023000C7020008C702000800000000C70200084B
:10024000C7020008C7020008C7020008C70200086A
:10025000C7020008C7020008C7020008C70200085A
:10026000C7020008C7020008C7020008C70200084A
:10027000C7020008C7020008C7020008000000000B
:10028000C7020008C7020008C702000800000000FB
:1002900000000000C7020008DFF80CD000F07AF878
:1002A000004800471D2B0008F874002406488047CA
:1002B00006480047FEE7FEE7FEE7FEE7FEE7FEE74B
:1002C000FEE7FEE7FEE7FEE7F522000899020008D8
:1002D0002DE9F05F0546002092469B46884606467B
:1002E000814640241BE0284641464746224600F00E
:1002F00041F853465A46C01A914110D31146184648
:10030000224600F028F82D1A67EB01084F462246D6
:100310000120002100F01FF817EB00094E41201EBC
:10032000A4F10104DFDC484631462A464346BDE8D5
:10033000F09FD2B201E000F8012B491EFBD27047BA
:100340000022F6E710B513460A4604461946FFF7A1
:10035000F0FF204610BD202A04DB203A00FA02F10B
:10036000002070479140C2F1200320FA03F31943A3
:1003700090407047202A04DB203A21FA02F0002145
:10038000704721FA02F3D040C2F1200291400843A5
:1003900019467047064C074D06E0E06840F001033F
:1003A00094E8070098471034AC42F6D3FFF778FF83
:1003B000942C0008B42C0008FEE77047EFF310807F
:1003C00072B6FEE72DE9FC4F5E4A0A275E4C0244F6
:1003D0004FEAB223A04208BF0927092B38BF4FEAD2
:1003E000B2274FF0000C009701274FF0000E0026B7
:1003F0009EE007FA06F912EA090B00F094804A68B9
:1004000002F00308A8F1010ABAF1010F13D803247E
:10041000856804FA0EF325EA0303CD6805FA0EF5A4
:100420002B4383604368C2F3001523EA0903B540F8
:100430002B43436004E0B8F1030F4FF003041FD0D7
:10044000C36804FA0EF5AB438D6805FA0EF52B432D
:10045000B8F1020FC36013D16FF0030202EA560233
:1004600002440CF01C03D2F820800F259D4028EA9E
:1004700005080D6905FA03F343EA080313624A68A5
:10048000036804FA0EF5AB4302F0030505FA0EF516
:100490002B4312F4403F036045D0864A13462B4C51
:1004A00012680F2542F002021A601A6802F0020276
:1004B000019226F00302019B0CF00C0352F8048019
:1004C0009D40009F28EA050507FA03F32B431351CB
:1004D0004FF0B048D8F800204B6842EA0B05DF0225
:1004E00058BF22EA0B05164A1446C8F800509F026E
:1004F000126842EA0B0558BF22EA0B059F032560EC
:100500004FF00107D4F8802042EA0B0558BF22EAD9
:100510000B05DB03C4F88050E26F42EA0B0558BFBD
:1005200022EA0B05E56701360EF1020E0CF1040C10
:100530000A6832FA06F47FF45CAFBDE8FC8F00BFB6
:10054000040000580000FEA70024025808040058C8
:1005500001480068000C70470010005C0548006806
:10056000704700BF2948007802490A6810440860B3
:10057000704700BFF000002480B5032000F0BCF8F5
:1005800001F024F80F490A68C2F3032209687C4B82
:1005900001F00F019A5C595C02F01F02D0400A4A38
:1005A00001F01F0120FA01F11160194908600F20C4
:1005B00000F00CF808B1012080BD00F06DF80020BB
:1005C00080BD00BF184402580C00002470B50F4EC7
:1005D0003178C1B104464FF47A70B0FBF1F00C49A8
:1005E0000968B1FBF0F001F001FB0F2C4FF00105A1
:1005F0000AD848B94FF0FF3000222146002500F00C
:100600005BF8746000E00125284670BD00000024FE
:1006100008000024B0B50278114D4378002A2B6001
:100620001AD043686B60037BC17A847A42EA037212
:10063000437B42EA0161827B41EAC441C47B41EAD7
:100640008341437A41EA4241007A41EA044141EA66
:10065000032141EA400001E000206860A860B0BDCD
:1006600098ED00E0BFF35F8F0A48016821F4803104
:10067000016000210167704740F0010005490867EB
:10068000086840F480300860BFF34F8FBFF36F8F6E
:10069000704700BF24ED00E081B00648016841F0DA
:1006A00002010160006800F002000090009801B0B3
:1006B000704700BFF444025880B5154B1B68C3F364
:1006C000022C8CF0070EBEF1040F28BF4FF0040E71
:1006D000BCF103034FF0FF3C38BF00230CFA0EFEC1
:1006E00021EA0E0199400CFA03F39A431143BDE845
:1006F000804002F003BA00BF05490A684FF6FF03C5
:100700001A4060F30A22034810430860704700BF94
:100710000CED00E00000FA05B0B5104D296849075E
:10072000296805D401F00701081A18BF0120B0BDDF
:1007300021F0070108432860FFF710FF044655F831
:10074000080C800407D4FFF709FF001BB0F57A7F7F
:10075000F5D90120B0BD0020B0BD00BF0C48025843
:1007600080B500F0F3FE0549054A0968C1F302119E
:10077000515C01F01F01C84080BD00BF20440258F9
:100780005A2C000810B53C4CA36AA26AC2F3053C7F
:10079000E26AC2F30012E16BC1F3CC01BCF1000FBD
:1007A00011FB02F100EE101AB8EE400A0AD003F075
:1007B0000303022B0AD063B9216889060CD49FED8C
:1007C000311A13E00021C0E9001153E09FED2C1A0B
:1007D0000CE09FED2A1A09E021682B4AC1F3C10100
:1007E00022FA01F101EE101AB8EE411A02EE10CA17
:1007F0009FED263AB8EE422AA16B6FF35F2181EE9E
:10080000021A02EE101AB8EE422AA16BC1F3462179
:1008100000EE032AB7EE000A03EE101A32EE002AA9
:10082000B8EE433A21EE021A33EE002A81EE022A94
:10083000BCEEC22A80ED002AA16BC1F3064102EE94
:10084000101AB8EE422A32EE002A81EE022ABCEEDD
:10085000C22A80ED012AA16BC1F3066102EE101AD3
:10086000B8EE422A32EE000A81EE000ABCEEC00A5F
:1008700010EE101A816010BD004402580024744A22
:1008800020BCBE4B0024744C0090D0030000003903
:1008900010B53C4CA36AA26AC2F3055CE26AC2F3DB
:1008A0000022616CC1F3CC01BCF1000F11FB02F11D
:1008B00000EE101AB8EE400A0AD003F00303022B30
:1008C0000AD063B9216889060CD49FED311A13E070
:1008D0000021C0E9001153E09FED2C1A0CE09FEDC0
:1008E0002A1A09E021682B4AC1F3C10122FA01F159
:1008F00001EE101AB8EE411A02EE10CA9FED263A28
:10090000B8EE422A216C6FF35F2181EE021A02EEEB
:10091000101AB8EE422A216CC1F3462100EE032AD8
:10092000B7EE000A03EE101A32EE002AB8EE433A90
:1009300021EE021A33EE002A81EE022ABCEEC22A10
:1009400080ED002A216CC1F3064102EE101AB8EEC8
:10095000422A32EE002A81EE022ABCEEC22A80ED43
:10096000012A216CC1F3066102EE101AB8EE422A88
:1009700032EE000A81EE000ABCEEC00A10EE101A38
:10098000816010BD004402580024744A20BCBE4B54
:100990000024744C0090D003000000392DE9F0478A
:1009A0000446C078B04F000722D5A06E4FEA305100
:1009B000032908D8DFE801F002090F17F96941F4AB
:1009C0000031F9610FE0012613E004F10800022173
:1009D00001F00CFB04E004F12800022101F086FB89
:1009E000064630B9A06E396C21F4401108433864D2
:1009F00000266078BA46C00701D135462AE0A06DCE
:100A000004280BD83546DFE800F0030C1218180054
:100A1000F869354640F40030F8610EE00125012701
:100A200019E004F10800002101F0E0FA04E004F10B
:100A30002800002101F05AFB0546002D2F460AD15F
:100A4000DAF84000002520F00700A16D0843524667
:100A5000CAF840003746607880072DD5E06D4FEA30
:100A6000B01004280CD8DFE800F0030E141A1A00A6
:100A7000DAF81C00514640F40030CAF81C000EE0C1
:100A80000125012619E004F10800002101F0AEFA69
:100A900004E004F12800002101F028FB0546002DA8
:100AA0002E460AD1DAF84000002520F4E070E16D0E
:100AB00008435246CAF840003E466078400702D4D8
:100AC000B04657462CE0D4F8A80057464FEA70507D
:100AD000042809D8DFE800F0030C12181800F869A0
:100AE00040F40030F8610FE001254FF0010817E0F5
:100AF00004F10800002101F079FA04E004F1280073
:100B0000002101F0F3FA0546002DA84608D1B86C83
:100B1000002520F46000D4F8A8100843B046B8645B
:100B2000607800072CD5D4F8AC004FEA3060042878
:100B300009D8DFE800F0030B11171700F86940F43B
:100B40000030F8610EE0012501271AE004F10800E9
:100B5000002101F04BFA04E004F12800002101F02B
:100B6000C5FA0546002D2F460BD1DAF848000025BE
:100B700020F0E060D4F8AC1008435246CAF84800B0
:100B80004746E078800726D5E06C4FEA301003280E
:100B90000BD8DFE800F013020D13DAF81C00514601
:100BA00040F40030CAF81C0008E00125012613E0DB
:100BB00004F10800022101F019FA0546002D2E4625
:100BC0000AD1DAF83C00002520F03000E16C08433F
:100BD0005246CAF83C003E466078C0062DD5206ECD
:100BE0004FEA303004280CD8DFE800F0030E141A66
:100BF0001A00DAF81C00514640F40030CAF81C0014
:100C00000EE00125012719E004F10800002101F0A0
:100C1000EDF904E004F12800002101F067FA05462F
:100C2000002D2F460AD1DAF84000002520F4E040DC
:100C3000216E08435246CAF8400037466078800665
:100C400027D5606E4FEA304005280AD8DFE800F06B
:100C500014030E14141404F10800012101F0C6F964
:100C600009E00125012615E01044025804F128008E
:100C7000012101F03BFA0546002D2E460AD1DAF893
:100C80004000002520F4E020616E08435246CAF877
:100C900040003E466078400627D5D4F8B0004FEAC1
:100CA000307005280AD8DFE800F012030C12121287
:100CB00004F10800012101F099F907E0012501275D
:100CC00014E004F12800012101F010FA0546002D7E
:100CD0002F460BD1DAF84800002520F0E040D4F888
:100CE000B01008435246CAF84800374660780006FC
:100CF00022D5206F98B1B0F1005F0AD0B0F1805FCB
:100D00002ED1DAF81C00514640F40030CAF81C001D
:100D100005E004F10800012101F068F90546002D05
:100D20002E460AD1DAF84000002520F04050216F0D
:100D300008435246CAF840003E46E078C00702D158
:100D4000B046574624E0A06C574603280BD8DFE88E
:100D500000F014020E14F86940F40030F8610CE061
:100D600001250126E9E701254FF0010810E004F113
:100D70000800022101F03AF90546002DA84607D1E6
:100D8000F86B002520F00300A16C0843B046F8631F
:100D9000A078400601D4474617E0D7F8F00340F4A6
:100DA0008070C7F8F003FFF7D9FB0646D7F8F003C9
:100DB000C00507D4FFF7D2FB801B6428F6D90325B2
:100DC000032702E0002D2F4612D02078C00750D014
:100DD000E06F4FEAF000052835D8DFE800F03D036A
:100DE000373D3D3D04F10800012101F0FFF832E0FC
:100DF000DAF860105346D4F8B400414011F4407F53
:100E00000BD0196E1A6E21F4407142F480321A66CA
:100E10001A6E22F480321A661966B0F5807F40F0AF
:100E20007282FFF79BFB064641F2883903250327B0
:100E3000DAF86000800700F16382FFF78FFB801B08
:100E40004845F5D9C1E70125012613E004F1280042
:100E5000012101F04BF90546002D2E460AD1DAF8A2
:100E60004400002520F03800E16F08435246CAF8DC
:100E700044003E462078800723D5A06F05280AD875
:100E8000DFE800F012030C12121204F10800012135
:100E900001F0ACF807E00125012713E004F1280078
:100EA000012101F023F90546002D2F460AD1DAF879
:100EB0004400002520F00700A16F08435246CAF8FD
:100EC000440037462078400725D5D4F894000528FB
:100ED0000AD8DFE800F012030C12121204F1080025
:100EE000012101F083F807E00125012614E004F157
:100EF0002800012101F0FAF80546002D2E460BD1FD
:100F0000DAF84800002520F00700D4F894100843D0
:100F10005246CAF848003E462078800627D5D4F8C5
:100F200090004FEA307005280AD8DFE800F012037D
:100F30000C12121204F10800002101F057F807E02A
:100F40000125012714E004F12800022101F0CEF868
:100F50000546002D2F460BD1DAF84400002520F07D
:100F6000E040D4F8901008435246CAF8440037468F
:100F70002078400627D5D4F89C004FEAB0200528F9
:100F80000AD8DFE800F012030C12121204F1080074
:100F9000002101F02BF807E00125012614E004F1FF
:100FA0002800022101F0A2F80546002D2E460BD1A3
:100FB000DAF84800002520F4E050D4F89C100843EB
:100FC0005246CAF848003E462078000627D5D4F895
:100FD000A0004FEA703005280AD8DFE800F01203BD
:100FE0000C12121204F10800002100F0FFFF07E0CC
:100FF0000125012714E004F12800022101F076F810
:101000000546002D2F460BD1DAF84800002520F4C4
:101010006040D4F8A01008435246CAF8480037464A
:101020002068010717D5D4F88410B1F5805F0AD184
:1010300004F12800022101F059F80028206818BFA7
:101040000127D4F88410DAF84420534622F44052A1
:101050001143CAF84410C10617D5D4F89810B1F559
:10106000807F0AD104F12800022101F03FF8002816
:10107000206818BF0127D4F89810DAF848205346A2
:1010800022F440721143CAF84810000322D5D4F864
:10109000A400B0F5003F0FD0B0F5803F06D088BB6C
:1010A00004F10800002100F0A1FF04E004F1280091
:1010B000022101F01BF80546002D2E460BD1DAF86F
:1010C0004800002520F44030D4F8A41008435246CC
:1010D000CAF848003E46A07840072AD5D4F88800D0
:1010E000B0F5401F17D0B0F5001F0ED0B0F5801F2F
:1010F00040F00181DAF81C00514640F40030CAF893
:101100001C0008E001250126E5E704F12800012183
:1011100000F0ECFF0546002D2F460BD1DAF8440015
:10112000002520F44010D4F8881008435246CAF82D
:1011300044003746A078C00701D13E4622E0206D2A
:10114000B0F5803F08D0D8B9DAF81C00514640F419
:101150000030CAF81C0005E004F10800022100F08C
:1011600045FF0546002D2E460CD1DAF83C0000253F
:1011700020F48030216D08435246CAF83C00DCE779
:10118000012501262168880001D4606809E004F186
:101190002800022100F0AAFF002818BF0126D4E988
:1011A00000108A031BD5D4F880206FF0010303EBF5
:1011B0003223022B0BD34FEA322343B1012B40F0F1
:1011C0009D80DAF81C3043F40033CAF81C303DB976
:1011D000DAF8443023F440731A43CAF84420354601
:1011E000CA0207D5DAF8402022F00042636F1A43A2
:1011F000CAF84020CA0008D5DAF8002022F480425C
:10120000D4F8B8301A43CAF800208A0207D5DAF8B1
:10121000402022F08072E36E1A43CAF840204A0050
:101220000CD5DAF8002022F40042CAF80020D4F8E5
:10123000BC20DAF800301A43CAF80020B1F1FF3FB1
:1012400007DCDAF83C2022F04052636D1A43CAF8FA
:101250003C20090208D5DAF8441021F44001D4F802
:101260008C201143CAF84410C10708D004F10800CB
:10127000002100F0BBFE002818BF0546606881070A
:1012800008D504F10800012100F0B0FE002818BFC5
:1012900005466068410708D504F10800022100F006
:1012A000A5FE002818BF05466068010708D504F1AF
:1012B0002800002100F01AFF002818BF05466068CA
:1012C000C10608D504F12800012100F00FFF002815
:1012D00018BF05466068800603D44DB10120BDE803
:1012E000F08704F12800022100F000FF2843F5D127
:1012F0000020BDE8F087012501271BE701256FE7E6
:101300005346D4F8B40000F440711A68B1F5407F38
:1013100022F47C5103D1064A02EA101211431960EB
:101320006FF31F30196E00250843186633E500BFC0
:10133000CFFFFF002DE9F843002800F0FE800446AF
:10134000804B186800F00F00884688420BD218685E
:1013500020F00F0040EA08001860186800F00F0045
:10136000404540F0EA802068CF4F41070AD5216907
:10137000BA6902F07002914204D9BA6922F070028F
:101380001143B96101070AD56169FA6902F0700277
:10139000914204D9FA6922F070021143F961C10641
:1013A0000AD5A169FA6902F4E062914204D9FA69A6
:1013B00022F4E0621143F96181060AD5E1693A6AD3
:1013C00002F07002914204D93A6A22F0700211438D
:1013D000396281070AD5E168BA6902F00F029142C9
:1013E00004D9BA6922F00F021143B961C10736D09E
:1013F000B86920F47061D4E9010211430328B9618E
:1014000005D0022807D1396889030DD495E03968E1
:10141000890109D491E00128396802D1C90503D4B2
:101420008BE0490740F189803969994621F007012D
:1014300008433861FFF792F8064641F2883538696B
:1014400000F038006168B0EBC10F06D0FFF786F8F6
:10145000801BA842F3D9032070E020684B46810727
:101460000AD5E168BA6902F00F02914204D2BA6962
:1014700022F00F021143B961196801F00F014145D3
:101480000AD9196821F00F0141EA080119601968A9
:1014900001F00F01414550D141070AD52169BA69D0
:1014A00002F07002914204D2BA6922F07002114334
:1014B000B96101070AD56169FA6902F070029142C7
:1014C00004D2FA6922F070021143F961C1060AD50B
:1014D000A169FA6902F4E062914204D2FA6922F445
:1014E000E0621143F96180060AD5E069396A01F0CA
:1014F0007001884204D2396A21F0700108433862D1
:1015000000F064F8B969C1F303212F4A515CBB694B
:1015100003F00F03D25C01F01F0120FA01F102F089
:101520001F00184A21FA00F01060174A06480068A8
:101530001160BDE8F843FFF749B8012001B0BDE8EC
:10154000F08300BF002000520400002480B500F0AA
:101550003DF80B490A68C2F3032209681A4B01F0EF
:101560000F019A5C595C02F01F0220FA02F201F0AE
:101570001F00044922FA00F0086003490A6080BD98
:10158000184402580C0000240800002480B5FFF71E
:10159000DDFF0C490C4A0968C1F30211515C01F0EE
:1015A0001F01C84080BD00BF80B5FFF7CFFF0549D0
:1015B000054A0968C1F30221515C01F01F01C840CE
:1015C00080BD00BF1C4402585A2C000836490869E7
:1015D000C0F3C20003280CD0022828D048BB0868FA
:1015E0008006374858BF70470968C1F3C101C84039
:1015F00070478A6A886AC0F3051CCB6A486B03F09F
:101600000103C0F3CC00BCF1000F10FB03F000EEAF
:10161000100AB8EE400A0ED002F00302022A0CD0E3
:1016200072B9086880060ED49FED241A15E0204890
:1016300070471E487047002070479FED1F1A0CE04E
:101640009FED1C1A09E008681D4AC0F3C10022FA88
:1016500000F001EE100AB8EE411A02EE10CA9FED3A
:10166000193AB8EE422A086B6FF35F2081EE021A36
:1016700002EE100AB8EE422A086BC0F3462000EED4
:10168000032AB7EE000A013032EE000A21EE000A0A
:1016900001EE100AB8EE411A80EE010ABCEEC00A53
:1016A00010EE100A704700BF0044025800093D00C8
:1016B00040787D010024744A20BCBE4B0024744C49
:1016C0000090D00300000039F8B5002800F0B48184
:1016D00004460078D74EC00721D12078800740F11A
:1016E000B180306910F03801B06A3CD0182908BFC9
:1016F0005FEA807037D0E068002831685CD021F064
:10170000190108433060FEF729FF0546306840079D
:1017100043D4FEF723FF401B0228F7D9A0E130692C
:1017200000F03801B06A102905D018290AD100F05C
:101730000300022806D130688003CED560680028F7
:10174000CBD179E16068002847D0B0F5803F06D062
:10175000B0F5A02F30685ED140F480203060306852
:1017600040F480305DE030684007E06802D5002832
:1017700000F06281316821F0190108433060FEF702
:10178000EDFE05463068400707D4FEF7E7FE401B34
:1017900002284FF00300F5D963E1FEF7D9FE41F2CC
:1017A0000301884230D820697168402821F47C31D7
:1017B00045D141F4003044E021F001003060FEF7F3
:1017C000CDFE0546306840073CD5FEF7C7FE401BFE
:1017D00002284FF00300F5D943E1306820F480304F
:1017E0003060306820F480203060FEF7B7FE054698
:1017F000306880037FF571AFFEF7B0FE401B6428B0
:101800004FF00300F4D92CE1706820F0FE4021690C
:1018100040EA016015E020F480303060306820F448
:1018200080203060FEF79AFE0546306880033FF561
:1018300054AFFEF793FE401B6428F6D910E141EA4D
:10184000003070602078C00653D5306900F0380150
:10185000B06A082905D018290BD100F0030001282F
:1018600007D13068C00519D5E069802840F0E480D0
:1018700014E0E0690028306827D040F08000306034
:10188000FEF76CFE05463068C00507D4FEF766FE1D
:10189000401B02284FF00300F5D9E2E0FEF758FEA6
:1018A00041F20301884208D8206A7168202821F09B
:1018B000F8411BD141F080401AE0F06820F07C50E4
:1018C000216A40EA0160F06013E020F0800030609F
:1018D000FEF744FE05463068C0050AD5FEF73EFE19
:1018E000401B02284FF00300F5D9BAE041EA8060BE
:1018F00070602078000723D560690028706F0ED0D3
:1019000040F001007067FEF729FE0546706F800702
:1019100016D4FEF723FE401B0228F7D9A0E020F0E2
:1019200001007067FEF71AFE0546706F800707D545
:10193000FEF714FE401B02284FF00300F5D990E09B
:101940002078800623D5A069002830680ED040F4A6
:1019500080503060FEF702FE05463068800416D4E1
:10196000FEF7FCFD401B0228F7D979E020F48050F7
:101970003060FEF7F3FD05463068800407D5FEF7BA
:10198000EDFD401B02284FF00300F5D969E02078F7
:10199000400753D4656A002D00F00D81306900F0D6
:1019A000380018286ED1B16A012D306B44D001F097
:1019B0000302A36A9A423FD1C1F30511E26A914240
:1019C0003AD10146226B6FF35F21013A914233D144
:1019D000C0F34621626B013A91422DD1C0F306411A
:1019E000A26B013A914227D1C0F30660E16B013945
:1019F000884221D1706BC0F3CC00A16C814200F011
:101A0000DA80F06A20F00100F062FEF7A7FD0546DB
:101A1000FEF7A4FDA842FBD0706B4FF6F871884327
:101A2000A16C40EAC1007063F06A40F00100F0620E
:101A3000C1E000BF00440258012012E0D6F80004C3
:101A400040F48070C6F80004FEF788FD0546D6F81D
:101A50000004C00507D4FEF781FD401B6428F6D9B9
:101A6000032001B0F0BDA06860B3012806D00528AE
:101A7000306F40F0A28040F004003067306F40F0DB
:101A80000100A0E0306820F080703060FEF766FD55
:101A9000022D05460AD1306880012CD5FEF75EFD87
:101AA000401B02284FF00300F5D9DAE730688001C7
:101AB00040F18180FEF752FD401B02284FF00300E9
:101AC000F4D9CEE7306F20F001003067306F20F09E
:101AD00004003067FEF742FD054641F28837306F5B
:101AE00080077FF557AFFEF739FD401BB8424FF036
:101AF0000300F4D9B5E7B06A40F2F3318843A16A34
:101B0000226B0843511E626B4FF47E4303EB42226B
:101B1000E36A6FF35F2192B240EA0310B06250189B
:101B2000A16B4FF4FE0202EB014101F4FE010844F7
:101B3000E16B4FF0FE4202EB016101F0FE4108440F
:101B400030634FF6F871F06A20F00100F062706BBC
:101B50008843A16C40EAC1007063F06A20F00C0079
:101B6000216C0843F062F06A20F00200616C0843C7
:101B7000F062F06A40F48030F062F06A40F40030C5
:101B8000F062F06A40F48020F062F06A40F00100F8
:101B9000F062306840F080703060FEF7DFFC044691
:101BA0003068800107D4FEF7D9FC001B02284FF0F3
:101BB0000300F5D955E7002053E720F00100306716
:101BC000306F20F004003067FEF7C8FC054641F294
:101BD0008837306F80073FF5DDAEFEF7BFFC401B56
:101BE000B8424FF00300F4D93BE70000411E00204B
:101BF000B0EB116F01D001207047044A5160F02111
:101C0000034B1970072190601160704710E000E0ED
:101C100023ED00E090F83C20012A4FF0020233D07F
:101C200070B501231E4E80F83C3080F83D200268DC
:101C300042F480635468B342936802BF24F4700492
:101C40004D682C43B2F1804F24F070050C6845EAD2
:101C5000040555600BD0134CA2421CBF124CA2428B
:101C600005D0124CA2421CBF114CA2420ED123F04F
:101C700080038968194391600121002280F83D109A
:101C800080F83C20BDE8704010467047094CA242E5
:101C9000EDD0094CA24218BFB242E8D0ECE700BF39
:101CA000000401400004004000080040000C004017
:101CB00000180040000001400040014060B310B532
:101CC000044690F83D0028B9002084F83C002046E6
:101CD00000F024F8022084F83D00211D206800F067
:101CE00063FB012084F8480084F83E0084F83F003C
:101CF00084F8400084F8410084F8420084F84300EE
:101D000084F8440084F8450084F8460084F84700CD
:101D100084F83D00002010BD0120704700689649FE
:101D2000884218BF704781B00548016841F0200122
:101D30000160006800F020000090009801B070473A
:101D4000E844025890F88410012901D1022112E0E0
:101D50002421C0F8881002681368116823F000532A
:101D600021F0010111600021416613602022C0F8BA
:101D7000882080F8841008467047B0B5044690F873
:101D80008400012801D10220B0BD012084F8840024
:101D90002420C4F8880020680568026822F0010247
:101DA0000260826822F0606211438160204600F088
:101DB00077FB206805602020C4F88800002084F8A4
:101DC0008400B0BDB0B5044690F88400012801D16C
:101DD0000220B0BD012084F884002420C4F88800CB
:101DE00020680568026822F001020260826822F021
:101DF000604211438160204600F052FB206805607C
:101E00002020C4F88800002084F88400B0BD10B5FC
:101E1000B0B10446D0F8880028B9002084F88400C6
:101E2000204600F027F82420C4F8880020680168C4
:101E300021F001010160204600F048FC012801D199
:101E4000012010BDA06A10B1204600F053FB2068AD
:101E5000416821F490414160816821F02A0181604C
:101E6000016841F0010101602046BDE8104000F02A
:101E7000A5BB000010B5B8B0044633A81421FEF786
:101E80005FFA02A8C021FEF75BFA20685449884235
:101E90002AD101200024029002A803942194FEF785
:101EA0007DFD08B1FEF78AFA2248016941F0100170
:101EB0000161016901F0100101910199016841F08E
:101EC0000201016033A9006800F00200019001984E
:101ED0004FF4404033900220CDE93404042036947E
:101EE00037900248FEF76EFA38B010BD0004025871
:101EF000FEE7000083B00F48016841F080010160F7
:101F0000016801F0800102910299016841F002012B
:101F10000160016801F0020101910199016841F03D
:101F200001010160006800F001000090009803B01A
:101F3000704700BFE04402581FB500240D480E4909
:101F4000EF220394CDE90144C0E900124FF6FF717E
:101F5000C0E902418461FFF7B1FE08B1FEF72EFA35
:101F6000044801A901940394FFF754FE08B1FEF759
:101F700025FA1FBD100000240014004010B5174CB6
:101F800017484FF4E13120600020C4E901100C2112
:101F9000E060C4E9040104F118001421FEF7D0F94F
:101FA0002046FFF734FF08B1FEF708FA0B4800217E
:101FB000FFF708FF08B1FEF701FA08480021FFF714
:101FC000DCFE08B1FEF7FAF90448FFF7BBFE18B1D2
:101FD000BDE81040FEF7F2B910BD00BF5C00002460
:101FE00000100140FEE7FEE770470000F8B5E64F3D
:101FF000BA6A02F00302032A01D1012074E0054607
:10200000386820F080600C463860FEF7A7FA064674
:102010003868000105D5FEF7A1FA801B0228F7D920
:102020005FE0B86A4FF47E43696820F47C30AA68A8
:10203000013903EB42222B686FF35F2192B240EA31
:1020400003301144EA684FF4FE03B86203EB024226
:1020500002F4FE02881829694FF0FE4202EB01618A
:1020600001F0FE410844B863002CF86A20F0C0007B
:10207000696940EA0100F862F86A20F02000A96965
:1020800040EA0100F8624FF6F871F86A20F010009B
:10209000F862F86B20EA0100E96940EAC100F863E0
:1020A000F86A40F01000F86205D0012CF86A06D1F9
:1020B00040F4801005E0F86A40F4002001E040F4AC
:1020C0000010F862386840F080603860FEF746FA29
:1020D00004463868000106D4FEF740FA001B0328C6
:1020E000F7D3032000E0002001B0F0BDF8B5A64F03
:1020F000BA6A02F00302032A01D1012074E0054606
:10210000386820F080500C463860FEF727FA064603
:102110003868800005D5FEF721FA801B0228F7D920
:102120005FE0B86A4FF47E43696820F07C70AA686B
:10213000013903EB42222B686FF35F2192B240EA30
:1021400003501144EA684FF4FE03B86203EB024205
:1021500002F4FE02881829694FF0FE4202EB016189
:1021600001F0FE4108443864002CF86A20F4406015
:10217000696940EA0100F862F86A20F40070A96910
:1021800040EA0100F8624FF6F871F86A20F48070B6
:10219000F862786C20EA0100E96940EAC1007864DD
:1021A000F86A40F48070F86205D0012CF86A06D114
:1021B00040F4000005E0F86A40F4800001E040F0DF
:1021C0008070F862386840F080503860FEF7C6F9D9
:1021D00004463868800006D4FEF7C0F9001B0328C7
:1021E000F7D3032000E0002001B0F0BD7047FEF7F8
:1021F000B9B90000B0B59CB009A83B4C3B4D4C218F
:10220000FEF79EF801A82021FEF79AF80220FEF7BB
:1022100083FA00200090286820F0010028602868D8
:1022200000F001000090206840F4404020602068E9
:1022300000F440400090009820688004FCD52C48B1
:10224000215841F002012150205800F00200009076
:10225000009800200090206840F4404020602068F2
:1022600000F440400090286840F001002860286891
:1022700000F001000090009820688004FCD5012047
:1022800009904FF480300A9002200521CDE9120018
:102290001491C021CDE91510CDE9170008240025BF
:1022A000199409A8CDE91A55FFF70EFA18B1EFF302
:1022B000108072B6FEE73F2001900320CDE90205B1
:1022C000402004944FF48061CDE90500CDE907106A
:1022D00001A80421FFF72EF818B1EFF3108072B6B1
:1022E000FEE71CB0B0BD00BF184802582C040058CF
:1022F000DCFCFFFF23480168214A41F470010160C2
:10230000106800F00F00062804D81068072161F358
:102310000300106010B51C4801681C4C41F001011D
:1023200001600021016103682340036013681B07FB
:1023300004D51368072464F303031360144A81610E
:10234000C16101628262134AC262134A026341633D
:102350008263C16302644164026822F480220260E5
:1023600001660E480068B1EB507FBDE8104002D115
:1023700001200B49086043F2D2000A490860704707
:102380000020005288ED00E0004402587FEDF6EA9C
:10239000000202020000FF01800201010010005C47
:1023A0000881005100400052F0B5B0F1804F036841
:1023B000334A05D0334CA0421CBF334CA04234D129
:1023C00023F070034C68234302F58044041BB4FAE5
:1023D00084F44FEA541C02F58844041BB4FA84F4D4
:1023E0004FEA541E02F59044041BB4FA84F46409C5
:1023F00023F44073CD682B4323F080034E690D68AE
:1024000033438F68002C0360C762856208BFBEF14A
:10241000000F05D190421CBF02F5806290422BD183
:102420000969016301214161F0BD184CA042C7D088
:10243000174CA04218BF9042C2D002F58044154DFF
:10244000041BB4FA84F44FEA541C02F58844041BBC
:10245000B4FA84F44FEA541E02F59044041BB4FA13
:1024600084F4A8424FEA5414C2D00B4DA842BFD006
:102470000A4DA842BCD0BFE7BCF1000FD2D0CFE7D5
:10248000000001400004004000080040000C004033
:102490000004014000400140004801400044014068
:1024A000416ED9B180B501688A68C2F34262896819
:1024B000490FDFF838C01CF80130DFF834E01EF8AF
:1024C00001101B01B3FBF1F11CF802301EF80220D1
:1024D0001B01B3FBF2F2BDE8804001E001210122C3
:1024E000A0F86A10A0F86820704700BF822C00088E
:1024F0008A2C0008816ACA0708D00268D0F82CC06C
:10250000536823F4003343EA0C0353608A0708D569
:102510000268D0F830C0536823F4803343EA0C03D8
:1025200053604A0708D50268D0F834C0536823F4D2
:10253000802343EA0C0353600A0708D50268D0F8E9
:1025400038C0536823F4004343EA0C035360CA06BF
:1025500008D50268D0F83CC0936823F4805343EA5E
:102560000C0393608A0608D50268D0F840C09368CF
:1025700023F4005343EA0C0393604A0612D5026821
:10258000D0F844C05368BCF5801F23F4801343EA9D
:102590000C03536006D1536823F4C00C836C43EAE8
:1025A0000C035360090658BF70470168C06C4A6845
:1025B00022F400221043486070470000BCB500219F
:1025C0000446C0F89010FDF7C9FF216805460A6867
:1025D000120718D525484FF400110090002220461C
:1025E0002B4600F041FA68B1206850E8000F2168DE
:1025F00020F0800041E80002002AF5D12020C4F834
:10260000880024E021680868400722D517484FF465
:1026100080010090002220462B4600F025FAC0B130
:10262000206850E8000F216820F4907041E8000213
:10263000002AF5D1206850E8020F216820F001003F
:1026400041E80202002AF5D12020C4F88C000320C2
:1026500007E02020C4F88800C4F88C000020E06661
:102660002067002184F8841002B0B0BDFFFFFF0195
:10267000016851E8001F026821F4907142E80013DC
:10268000002BF5D110B5104C026852E8022F0368F8
:10269000224043E802210029F6D1C16E0129BDE89C
:1026A000104009D1016851E8001F026821F01001B3
:1026B00042E80013002BF5D12021C0F88C10002136
:1026C000C1664167704700BFFEFFFFEFFEB50446DD
:1026D000006804F108038D4D8B4E0ECB19436369DE
:1026E0000B43E16907680B432F409D4D3B4303605B
:1026F000A842436823F4405342EA03024260A269BD
:102700001CBF236A1A4383683340964E1A43826083
:10271000B042C26A944E22F00F03626A43EA020397
:10272000C36228D0914B984232D0914B98423CD012
:10273000904B984246D0904B984200F050808F4B7F
:10274000984200F05880A84200F061808C4B98427B
:1027500000F069808B4B984240F07B80736DB446EB
:10276000C3F3C206052E00F275800123DFE806F0F0
:102770007367696B6D6F736DB44603F00706052EC2
:1027800000F268800023DFE806F0665A5C5E606253
:10279000736DB44603F00706052E00F25B8000233C
:1027A000DFE806F0594D4F515355736DB44603F0B1
:1027B0000706052E00F24E800023DFE806F04C40AD
:1027C00042444648736DB44603F00706052E00F2F6
:1027D00041800023DFE806F03F333537393B736D26
:1027E000B44603F00706052E34D80023DFE806F0D0
:1027F0003327292B2D2F736DB44603F00706052EC2
:1028000028D80023DFE806F0271B1D1F2123B36D06
:10281000B44603F00706052E1CD80223DFE806F0B5
:102820001B0F11131517736DB446C3F3C206052EA3
:1028300010D80123DFE806F00F030507090B042376
:1028400009E0082307E0102305E0202303E04023EC
:1028500001E0B4468023A8427F4810D0B1F5004F74
:102860001DD1082B4FF0010127D8DFE803F0058DBB
:10287000D5D590D5D5D59400FEF788FE8FE0402BB6
:1028800032D0042B33D0082B35D0102B40D0202B46
:1028900048D0022B40F0BF80FDF762FF2FE0082BED
:1028A0004FF0010114D8DFE803F00594B7B797B7EC
:1028B000B7B79B00FEF76AFE96E0102B00F0B580DC
:1028C000202B6ED0402B40F0A7804FF4004068E0F2
:1028D000102B00F0B580202B00F08880402B40F0BA
:1028E0009B804FF4004081E04FF400401AE06846BE
:1028F000FDF748FF02E06846FDF7CAFF019800288F
:1029000000F08780626A0DE0FFF4FF11F369FFCFEA
:10291000DCF8000065468006504803D52968C1F3FD
:10292000C101C8404E4931F812106268B0FBF1F0A5
:1029300002EB420188424FF001016DD3130398422C
:102940006AD8010E000210EB520041F10001002391
:10295000FDF7BEFCA0F54071424A914257D95AE0BA
:10296000000C005800440040004402580048004059
:10297000004C00400050004000780040007C0040C7
:102980000014014000100140FEF70EFE07E068460B
:10299000FDF7F8FE02E06846FDF77AFF0198C0B344
:1029A000626A2F4931F81210B0FBF1F061684A08F1
:1029B00002EB4000B0FBF1F04FF6EF72A0F1100116
:1029C000914228D84FF6F071C0F3420208401044FB
:1029D0001DE0FEF7E9FD07E06846FDF7D3FE02E0E3
:1029E0006846FDF755FF019898B1626A1C4931F8B5
:1029F00012104FF6EF72B0FBF1F0616800EB51007E
:102A0000B0FBF1F0A0F11001914204D880B221682E
:102A1000C860002100E001214FF00110A0660020F5
:102A2000C4E91D00084603B0F0BDDCF800006546AF
:102A300080060A48B5D52968C1F3C101C840B0E78E
:102A4000DCF80000654680060448CFD52968C1F34C
:102A5000C101C840CAE700BF00093D000090D00393
:102A60006A2C0008FFFC0F002DE9F843DDF82090E8
:102A7000984616460F460446006809F10105C169EB
:102A80003940C91BB1FA81F14909B14225D1002D64
:102A9000F5D0FDF763FDB9F1000F01464FF00300DB
:102AA0001CD0A1EB0801494518D8206801684907E6
:102AB000E5D5C169090714D4C1690905DFD54FF40B
:102AC000006101622046FFF7D3FD2020C4F890008A
:102AD000002084F88400032000E0002001B0BDE85D
:102AE000F083082505622046FFF7C2FD0020C4F8E8
:102AF000905084F884000120F0E7FEE700F00F0218
:102B00004A4B1A44044BB0F1FF3F4FEA0111C8BFD2
:102B1000C2181170704700BF00E400E0434801682C
:102B2000890312D4BFF34F8F0021BFF36F8FC0F81A
:102B30003C12BFF34F8FBFF36F8F016841F4003138
:102B40000160BFF34F8FBFF36F8F84B00168C9037B
:102B500027D40021016743F6E07CBFF34F8FC26E9C
:102B6000C2F34E31C2F3C9026FEA020E95070CEAB6
:102B700041142B46724643EA04060132C0F84C6207
:102B800003F14043F7D10029A1F10101EFD1BFF3D7
:102B90004F8F016841F480310160BFF34F8FBFF365
:102BA0006F8FFDF7E9FC01260096FDF75BFD4FF006
:102BB0001050204D01901E486C460290002003905A
:102BC0002046A8474FF040508DF80160019010203A
:102BD0008DF808002046A8470220174E8DF8010006
:102BE00020460196A84703208DF8010006F5003025
:102BF00001900E208DF808002046A84704208DF88B
:102C000001004FF0605001900F208DF80800204621
:102C1000A8470420FDF730FDFFF7ECFAFFF76AF94B
:102C2000FFF78AF9FFF7AAF904B0FEE714ED00E018
:102C300012000103150600080000023002E008C877
:102C4000121F08C1002AFAD170477047002001E026
:102C500001C1121F002AFBD17047000000000102D1
:102C6000030401020304060708090100020004002E
:102C7000060008000A000C00100020004000800040
:102C8000000101010103070100000804020408011A
:102C900001010000B82C0008000000241000000012
:102CA0003C2C0008C82C000810000024E874000028
:102CB0004C2C000800000000010000001000000083
:082CC0000090D0030090D00346
:040000050800029954
:00000001FF
