:020000040800F2
:10000000F0040024AD020008F31E0008FD1D0008E6
:10001000F11E0008B9030008A12900080000000033
:10002000000000000000000000000000F9200008AF
:10003000BB03000800000000F51E0008FB200008BC
:10004000C7020008C7020008C7020008C70200086C
:10005000C7020008C7020008C7020008C70200085C
:10006000C7020008C7020008C7020008C70200084C
:10007000C7020008C7020008C7020008C70200083C
:10008000C7020008C7020008C7020008C70200082C
:10009000C7020008C7020008C7020008C70200081C
:1000A000C7020008C7020008C7020008C70200080C
:1000B000C7020008C7020008C7020008C7020008FC
:1000C000C7020008C7020008C7020008C7020008EC
:1000D000C7020008C7020008C7020008C7020008DC
:1000E000C7020008C702000800000000C70200089D
:1000F000C7020008C7020008C7020008C7020008BC
:10010000C7020008C7020008C7020008C7020008AB
:10011000C7020008C7020008C7020008C70200089B
:10012000C7020008C7020008C7020008C70200088B
:10013000C7020008C7020008C7020008C70200087B
:1001400000000000000000000000000000000000AF
:10015000C7020008C7020008C7020008C70200085B
:10016000C7020008C7020008C7020008C70200084B
:10017000C7020008C7020008C7020008000000000C
:10018000C7020008C7020008C7020008C70200082B
:10019000C7020008C7020008C7020008C70200081B
:1001A000C7020008C7020008C7020008C70200080B
:1001B000C7020008C7020008C7020008C7020008FB
:1001C000C7020008C7020008C7020008C7020008EB
:1001D000C7020008C7020008C7020008C7020008DB
:1001E000C7020008C7020008C7020008C7020008CB
:1001F000C7020008C7020008C7020008C7020008BB
:10020000C7020008C7020008C7020008C7020008AA
:10021000C7020008C7020008C7020008C70200089A
:10022000C7020008C7020008C7020008000000005B
:10023000C7020008C702000800000000C70200084B
:10024000C7020008C7020008C7020008C70200086A
:10025000C7020008C7020008C7020008C70200085A
:10026000C7020008C7020008C7020008C70200084A
:10027000C7020008C7020008C7020008000000000B
:10028000C7020008C7020008C702000800000000FB
:1002900000000000C7020008DFF80CD000F07AF878
:1002A00000480047C5290008F0040024064880479C
:1002B00006480047FEE7FEE7FEE7FEE7FEE7FEE74B
:1002C000FEE7FEE7FEE7FEE70122000899020008CC
:1002D0002DE9F05F0546002092469B46884606467B
:1002E000814640241BE0284641464746224600F00E
:1002F00041F853465A46C01A914110D31146184648
:10030000224600F028F82D1A67EB01084F462246D6
:100310000120002100F01FF817EB00094E41201EBC
:10032000A4F10104DFDC484631462A464346BDE8D5
:10033000F09FD2B201E000F8012B491EFBD27047BA
:100340000022F6E710B513460A4604461946FFF7A1
:10035000F0FF204610BD202A04DB203A00FA02F10B
:10036000002070479140C2F1200320FA03F31943A3
:1003700090407047202A04DB203A21FA02F0002145
:10038000704721FA02F3D040C2F1200291400843A5
:1003900019467047064C074D06E0E06840F001033F
:1003A00094E8070098471034AC42F6D3FFF778FF83
:1003B000442B0008642B0008FEE77047EFF3108021
:1003C00072B6FEE72DE9FC4F5E4A0A275E4C0244F6
:1003D0004FEAB223A04208BF0927092B38BF4FEAD2
:1003E000B2274FF0000C009701274FF0000E0026B7
:1003F0009EE007FA06F912EA090B00F094804A68B9
:1004000002F00308A8F1010ABAF1010F13D803247E
:10041000856804FA0EF325EA0303CD6805FA0EF5A4
:100420002B4383604368C2F3001523EA0903B540F8
:100430002B43436004E0B8F1030F4FF003041FD0D7
:10044000C36804FA0EF5AB438D6805FA0EF52B432D
:10045000B8F1020FC36013D16FF0030202EA560233
:1004600002440CF01C03D2F820800F259D4028EA9E
:1004700005080D6905FA03F343EA080313624A68A5
:10048000036804FA0EF5AB4302F0030505FA0EF516
:100490002B4312F4403F036045D0864A13462B4C51
:1004A00012680F2542F002021A601A6802F0020276
:1004B000019226F00302019B0CF00C0352F8048019
:1004C0009D40009F28EA050507FA03F32B431351CB
:1004D0004FF0B048D8F800204B6842EA0B05DF0225
:1004E00058BF22EA0B05164A1446C8F800509F026E
:1004F000126842EA0B0558BF22EA0B059F032560EC
:100500004FF00107D4F8802042EA0B0558BF22EAD9
:100510000B05DB03C4F88050E26F42EA0B0558BFBD
:1005200022EA0B05E56701360EF1020E0CF1040C10
:100530000A6832FA06F47FF45CAFBDE8FC8F00BFB6
:10054000040000580000FEA70024025808040058C8
:1005500001480068000C70470010005C0548006806
:10056000704700BF2948007802490A6810440860B3
:10057000704700BFEC00002480B5032000F0BCF8F9
:1005800000F0CAFF0F490A68C2F3032209687C4BD6
:1005900001F00F019A5C595C02F01F02D0400A4A38
:1005A00001F01F0120FA01F11160194908600F20C4
:1005B00000F00CF808B1012080BD00F06DF80020BB
:1005C00080BD00BF184402580C00002470B50F4EC7
:1005D0003178C1B104464FF47A70B0FBF1F00C49A8
:1005E0000968B1FBF0F001F087FA0F2C4FF001051C
:1005F0000AD848B94FF0FF3000222146002500F00C
:100600005BF8746000E00125284670BD00000024FE
:1006100008000024B0B50278114D4378002A2B6001
:100620001AD043686B60037BC17A847A42EA037212
:10063000437B42EA0161827B41EAC441C47B41EAD7
:100640008341437A41EA4241007A41EA044141EA66
:10065000032141EA400001E000206860A860B0BDCD
:1006600098ED00E0BFF35F8F0A48016821F4803104
:10067000016000210167704740F0010005490867EB
:10068000086840F480300860BFF34F8FBFF36F8F6E
:10069000704700BF24ED00E081B00648016841F0DA
:1006A00002010160006800F002000090009801B0B3
:1006B000704700BFF444025880B5154B1B68C3F364
:1006C000022C8CF0070EBEF1040F28BF4FF0040E71
:1006D000BCF103034FF0FF3C38BF00230CFA0EFEC1
:1006E00021EA0E0199400CFA03F39A431143BDE845
:1006F000804002F057B900BF05490A684FF6FF0372
:100700001A4060F30A22034810430860704700BF94
:100710000CED00E00000FA05B0B5104D296849075E
:10072000296805D401F00701081A18BF0120B0BDDF
:1007300021F0070108432860FFF710FF044655F831
:10074000080C800407D4FFF709FF001BB0F57A7F7F
:10075000F5D90120B0BD0020B0BD00BF0C48025843
:1007600080B500F099FE0549054A0968C1F30211F8
:10077000515C01F01F01C84080BD00BF20440258F9
:100780000A2B000810B53C4CA36AA26AC2F3053CD0
:10079000E26AC2F30012E16BC1F3CC01BCF1000FBD
:1007A00011FB02F100EE101AB8EE400A0AD003F075
:1007B0000303022B0AD063B9216889060CD49FED8C
:1007C000311A13E00021C0E9001153E09FED2C1A0B
:1007D0000CE09FED2A1A09E021682B4AC1F3C10100
:1007E00022FA01F101EE101AB8EE411A02EE10CA17
:1007F0009FED263AB8EE422AA16B6FF35F2181EE9E
:10080000021A02EE101AB8EE422AA16BC1F3462179
:1008100000EE032AB7EE000A03EE101A32EE002AA9
:10082000B8EE433A21EE021A33EE002A81EE022A94
:10083000BCEEC22A80ED002AA16BC1F3064102EE94
:10084000101AB8EE422A32EE002A81EE022ABCEEDD
:10085000C22A80ED012AA16BC1F3066102EE101AD3
:10086000B8EE422A32EE000A81EE000ABCEEC00A5F
:1008700010EE101A816010BD004402580024744A22
:1008800020BCBE4B0024744C0090D0030000003903
:1008900010B53C4CA36AA26AC2F3055CE26AC2F3DB
:1008A0000022616CC1F3CC01BCF1000F11FB02F11D
:1008B00000EE101AB8EE400A0AD003F00303022B30
:1008C0000AD063B9216889060CD49FED311A13E070
:1008D0000021C0E9001153E09FED2C1A0CE09FEDC0
:1008E0002A1A09E021682B4AC1F3C10122FA01F159
:1008F00001EE101AB8EE411A02EE10CA9FED263A28
:10090000B8EE422A216C6FF35F2181EE021A02EEEB
:10091000101AB8EE422A216CC1F3462100EE032AD8
:10092000B7EE000A03EE101A32EE002AB8EE433A90
:1009300021EE021A33EE002A81EE022ABCEEC22A10
:1009400080ED002A216CC1F3064102EE101AB8EEC8
:10095000422A32EE002A81EE022ABCEEC22A80ED43
:10096000012A216CC1F3066102EE101AB8EE422A88
:1009700032EE000A81EE000ABCEEC00A10EE101A38
:10098000816010BD004402580024744A20BCBE4B54
:100990000024744C0090D003000000392DE9F0478A
:1009A0000446C078AC4F000721D5606E4FEA305145
:1009B000032908D8DFE801F002090E16F96941F4AD
:1009C0000031F9610EE0012612E0201D022101F044
:1009D00093FA04E004F12400022101F00DFB064625
:1009E00030B9606E396C21F4401108433864002638
:1009F0006078BA46C00701D1354629E0606D042809
:100A00000BD83546DFE800F0030C11171700F86922
:100A1000354640F40030F8610DE00125012718E06B
:100A2000201D002101F068FA04E004F124000021F7
:100A300001F0E2FA0546002D2F460AD1DAF840000F
:100A4000002520F00700616D08435246CAF84000B7
:100A50003746607880072CD5A06D4FEAB010042887
:100A60000CD8DFE800F0030E13191900DAF81C00A7
:100A7000514640F40030CAF81C000DE00125012663
:100A800018E0201D002101F037FA04E004F12400F1
:100A9000002101F0B1FA0546002D2E460AD1DAF800
:100AA0004000002520F4E070A16D08435246CAF8CA
:100AB00040003E466078400702D4B04657462BE0DF
:100AC000D4F8A40057464FEA7050042809D8DFE84C
:100AD00000F0030C11171700F86940F40030F861BA
:100AE0000EE001254FF0010816E0201D002101F065
:100AF00003FA04E004F12400002101F07DFA054628
:100B0000002DA84608D1B86C002520F46000D4F868
:100B1000A4100843B046B864607800072BD5D4F819
:100B2000A8004FEA3060042809D8DFE800F0030B82
:100B300010161600F86940F40030F8610DE0012548
:100B4000012719E0201D002101F0D6F904E004F18D
:100B50002400002101F050FA0546002D2F460BD14C
:100B6000DAF84800002520F0E060D4F8A810084327
:100B70005246CAF848004746E078800725D5A06C61
:100B80004FEA301003280BD8DFE800F012020D12F4
:100B9000DAF81C00514640F40030CAF81C0007E0A7
:100BA0000125012612E0201D022101F0A5F90546CC
:100BB000002D2E460AD1DAF83C00002520F0300046
:100BC000A16C08435246CAF83C003E466078C00615
:100BD0002CD5E06D4FEA303004280CD8DFE800F067
:100BE000030E13191900DAF81C00514640F40030C6
:100BF000CAF81C000DE00125012718E0201D002186
:100C000001F07AF904E004F12400002101F0F4F984
:100C10000546002D2F460AD1DAF84000002520F4C1
:100C2000E040E16D08435246CAF84000374660781C
:100C3000800626D5206E4FEA3040052809D8DFE827
:100C400000F013030D131313201D012101F054F9BB
:100C500009E00125012615E01044025804F12400A2
:100C6000012101F0C9F90546002D2E460AD1DAF816
:100C70004000002520F4E020216E08435246CAF8C7
:100C800040003E466078400626D5D4F8AC004FEAD6
:100C90003070052809D8DFE800F011030B1111119D
:100CA000201D012101F028F907E00125012714E0AA
:100CB00004F12400012101F09FF90546002D2F4683
:100CC0000BD1DAF84800002520F0E040D4F8AC1051
:100CD00008435246CAF8480037466078000621D5D6
:100CE000E06E90B1B0F1005F0AD0B0F1805F2DD11D
:100CF000DAF81C00514640F40030CAF81C0004E049
:100D0000201D012101F0F8F80546002D2E460AD1DC
:100D1000DAF84000002520F04050E16E08435246CA
:100D2000CAF840003E46E078C00702D1B0465746B8
:100D300023E0606C574603280BD8DFE800F013026D
:100D40000E13F86940F40030F8610BE0012501262C
:100D5000E9E701254FF001080FE0201D022101F015
:100D6000CBF80546002DA84607D1F86B002520F0EA
:100D70000300616C0843B046F863A078400601D4D4
:100D8000474617E0D7F8F00340F48070C7F8F00347
:100D9000FFF7E4FB0646D7F8F003C00507D4FFF7DA
:100DA000DDFB801B6428F6D90325032702E0002D14
:100DB0002F4611D02078C0074FD0A06F4FEAF00027
:100DC000052834D8DFE800F03C03363C3C3C201DCD
:100DD000012101F091F832E0DAF860105346D4F8BE
:100DE000B000414011F4407F0BD0196E1A6E21F40F
:100DF000407142F480321A661A6E22F480321A660A
:100E00001966B0F5807F40F02582FFF7A7FB064604
:100E100041F2883903250327DAF86000800700F1E2
:100E20001682FFF79BFB801B4845F5D9C2E70125D9
:100E3000012613E004F12400012101F0DDF805464C
:100E4000002D2E460AD1DAF84400002520F03800A3
:100E5000A16F08435246CAF844003E4620788007F6
:100E600022D5606F052809D8DFE800F011030B11C7
:100E70001111201D012101F03FF807E00125012794
:100E800013E004F12400012101F0B6F80546002D1D
:100E90002F460AD1DAF84400002520F00700616FE0
:100EA00008435246CAF8440037462078400724D504
:100EB000D4F89000052809D8DFE800F011030B11E1
:100EC0001111201D012101F017F807E0012501266D
:100ED00014E004F12400012101F08EF80546002DF4
:100EE0002E460BD1DAF84800002520F00700D4F890
:100EF000901008435246CAF848003E4620788006C3
:100F000026D5D4F88C004FEA3070052809D8DFE8E0
:100F100000F011030B111111201D002100F0ECFF56
:100F200007E00125012714E004F12400022101F06B
:100F300063F80546002D2F460BD1DAF84400002552
:100F400020F0E040D4F88C1008435246CAF8440020
:100F500037462078400626D5D4F898004FEAB020CE
:100F6000052809D8DFE800F011030B111111201D2D
:100F7000002100F0C1FF07E00125012614E004F183
:100F80002400022101F038F80546002D2E460BD131
:100F9000DAF84800002520F4E050D4F8981008430F
:100FA0005246CAF848003E462078000626D5D4F8B6
:100FB0009C004FEA7030052809D8DFE800F01103E3
:100FC0000B111111201D002100F096FF07E00125F3
:100FD000012714E004F12400022101F00DF8054678
:100FE000002D2F460BD1DAF84800002520F4604090
:100FF000D4F89C1008435246CAF848003746206887
:10100000010717D5D4F88010B1F5805F0AD104F13B
:101010002400022100F0F0FF0028206818BF0127FB
:10102000D4F88010DAF84420534622F44052114399
:10103000CAF84410C10617D5D4F89410B1F5807FD2
:101040000AD104F12400022100F0D6FF0028206814
:1010500018BF0127D4F89410DAF84820534622F438
:1010600040721143CAF84810000321D5D4F8A000FB
:10107000B0F5003F0ED0B0F5803F05D080BB201DFD
:10108000002100F039FF04E004F12400022100F007
:10109000B3FF0546002D2E460BD1DAF84800002597
:1010A00020F44030D4F8A01008435246CAF8480053
:1010B0003E46A07840072AD5D4F88400B0F5401FFA
:1010C00017D0B0F5001F0ED0B0F5801F40F0BA80E9
:1010D000DAF81C00514640F40030CAF81C0008E061
:1010E00001250126E5E704F12400012100F084FF39
:1010F0000546002D2F460BD1DAF84400002520F4D8
:101100004010D4F8841008435246CAF844003746C9
:10111000A078C00701D13E4621E0E06CB0F5803FE9
:1011200008D0D0B9DAF81C00514640F40030CAF8B3
:101130001C0004E0201D022100F0DEFE0546002D0B
:101140002E460CD1DAF83C00002520F48030E16C0A
:1011500008435246CAF83C00DDE701250126206815
:10116000810008D504F12400022100F045FF002889
:1011700018BF01262068810319D5E16F6FF00102C5
:1011800002EB3122022A0AD34FEA31223AB1012A74
:101190005BD1DAF81C2042F40032CAF81C203DB9B9
:1011A000DAF8442022F440721143CAF8441035465C
:1011B000C10207D5DAF8401021F00041226F114337
:1011C000CAF84010C10008D5DAF8001021F48041B7
:1011D000D4F8B4201143CAF80010810207D5DAF818
:1011E000401021F08071A26E1143CAF840104100F6
:1011F0000CD5DAF8001021F40041CAF80010D4F838
:10120000B810DAF800201143CAF80010B0F1FF3F1F
:1012100007DCDAF83C1021F04051226D1143CAF886
:101220003C10000208D5DAF8440020F44000D4F85D
:1012300088100843CAF84400002D18BF012528462D
:10124000BDE8F0870125012762E70125B0E7534695
:10125000D4F8B00000F440711A68B1F5407F22F470
:101260007C5103D1054A02EA1012114319606FF351
:101270001F30196E00250843186681E5CFFFFF0077
:101280002DE9F843002800F0FE800446804B1868E2
:1012900000F00F00884688420BD2186820F00F003B
:1012A00040EA08001860186800F00F00404540F060
:1012B000EA802068CF4F41070AD52169BA6902F058
:1012C0007002914204D9BA6922F070021143B961E7
:1012D00001070AD56169FA6902F07002914204D9E6
:1012E000FA6922F070021143F961C1060AD5A169B9
:1012F000FA6902F4E062914204D9FA6922F4E062E8
:101300001143F96181060AD5E1693A6A02F0700277
:10131000914204D93A6A22F070021143396281077E
:101320000AD5E168BA6902F00F02914204D9BA699C
:1013300022F00F021143B961C10736D0B86920F419
:101340007061D4E9010211430328B96105D0022874
:1013500007D1396889030DD495E03968890109D42A
:1013600091E00128396802D1C90503D48BE049070F
:1013700040F189803969994621F0070108433861B5
:10138000FFF7ECF8064641F28835386900F038007E
:101390006168B0EBC10F06D0FFF7E0F8801BA842F0
:1013A000F3D9032070E020684B4681070AD5E16835
:1013B000BA6902F00F02914204D2BA6922F00F0218
:1013C0001143B961196801F00F0141450AD9196843
:1013D00021F00F0141EA08011960196801F00F01BD
:1013E000414550D141070AD52169BA6902F070021E
:1013F000914204D2BA6922F070021143B961010727
:101400000AD56169FA6902F07002914204D2FA6960
:1014100022F070021143F961C1060AD5A169FA6987
:1014200002F4E062914204D2FA6922F4E0621143CC
:10143000F96180060AD5E069396A01F070018842D5
:1014400004D2396A21F070010843386200F064F870
:10145000B969C1F303212F4A515CBB6903F00F0343
:10146000D25C01F01F0120FA01F102F01F00184ABE
:1014700021FA00F01060174A064800681160BDE8C4
:10148000F843FFF7A3B8012001B0BDE8F08300BF27
:10149000002000520400002480B500F03DF80B4904
:1014A0000A68C2F3032209681A4B01F00F019A5C23
:1014B000595C02F01F0220FA02F201F01F000449F9
:1014C00022FA00F0086003490A6080BD18440258FF
:1014D0000C0000240800002480B5FFF7DDFF0C4954
:1014E0000C4A0968C1F30211515C01F01F01C840A8
:1014F00080BD00BF80B5FFF7CFFF0549054A0968E9
:10150000C1F30221515C01F01F01C84080BD00BF42
:101510001C4402580A2B000836490869C0F3C2006F
:1015200003280CD0022828D048BB0868800637481A
:1015300058BF70470968C1F3C101C84070478A6A43
:10154000886AC0F3051CCB6A486B03F00103C0F343
:10155000CC00BCF1000F10FB03F000EE100AB8EE57
:10156000400A0ED002F00302022A0CD072B90868B9
:1015700080060ED49FED241A15E0204870471E48BF
:101580007047002070479FED1F1A0CE09FED1C1A5A
:1015900009E008681D4AC0F3C10022FA00F001EE1C
:1015A000100AB8EE411A02EE10CA9FED193AB8EED1
:1015B000422A086B6FF35F2081EE021A02EE100AD6
:1015C000B8EE422A086BC0F3462000EE032AB7EEBD
:1015D000000A013032EE000A21EE000A01EE100A84
:1015E000B8EE411A80EE010ABCEEC00A10EE100AF5
:1015F000704700BF0044025800093D0040787D015B
:101600000024744A20BCBE4B0024744C0090D003CC
:1016100000000039F8B5002800F0928104460078F7
:10162000D34EC0074ED0306900F03801B06A10299F
:1016300005D0182909D100F00300022805D130682F
:1016400080033FD56068E8BB7AE1606868B1B0F5B7
:10165000803F06D0B0F5A02F30681ED140F4802026
:101660003060306840F480301DE0306820F4803015
:101670003060306820F480203060FEF76FFF054650
:1016800041F28837306880031CD5FEF767FF401BA6
:10169000B8424FF00300F5D967E120F480303060A4
:1016A000306820F480203060FEF758FF054641F294
:1016B00088373068800305D4FEF750FF401BB842DE
:1016C000F7D951E12078800761D5306910F03801F1
:1016D000B06A18D0182908BF5FEA807013D0E0689C
:1016E0000028316838D021F0190108433060FEF736
:1016F00035FF0546306840071FD4FEF72FFF401B1B
:101700000228F7D930E130684007E06802D50028A8
:1017100000F01681316821F0190108433060FEF7AE
:101720001DFF05463068400707D4FEF717FF401B32
:1017300002284FF00300F5D917E1FEF709FF41F247
:101740000301884219D820697168402821F47C314E
:101750001AD141F4003019E021F001003060FEF7A9
:10176000FDFE05463068400711D5FEF7F7FE401B29
:1017700002284FF00300F5D9F7E0706820F0FE4032
:10178000216940EA016001E041EA003070602078A0
:10179000C00653D5306900F03801B06A082905D079
:1017A00018290BD100F00300012807D13068C005CB
:1017B00019D5E069802840F0C38014E0E069002872
:1017C000306827D040F080003060FEF7C7FE054645
:1017D0003068C00507D4FEF7C1FE401B02284FF059
:1017E0000300F5D9C1E0FEF7B3FE41F203018842E0
:1017F00008D8206A7168202821F0F8411BD141F0F7
:1018000080401AE0F06820F07C50216A40EA0160D4
:10181000F06013E020F080003060FEF79FFE054688
:101820003068C0050AD5FEF799FE401B02284FF02C
:101830000300F5D999E041EA8060706020780007E4
:1018400023D560690028706F0ED040F001007067EA
:10185000FEF784FE0546706F800716D4FEF77EFE05
:10186000401B0228F7D97FE020F001007067FEF7E7
:1018700075FE0546706F800707D5FEF76FFE401BAB
:1018800002284FF00300F5D96FE02078800623D5B9
:10189000A069002830680ED040F480503060FEF718
:1018A0005DFE05463068800416D4FEF757FE401BE7
:1018B0000228F7D958E020F480503060FEF74EFE41
:1018C00005463068800407D5FEF748FE401B022815
:1018D0004FF00300F5D948E02078400732D4656A1C
:1018E000002D00F0EF80306900F03800182850D14A
:1018F000B16A012D306B23D001F00302A36A9A4232
:101900001ED1C1F30511E26A914219D10146226B41
:101910006FF35F21013A914212D1C0F34621626B0D
:10192000013A91420CD1C0F30641A26B013A9142B7
:1019300006D1C0F30660E16B0139884200F0C28035
:10194000012012E0D6F8000440F48070C6F80004CC
:10195000FEF704FE0546D6F80004C0050AD4FEF7DB
:10196000FDFD401B6428F6D9032001B0F0BD00BF87
:1019700000440258A06860B3012806D00528306FE3
:1019800040F0A28040F004003067306F40F001006A
:10199000A0E0306820F080703060FEF7DFFD022D9F
:1019A00005460AD1306880012CD5FEF7D7FD401BD3
:1019B00002284FF00300F5D9D7E73068800140F1E5
:1019C0008180FEF7CBFD401B02284FF00300F4D9C5
:1019D000CBE7306F20F001003067306F20F004005B
:1019E0003067FEF7BBFD054641F28837306F800750
:1019F0007FF575AFFEF7B2FD401BB8424FF0030014
:101A0000F4D9B2E7B06A40F2F3318843A16A226B9D
:101A10000843511E626B4FF47E4303EB4222E36A9C
:101A20006FF35F2192B240EA0310B0625018A16BCD
:101A30004FF4FE0202EB014101F4FE010844E16BA8
:101A40004FF0FE4202EB016101F0FE4108443063B9
:101A50004FF6F871F06A20F00100F062706B884375
:101A6000A16C40EAC1007063F06A20F00C00216CA8
:101A70000843F062F06A20F00200616C0843F062F3
:101A8000F06A40F48030F062F06A40F40030F062B6
:101A9000F06A40F48020F062F06A40F00100F062E9
:101AA000306840F080703060FEF758FD04463068C2
:101AB000800107D4FEF752FD001B02284FF00300FF
:101AC000F5D952E7002050E720F001003067306F71
:101AD00020F004003067FEF741FD054641F28837EB
:101AE000306F80073FF5FBAEFEF738FD401BB84274
:101AF0004FF00300F4D938E7411E0020B0EB116F1E
:101B000001D001207047044A5160F021034B197045
:101B1000072190601160704710E000E023ED00E0C5
:101B200090F83C20012A4FF0020233D070B5012317
:101B30001E4E80F83C3080F83D20026842F48063FD
:101B40005468B342936802BF24F470044D682C4378
:101B5000B2F1804F24F070050C6845EA0405556029
:101B60000BD0134CA2421CBF124CA24205D0124C07
:101B7000A2421CBF114CA2420ED123F080038968FF
:101B8000194391600121002280F83D1080F83C202B
:101B9000BDE8704010467047094CA242EDD0094C98
:101BA000A24218BFB242E8D0ECE700BF00040140F7
:101BB0000004004000080040000C004000180040F5
:101BC000000001400040014060B310B5044690F8A9
:101BD0003D0028B9002084F83C00204600F024F89D
:101BE000022084F83D00211D206800F063FB0120E5
:101BF00084F8480084F83E0084F83F0084F84000F0
:101C000084F8410084F8420084F8430084F84400DA
:101C100084F8450084F8460084F8470084F83D00C5
:101C2000002010BD0120704700689649884218BF07
:101C3000704781B00548016841F0200101600068EB
:101C400000F020000090009801B07047E84402586E
:101C500090F88010012901D1022112E02421C0F85E
:101C6000841002681368116823F0005321F0010109
:101C700011600021416613602022C0F8842080F8A2
:101C8000801008467047B0B5044690F880000128DF
:101C900001D10220B0BD012084F880002420C4F8C6
:101CA000840020680568026822F0010202608268F0
:101CB00022F0606211438160204600F077FB2068CB
:101CC00005602020C4F88400002084F88000B0BDA6
:101CD000B0B5044690F88000012801D10220B0BDC3
:101CE000012084F880002420C4F88400206805685E
:101CF000026822F001020260826822F06042114311
:101D00008160204600F052FB206805602020C4F866
:101D10008400002084F88000B0BD10B5B0B1044646
:101D2000D0F8840028B9002084F88000204600F014
:101D300027F82420C4F884002068016821F00101FC
:101D40000160204600F0F4FB012801D1012010BD04
:101D5000A06A10B1204600F053FB2068416821F4CE
:101D600090414160816821F02A018160016841F061
:101D7000010101602046BDE8104000F0A5BB000055
:101D800010B5B6B0044631A81421FEF7D9FA02A85E
:101D9000BC21FEF7D5FA20685449884229D1012098
:101DA0000290002402A82094FEF7F8FD08B1FEF787
:101DB00005FB2348016941F010010161016901F04F
:101DC000100101910199016841F00201016031A9FE
:101DD000006800F00200019001984FF440403190FB
:101DE0000220CDE932040420349435900248FEF7F5
:101DF000E9FA36B010BD00BF00040258FEE700004B
:101E000083B00F48016841F080010160016801F072
:101E1000800102910299016841F0020101600168AC
:101E200001F0020101910199016841F00101016095
:101E3000006800F001000090009803B0704700BFF8
:101E4000E04402581FB500240D480E49EF220394C8
:101E5000CDE90144C0E900124FF6FF71C0E902412B
:101E60008461FFF7B1FE08B1FEF7A8FA044801A9A2
:101E700001940394FFF754FE08B1FEF79FFA1FBDCB
:101E8000100000240014004010B5174C17484FF400
:101E9000E13120600020C4E901100C21E060C4E9B8
:101EA000040104F118001421FEF74AFA2046FFF756
:101EB00034FF08B1FEF782FA0B480021FFF708FF54
:101EC00008B1FEF77BFA08480021FFF7DCFE08B1F5
:101ED000FEF774FA0448FFF7BBFE18B1BDE81040E6
:101EE000FEF76CBA10BD00BF5C000024001001407A
:101EF000FEE7FEE770470000F8B5E64FBA6A02F069
:101F00000302032A01D1012074E00546386820F05D
:101F100080600C463860FEF721FB064638680001F9
:101F200005D5FEF71BFB801B0228F7D95FE0B86AD6
:101F30004FF47E43696820F47C30AA68013903EBD2
:101F400042222B686FF35F2192B240EA03301144C2
:101F5000EA684FF4FE03B86203EB024202F4FE02A9
:101F6000881829694FF0FE4202EB016101F0FE4141
:101F70000844B863002CF86A20F0C000696940EAA0
:101F80000100F862F86A20F02000A96940EA010027
:101F9000F8624FF6F871F86A20F01000F862F86BFA
:101FA00020EA0100E96940EAC100F863F86A40F0FC
:101FB0001000F86205D0012CF86A06D140F48010B8
:101FC00005E0F86A40F4002001E040F40010F862F7
:101FD000386840F080603860FEF7C0FA0446386820
:101FE000000106D4FEF7BAFA001B0328F7D303203A
:101FF00000E0002001B0F0BDF8B5A64FBA6A02F0CB
:102000000302032A01D1012074E00546386820F05C
:1020100080500C463860FEF7A1FA0646386880000A
:1020200005D5FEF79BFA801B0228F7D95FE0B86A56
:102030004FF47E43696820F07C70AA68013903EB95
:1020400042222B686FF35F2192B240EA03501144A1
:10205000EA684FF4FE03B86203EB024202F4FE02A8
:10206000881829694FF0FE4202EB016101F0FE4140
:1020700008443864002CF86A20F44060696940EA3A
:102080000100F862F86A20F40070A96940EA0100D2
:10209000F8624FF6F871F86A20F48070F862786C94
:1020A00020EA0100E96940EAC1007864F86A40F476
:1020B0008070F86205D0012CF86A06D140F4000067
:1020C00005E0F86A40F4800001E040F08070F862BA
:1020D000386840F080503860FEF740FA04463868AF
:1020E000800006D4FEF73AFA001B0328F7D303203A
:1020F00000E0002001B0F0BD7047FEF733BA0000E9
:10210000B0B59CB009A83B4C3B4D4C21FEF718F9EB
:1021100001A82021FEF714F90220FEF7FDFA0020A5
:102120000090286820F001002860286800F0010075
:102130000090206840F440402060206800F4404057
:102140000090009820688004FCD52C48215841F06C
:1021500002012150205800F0020000900098002059
:102160000090206840F440402060206800F4404027
:102170000090286840F001002860286800F0010005
:102180000090009820688004FCD5012009904FF44D
:1021900080300A9002200521CDE912001491C0215F
:1021A000CDE91510CDE9170008240025199409A8D8
:1021B000CDE91A55FFF72EFA18B1EFF3108072B679
:1021C000FEE73F2001900320CDE902054020049462
:1021D0004FF48061CDE90500CDE9071001A8042185
:1021E000FFF74EF818B1EFF3108072B6FEE71CB09F
:1021F000B0BD00BF184802582C040058DCFCFFFF9B
:1022000023480168214A41F470010160106800F020
:102210000F00062804D81068072161F3030010603E
:1022200010B51C4801681C4C41F0010101600021FF
:10223000016103682340036013681B0704D513681A
:10224000072464F303031360144A8161C1610162CE
:102250008262134AC262134A026341638263C163AA
:1022600002644164026822F48022026001660E4822
:102270000068B1EB507FBDE8104002D101200B494E
:10228000086043F2D2000A490860704700200052FB
:1022900088ED00E0004402587FEDF6EA00020202F9
:1022A0000000FF01800201010010005C0881005164
:1022B00000400052F0B5B0F1804F0368334A05D0BA
:1022C000334CA0421CBF334CA04234D123F07003E6
:1022D0004C68234302F58044041BB4FA84F44FEAAB
:1022E000541C02F58844041BB4FA84F44FEA541ECB
:1022F00002F59044041BB4FA84F4640923F4407397
:10230000CD682B4323F080034E690D6833438F68FB
:10231000002C0360C762856208BFBEF1000F05D1C3
:1023200090421CBF02F5806290422BD10969016383
:1023300001214161F0BD184CA042C7D0174CA0420A
:1023400018BF9042C2D002F58044154D041BB4FA68
:1023500084F44FEA541C02F58844041BB4FA84F454
:102360004FEA541E02F59044041BB4FA84F4A842C8
:102370004FEA5414C2D00B4DA842BFD00A4DA84218
:10238000BCD0BFE7BCF1000FD2D0CFE700000140C6
:102390000004004000080040000C00400004014020
:1023A000004001400048014000440140416ED9B165
:1023B00080B501688A68C2F342628968490FDFF814
:1023C00038C01CF80130DFF834E01EF801101B01A2
:1023D000B3FBF1F11CF802301EF802201B01B3FB25
:1023E000F2F2BDE8804001E001210122A0F86A106C
:1023F000A0F86820704700BF322B00083A2B000875
:10240000816ACA0708D00268D0F82CC0536823F448
:10241000003343EA0C0353608A0708D50268D0F8FA
:1024200030C0536823F4803343EA0C0353604A07F7
:1024300008D50268D0F834C0536823F4802343EAF7
:102440000C0353600A0708D50268D0F838C05368F7
:1024500023F4004343EA0C035360CA0608D502681C
:10246000D0F83CC0936823F4805343EA0C03936094
:102470008A0608D50268D0F840C0936823F4005358
:1024800043EA0C0393604A0612D50268D0F844C0B0
:102490005368BCF5801F23F4801343EA0C03536098
:1024A00006D1536823F4C00C836C43EA0C035360D9
:1024B000090658BF70470168C06C4A6822F40022C0
:1024C0001043486070470000BCB500210446C0F8C6
:1024D0008C10FEF743F8216805460A6812070AD5F2
:1024E00012484FF400110090002220462B4600F0C5
:1024F000EDF968B92168086840070BD50B484FF41F
:1025000080010090002220462B4600F0DFF908B140
:10251000032008E02020C4F88400C4F888000020CC
:10252000E06684F8800002B0B0BD00BFFFFFFF018D
:10253000FEB50446006804F108038D4D8B4E0ECBAA
:10254000194363690B43E16907680B432F409D4DB5
:102550003B430360A842436823F4405342EA03022A
:102560004260A2691CBF236A1A4383683340964EB7
:102570001A438260B042C26A944E22F00F03626A2C
:1025800043EA0203C36228D0914B984232D0914B68
:1025900098423CD0904B984246D0904B984200F0E5
:1025A00050808F4B984200F05880A84200F0618024
:1025B0008C4B984200F069808B4B984240F07B80B6
:1025C000736DB446C3F3C206052E00F27580012375
:1025D000DFE806F07367696B6D6F736DB44603F0E7
:1025E0000706052E00F268800023DFE806F0665A31
:1025F0005C5E6062736DB44603F00706052E00F260
:102600005B800023DFE806F0594D4F515355736D41
:10261000B44603F00706052E00F24E800023DFE8E3
:1026200006F04C4042444648736DB44603F007063A
:10263000052E00F241800023DFE806F03F333537F6
:10264000393B736DB44603F00706052E34D80023DA
:10265000DFE806F03327292B2D2F736DB44603F0E6
:102660000706052E28D80023DFE806F0271B1D1FCC
:102670002123B36DB44603F00706052E1CD80223B0
:10268000DFE806F01B0F11131517736DB446C3F383
:10269000C206052E10D80123DFE806F00F03050758
:1026A000090B042309E0082307E0102305E0202399
:1026B00003E0402301E0B4468023A8427F4810D0C5
:1026C000B1F5004F1DD1082B4FF0010127D8DFE8ED
:1026D00003F0058DD5D590D5D5D59400FEF7FCFE39
:1026E0008FE0402B32D0042B33D0082B35D0102B69
:1026F00040D0202B48D0022B40F0BF80FEF730F8AE
:102700002FE0082B4FF0010114D8DFE803F0059407
:10271000B7B797B7B7B79B00FEF7DEFE96E0102B72
:1027200000F0B580202B6ED0402B40F0A7804FF4F6
:10273000004068E0102B00F0B580202B00F088806E
:10274000402B40F09B804FF4004081E04FF400406C
:102750001AE06846FEF716F802E06846FEF798F8B9
:102760000198002800F08780626A0DE0FFF4FF11F5
:10277000F369FFCFDCF8000065468006504803D5BA
:102780002968C1F3C101C8404E4931F8121062688E
:10279000B0FBF1F002EB420188424FF001016DD332
:1027A000130398426AD8010E000210EB520041F167
:1027B00000010023FDF78CFDA0F54071424A9142D3
:1027C00057D95AE0000C0058004400400044025819
:1027D00000480040004C004000500040007800409D
:1027E000007C00400014014000100140FEF782FE12
:1027F00007E06846FDF7C6FF02E06846FEF748F8C6
:102800000198C0B3626A2F4931F81210B0FBF1F0A1
:1028100061684A0802EB4000B0FBF1F04FF6EF723E
:10282000A0F11001914228D84FF6F071C0F3420296
:10283000084010441DE0FEF75DFE07E06846FDF726
:10284000A1FF02E06846FEF723F8019898B1626A9A
:102850001C4931F812104FF6EF72B0FBF1F06168CD
:1028600000EB5100B0FBF1F0A0F11001914204D84F
:1028700080B22168C860002100E001214FF0011002
:10288000A0660020C4E91C00084603B0F0BDDCF8D7
:102890000000654680060A48B5D52968C1F3C10124
:1028A000C840B0E7DCF80000654680060448CFD594
:1028B0002968C1F3C101C840CAE700BF00093D0053
:1028C0000090D0031A2B0008FFFC0F002DE9F843FD
:1028D000DDF82090984616460F460446006809F138
:1028E0000105C1693940C91BB1FA81F14909B142F9
:1028F00016D1002DF5D0FDF731FEB9F1000F13D040
:10290000A0EB080048450FD820680168490744BF7C
:10291000C1695FEA0151E4D54FF4006101621EE034
:10292000002001B0BDE8F083206850E8000F216866
:1029300020F4D07041E80002002AF5D1206850E868
:10294000020F216820F0010041E80202002AF5D1BF
:102950002020C4F8840004F188001AE0206850E8C0
:10296000000F216820F4D07041E80002002AF5D160
:10297000206850E8020F216820F0010041E80202BF
:10298000002AF5D12020C4F88400C4F8880004F19E
:102990008C0020210160002084F880000320C0E723
:1029A000FEE7000000F00F024B4B1A44044BB0F15D
:1029B000FF3F4FEA0111C8BFC2181170704700BF36
:1029C00000E400E084B00126434D0096FDF74AFE86
:1029D0004FF01050434F019040486C4602904048E1
:1029E00003902046B8474FF040508DF801600190A9
:1029F00010208DF808004FF000082046ADF80E803A
:102A0000B8470220384E8DF8010020460196B8479D
:102A100003208DF8010006F5003001900E208DF89E
:102A200008002046B84704208DF801004FF06050A0
:102A300001900F208DF808002046B8470420FDF7CC
:102A40001BFE2868800311D4BFF34F8FBFF36F8F35
:102A5000C5F83C82BFF34F8FBFF36F8F286840F4F7
:102A600000302860BFF34F8FBFF36F8F2868C0031B
:102A700026D40020286743F6E07CBFF34F8FE96E31
:102A8000C1F34E30C1F3C901CC438E070CEA4017A5
:102A90003246214642EA07030131C5F84C3202F1C1
:102AA0004042F7D10028A0F10100EFD1BFF34F8FD2
:102AB000286840F480302860BFF34F8FBFF36F8FDA
:102AC000FDF75AFDFFF71CFBFFF79AF9FFF7BAF97C
:102AD000FFF7DAF9FEE700BF14ED00E01200010392
:102AE00000000101150600080000023002E008C8DD
:102AF000121F08C1002AFAD170477047002001E078
:102B000001C1121F002AFBD1704700000000010222
:102B1000030401020304060708090100020004007F
:102B2000060008000A000C00100020004000800091
:102B3000000101010103070100000804020408016B
:102B400001010000682B00080000002410000000B4
:102B5000EC2A0008782B000810000024E004000094
:102B6000FC2A000800000000010000001000000026
:082B70000090D0030090D00397
:040000050800029954
:00000001FF
