:020000040800F2
:10000000980700243903000823240008452100082C
:10001000212400082F050008F32E0008000000002E
:100020000000000000000000000000002926000879
:100030003105000800000000252400082B260008D8
:100040005303000853030008530300085303000838
:100050005303000853030008530300085303000828
:100060005303000853030008530300085303000818
:100070005303000853030008530300085303000808
:1000800053030008530300085303000853030008F8
:1000900053030008530300085303000853030008E8
:1000A00053030008530300085303000853030008D8
:1000B00053030008530300085303000853030008C8
:1000C00053030008530300085303000853030008B8
:1000D00053030008530300085303000853030008A8
:1000E00053030008530300080000000053030008F6
:1000F0005303000853030008530300085303000888
:100100005303000853030008530300085303000877
:100110005303000853030008530300085303000867
:100120005303000853030008530300085303000857
:100130005303000853030008530300085303000847
:1001400000000000000000000000000000000000AF
:100150005303000853030008530300085303000827
:100160005303000853030008530300085303000817
:100170005303000853030008530300080000000065
:1001800053030008530300085303000853030008F7
:1001900053030008530300085303000853030008E7
:1001A00053030008530300085303000853030008D7
:1001B00053030008530300085303000853030008C7
:1001C00053030008530300085303000853030008B7
:1001D00053030008530300085303000853030008A7
:1001E0005303000853030008530300085303000897
:1001F0005303000853030008530300085303000887
:100200005303000853030008530300085303000876
:100210005303000853030008530300085303000866
:1002200053030008530300085303000800000000B4
:1002300053030008530300080000000053030008A4
:100240005303000853030008530300085303000836
:100250005303000853030008530300085303000826
:100260005303000853030008530300085303000816
:100270005303000853030008530300080000000064
:100280005303000853030008530300080000000054
:10029000000000005303000800F002F800F03CF8F2
:1002A0000AA090E8000C82448344AAF10107DA45D1
:1002B00001D100F031F8AFF2090EBAE80F0013F0E7
:1002C000010F18BFFB1A43F001031847D02F00009D
:1002D000F02F0000103A24BF78C878C1FAD852072E
:1002E00024BF30C830C144BF04680C6070470000B0
:1002F0000023002400250026103A28BF78C1FBD82F
:10030000520728BF30C148BF0B6070471FB502F0CD
:100310009BFF1FBD10B510BD00F0CFF81146FFF7D1
:10032000F5FF02F0FBFE00F0EDF803B4FFF7F2FF7B
:1003300003BC00F0F5F80000094880470948004771
:10034000FEE7FEE7FEE7FEE7FEE7FEE7FEE7FEE785
:10035000FEE7FEE704480549054A064B70470000E2
:10036000ED2600089902000898010024980700244F
:10037000980300249803002453EA020C00F06980DB
:100380002DE9F04B4FF00006002B1FBFB3FA83F5A9
:1003900003FA05F424FA05F65E4012BF1643B2FADA
:1003A00082F502FA05F4C5F120051EBF22FA05FC0C
:1003B00044EA0C04203556EA044C4FEA144418BFB2
:1003C000641C4FF000084FF00009904271EB030CE1
:1003D00039D3002919BFB1FA81F701FA07F6B0FA4B
:1003E00080F700FA07F6C7F120071EBF20FA07FCC6
:1003F00046EA0C062037B6FBF4FCA7EB0507103FD6
:1004000007F01F0BCBF120062CFA06F60CFA0BFBBB
:1004100044BFB3460026202FA4BF5E464FF0000B1A
:100420005BEA060C08BF4FF0010B19EB0B0948EB18
:100430000608ABFB027C06FB02CC0BFB03CCC01B0B
:1004400071EB0C01C1E70B46024641464846BDE848
:10045000F08B13B54FF000004FF00001AFF30080B8
:10046000BDE81C4070474FF0000200B513469446AB
:100470009646203922BFA0E80C50A0E80C50B1F1FC
:100480002001BFF4F7AF090728BFA0E80C5048BF10
:100490000CC05DF804EB890028BF40F8042B08BFAE
:1004A000704748BF20F8022B11F0804F18BF00F8AA
:1004B000012B7047704770477047754600F02CF865
:1004C000AE4605006946534620F00700854618B041
:1004D00020B5FFF73FFFBDE820404FF000064FF08A
:1004E00000074FF000084FF0000BAC46ACE8C00925
:1004F000ACE8C009ACE8C009ACE8C00921F00701CC
:100500008D46704710B50446AFF300802046BDE825
:100510001040FFF70ABF0000004870475000002459
:1005200001491820ABBEFEE7260002007047FEE737
:100530007047000070B56FF005010A4C0E1A216873
:10054000B0B24FF6FA754862204601F0CFFC206841
:1005500000E0466AB1B2A942FBD30248BDE8704050
:1005600001F008BDB4000024EFF3108072B6FEE77E
:100570002DE9FC4F5E4A0A275E4C02444FEAB22343
:10058000A04208BF0927092B38BF4FEAB2274FF016
:10059000000C009701274FF0000E00269EE007FA9E
:1005A00006F912EA090B00F094804A6802F0030889
:1005B000A8F1010ABAF1010F13D80324856804FADF
:1005C0000EF325EA0303CD6805FA0EF52B4383608D
:1005D0004368C2F3001523EA0903B5402B43436087
:1005E00004E0B8F1030F4FF003041FD0C36804FA0E
:1005F0000EF5AB438D6805FA0EF52B43B8F1020FEB
:10060000C36013D16FF0030202EA560202440CF0F9
:100610001C03D2F820800F259D4028EA05080D69AB
:1006200005FA03F343EA080313624A68036804FA0D
:100630000EF5AB4302F0030505FA0EF52B4312F459
:10064000403F036045D0894A13462B4C12680F2562
:1006500042F002021A601A6802F00202019226F0C9
:100660000302019B0CF00C0352F804809D40009F94
:1006700028EA050507FA03F32B4313514FF0B0485E
:10068000D8F800204B6842EA0B05DF0258BF22EA87
:100690000B05164A1446C8F800509F02126842EA39
:1006A0000B0558BF22EA0B059F0325604FF0010799
:1006B000D4F8802042EA0B0558BF22EA0B05DB0381
:1006C000C4F88050E26F42EA0B0558BF22EA0B05DE
:1006D000E56701360EF1020E0CF1040C0A6832FADD
:1006E00006F47FF45CAFBDE8FC8F00BF0400005847
:1006F0000000FEA70024025808040058002A08BF82
:10070000090481617047000001480068000C7047CF
:100710000010005C05480068704700BF2948007859
:1007200002490A6810440860704700BF9401002421
:1007300080B5032000F0BCF801F024F80F490A68E6
:10074000C2F3032209687C4B01F00F019A5C595CEB
:1007500002F01F02D0400A4A01F01F0120FA01F105
:100760001160194908600F2000F00CF808B1012051
:1007700080BD00F06DF8002080BD00BF1844025815
:100780004800002470B50F4E3178C1B104464FF4D3
:100790007A70B0FBF1F00C490968B1FBF0F001F0A0
:1007A00005FB0F2C4FF001050AD848B94FF0FF3078
:1007B00000222146002500F05BF8746000E001256E
:1007C000284670BD3C00002444000024B0B50278E7
:1007D000114D4378002A2B601AD043686B60037B6D
:1007E000C17A847A42EA0372437B42EA0161827BE6
:1007F00041EAC441C47B41EA8341437A41EA424130
:10080000007A41EA044141EA032141EA400001E063
:1008100000206860A860B0BD98ED00E0BFF35F8F76
:100820000A48016821F480310160002101677047A6
:1008300040F0010005490867086840F4803008600E
:10084000BFF34F8FBFF36F8F704700BF24ED00E001
:1008500081B00648016841F002010160006800F0C3
:1008600002000090009801B0704700BFF4440258A5
:1008700080B5154B1B68C3F3022C8CF0070EBEF13C
:10088000040F28BF4FF0040EBCF103034FF0FF3CF0
:1008900038BF00230CFA0EFE21EA0E0199400CFA33
:1008A00003F39A431143BDE8804002F027BC00BF28
:1008B00005490A684FF6FF031A4060F30A2203480D
:1008C00010430860704700BF0CED00E00000FA051F
:1008D000B0B5104D29684907296805D401F0070112
:1008E000081A18BF0120B0BD21F007010843286095
:1008F000FFF710FF044655F8080C800407D4FFF7F3
:1009000009FF001BB0F57A7FF5D90120B0BD0020AA
:10091000B0BD00BF0C48025880B500F0F3FE054999
:10092000054A0968C1F30211515C01F01F01C8407A
:1009300080BD00BF204402586232000810B53C4C14
:10094000A36AA26AC2F3053CE26AC2F30012E16B39
:10095000C1F3CC01BCF1000F11FB02F100EE101A43
:10096000B8EE400A0AD003F00303022B0AD063B9A1
:10097000216889060CD49FED311A13E00021C0E9EB
:10098000001153E09FED2C1A0CE09FED2A1A09E0AC
:1009900021682B4AC1F3C10122FA01F101EE101ABC
:1009A000B8EE411A02EE10CA9FED263AB8EE422A7E
:1009B000A16B6FF35F2181EE021A02EE101AB8EEFE
:1009C000422AA16BC1F3462100EE032AB7EE000ACA
:1009D00003EE101A32EE002AB8EE433A21EE021A64
:1009E00033EE002A81EE022ABCEEC22A80ED002AF4
:1009F000A16BC1F3064102EE101AB8EE422A32EEA4
:100A0000002A81EE022ABCEEC22A80ED012AA16BE7
:100A1000C1F3066102EE101AB8EE422A32EE000A65
:100A200081EE000ABCEEC00A10EE101A816010BD03
:100A3000004402580024744A20BCBE4B0024744C6D
:100A40000090D0030000003910B53C4CA36AA26AA4
:100A5000C2F3055CE26AC2F30022616CC1F3CC010F
:100A6000BCF1000F11FB02F100EE101AB8EE400AC3
:100A70000AD003F00303022B0AD063B92168890668
:100A80000CD49FED311A13E00021C0E9001153E0AE
:100A90009FED2C1A0CE09FED2A1A09E021682B4AE1
:100AA000C1F3C10122FA01F101EE101AB8EE411AA8
:100AB00002EE10CA9FED263AB8EE422A216C6FF37F
:100AC0005F2181EE021A02EE101AB8EE422A216C62
:100AD000C1F3462100EE032AB7EE000A03EE101A16
:100AE00032EE002AB8EE433A21EE021A33EE002A23
:100AF00081EE022ABCEEC22A80ED002A216CC1F3ED
:100B0000064102EE101AB8EE422A32EE002A81EEB9
:100B1000022ABCEEC22A80ED012A216CC1F30661D3
:100B200002EE101AB8EE422A32EE000A81EE000AF6
:100B3000BCEEC00A10EE101A816010BD00440258CD
:100B40000024744A20BCBE4B0024744C0090D00397
:100B5000000000392DE9F0470446C078B04F000787
:100B600022D5A06E4FEA3051032908D8DFE801F002
:100B700002090F17F96941F40031F9610FE001260C
:100B800013E004F10800022101F04EFC04E004F13E
:100B90002800022101F0C8FC064630B9A06E396C6D
:100BA00021F440110843386400266078BA46C00733
:100BB00001D135462AE0A06D04280BD83546DFE880
:100BC00000F0030C12181800F869354640F40030A4
:100BD000F8610EE00125012719E004F10800002169
:100BE00001F022FC04E004F12800002101F09CFC4B
:100BF0000546002D2F460AD1DAF84000002520F0E6
:100C00000700A16D08435246CAF840003746607895
:100C100080072DD5E06D4FEAB01004280CD8DFE82E
:100C200000F0030E141A1A00DAF81C00514640F4C2
:100C30000030CAF81C000EE00125012619E004F17D
:100C40000800002101F0F0FB04E004F1280000217D
:100C500001F06AFC0546002D2E460AD1DAF8400064
:100C6000002520F4E070E16D08435246CAF84000C8
:100C70003E466078400702D4B04657462CE0D4F890
:100C8000A80057464FEA7050042809D8DFE800F062
:100C9000030C12181800F86940F40030F8610FE0F6
:100CA00001254FF0010817E004F10800002101F0D0
:100CB000BBFB04E004F12800002101F035FC0546EF
:100CC000002DA84608D1B86C002520F46000D4F8A7
:100CD000A8100843B046B864607800072CD5D4F853
:100CE000AC004FEA3060042809D8DFE800F0030BBD
:100CF00011171700F86940F40030F8610EE0012583
:100D000001271AE004F10800002101F08DFB04E046
:100D100004F12800002101F007FC0546002D2F46B4
:100D20000BD1DAF84800002520F0E060D4F8AC10D0
:100D300008435246CAF848004746E078800726D55F
:100D4000E06C4FEA301003280BD8DFE800F0130204
:100D50000D13DAF81C00514640F40030CAF81C00AC
:100D600008E00125012613E004F10800022101F04A
:100D70005BFB0546002D2E460AD1DAF83C00002523
:100D800020F03000E16C08435246CAF83C003E4671
:100D90006078C0062DD5206E4FEA303004280CD87C
:100DA000DFE800F0030E141A1A00DAF81C005146AE
:100DB00040F40030CAF81C000EE00125012719E0BC
:100DC00004F10800002101F02FFB04E004F12800E9
:100DD000002101F0A9FB0546002D2F460AD1DAF8C3
:100DE0004000002520F4E040216E08435246CAF836
:100DF000400037466078800627D5606E4FEA304065
:100E000005280AD8DFE800F014030E14141404F1C6
:100E10000800012101F008FB09E00125012615E089
:100E20001044025804F12800012101F07DFB054621
:100E3000002D2E460AD1DAF84000002520F4E020EB
:100E4000616E08435246CAF840003E46607840064C
:100E500027D5D4F8B0004FEA307005280AD8DFE86B
:100E600000F012030C12121204F10800012101F02B
:100E7000DBFA07E00125012714E004F12800012135
:100E800001F052FB0546002D2F460BD1DAF8480041
:100E9000002520F0E040D4F8B01008435246CAF8CC
:100EA000480037466078000622D5206F98B1B0F12F
:100EB000005F0AD0B0F1805F2ED1DAF81C005146F5
:100EC00040F40030CAF81C0005E004F108000121DC
:100ED00001F0AAFA0546002D2E460AD1DAF84000A4
:100EE000002520F04050216F08435246CAF84000C8
:100EF0003E46E078C00702D1B046574624E0A06CD9
:100F0000574603280BD8DFE800F014020E14F869E6
:100F100040F40030F8610CE001250126E9E70125E5
:100F20004FF0010810E004F10800022101F07CFA02
:100F30000546002DA84607D1F86B002520F00300D8
:100F4000A16C0843B046F863A078400601D4474638
:100F500017E0D7F8F00340F48070C7F8F003FFF70C
:100F6000D9FB0646D7F8F003C00507D4FFF7D2FB3C
:100F7000801B6428F6D90325032702E0002D2F46A5
:100F800012D02078C00750D0E06F4FEAF00005285B
:100F900035D8DFE800F03D03373D3D3D04F1080062
:100FA000012101F041FA32E0DAF860105346D4F83A
:100FB000B400414011F4407F0BD0196E1A6E21F439
:100FC000407142F480321A661A6E22F480321A6638
:100FD0001966B0F5807F40F07282FFF79BFB0646F2
:100FE00041F2883903250327DAF86000800700F111
:100FF0006382FFF78FFB801B4845F5D9C1E70125C8
:10100000012613E004F12800012101F08DFA0546C4
:10101000002D2E460AD1DAF84400002520F03800D1
:10102000E16F08435246CAF844003E4620788007E4
:1010300023D5A06F05280AD8DFE800F012030C12B0
:10104000121204F10800012101F0EEF907E0012578
:10105000012713E004F12800012101F065FA05469B
:10106000002D2F460AD1DAF84400002520F00700B1
:10107000A16F08435246CAF844003746207840071B
:1010800025D5D4F8940005280AD8DFE800F012032B
:101090000C12121204F10800012101F0C5F907E059
:1010A0000125012614E004F12800012101F03CFA99
:1010B0000546002D2E460BD1DAF84800002520F019
:1010C0000700D4F8941008435246CAF848003E4638
:1010D0002078800627D5D4F890004FEA3070052894
:1010E0000AD8DFE800F012030C12121204F1080013
:1010F000002101F099F907E00125012714E004F12E
:101100002800022101F010FA0546002D2F460BD1D0
:10111000DAF84400002520F0E040D4F890100843AD
:101120005246CAF8440037462078400627D5D4F8FE
:101130009C004FEAB02005280AD8DFE800F012032F
:101140000C12121204F10800002101F06DF907E001
:101150000125012614E004F12800022101F0E4F940
:101160000546002D2E460BD1DAF84800002520F464
:10117000E050D4F89C1008435246CAF848003E4656
:101180002078000627D5D4F8A0004FEA7030052853
:101190000AD8DFE800F012030C12121204F1080062
:1011A000002101F041F907E00125012714E004F1D5
:1011B0002800022101F0B8F90546002D2F460BD179
:1011C000DAF84800002520F46040D4F8A010084365
:1011D0005246CAF8480037462068010717D5D4F8A8
:1011E0008410B1F5805F0AD104F12800022101F0DA
:1011F0009BF90028206818BF0127D4F88410DAF87A
:101200004420534622F440521143CAF84410C10608
:1012100017D5D4F89810B1F5807F0AD104F12800D1
:10122000022101F081F90028206818BF0127D4F8B5
:101230009810DAF84820534622F440721143CAF855
:101240004810000322D5D4F8A400B0F5003F0FD019
:10125000B0F5803F06D088BB04F10800002101F002
:10126000E3F804E004F12800022101F05DF90546ED
:10127000002D2E460BD1DAF84800002520F440302E
:10128000D4F8A41008435246CAF848003E46A07855
:1012900040072AD5D4F88800B0F5401F17D0B0F524
:1012A000001F0ED0B0F5801F40F00181DAF81C005D
:1012B000514640F40030CAF81C0008E00125012620
:1012C000E5E704F12800012101F02EF90546002D83
:1012D0002F460BD1DAF84400002520F44010D4F852
:1012E000881008435246CAF844003746A078C00721
:1012F00001D13E4622E0206DB0F5803F08D0D8B93C
:10130000DAF81C00514640F40030CAF81C0005E031
:1013100004F10800022101F087F80546002D2E4651
:101320000CD1DAF83C00002520F48030216D084310
:101330005246CAF83C00DCE70125012621688800F6
:1013400001D4606809E004F12800022101F0ECF802
:10135000002818BF0126D4E900108A031BD5D4F851
:1013600080206FF0010303EB3223022B0BD34FEAF3
:10137000322343B1012B40F09D80DAF81C3043F456
:101380000033CAF81C303DB9DAF8443023F4407316
:101390001A43CAF844203546CA0207D5DAF8402075
:1013A00022F00042636F1A43CAF84020CA0008D5F1
:1013B000DAF8002022F48042D4F8B8301A43CAF890
:1013C00000208A0207D5DAF8402022F08072E36E0E
:1013D0001A43CAF840204A000CD5DAF8002022F45B
:1013E0000042CAF80020D4F8BC20DAF800301A43D2
:1013F000CAF80020B1F1FF3F07DCDAF83C2022F008
:101400004052636D1A43CAF83C20090208D5DAF845
:10141000441021F44001D4F88C201143CAF8441040
:10142000C10708D004F10800002100F0FDFF0028EA
:1014300018BF05466068810708D504F1080001213E
:1014400000F0F2FF002818BF05466068410708D584
:1014500004F10800022100F0E7FF002818BF05464C
:101460006068010708D504F12800002101F05CF84C
:10147000002818BF05466068C10608D504F1280099
:10148000012101F051F8002818BF05466068800668
:1014900003D44DB10120BDE8F08704F128000221FA
:1014A00001F042F82843F5D10020BDE8F08701257E
:1014B00001271BE701256FE75346D4F8B40000F479
:1014C00040711A68B1F5407F22F47C5103D1064A7D
:1014D00002EA1012114319606FF31F30196E0025D4
:1014E0000843186633E500BFCFFFFF002DE9F8433E
:1014F000002800F0FE800446804B186800F00F00C2
:10150000884688420BD2186820F00F0040EA080095
:101510001860186800F00F00404540F0EA8020682D
:10152000CF4F41070AD52169BA6902F07002914292
:1015300004D9BA6922F070021143B96101070AD5D2
:101540006169FA6902F07002914204D9FA6922F0E5
:1015500070021143F961C1060AD5A169FA6902F462
:10156000E062914204D9FA6922F4E0621143F96120
:1015700081060AD5E1693A6A02F07002914204D903
:101580003A6A22F070021143396281070AD5E16894
:10159000BA6902F00F02914204D9BA6922F00F022F
:1015A0001143B961C10736D0B86920F47061D4E93C
:1015B000010211430328B96105D0022807D1396817
:1015C00089030DD495E03968890109D491E0012897
:1015D000396802D1C90503D48BE0490740F18980FD
:1015E0003969994621F0070108433861FFF792F8FD
:1015F000064641F28835386900F038006168B0EB82
:10160000C10F06D0FFF786F8801BA842F3D903204C
:1016100070E020684B4681070AD5E168BA6902F09C
:101620000F02914204D2BA6922F00F021143B9614C
:10163000196801F00F0141450AD9196821F00F011D
:1016400041EA08011960196801F00F01414550D1C4
:1016500041070AD52169BA6902F07002914204D2A9
:10166000BA6922F070021143B96101070AD56169B4
:10167000FA6902F07002914204D2FA6922F0700213
:101680001143F961C1060AD5A169FA6902F4E06261
:10169000914204D2FA6922F4E0621143F9618006B2
:1016A0000AD5E069396A01F07001884204D2396ACA
:1016B00021F070010843386200F064F8B969C1F3A1
:1016C00003212F4A515CBB6903F00F03D25C01F088
:1016D0001F0120FA01F102F01F00184A21FA00F060
:1016E0001060174A064800681160BDE8F843FFF72C
:1016F00049B8012001B0BDE8F08300BF00200052CE
:101700004000002480B500F03DF80B490A68C2F3A0
:10171000032209681A4B01F00F019A5C595C02F030
:101720001F0220FA02F201F01F00044922FA00F021
:10173000086003490A6080BD18440258480000242C
:101740004400002480B5FFF7DDFF0C490C4A09680E
:10175000C1F30211515C01F01F01C84080BD00BF00
:1017600080B5FFF7CFFF0549054A0968C1F302219B
:10177000515C01F01F01C84080BD00BF1C440258ED
:101780006232000836490869C0F3C20003280CD051
:10179000022828D048BB08688006374858BF7047E1
:1017A0000968C1F3C101C84070478A6A886AC0F3FA
:1017B000051CCB6A486B03F00103C0F3CC00BCF1FD
:1017C000000F10FB03F000EE100AB8EE400A0ED036
:1017D00002F00302022A0CD072B9086880060ED407
:1017E0009FED241A15E0204870471E4870470020DE
:1017F00070479FED1F1A0CE09FED1C1A09E0086866
:101800001D4AC0F3C10022FA00F001EE100AB8EE42
:10181000411A02EE10CA9FED193AB8EE422A086B3F
:101820006FF35F2081EE021A02EE100AB8EE422A30
:10183000086BC0F3462000EE032AB7EE000A013021
:1018400032EE000A21EE000A01EE100AB8EE411A4B
:1018500080EE010ABCEEC00A10EE100A704700BF0D
:101860000044025800093D0040787D010024744A7C
:1018700020BCBE4B0024744C0090D0030000003903
:10188000F8B5002800F0B88104460078B04EC007D3
:1018900021D12078800740F1B580306910F03801FF
:1018A000B06A3CD0182908BF5FEA807037D0E06882
:1018B000002831685CD021F0190108433060FEF740
:1018C00029FF05463068400743D4FEF723FF401B3D
:1018D0000228F7D9A4E1306900F03801B06A102974
:1018E00005D018290AD100F00300022806D130687B
:1018F0008003CED560680028CBD17DE160680028E8
:1019000047D0B0F5803F06D0B0F5A02F306860D149
:1019100040F480203060306840F480305FE0306810
:101920004007E06802D5002800F06681316821F0A8
:10193000190108433060FEF7EDFE054630684007A8
:1019400007D4FEF7E7FE401B02284FF00300F5D94D
:1019500067E1FEF7D9FE41F20301884232D82069DF
:101960007168402821F47C3149D141F4003048E0CD
:1019700021F001003060FEF7CDFE054630684007DB
:1019800040D5FEF7C7FE401B02284FF00300F5D9F3
:1019900047E1306820F480303060306820F48020E7
:1019A0003060FEF7B7FE054641F2883730688003A5
:1019B0007FF56FAFFEF7AEFE401BB8424FF003005D
:1019C000F4D92EE1706820F0FE40216940EA016000
:1019D00017E020F480303060306820F480203060E0
:1019E000FEF798FE054641F28837306880033FF5E0
:1019F00050AFFEF78FFE401BB842F6D910E141EA26
:101A0000003070602078C00653D5306900F038018E
:101A1000B06A082905D018290BD100F0030001286D
:101A200007D13068C00519D5E069802840F0E4800E
:101A300014E0E0690028306827D040F08000306072
:101A4000FEF768FE05463068C00507D4FEF762FE63
:101A5000401B02284FF00300F5D9E2E0FEF754FEE8
:101A600041F20301884208D8206A7168202821F0D9
:101A7000F8411BD141F080401AE0F06820F07C5022
:101A8000216A40EA0160F06013E020F080003060DD
:101A9000FEF740FE05463068C0050AD5FEF73AFE5F
:101AA000401B02284FF00300F5D9BAE041EA8060FC
:101AB00070602078000723D560690028706F0ED011
:101AC00040F001007067FEF725FE0546706F800745
:101AD00016D4FEF71FFE401B0228F7D9A0E020F025
:101AE00001007067FEF716FE0546706F800707D588
:101AF000FEF710FE401B02284FF00300F5D990E0DE
:101B00002078800626D5A069002830680ED040F4E1
:101B100080503060FEF7FEFD05463068800419D421
:101B2000FEF7F8FD401B0228F7D979E020F4805039
:101B30003060FEF7EFFD0546306880040AD5FEF7F9
:101B4000E9FD401B02284FF00300F5D969E000BF12
:101B5000004402582078400750D4656A002D00F0F8
:101B60000A81306900F0380018286BD1B16A012D64
:101B7000306B41D001F00302A36A9A423CD1C1F319
:101B80000511E26A914237D10146226B6FF35F2162
:101B9000013A914230D1C0F34621626B013A914241
:101BA0002AD1C0F30641A26B013A914224D1C0F37D
:101BB0000660E16B013988421ED1706BC0F3CC0026
:101BC000A16C814200F0D780F06A20F00100F06241
:101BD000FEF7A0FD0546FEF79DFDA842FBD0706B09
:101BE0004FF6F8718843A16C40EAC1007063F06A57
:101BF00040F00100F062BEE0012012E0D6F80004DF
:101C000040F48070C6F80004FEF784FD0546D6F85F
:101C10000004C00507D4FEF77DFD401B6428F6D9FB
:101C2000032001B0F0BDA06860B3012806D00528EC
:101C3000306F40F0A28040F004003067306F40F019
:101C40000100A0E0306820F080703060FEF762FD97
:101C5000022D05460AD1306880012CD5FEF75AFDC9
:101C6000401B02284FF00300F5D9DAE73068800105
:101C700040F18180FEF74EFD401B02284FF003002B
:101C8000F4D9CEE7306F20F001003067306F20F0DC
:101C900004003067FEF73EFD054641F28837306F9D
:101CA00080077FF55AAFFEF735FD401BB8424FF075
:101CB0000300F4D9B5E7B06A40F2F3318843A16A72
:101CC000226B0843511E626B4FF47E4303EB4222AA
:101CD000E36A6FF35F2192B240EA0310B0625018DA
:101CE000A16B4FF4FE0202EB014101F4FE01084436
:101CF000E16B4FF0FE4202EB016101F0FE4108444E
:101D000030634FF6F871F06A20F00100F062706BFA
:101D10008843A16C40EAC1007063F06A20F00C00B7
:101D2000216C0843F062F06A20F00200616C084305
:101D3000F062F06A40F48030F062F06A40F4003003
:101D4000F062F06A40F48020F062F06A40F0010036
:101D5000F062306840F080703060FEF7DBFC0446D3
:101D60003068800107D4FEF7D5FC001B02284FF035
:101D70000300F5D955E7002053E720F00100306754
:101D8000306F20F004003067FEF7C4FC054641F2D6
:101D90008837306F80073FF5E0AEFEF7BBFC401B95
:101DA000B8424FF00300F4D93BE70000411E002089
:101DB000B0EB116F01D001207047044A5160F0214F
:101DC000034B1970072190601160704710E000E02C
:101DD00023ED00E090F83C20012A4FF0020233D0BE
:101DE00070B50123614E80F83C3080F83D200268D8
:101DF00042F480635468B342936802BF24F47004D1
:101E00004D682C43B2F1804F24F070050C6845EA10
:101E1000040555600BD04F4CA2421CBF4E4CA24251
:101E200005D04E4CA2421CBF4D4CA2420ED123F015
:101E300080038968194391600121002280F83D10D8
:101E400080F83C20BDE8704010467047454CA242E7
:101E5000EDD0454CA24218BFB242E8D0ECE700BF3B
:101E600060B310B5044690F83D0028B9002084F80E
:101E70003C00204600F024F8022084F83D00211D9B
:101E8000206800F08DFC012084F8480084F83E00B2
:101E900084F83F0084F8400084F8410084F8420050
:101EA00084F8430084F8440084F8450084F8460030
:101EB00084F8470084F83D00002010BD01207047E1
:101EC00000680849884218BF704781B00648016819
:101ED00041F020010160006800F0200000900098AF
:101EE00001B0704700140040E844025890F83D10DB
:101EF00001291DD1022180F83D100168B1F1804F08
:101F00000BD0144881421CBF1348814205D01348AE
:101F100081421CBF124881420CD18868144A024099
:101F2000062A4FF0000018BFB2F5803F0BD1704772
:101F3000012070470B488142EFD00B488142ECD022
:101F40000A488142E9D0086840F00100086000209A
:101F5000704700BF0004004000080040000C004033
:101F60000018004000000140004001400004014012
:101F70000700010001460068026A41F211131A428B
:101F800008D1026A40F244431A4203D1026822F0A7
:101F9000010202600122002081F83D20704790F884
:101FA0008410012901D1022112E02421C0F88810F7
:101FB00002681368116823F0005321F001011160D9
:101FC0000021416613602022C0F8882080F8841028
:101FD00008467047B0B5044690F88400012801D146
:101FE0000220B0BD012084F884002420C4F88800B9
:101FF00020680568026822F001020260826822F00F
:10200000606211438160204600F046FC2068056054
:102010002020C4F88800002084F88400B0BDB0B54A
:10202000044690F88400012801D10220B0BD0120AF
:1020300084F884002420C4F88800206805680268B9
:1020400022F001020260826822F060421143816046
:10205000204600F021FC206805602020C4F888009C
:10206000002084F88400B0BD10B5B0B10446D0F8AB
:10207000880028B9002084F88400204600F026F863
:102080002420C4F888002068016821F00101016063
:10209000204600F017FD012801D1012010BDA06AE3
:1020A00010B1204600F022FC2068416821F49041E4
:1020B0004160816821F02A018160016841F00101DD
:1020C00001602046BDE8104000F074BC10B5B8B007
:1020D000044633A81421FEF7C6F902A8C021FEF772
:1020E000C2F92068CD4988422AD1012000240290FB
:1020F00002A803942194FEF72DFD08B1FEF734FAEF
:102100009848016941F010010161016901F0100175
:1021100001910199016841F00201016033A9006851
:1021200000F00200019001984FF4404033900220EB
:10213000CDE934040420369437908B48FEF718FA22
:1021400038B010BDFEE70000B0B58021874D0022F9
:10215000854C2046A8470220FEF7ECF98021012299
:102160002046A8470420FEF7E5F9802100222046FA
:102170002B46BDE8B0401847B0B500F05BF800F062
:102180003FF81B4C0120A21D0321012300F0B2FEE9
:10219000221D02200221012300F0ACFEA1690320D0
:1021A000144DA847E1680020A84721690120A847ED
:1021B00061690220A847218F03200F4DA847A18DF8
:1021C0000020A847218E0120A847A18E0220A84701
:1021D000218D0320094DA847A18B0020A847218C01
:1021E0000120A847A18C02202A46BDE8B040104734
:1021F000000000248130000835300008E12F00087D
:10220000B0B50221594D0022094C2046A8470120B3
:10221000FEF790F9022101222046A8471E20FEF772
:1022200089F90221002220462B46BDE8B04018471C
:102230000010025870B54FF400714C4E00224A4D08
:102240002846B047082101222846B04705F500641A
:10225000102100222046B047802100222846B047A6
:10226000202100222846B047402100222046B047C6
:102270000421002220463346BDE87040184700BFC5
:102280002DE9F04F87B00020374D384C0690354887
:1022900005F500660168002241F0800101600168D7
:1022A00001F0800101910199016841F00201016092
:1022B000016801F0020101910199016841F00101F9
:1022C0000160016801F0010101910199016841F08B
:1022D00008010160016801F008010191019901689C
:1022E00041F0100101605421006800F010000190DD
:1022F00001983046A0474FF42A7100222846A04793
:1023000005F5406B0221002258464FF0020AA04713
:102310001420DFF85C8002AF0290012403253046D0
:102320003946CDE9034A0595C0474020CDE902046E
:102330004FF0000930463946CDE90495C0474FF4C7
:102340002A7002A981E81104394605950648C0475C
:1023500058463946CDE902A4CDE90495C04707B0F7
:10236000BDE8F08FE044025800040258FD06000862
:10237000710500081FB500240D480E49C7220394BB
:10238000CDE90144C0E900124FF6FF71C0E90241F6
:102390008461FFF765FD08B1FEF7E6F8044801A97E
:1023A00001940394FFF716FD08B1FEF7DDF81FBD99
:1023B000B40000240014004010B5174C17484FF427
:1023C000E13120600020C4E901100C21E060C4E983
:1023D000040104F118001421FEF745F82046FFF728
:1023E00043FE08B1FEF7C0F80B480021FFF717FEC7
:1023F00008B1FEF7B9F808480021FFF7EBFD08B176
:10240000FEF7B2F80448FFF7CAFD18B1BDE8104066
:10241000FEF7AAB810BD00BF000100240010014063
:10242000FEE7FEE770470000F8B5D54FBA6A02F044
:102430000302032A01D1012074E00546386820F028
:1024400080600C463860FEF765F906463868000182
:1024500005D5FEF75FF9801B0228F7D95FE0B86A5F
:102460004FF47E43696820F47C30AA68013903EB9D
:1024700042222B686FF35F2192B240EA033011448D
:10248000EA684FF4FE03B86203EB024202F4FE0274
:10249000881829694FF0FE4202EB016101F0FE410C
:1024A0000844B863002CF86A20F0C000696940EA6B
:1024B0000100F862F86A20F02000A96940EA0100F2
:1024C000F8624FF6F871F86A20F01000F862F86BC5
:1024D00020EA0100E96940EAC100F863F86A40F0C7
:1024E0001000F86205D0012CF86A06D140F4801083
:1024F00005E0F86A40F4002001E040F40010F862C2
:10250000386840F080603860FEF704F904463868A7
:10251000000106D4FEF7FEF8001B0328F7D30320C2
:1025200000E0002001B0F0BDF8B5954FBA6A02F0A6
:102530000302032A01D1012074E00546386820F027
:1025400080500C463860FEF7E5F806463868800093
:1025500005D5FEF7DFF8801B0228F7D95FE0B86ADF
:102560004FF47E43696820F07C70AA68013903EB60
:1025700042222B686FF35F2192B240EA035011446C
:10258000EA684FF4FE03B86203EB024202F4FE0273
:10259000881829694FF0FE4202EB016101F0FE410B
:1025A00008443864002CF86A20F44060696940EA05
:1025B0000100F862F86A20F40070A96940EA01009D
:1025C000F8624FF6F871F86A20F48070F862786C5F
:1025D00020EA0100E96940EAC1007864F86A40F441
:1025E0008070F86205D0012CF86A06D140F4000032
:1025F00005E0F86A40F4800001E040F08070F86285
:10260000386840F080503860FEF784F80446386837
:10261000800006D4FEF77EF8001B0328F7D30320C2
:1026200000E0002001B0F0BD7047FEF777B8000071
:10263000B0B59CB009A82B4C4C21FDF714FF01A8A4
:102640002021FDF710FF0220FEF742F90020009044
:102650002548016821F001010160006800F00100D7
:102660000090206840F440402060206800F4404022
:102670000090009820688004FCD5012009904FF458
:1026800080300A9002200521CDE912001491A0218A
:10269000CDE91510CDE9170008240025199409A8E3
:1026A000CDE91A55FFF7ECF818B1EFF3108072B6C8
:1026B000FEE73F2001900320CDE90205402004946D
:1026C0004FF48061CDE90500CDE9071001A8022192
:1026D000FEF70CFF18B1EFF3108072B6FEE71CB0E6
:1026E000B0BD00BF184802582C04005823480168A8
:1026F000214A41F470010160106800F00F000628C3
:1027000004D81068072161F30300106010B51C485D
:1027100001681C4C41F00101016000210161036866
:102720002340036013681B0704D51368072464F370
:1027300003031360144A8161C16101628262134A1A
:10274000C262134A026341638263C16302644164EB
:10275000026822F48022026001660E480068B1EB34
:10276000507FBDE8104002D101200B49086043F2C0
:10277000D2000A49086070470020005288ED00E04E
:10278000004402587FEDF6EA000202020000FF0159
:10279000800201010010005C0881005100400052DD
:1027A000F0B5B0F1804F0368334A05D0334CA042F6
:1027B0001CBF334CA04234D123F070034C68234338
:1027C00002F58044041BB4FA84F44FEA541C02F569
:1027D0008844041BB4FA84F44FEA541E02F5904472
:1027E000041BB4FA84F4640923F44073CD682B43CA
:1027F00023F080034E690D6833438F68002C03601B
:10280000C762856208BFBEF1000F05D190421CBFB0
:1028100002F5806290422BD1096901630121416177
:10282000F0BD184CA042C7D0174CA04218BF904230
:10283000C2D002F58044154D041BB4FA84F44FEA6B
:10284000541C02F58844041BB4FA84F44FEA541E65
:1028500002F59044041BB4FA84F4A8424FEA5414DD
:10286000C2D00B4DA842BFD00A4DA842BCD0BFE792
:10287000BCF1000FD2D0CFE70000014000040040BF
:1028800000080040000C00400004014000400140EE
:102890000048014000440140416ED9B180B5016853
:1028A0008A68C2F342628968490FDFF838C01CF8B1
:1028B0000130DFF834E01EF801101B01B3FBF1F129
:1028C0001CF802301EF802201B01B3FBF2F2BDE837
:1028D000804001E001210122A0F86A10A0F86820E0
:1028E000704700BF8A32000892320008816ACA0726
:1028F00008D00268D0F82CC0536823F4003343EAB0
:102900000C0353608A0708D50268D0F830C05368BA
:1029100023F4803343EA0C0353604A0708D5026866
:10292000D0F834C0536823F4802343EA0C03536087
:102930000A0708D50268D0F838C0536823F400436A
:1029400043EA0C035360CA0608D50268D0F83CC0BD
:10295000936823F4805343EA0C0393608A0608D5F6
:102960000268D0F840C0936823F4005343EA0C0394
:1029700093604A0612D50268D0F844C05368BCF58B
:10298000801F23F4801343EA0C03536006D153687D
:1029900023F4C00C836C43EA0C035360090658BF50
:1029A00070470168C06C4A6822F4002210434860F6
:1029B00070470000BCB500210446C0F89010FDF738
:1029C000A9FE216805460A68120718D525484FF464
:1029D00000110090002220462B4600F041FA68B119
:1029E000206850E8000F216820F0800041E80002D4
:1029F000002AF5D12020C4F8880024E02168086866
:102A0000400722D517484FF480010090002220464D
:102A10002B4600F025FAC0B1206850E8000F21686D
:102A200020F4907041E80002002AF5D1206850E8B7
:102A3000020F216820F0010041E80202002AF5D1CE
:102A40002020C4F88C00032007E02020C4F8880070
:102A5000C4F88C000020E0662067002184F8841010
:102A600002B0B0BDFFFFFF01016851E8001F02681E
:102A700021F4907142E80013002BF5D110B5104CF1
:102A8000026852E8022F0368224043E8022100292D
:102A9000F6D1C16E0129BDE8104009D1016851E8A5
:102AA000001F026821F0100142E80013002BF5D14D
:102AB0002021C0F88C100021C1664167704700BF1B
:102AC000FEFFFFEFFEB50446006804F108038D4DDC
:102AD0008B4E0ECB194363690B43E16907680B43C7
:102AE0002F409D4D3B430360A842436823F440536D
:102AF00042EA03024260A2691CBF236A1A43836848
:102B00003340964E1A438260B042C26A944E22F01D
:102B10000F03626A43EA0203C36228D0914B9842D2
:102B200032D0914B98423CD0904B984246D0904B3B
:102B3000984200F050808F4B984200F05880A84295
:102B400000F061808C4B984200F069808B4B98427A
:102B500040F07B80736DB446C3F3C206052E00F2CD
:102B600075800123DFE806F07367696B6D6F736D25
:102B7000B44603F00706052E00F268800023DFE864
:102B800006F0665A5C5E6062736DB44603F0070639
:102B9000052E00F25B800023DFE806F0594D4F510F
:102BA0005355736DB44603F00706052E00F24E80B0
:102BB0000023DFE806F04C4042444648736DB446BB
:102BC00003F00706052E00F241800023DFE806F03F
:102BD0003F333537393B736DB44603F00706052E96
:102BE00034D80023DFE806F03327292B2D2F736D0F
:102BF000B44603F00706052E28D80023DFE806F0C8
:102C0000271B1D1F2123B36DB44603F00706052EB5
:102C10001CD80223DFE806F01B0F11131517736D84
:102C2000B446C3F3C206052E10D80123DFE806F030
:102C30000F030507090B042309E0082307E010230D
:102C400005E0202303E0402301E0B4468023A842AE
:102C50007F4810D0B1F5004F1DD1082B4FF0010176
:102C600027D8DFE803F0058DD5D590D5D5D59400CC
:102C7000FEF768FD8FE0402B32D0042B33D0082BB9
:102C800035D0102B40D0202B48D0022B40F0BF80F5
:102C9000FDF742FE2FE0082B4FF0010114D8DFE8CA
:102CA00003F00594B7B797B7B7B79B00FEF74AFD97
:102CB00096E0102B00F0B580202B6ED0402B40F01A
:102CC000A7804FF4004068E0102B00F0B580202B67
:102CD00000F08880402B40F09B804FF4004081E062
:102CE0004FF400401AE06846FDF728FE02E068460F
:102CF000FDF7AAFE0198002800F08780626A0DE0C7
:102D0000FFF4FF11F369FFCFDCF800006546800691
:102D1000504803D52968C1F3C101C8404E4931F874
:102D200012106268B0FBF1F002EB420188424FF0F2
:102D300001016DD3130398426AD8010E000210EB13
:102D4000520041F100010023FDF716FBA0F5407190
:102D5000424A914257D95AE0000C005800440040C2
:102D60000044025800480040004C00400050004021
:102D700000780040007C0040001401400010014039
:102D8000FEF7EEFC07E06846FDF7D8FD02E0684676
:102D9000FDF75AFE0198C0B3626A2F4931F812104C
:102DA000B0FBF1F061684A0802EB4000B0FBF1F0C3
:102DB0004FF6EF72A0F11001914228D84FF6F07152
:102DC000C0F34202084010441DE0FEF7C9FC07E0D2
:102DD0006846FDF7B3FD02E06846FDF735FE019851
:102DE00098B1626A1C4931F812104FF6EF72B0FBCD
:102DF000F1F0616800EB5100B0FBF1F0A0F11001BF
:102E0000914204D880B22168C860002100E001210D
:102E10004FF00110A0660020C4E91D00084603B071
:102E2000F0BDDCF80000654680060A48B5D5296883
:102E3000C1F3C101C840B0E7DCF800006546800678
:102E40000448CFD52968C1F3C101C840CAE700BF13
:102E500000093D000090D00372320008FFFC0F0013
:102E60002DE9F843DDF82090984616460F460446B3
:102E7000006809F10105C1693940C91BB1FA81F146
:102E80004909B14225D1002DF5D0FDF743FCB9F138
:102E9000000F01464FF003001CD0A1EB080149458B
:102EA00018D8206801684907E5D5C169090714D415
:102EB000C1690905DFD54FF4006101622046FFF7C3
:102EC000D3FD2020C4F89000002084F88400032063
:102ED00000E0002001B0BDE8F0830825056220462F
:102EE000FFF7C2FD0020C4F8905084F88400012050
:102EF000F0E7FEE72DE9F84F9246384C8B46064640
:102F000010210022204698460025FDF7F7FBA4F586
:102F10000069082100224846FDF7F0FB0120FDF77B
:102F200009FB17E070B24021B0F1FF3F01DD002244
:102F300000E001222046FDF7E1FB0120FDF7FAFA4F
:102F4000102101222046FDF7D9FB0120FDF7F2FAFE
:102F500076000135102100222046FDF7CFFB072D1A
:102F6000E0D90A20FDF7E6FA002626E01AF8065016
:102F7000002717E068B24021B0F1FF3F01DD0022D9
:102F800000E001222046FDF7B9FB0120FDF7D2FA4F
:102F9000102101222046FDF7B1FB0120FDF7CAFAFE
:102FA0006D000137102100222046FDF7A7FB072FF7
:102FB000E0D90520FDF7BEFA01365E45D6D1B8F15D
:102FC000000F01D0FFF7C0F8082101224846FDF7A5
:102FD00095FB1920BDE8F84FFDF7ACBA000C02587C
:102FE000E0B5002210238DF8052043EA11228DF868
:102FF000071003288DF806201AD8DFE800F0020534
:10300000080B00203C4A08E03B48421C04E03A48D8
:10301000821C01E03848C21C002001210123FFF777
:1030200069FF0DF10502062003210123FFF762FF6E
:103030008CBD00BF80B5114A0B0A03285170137074
:1030400006D8DFE800F00206090C00202A4A09E051
:1030500080BD2948421C04E02748821C01E0264824
:10306000C21C002001210123FFF744FF0520034A71
:1030700002210123BDE88040FFF73CBFB0000024DF
:10308000E0B500EE101A03289FED191BB8EE400BB7
:1030900020EE010BBCEEC00B10EE101A4FEA11220D
:1030A0008DF806204FEA11428DF807104FEA1161A2
:1030B0008DF805208DF8041019D8DFE800F002051E
:1030C000080B00200C4A08E00B48421C04E00A48A8
:1030D000821C01E00848C21C002001210123FFF7E7
:1030E00009FF01AA042004210123FFF703FF8CBD7F
:1030F00095D626E80B2E21400000002400F00F0298
:103100004C4B1A44044BB0F1FF3F4FEA0111C8BFCA
:10311000C2181170704700BF00E400E084B00126BF
:10312000444D0096FDF77AFB4FF01050444F01904C
:1031300041486C460290414803902046B8474FF002
:1031400040508DF80160019010208DF808004FF07C
:1031500000082046ADF80E80B8470220394E8DF8A1
:10316000010020460196B84703208DF8010006F5BE
:10317000003001900E208DF808002046B84704204A
:103180008DF801004FF0605001900F208DF808007D
:103190002046B8470420FDF74BFB2868800311D474
:1031A000BFF34F8FBFF36F8FC5F83C82BFF34F8FD4
:1031B000BFF36F8F286840F400302860BFF34F8F53
:1031C000BFF36F8F2868C00326D40020286743F61A
:1031D000E07CBFF34F8FE96EC1F34E30C1F3C901FC
:1031E000CC438E070CEA40173246214642EA0703D9
:1031F0000131C5F84C3202F14042F7D10028A0F16C
:103200000100EFD1BFF34F8F286840F48030286071
:10321000BFF34F8FBFF36F8FFDF78AFAFFF708FAFE
:10322000FFF72EF8FFF7A6F8FFF7C6F8FEF7A4FFA2
:10323000FEE700BF14ED00E01200010300000101F1
:10324000CD07000800000230F1EE100A4FF6FF71C2
:10325000C0F2C03120EA010040F04070E1EE100AF7
:103260007047000000000102030401020304060786
:103270000809010002000400060008000A000C0012
:10328000100020004000800000010101010307013F
:10329000000008040204080101010000C032000817
:1032A0000000002450000000D40200081033000881
:1032B0005000002448070000F00200080000000051
:1032C000102040802000D0000000000040420F008D
:1032D00040420F0040420F0040420F00FF03000039
:1032E000FF030000FF030000FF03000000000000D8
:1032F000FF0F0000FD2F0000FE1F00000100000076
:10330000100000000090D0030090D00300000000E7
:040000050800029954
:00000001FF
