:020000040800F2
:1000000000050024AD02000891470008C144000823
:100010008947000839080008E95F0008000000006F
:10002000000000000000000000000000E14C00089B
:10003000F10800080000000019480008494D0008B8
:10004000C7020008C7020008C7020008C70200086C
:10005000C7020008C7020008C7020008C70200085C
:10006000C7020008C7020008C7020008C70200084C
:10007000C7020008C7020008C7020008C70200083C
:10008000C7020008C7020008C7020008C70200082C
:10009000C7020008C7020008C7020008C70200081C
:1000A000C7020008C7020008C7020008C70200080C
:1000B000C7020008C7020008C7020008C7020008FC
:1000C000C7020008C7020008C7020008C7020008EC
:1000D000C7020008C7020008C7020008C7020008DC
:1000E000C7020008C702000800000000C70200089D
:1000F000C7020008C7020008C7020008C7020008BC
:10010000C7020008C7020008C7020008C7020008AB
:10011000C7020008C7020008C7020008C70200089B
:10012000C7020008C7020008C7020008C70200088B
:10013000C7020008C7020008C7020008C70200087B
:1001400000000000000000000000000000000000AF
:10015000C7020008C7020008C7020008C70200085B
:10016000C7020008C7020008C7020008C70200084B
:10017000C7020008C7020008C7020008000000000C
:10018000C7020008C7020008C7020008C70200082B
:10019000C7020008C7020008C7020008C70200081B
:1001A000C7020008C7020008C7020008C70200080B
:1001B000C7020008C7020008C7020008C7020008FB
:1001C000C7020008C7020008C7020008C7020008EB
:1001D000C7020008C7020008C7020008C7020008DB
:1001E000C7020008C7020008C7020008C7020008CB
:1001F000C7020008C7020008C7020008C7020008BB
:10020000C7020008C7020008C7020008C7020008AA
:10021000C7020008C7020008C7020008C70200089A
:10022000C7020008C7020008C7020008000000005B
:10023000C7020008C702000800000000C70200084B
:10024000C7020008C7020008C7020008C70200086A
:10025000C7020008C7020008C7020008C70200085A
:10026000C7020008C7020008C7020008C70200084A
:10027000C7020008C7020008C7020008000000000B
:10028000C7020008C7020008C702000800000000FB
:1002900000000000C7020008DFF80CD000F048FAA8
:1002A0000048004791650008000500240648804783
:1002B00006480047FEE7FEE7FEE7FEE7FEE7FEE74B
:1002C000FEE7FEE7FEE7FEE7B94E000899020008E8
:1002D0002DE9F05F0546002092469B46884606467B
:1002E000814640241BE0284641464746224600F00E
:1002F00057F853465A46C01A914110D31146184632
:10030000224600F03EF82D1A67EB01084F462246C0
:100310000120002100F035F817EB00094E41201EA6
:10032000A4F10104DFDC484631462A464346BDE8D5
:10033000F09FD2B201E000F8012B491EFBD27047BA
:100340000022F6E710B513460A4604461946FFF7A1
:10035000F0FF204610BD30B50B460146002020229C
:10036000012409E021FA02F59D4205D303FA02F5C2
:10037000491B04FA02F52844151EA2F10102F1DC22
:1003800030BD202A04DB203A00FA02F10020704739
:100390009140C2F1200320FA03F3194390407047C3
:1003A000202A04DB203A21FA02F00021704721FACA
:1003B00002F3D040C2F12002914008431946704731
:1003C0002DE9FE4F804681EA0300C00F0C460090E5
:1003D00021F0004123F00045B8EB0200A94105D20D
:1003E0004046214690461C460B46024623F00040FC
:1003F000104347D0270DC7F30A00C3F30A510290F8
:10040000401A019040286BDAC3F3130040F4801BBC
:100410000098924620B10023D2EB030A63EB0B0B4A
:1004200001985946C0F140025046FFF7AAFF064620
:100430000D4650465946019A00F08CF910EB080021
:100440006141002487EA115284EAE7731A4340D0DD
:10045000009A62B3019A012A4FEA075215DC001B89
:1004600061EB02014FF0004202EA0752CDE900427F
:10047000001C41F5801132462B4600F08CF903B088
:10048000BDE8F08F40462146F9E7001B61EB020111
:10049000001C41F5801300185B412018A2F50017DD
:1004A00047EB030140EAD570B6196D4111E06D08C4
:1004B0004FEA360645EAC0754FEA0752001B61EB6A
:1004C0000201001C41F5801149084FEA3000001973
:1004D000514132462B4603B0BDE8F04F00F04CB915
:1004E0000098012240000023D0EB020263EBE0738E
:1004F000009821464FEAE074B8EB000061EB04017C
:10050000E9E783F000435BE781F0004158E72DE91C
:10051000FE4F81EA030404F0004421F000410094FE
:100520004FF0000B23F0004350EA01045ED052EA82
:1005300003045BD0C3F30A54C1F30A552C44A4F25C
:10054000F3340194A0FB0254C1F3130141F4801170
:10055000C3F3130343F4801301FB024400FB034E77
:10056000840A970A44EA815447EA8357A4FB076840
:1005700002958D0A05FB07854FEA932C04FB0C546A
:100580002705029D4FEA065847EA1637B5EB0805DE
:100590006EEB070C870E920E47EA811742EA831230
:1005A000A7FB0201B6EB0B0164EB00042B0D43EA41
:1005B0000C335E1844EB1C50DA465146E7FB02014F
:1005C000C5F313044FEA0B3343EA14534FEA0432E2
:1005D000019C43EA0603A4F10C040294009CCDE9BB
:1005E00000B400F0D8F803B0BDE8F08F0020014659
:1005F000F9E72DE9F04D81EA030404F0004B21F006
:10060000004514464FF0000A23F0004150EA05026D
:1006100020D054EA01021DD0C5F30A570246C5F3A3
:100620001303C1F31300C1F30A5640F4801543F4D9
:100630008013A7EB0608101BD64608F2FD3873EBB3
:10064000050002D308F1010801E092185B41B8F1FE
:10065000000F03DA00200146BDE8F08D00204FF4C2
:100660008011064684460EE0171B73EB050705D381
:10067000121B63EB050306434CEA010C49084FEAE1
:10068000300092185B4150EA0107EDD152EA0300B5
:1006900012D082EA040083EA0501084305D0101B4A
:1006A000AB4106D20122002306E000224FF00043B6
:1006B00002E06FF0010253101AEB06004CEB0851F8
:1006C00010EB0A0041EB0B01BDE8F04D00F054B80F
:1006D000C1F30A52C1F3130140F2FF3341F4801118
:1006E0009A4202DA00200146704740F233439A42B0
:1006F000A2F2334202DC5242FFF752BEFFF741BE84
:1007000030B5041E71F1000404DB4FF00044404298
:1007100064EB0101141E73F1000405DB1C464FF06D
:100720000043524263EB0403994208BF904230BD3C
:10073000064C074D06E0E06840F0010394E807002E
:1007400098471034AC42F6D3FFF7AAFD3471000885
:1007500054710008202A06DBCB17203A41FA02F038
:1007600043EAE07306E041FA02F3D040C2F120020E
:10077000914008431946704710B5141E73F10004E8
:1007800008DA401C41F1000192185B411A4301D183
:1007900020F0010010BD2DE9F04D92469B4611B1AD
:1007A000B1FA81F202E0B0FA80F220329046FFF70F
:1007B000E8FD04460F4640EA0A0041EA0B015346B1
:1007C0005A46084313D0114653EA010019D0C8F124
:1007D00040025046FFF7E4FD05460E465046594696
:1007E0004246FFF7CEFD084305D0012004E0204635
:1007F0003946BDE8F08D0020054346EAE0762C43FB
:1008000037430A986305E40AA0EB08000022FD0ABA
:1008100044EA47540A3002D500200146E9E70105C1
:1008200010196941DDE9084500196941BDE8F04D3D
:10083000A2E7000000000000FFE7FEE70000000064
:1008400080B584B001468DF80E008320ADF80C0011
:1008500040F2FA00C2F200400088BDF80C201043BC
:10086000ADF80C00BDF80C0040F40040ADF80C00F1
:100870009DF80E00024603280291019220D80199AA
:10088000DFE801F002091017BDF80C0040F48040C9
:10089000ADF80C0014E0BDF80C0040F4A040ADF839
:1008A0000C000DE0BDF80C0040F4C040ADF80C00A9
:1008B00006E0BDF80C0040F4E040ADF80C00FFE7A6
:1008C000BDF80C209020012105F02EFF002804D057
:1008D000FFE701208DF80F0003E000208DF80F00E6
:1008E000FFE79DF80F0004B080BD0000000000008D
:1008F000704700000000000080B586B001460590FA
:1009000005984FF6FA72101AADF81200BDF81200F1
:1009100040F21802C2F20042136858621046039176
:1009200003F0E6FA0290FFE7BDF812004FF6F97106
:10093000884209DCFFE740F21800C2F2004000687C
:10094000406AADF81200EFE740F21800C2F2004032
:1009500003F04EFB019006B080BD000000000000D7
:1009600081B0EFF3108072B60090FFE7FEE7000061
:1009700080B582B09020002103F052FF002808D0FB
:10098000FFE747F21810C0F6000005F01FFF0190C6
:10099000FFE705F099FE02B080BD000000000000F6
:1009A00093B00A46034612901191002010908020C7
:1009B000C5F600000D900B920A93FFE711980068AE
:1009C0001099C840002800F0D681FFE71198006810
:1009D0001099012202FA01F108400F900F980028A7
:1009E00000F0C581FFE71198406800F0030001287E
:1009F00007D0FFE71198406800F0030002282FD1CC
:100A0000FFE7129880680E9010984000032101FAC9
:100A100000F00E9921EA00000E901198C06810991C
:100A2000490088400E9908430E900E9812998860EC
:100A3000129840680E901098012101FA00F00E996A
:100A400021EA00000E9011984068C0F30010109940
:100A500088400E9908430E900E9812994860FFE75F
:100A60001198406800F00300032818D0FFE712989F
:100A7000C0680E9010984000032101FA00F00E9912
:100A800021EA00000E901198806810994900884072
:100A90000E9908430E900E981299C860FFE71198BE
:100AA000406800F00300022826D1FFE71298109951
:100AB0006FF0030202EA51010844006A0E90109898
:100AC00000F0070080000F2101FA00F00E9921EAE2
:100AD00000000E9011980069109901F0070189003B
:100AE00088400E9908430E900E981299109B02EAC6
:100AF000530211440862FFE7129800680E901098A4
:100B00004000032101FA00F00E9921EA00000E9046
:100B10001198406800F003001099490088400E9930
:100B200008430E900E9812990860119880798007FA
:100B3000002800F01B81FFE7FFE744F2F440C5F610
:100B40000200016841F002010160006800F002004B
:100B50000C900C980990FFE7109820F0030040F2E9
:100B60000841C5F6000140580E90109800F00300AF
:100B700080000F2101FA00F00E9921EA00000E908A
:100B800012980021C5F60201884203D1FFE7002038
:100B900008907AE0129840F20041C5F602018842BE
:100BA00003D1FFE7012007906CE0129840F60001A6
:100BB000C5F60201884203D1FFE7022006905EE0FD
:100BC000129840F60041C5F60201884203D1FFE7C2
:100BD0000320059050E0129841F20001C5F6020191
:100BE000884203D1FFE70420049042E0129841F2CA
:100BF0000041C5F60201884203D1FFE705200390BA
:100C000034E0129841F60001C5F60201884203D192
:100C1000FFE70620029026E0129841F60041C5F653
:100C20000201884203D1FFE70720019018E01298E3
:100C300042F20001C5F60201884203D1FFE7082015
:100C400000900AE0129842F20041C5F602010A2221
:100C5000884208BF09220092FFE700980190FFE751
:100C600001980290FFE702980390FFE70398049031
:100C7000FFE704980590FFE705980690FFE70698C0
:100C80000790FFE707980890FFE70898109901F090
:100C90000301890088400E9908430E900E98109920
:100CA00021F0030140F20842C5F6000288504FF0DF
:100CB000B04000680E900F980E9921EA00000E9047
:100CC00011988079C006002805D5FFE70F980E9986
:100CD00008430E90FFE70E984FF0B04108600420E3
:100CE000C5F6000000680E900F980E9921EA0000EA
:100CF0000E90119880798006002805D5FFE70F989F
:100D00000E9908430E90FFE70E980421C5F60001E6
:100D100008600D9840680E900F980E9921EA000027
:100D20000E90119880798007002805D5FFE70F986D
:100D30000E9908430E90FFE70E980D9948600D98A4
:100D400000680E900F980E9921EA00000E901198FD
:100D50008079C007002805D0FFE70F980E99084357
:100D60000E90FFE70E980D990860FFE7FFE71098D7
:100D70000130109022E613B0704700000000000020
:100D800084B00A4603460390ADF80A100398006940
:100D9000BDF80A1008420192009304D0FFE7012039
:100DA0008DF8090003E000208DF80900FFE79DF8A9
:100DB000090004B07047000080B585B013468C462A
:100DC00086460490ADF80E108DF80D209DF80D00AC
:100DD00000280293CDF804C0CDF800E005D0FFE76D
:100DE000BDF80E000499886105E0BDF80E0000040E
:100DF00004998861FFE705B080BD00000000000095
:100E000041F20000C5F600400068000C7047000089
:100E100040F2FC00C2F20040006870470000000091
:100E200040F20C00C2F20040007840F2FC01C2F235
:100E300000410A681044086070470000000000008C
:100E400080B582B0032000F03BF901F0ADFF44F221
:100E5000184EC5F6020EDEF80010C1F3032147F26A
:100E6000BE02C0F60002515C01F01F01C8400090B4
:100E70000098DEF8001001F00F01515C01F01F0135
:100E8000C84040F20801C2F200410860009840F2F8
:100E90000401C2F2004108600F2000F015F800289C
:100EA00004D0FFE701208DF8070006E000F0D0F83D
:100EB0004FF0000E8DF807E0FFE79DF8070002B045
:100EC00080BD00000000000080B584B001460290A3
:100ED00040F20C00C2F2004000780028019104D1D9
:100EE000FFE701208DF80F0031E040F20400C2F26C
:100EF0000040006840F20C01C2F2004109784FF452
:100F00007A72B2FBF1F1B0FBF1F002F0B9FE002809
:100F100004D0FFE701208DF80F0018E002980F2899
:100F20000DD8FFE702994FF0FF30002200F0A4F83F
:100F3000029840F21001C2F20041086003E0012073
:100F40008DF80F0003E000208DF80F00FFE79DF8FB
:100F50000F0004B080BD000080B582B00146019052
:100F6000019840784EF69852CEF200021060019837
:100F70000078002800912BD0FFE7019840684EF6DA
:100F80009C51CEF2000108600198017B0907C27AEA
:100F900041EA02610278037A90F809C090F80AE009
:100FA00041EACE4190F80DE041EA8E4190F80EE022
:100FB00041EA4E41C07B41EA004040EA0C2040EA51
:100FC000430010434EF6A051CEF2000108600BE042
:100FD0004EF69C50CEF20000002101604EF6A0506B
:100FE000CEF200000160FFE702B080BD000000000B
:100FF000BFF35F8F4EF62450CEF20000016821F45B
:10100000803101604EF69450CEF200000021016064
:10101000704700000000000082B001460190019876
:1010200040F001004EF69452CEF2000210604EF6EF
:101030002450CEF20000026842F480320260BFF316
:101040004F8FBFF36F8F009102B070470000000018
:1010500082B0FFE744F2F440C5F60200016841F0B7
:1010600002010160006800F0020001900198009008
:10107000FFE702B07047000080B58AB013468C4687
:101080008646ADF82600089107920593CDF810C06A
:10109000CDF80CE004F0ACFF0690BDF926000699EF
:1010A000089A079B0290084611461A4603F074FB03
:1010B000029901900846019904F0A2FF0AB080BD90
:1010C00080B582B0014601900198009104F0C0FF04
:1010D00002B080BD0000000080B584B001460290DF
:1010E00044F60C00C5F60200006800F0040000227F
:1010F000B2EB900F009113D1FFE744F60C00C5F658
:101100000200006800F007000299884204D0FFE75F
:1011100001208DF80F0030E000208DF80F002CE04A
:1011200044F60C00C5F60200016821F00701029A9E
:1011300011430160FFF76CFE0190FFE744F60400E5
:10114000C5F60200006800F400500021B1EB503FEA
:101150000FD1FFE7FFF75CFEDDF804E0A0EB0E0027
:10116000B0F57A7F04D9FFE701208DF80F0004E085
:10117000E4E700208DF80F00FFE79DF80F0004B0B2
:1011800080BD00000000000080B501F0B1FD44F218
:10119000204EC5F6020EDEF800E0CEF3021E47F246
:1011A000BE01C0F6000111F80E1001F01F01C84089
:1011B00080BD00000000000089B00146089044F2A4
:1011C0002840C5F60200026802F003020792006898
:1011D000C0F30530069044F22C40C5F602000068CA
:1011E000C0F300100590059844F23C42C5F6020297
:1011F000126892B2D208504300EE100AB8EE400ACC
:101200008DED030A06980028019100F01D81FFE78B
:1012100007980028009009D0FFE7009801286AD0BD
:10122000FFE70098022800F08A80ACE044F200401A
:10123000C5F60200006800F020000021B1EB501F4D
:1012400034D0FFE744F20040C5F602000068C0F366
:10125000C10049F20001C0F2D03121FA00F004903F
:101260009DED040AB8EE400A9DED061AB8EE411A4B
:1012700080EE010A44F23840C5F6020000686FF3C0
:101280005F2001EE100AB8EE411A9DED032A9FED92
:10129000743A82EE032A31EE021AB7EE002A31EEDA
:1012A000021A20EE010A8DED020A23E09DED060AE6
:1012B000B8EE400A9FED6C1A81EE000A44F2384005
:1012C000C5F6020000686FF35F2001EE100AB8EE69
:1012D000411A9DED032A9FED623A82EE032A31EE18
:1012E000021AB7EE002A31EE021A20EE010A8DED45
:1012F000020AFFE76BE09DED060AB8EE400A9FED9B
:10130000591A81EE000A44F23840C5F6020000681E
:101310006FF35F2001EE100AB8EE411A9DED032A2B
:101320009FED4F3A82EE032A31EE021AB7EE002A01
:1013300031EE021A20EE010A8DED020A47E09DED22
:10134000060AB8EE400A9FED451A81EE000A44F203
:101350003840C5F6020000686FF35F2001EE100A06
:10136000B8EE411A9DED032A9FED3D3A82EE032A25
:1013700031EE021AB7EE002A31EE021A20EE010A0F
:101380008DED020A23E09DED060AB8EE400A9FEDBE
:10139000351A81EE000A44F23840C5F602000068B2
:1013A0006FF35F2001EE100AB8EE411A9DED032A9B
:1013B0009FED2B3A82EE032A31EE021AB7EE002A95
:1013C00031EE021A20EE010A8DED020AFFE79DEDD3
:1013D000020A44F23840C5F60200016889B2490A9F
:1013E00001EE101AB8EE411AB7EE002A31EE021AD9
:1013F00080EE010A0899BCEEC00A81ED000A9DED5D
:10140000020A0168C1F3064101EE101AB8EE411A52
:1014100031EE021A80EE010A0899BCEEC00A81ED95
:10142000010A9DED020A0068C0F3066001EE100A91
:10143000B8EE411A31EE021A80EE010A0898BCEEAD
:10144000C00A80ED020A07E00898002101600898B0
:10145000416008988160FFE709B0704720BCBE4B2F
:10146000000000460024744A0024744C0000000070
:1014700089B00146089044F22840C5F6020002688F
:1014800002F0030207920068C0F30550069044F290
:101490002C40C5F602000068C0F3002005900598B6
:1014A00044F24442C5F60202126892B2D208504396
:1014B00000EE100AB8EE400A8DED030A06980028E7
:1014C000019100F01D81FFE707980028009009D0E6
:1014D000FFE7009801286AD0FFE70098022800F093
:1014E0008A80ACE044F20040C5F60200006800F0DB
:1014F00020000021B1EB501F34D0FFE744F2004040
:10150000C5F602000068C0F3C10049F20001C0F254
:10151000D03121FA00F004909DED040AB8EE400AA3
:101520009DED061AB8EE411A80EE010A44F24040E1
:10153000C5F6020000686FF35F2001EE100AB8EEF6
:10154000411A9DED032A9FED743A82EE032A31EE93
:10155000021AB7EE002A31EE021A20EE010A8DEDD2
:10156000020A23E09DED060AB8EE400A9FED6C1AD0
:1015700081EE000A44F24040C5F6020000686FF3B5
:101580005F2001EE100AB8EE411A9DED032A9FED8F
:10159000623A82EE032A31EE021AB7EE002A31EEE9
:1015A000021A20EE010A8DED020AFFE76BE09DEDC5
:1015B000060AB8EE400A9FED591A81EE000A44F27D
:1015C0004040C5F6020000686FF35F2001EE100A8C
:1015D000B8EE411A9DED032A9FED4F3A82EE032AA1
:1015E00031EE021AB7EE002A31EE021A20EE010A9D
:1015F0008DED020A47E09DED060AB8EE400A9FED28
:10160000451A81EE000A44F24040C5F60200006827
:101610006FF35F2001EE100AB8EE411A9DED032A28
:101620009FED3D3A82EE032A31EE021AB7EE002A10
:1016300031EE021A20EE010A8DED020A23E09DED43
:10164000060AB8EE400A9FED351A81EE000A44F210
:101650004040C5F6020000686FF35F2001EE100AFB
:10166000B8EE411A9DED032A9FED2B3A82EE032A34
:1016700031EE021AB7EE002A31EE021A20EE010A0C
:101680008DED020AFFE79DED020A44F24040C5F6E7
:101690000200016889B2490A01EE101AB8EE411A37
:1016A000B7EE002A31EE021A80EE010A0899BCEE6C
:1016B000C00A81ED000A9DED020A0168C1F30641EE
:1016C00001EE101AB8EE411A31EE021A80EE010A4C
:1016D0000899BCEEC00A81ED010A9DED020A00687E
:1016E000C0F3066001EE100AB8EE411A31EE021A9C
:1016F00080EE010A0898BCEEC00A80ED020A07E0FD
:101700000898002101600898416008988160FFE70F
:1017100009B0704720BCBE4B000000460024744A4C
:101720000024744C0000000080B59EB001461C905F
:1017300000208DF867008DF866001C98C0780007BF
:10174000002818914AD5FFE71C98806E0028179052
:101750000FD0FFE71798B0F5801F13D0FFE7179859
:10176000B0F5001F16D0FFE71798B0F5401F19D04D
:1017700019E044F22C40C5F60200016841F4003142
:10178000016014E01C980830022103F07DF88DF808
:1017900067000CE01C982830022103F061F98DF8F5
:1017A000670004E003E001208DF86700FFE79DF883
:1017B000670000280CD1FFE744F25040C5F6020054
:1017C000016821F440111C9A926E1143016004E0FB
:1017D0009DF867008DF86600FFE7FFE71C984078EA
:1017E000C007002841D0FFE71C98806D04281690A0
:1017F00020D81699DFE801F0030C141C1D0044F2F8
:101800002C40C5F60200016841F40031016015E08A
:101810001C980830002103F037F88DF867000DE0C0
:101820001C982830002103F01BF98DF8670005E0B3
:1018300004E003E001208DF86700FFE79DF86700F2
:1018400000280CD1FFE744F25040C5F602000168C1
:1018500021F007011C9A926D1143016004E09DF88C
:1018600067008DF86600FFE7FFE71C984078800767
:1018700000284DD5FFE71C98C06D0028159011D0A9
:10188000FFE71598402816D0FFE7159880281AD052
:10189000FFE71598C0281ED0FFE71598B0F5807FA8
:1018A0001AD01AE044F22C40C5F60200016841F457
:1018B0000031016015E01C980830002102F0E4FFBF
:1018C0008DF867000DE01C982830002103F0C8F85F
:1018D0008DF8670005E004E003E001208DF8670063
:1018E000FFE79DF8670000280CD1FFE744F2504065
:1018F000C5F60200016821F4E0711C9AD26D114313
:10190000016004E09DF867008DF86600FFE7FFE7DF
:101910001C9840784007002852D5FFE71C98D0F863
:10192000A8000028149014D0FFE71498B0F5001F09
:1019300018D0FFE71498B0F5800F1BD0FFE714987C
:10194000B0F5C00F1ED0FFE71498B0F5000F1AD005
:101950001AE044F22C40C5F60200016841F400315F
:10196000016015E01C980830002102F08DFF8DF811
:1019700067000DE01C982830002103F071F88DF805
:10198000670005E004E003E001208DF86700FFE751
:101990009DF8670000280DD1FFE744F25840C5F6D6
:1019A0000200016821F460011C9AD2F8A8201143BA
:1019B000016004E09DF867008DF86600FFE7FFE72F
:1019C0001C9840780007002852D5FFE71C98D0F8F3
:1019D000AC000028139014D0FFE71398B0F1807F7B
:1019E00018D0FFE71398B0F1007F1BD0FFE71398E2
:1019F000B0F1407F1ED0FFE71398B0F1806F1AD08E
:101A00001AE044F22C40C5F60200016841F40031AE
:101A1000016015E01C980830002102F035FF8DF8B8
:101A200067000DE01C982830002103F019F88DF8AC
:101A3000670005E004E003E001208DF86700FFE7A0
:101A40009DF8670000280DD1FFE744F25840C5F625
:101A50000200016821F0E0611C9AD2F8AC20114329
:101A6000016004E09DF867008DF86600FFE7FFE77E
:101A70001C98C0788007002840D5FFE71C98C06CF0
:101A8000002812901ED0FFE71298102808D0FFE718
:101A9000129820280DD0FFE71298302811D012E0BC
:101AA00044F22C40C5F60200016841F400310160A7
:101AB0000DE01C980830022102F0E6FE8DF8670068
:101AC00005E004E003E001208DF86700FFE79DF8E2
:101AD000670000280CD1FFE744F24C40C5F6020035
:101AE000016821F030011C9AD26C1143016004E0BE
:101AF0009DF867008DF86600FFE7FFE71C984078C7
:101B0000C006002850D5FFE71C98006E00281190F1
:101B100014D0FFE71198B0F5805F18D0FFE7119857
:101B2000B0F5005F1BD0FFE71198B0F5405F1ED005
:101B3000FFE71198B0F5804F1AD01AE044F22C401C
:101B4000C5F60200016841F40031016015E01C98FF
:101B50000830002102F098FE8DF867000DE01C9817
:101B60002830002102F07CFF8DF8670005E004E0DA
:101B700003E001208DF86700FFE79DF8670000286B
:101B80000CD1FFE744F25040C5F60200016821F491
:101B9000E0411C9A126E1143016004E09DF8670059
:101BA0008DF86600FFE7FFE71C9840788006002864
:101BB0004ED5FFE71C98406E0028109019D0FFE723
:101BC0001098B0F5803F15D0FFE71098B0F5003FB2
:101BD00018D0FFE71098B0F5403F1BD0FFE71098F2
:101BE000B0F5802F17D0FFE71098B0F5A02F13D0D5
:101BF00013E016E01C980830012102F045FE8DF834
:101C000067000EE01C982830012102F029FF8DF8B2
:101C1000670006E005E004E003E001208DF86700BE
:101C2000FFE79DF8670000280CD1FFE744F2504021
:101C3000C5F60200016821F4E0211C9A526E11439E
:101C4000016004E09DF867008DF86600FFE7FFE79C
:101C50001C9840784006002850D5FFE71C98D0F823
:101C6000B00000280F9019D0FFE70F98B0F1805F07
:101C700015D0FFE70F98B0F1005F18D0FFE70F987D
:101C8000B0F1405F1BD0FFE70F98B0F1804F17D045
:101C9000FFE70F98B0F1A04F13D013E016E01C98A7
:101CA0000830012102F0F0FD8DF867000EE01C986D
:101CB0002830012102F0D4FE8DF8670006E005E02F
:101CC00004E003E001208DF86700FFE79DF867005E
:101CD00000280DD1FFE744F25840C5F60200016824
:101CE00021F0E0411C9AD2F8B0201143016004E0D9
:101CF0009DF867008DF86600FFE7FFE71C984078C5
:101D0000000600283DD5FFE71C98006F00280E90C4
:101D10001BD0FFE70E98B0F1805F05D0FFE70E986B
:101D2000B0F1005F09D011E044F22C40C5F602008A
:101D3000016841F4003101600CE01C980830012179
:101D400002F0A2FD8DF8670004E003E001208DF8A9
:101D50006700FFE79DF8670000280CD1FFE744F219
:101D60005040C5F60200016821F040511C9A126FE4
:101D70001143016004E09DF867008DF86600FFE7FD
:101D8000FFE71C98C078C007002838D0FFE71C98F0
:101D9000806C03280D9017D80D99DFE801F014022C
:101DA0000B1344F22C40C5F60200016841F40031E7
:101DB00001600DE01C980830022102F065FD8DF8ED
:101DC000670005E004E003E001208DF86700FFE70D
:101DD0009DF8670000280CD1FFE744F24C40C5F69F
:101DE0000200016821F003011C9A926C114301600A
:101DF00004E09DF867008DF86600FFE7FFE71C9898
:101E000080784006002840F1BD80FFE744F60000DE
:101E1000C5F60200016841F480710160FEF7F8FF29
:101E20001A90FFE744F60000C5F602000068C005FE
:101E300000280ED4FFE7FEF7EBFFDDF868E0A0EB2B
:101E40000E00652804D3FFE703208DF8670000E04B
:101E5000E8E79DF86700002840F08E80FFE744F235
:101E60007040C5F60200006800F440701C99D1F87B
:101E7000B41001F44071884213D0FFE744F270407F
:101E8000C5F60200016821F440711B91016841F41C
:101E900080310160016821F4803101601B9901608B
:101EA000FFE71C98D0F8B400B0F5807F21D1FFE7A0
:101EB000FEF7AEFF1A90FFE744F27040C5F602004D
:101EC000006800F002000021B1EB500F10D1FFE7D5
:101ED000FEF79EFFDDF868E0A0EB0E0041F2893EC0
:101EE000704504D3FFE703208DF8670000E0E3E7C7
:101EF000FFE79DF86700002838D1FFE7FFE71C984F
:101F0000D0F8B40000F44070B0F5407F15D1FFE781
:101F100044F21040C5F60200016821F47C511C9A7D
:101F2000D2F8B4204FF6F043C0F6FF731A4041EAEE
:101F300012110A4601600C920AE044F21040C5F604
:101F40000200016821F47C510A4601600B92FFE710
:101F50001C98D0F8B4006FF31F3044F27041C5F6FE
:101F600002010A6810430860FFE704E09DF867007B
:101F70008DF86600FFE704E09DF867008DF86600C5
:101F8000FFE7FFE71C980068C007002800F04D80BD
:101F9000FFE71C98C06F28280A902BD80A99DFE821
:101FA00001F0152929292929292916292929292929
:101FB00029291E292929292929292629292929299F
:101FC00029292729292929292929280016E01C98A7
:101FD0000830012102F058FC8DF867000EE01C98D3
:101FE0002830012102F03CFD8DF8670006E005E095
:101FF00004E003E001208DF86700FFE79DF867002B
:1020000000280CD1FFE744F25440C5F602000168F5
:1020100021F038011C9AD26F1143016004E09DF851
:1020200067008DF86600FFE7FFE71C9800788007DF
:1020300000283AD5FFE71C98806F0528099019D829
:102040000999DFE801F003040C14151616E01C983A
:102050000830012102F018FC8DF867000EE01C9892
:102060002830012102F0FCFC8DF8670006E005E055
:1020700004E003E001208DF86700FFE79DF86700AA
:1020800000280CD1FFE744F25440C5F60200016875
:1020900021F007011C9A926F1143016004E09DF842
:1020A00067008DF86600FFE7FFE71C98007840079F
:1020B00000283CD5FFE71C98D0F89400052808902C
:1020C00019D80899DFE801F003040C14151616E07E
:1020D0001C980830012102F0D7FB8DF867000EE054
:1020E0001C982830012102F0BBFC8DF8670006E047
:1020F00005E004E003E001208DF86700FFE79DF8AC
:10210000670000280DD1FFE744F25840C5F60200F1
:10211000016821F007011C9AD2F894201143016054
:1021200004E09DF867008DF86600FFE7FFE71C9864
:1021300000788006002850D5FFE71C98D0F8900062
:102140000028079019D0FFE70798B0F1805F15D0FD
:10215000FFE70798B0F1005F18D0FFE70798B0F1EC
:10216000405F1BD0FFE70798B0F1804F17D0FFE723
:102170000798B0F1A04F13D013E016E01C98083078
:10218000002102F081FB8DF867000EE01C982830DA
:10219000022102F065FC8DF8670006E005E004E02E
:1021A00003E001208DF86700FFE79DF86700002835
:1021B0000DD1FFE744F25440C5F60200016821F05A
:1021C000E0411C9AD2F890201143016004E09DF890
:1021D00067008DF86600FFE7FFE71C98007840066F
:1021E000002850D5FFE71C98D0F89C0000280690E6
:1021F00019D0FFE70698B0F5806F15D0FFE7069875
:10220000B0F5006F18D0FFE70698B0F5406F1BD00F
:10221000FFE70698B0F5805F17D0FFE70698B0F5A6
:10222000A05F13D013E016E01C980830002102F0E4
:102230002BFB8DF867000EE01C982830022102F07D
:102240000FFC8DF8670006E005E004E003E00120E4
:102250008DF86700FFE79DF8670000280DD1FFE7C4
:1022600044F25840C5F60200016821F4E0511C9A7E
:10227000D2F89C201143016004E09DF867008DF8BE
:102280006600FFE7FFE71C9800780006002850D59D
:10229000FFE71C98D0F8A0000028059019D0FFE7B0
:1022A0000598B0F5005F15D0FFE70598B0F5804FB1
:1022B00018D0FFE70598B0F5C04F1BD0FFE7059891
:1022C000B0F5004F17D0FFE70598B0F5204F13D0B9
:1022D00013E016E01C980830002102F0D5FA8DF8C2
:1022E00067000EE01C982830022102F0B9FB8DF83F
:1022F000670006E005E004E003E001208DF86700D8
:10230000FFE79DF8670000280DD1FFE744F2584031
:10231000C5F60200016821F460411C9AD2F8A020A1
:102320001143016004E09DF867008DF86600FFE747
:10233000FFE71C9800780007002821D5FFE71C98CC
:10234000D0F88400B0F5805F0DD1FFE71C982830ED
:10235000022102F085FB002804D0FFE701208DF860
:102360006600FFE7FFE744F25440C5F6020001684B
:1023700021F440511C9AD2F8842011430160FFE7F8
:102380001C980078C006002821D5FFE71C98D0F8DB
:102390009800B0F5807F0DD1FFE71C98283002210E
:1023A00002F05EFB002804D0FFE701208DF86600F4
:1023B000FFE7FFE744F25840C5F60200016821F448
:1023C00040711C9AD2F8982011430160FFE71C98D5
:1023D0008078000700283ED5FFE71C98D0F8A400BD
:1023E000002804900AD0FFE70498B0F5803F0DD094
:1023F000FFE70498B0F5003F10D010E01C980830BB
:10240000002102F041FA8DF867000CE01C9828309A
:10241000022102F025FB8DF8670004E003E00120B3
:102420008DF86700FFE79DF8670000280DD1FFE7F2
:1024300044F25840C5F60200016821F440311C9A6C
:10244000D2F8A4201143016004E09DF867008DF8E4
:102450006600FFE7FFE71C9880784007002840D51A
:10246000FFE71C98D0F88800B0F5801F03900AD0D1
:10247000FFE70398B0F5001F0ED0FFE70398B0F513
:10248000401F11D011E044F22C40C5F60200016853
:1024900041F4003101600CE01C982830012102F069
:1024A000DFFA8DF8670004E003E001208DF8670093
:1024B000FFE79DF8670000280DD1FFE744F2544084
:1024C000C5F60200016821F440111C9AD2F8882058
:1024D0001143016004E09DF867008DF86600FFE796
:1024E000FFE71C988078C007002837D0FFE71C98CA
:1024F000006D0028029005D0FFE70298B0F5803FFC
:1025000009D010E044F22C40C5F60200016841F405
:10251000003101600BE01C980830022102F0B4F990
:102520008DF8670003E001208DF86700FFE79DF854
:10253000670000280CD1FFE744F24C40C5F60200CA
:10254000016821F480311C9A126D1143016004E08E
:102550009DF867008DF86600FFE7FFE71C98C078DC
:10256000800600280DD5FFE71C982830022102F0D4
:1025700077FA002804D0FFE701208DF86600FFE716
:10258000FFE71C988078800700283ED5FFE71C985D
:10259000D0F88000002801901AD0FFE70198B0F52C
:1025A000807F0AD0FFE70198B0F5007F0ED0FFE7EB
:1025B0000198B0F5407F0AD00BE044F22C40C5F6FC
:1025C0000200016841F40031016006E005E004E02A
:1025D00003E001208DF86700FFE79DF86700002801
:1025E0000DD1FFE744F25440C5F60200016821F422
:1025F00040711C9AD2F880201143016004E09DF8DC
:1026000067008DF86600FFE7FFE71C988078C0063A
:1026100000280CD5FFE744F25040C5F602000168DF
:1026200021F000411C9A526F11430160FFE71C9892
:10263000C078C00600280DD5FFE744F21040C5F66B
:102640000200016821F480411C9AD2F8B82011439D
:102650000160FFE71C988078800600280CD5FFE712
:1026600044F25040C5F60200016821F080711C9AC6
:10267000D26E11430160FFE71C98C0784006002825
:1026800011D5FFE7FFE744F21040C5F602000168EC
:1026900021F4004101601C99D1F8BC10026811437B
:1026A0000160FFE7FFE71C98C078000600280CD502
:1026B000FFE744F24C40C5F60200016821F04051AA
:1026C0001C9A526D11430160FFE71C988078000648
:1026D00000280DD5FFE744F25440C5F6020001681A
:1026E00021F440011C9AD2F88C2011430160FFE7CD
:1026F0001C980079C007002813D0FFE71C98083009
:10270000002102F0C1F88DF867009DF867000028ED
:1027100001D1FFE704E09DF867008DF86600FFE750
:10272000FFE71C9800798007002813D5FFE71C9865
:102730000830012102F0A8F88DF867009DF86700C5
:10274000002801D1FFE704E09DF867008DF86600DE
:10275000FFE7FFE71C9800794007002813D5FFE743
:102760001C980830022102F08FF88DF867009DF860
:102770006700002801D1FFE704E09DF867008DF8AD
:102780006600FFE7FFE71C9800790007002813D5D3
:10279000FFE71C982830002102F062F98DF86700ED
:1027A0009DF86700002801D1FFE704E09DF867006D
:1027B0008DF86600FFE7FFE71C980079C006002847
:1027C00013D5FFE71C982830012102F049F98DF854
:1027D00067009DF86700002801D1FFE704E09DF83D
:1027E00067008DF86600FFE7FFE71C980079800618
:1027F000002813D5FFE71C982830022102F030F999
:102800008DF867009DF86700002801D1FFE704E01C
:102810009DF867008DF86600FFE7FFE79DF866000A
:10282000002804D1FFE700208DF8770003E00120A5
:102830008DF87700FFE79DF877001EB080BD00009F
:1028400080B588B00A460346069005910698002890
:102850000192009304D1FFE701208DF81F0040E2B0
:10286000059842F20001C5F20021096801F00F014C
:10287000884216D9FFE742F20000C5F20020016845
:1028800021F00F01059A11430160006800F00F006C
:102890000599884204D0FFE701208DF81F0020E24F
:1028A000FFE7069800684007002819D5FFE706985B
:1028B000006944F21841C5F60201096801F070018F
:1028C00088420CD9FFE744F21840C5F602000168BF
:1028D00021F07001069A126911430160FFE7FFE7DA
:1028E000069800680007002819D5FFE70698406998
:1028F00044F21C41C5F60201096801F070018842EA
:102900000CD9FFE744F21C40C5F60200016821F033
:102910007001069A526911430160FFE7FFE70698CC
:102920000068C006002819D5FFE70698806944F2C0
:102930001C41C5F60201096801F4E06188420CD926
:10294000FFE744F21C40C5F60200016821F4E06193
:10295000069A926911430160FFE7FFE70698006855
:102960008006002819D5FFE70698C06944F2204187
:10297000C5F60201096801F0700188420CD9FFE731
:1029800044F22040C5F60200016821F07001069A69
:10299000D26911430160FFE7FFE7069800688007EE
:1029A000002819D5FFE70698C06844F21841C5F61B
:1029B0000201096801F00F0188420CD9FFE744F2D7
:1029C0001840C5F60200016821F00F01069AD2688E
:1029D00011430160FFE7FFE706980068C007002881
:1029E00000F08E80FFE744F21840C5F6020001684F
:1029F00021F47061069A926811430160069840685C
:102A0000022811D1FFE744F20040C5F60200006839
:102A100000F400300021B1EB504F04D1FFE701205A
:102A20008DF81F005DE13EE006984068032811D153
:102A3000FFE744F20040C5F60200006800F00070B5
:102A40000021B1EB506F04D1FFE701208DF81F008A
:102A500047E127E006984068012811D1FFE744F2DA
:102A60000040C5F60200006800F480700021B1EB60
:102A7000102F04D1FFE701208DF81F0031E110E095
:102A800044F20040C5F60200006800F00400002196
:102A9000B1EB900F04D1FFE701208DF81F0020E17A
:102AA000FFE7FFE7FFE744F21040C5F602000168C8
:102AB00021F00701069A526811430160FEF7A8F958
:102AC0000390FFE744F21040C5F60200006800F0F2
:102AD000380006994968B0EBC10F10D0FFE7FEF748
:102AE00097F9DDF80CE0A0EB0E0041F2893E70454D
:102AF00004D3FFE703208DF81F00F2E0E2E7FFE7D1
:102B0000069800688007002819D5FFE70698C06876
:102B100044F21841C5F60201096801F00F0188422C
:102B20000CD2FFE744F21840C5F60200016821F01C
:102B30000F01069AD26811430160FFE7FFE705988D
:102B400042F20001C5F20021096801F00F0188423C
:102B500016D2FFE742F20000C5F20020016821F022
:102B60000F01059A11430160006800F00F000599FC
:102B7000884204D0FFE701208DF81F00B1E0FFE795
:102B8000069800684007002819D5FFE706980069F5
:102B900044F21841C5F60201096801F0700188424B
:102BA0000CD2FFE744F21840C5F60200016821F09C
:102BB0007001069A126911430160FFE7FFE706986A
:102BC00000680007002819D5FFE70698406944F21D
:102BD0001C41C5F60201096801F0700188420CD25F
:102BE000FFE744F21C40C5F60200016821F07001C5
:102BF000069A526911430160FFE7FFE706980068F3
:102C0000C006002819D5FFE70698806944F21C41E8
:102C1000C5F60201096801F4E06188420CD2FFE7C1
:102C200044F21C40C5F60200016821F4E061069AF6
:102C3000926911430160FFE7FFE70698006880068C
:102C4000002819D5FFE70698C06944F22041C5F66F
:102C50000201096801F0700188420CD2FFE744F2DA
:102C60002040C5F60200016821F07001069AD26981
:102C700011430160FFE7FFE700F096F844F2184EB9
:102C8000C5F6020EDEF80010C1F3032147F2BE02C2
:102C9000C0F60002515C01F01F01C840029002988A
:102CA000DEF8001001F00F01515C01F01F01C84077
:102CB00040F20801C2F200410860029840F20401AB
:102CC000C2F20041086040F21000C2F20040006809
:102CD000FEF7FAF88DF813009DF813008DF81F0029
:102CE000FFE79DF81F0008B080BD00000000000055
:102CF00080B582B000F058F844F2184EC5F6020EC6
:102D0000DEF80010C1F3032147F2BE02C0F6000254
:102D1000515C01F01F01C84001900198DEF80010DD
:102D200001F00F01515C01F01F01C84040F20801A1
:102D3000C2F200410860019840F20402C2F200426F
:102D40001060086802B080BD80B5FFF7D1FF44F283
:102D50001C4EC5F6020EDEF800E0CEF3021E47F26E
:102D6000BE01C0F6000111F80E1001F01F01C840AD
:102D700080BD00000000000080B5FFF7B9FF44F2FD
:102D80001C4EC5F6020EDEF800E0CEF3022E47F22E
:102D9000BE01C0F6000111F80E1001F01F01C8407D
:102DA00080BD0000000000008AB044F21040C5F66B
:102DB0000200006800F0380001461828019100F276
:102DC0006C810199DFE811F019006901690169015D
:102DD00069016901690169013B00690169016901D2
:102DE00069016901690169014100690169016901BC
:102DF0006901690169016901470044F20040C5F6B3
:102E00000200006800F020000021B1EB501F0FD03D
:102E1000FFE744F20040C5F602000068C0F3C100BD
:102E200049F20001C0F2D03121FA00F0029005E031
:102E300049F20000C0F2D0300290FFE733E140F6E3
:102E40000010C0F23D0002902DE147F64000C0F2B4
:102E50007D10029027E144F22840C5F60200016887
:102E600001F0030108910068C0F30510079044F2D7
:102E70002C40C5F60200006800F00100069006989C
:102E800044F23441C5F60201096889B2C9084843D1
:102E900000EE100AB8EE400A8DED040A07980028EB
:102EA00000F0F780FFE708980028009009D0FFE7BE
:102EB000009801286AD0FFE70098022800F08A8075
:102EC000ACE044F20040C5F60200006800F02000CB
:102ED0000021B1EB501F34D0FFE744F20040C5F6AB
:102EE00002000068C0F3C10049F20001C0F2D03115
:102EF00021FA00F005909DED050AB8EE400A9DED1F
:102F0000071AB8EE411A80EE010A44F23040C5F6C5
:102F1000020000686FF35F2001EE100AB8EE411A5C
:102F20009DED042A9FED623A82EE032A31EE021AE9
:102F3000B7EE002A31EE021A20EE010A8DED030AE7
:102F400023E09DED070AB8EE400A9FED5B1A81EE83
:102F5000000A44F23040C5F6020000686FF35F20BB
:102F600001EE100AB8EE411A9DED042A9FED503A89
:102F700082EE032A31EE021AB7EE002A31EE021A6F
:102F800020EE010A8DED030AFFE76BE09DED070AD5
:102F9000B8EE400A9FED471A81EE000A44F2304035
:102FA000C5F6020000686FF35F2001EE100AB8EE6C
:102FB000411A9DED042A9FED3E3A82EE032A31EE3E
:102FC000021AB7EE002A31EE021A20EE010A8DED48
:102FD000030A47E09DED070AB8EE400A9FED331A59
:102FE00081EE000A44F23040C5F6020000686FF33B
:102FF0005F2001EE100AB8EE411A9DED042A9FED04
:103000002C3A82EE032A31EE021AB7EE002A31EE94
:10301000021A20EE010A8DED030A23E09DED070A56
:10302000B8EE400A9FED231A81EE000A44F23040C8
:10303000C5F6020000686FF35F2001EE100AB8EEDB
:10304000411A9DED042A9FED1A3A82EE032A31EED1
:10305000021AB7EE002A31EE021A20EE010A8DEDB7
:10306000030AFFE744F23040C5F60200006880B270
:10307000012101EB502009909DED030A9DED091AF5
:10308000B8EE411A80EE010ABCEEC00A8DED020ACC
:1030900002E000200290FFE705E040F60010C0F2D9
:1030A0003D000290FFE702980AB0704720BCBE4B7B
:1030B000000000460024744A0024744C0000000004
:1030C00080B58CB001460A900A980028009105D17D
:1030D000FFE701208DF82F0000F0CDBD0A980068B1
:1030E000C007002800F0C480FFE744F21040C5F696
:1030F0000200006800F03800069044F22840C5F64F
:10310000020000680590069810280AD0FFE706988C
:1031100018281DD1FFE7059800F00300022817D1F9
:10312000FFE744F20040C5F60200006800F40030FA
:103130000021B1EB504F0AD0FFE70A984068002801
:1031400005D1FFE701208DF82F0000F094BD8EE03F
:10315000FFE70A984068B0F5803F09D1FFE744F2E5
:103160000040C5F60200016841F48031016033E09F
:103170000A98406800280DD1FFE744F20040C5F6E8
:103180000200016821F480310160016821F480218E
:10319000016020E00A984068B0F5A02F0DD1FFE74C
:1031A00044F20040C5F60200016841F4802101604C
:1031B000016841F4803101600CE044F20040C5F642
:1031C0000200016821F480310160016821F480214E
:1031D0000160FFE7FFE7FFE7FFE70A984068002884
:1031E00022D0FFE7FDF714FE0990FFE744F200400C
:1031F000C5F60200006800F400300021B1EB504F2A
:1032000011D1FFE7FDF704FEDDF824E0A0EB0E008E
:1032100041F2893E704505D3FFE703208DF82F006A
:1032200000F029BDE2E721E0FDF7F2FD0990FFE79C
:1032300044F20040C5F60200006800F400300021AE
:10324000B1EB504F11D0FFE7FDF7E2FDDDF824E0D0
:10325000A0EB0E0041F2893E704505D3FFE7032045
:103260008DF82F0000F007BDE2E7FFE7FFE7FFE77B
:103270000A9800688007002840F11E81FFE744F2A9
:103280001040C5F60200006800F03800049044F2D7
:103290002840C5F6020000680390049800280AD070
:1032A000FFE7049818287BD1FFE79DF80C00800702
:1032B000002875D1FFE744F20040C5F6020000681F
:1032C00000F004000021B1EB900F0AD0FFE70A984C
:1032D000C068002805D1FFE701208DF82F0000F01D
:1032E000CABC44F20040C5F60200016821F0190191
:1032F0000A9AD26811430160FDF78AFD0990FFE741
:1033000044F20040C5F60200006800F0040000210D
:10331000B1EB900F0FD1FFE7FDF77AFDDDF824E068
:10332000A0EB0E00032805D3FFE703208DF82F0044
:1033300000F0A1BCE4E7FFE7FDF762FD41F2030EF8
:1033400070451DD8FFE70A98006940280AD1FFE7B9
:1033500044F20440C5F602000168202262F31131F4
:1033600001600CE044F20440C5F60200016821F45B
:103370007C310A9A126941EA02310160FFE70CE0F0
:1033800044F20440C5F60200016821F0FE410A9AA9
:10339000126941EA02610160FFE7FFE7FFE78AE0A7
:1033A0000A98C06800285ED0FFE744F20040C5F6E6
:1033B0000200016821F019010A9AD26811430160E4
:1033C000FDF726FD0990FFE744F20040C5F6020034
:1033D000006800F004000021B1EB900F0FD1FFE76F
:1033E000FDF716FDDDF824E0A0EB0E00032805D361
:1033F000FFE703208DF82F0000F03DBCE4E7FFE776
:10340000FDF7FEFC41F2030E70451DD8FFE70A9858
:10341000006940280AD1FFE744F20440C5F60200E3
:103420000168202262F3113101600CE044F2044093
:10343000C5F60200016821F47C310A9A126941EA5A
:1034400002310160FFE70CE044F20440C5F60200DF
:10345000016821F0FE410A9A126941EA02610160A5
:10346000FFE7FFE726E044F20040C5F602000168EE
:1034700021F001010160FDF7CBFC0990FFE744F268
:103480000040C5F60200006800F004000021B1EB26
:10349000900F0ED0FFE7FDF7BBFCDDF824E0A0EBBA
:1034A0000E00032804D3FFE703208DF82F00E2E38A
:1034B000E5E7FFE7FFE7FFE70A980068C006002896
:1034C00040F1EF80FFE744F21040C5F602000068CB
:1034D00000F03800029044F22840C5F6020000686F
:1034E0000190029808280AD0FFE70298182850D1C6
:1034F000FFE7019800F0030001284AD1FFE744F2FA
:103500000040C5F60200006800F480700021B1EBB5
:10351000102F09D0FFE70A98C069802804D0FFE780
:1035200001208DF82F00A6E3FFE7FDF769FC41F2CB
:10353000030E70451DD8FFE70A98006A20280AD1BB
:10354000FFE744F20440C5F602000168102262F36E
:103550009E6101600CE044F20440C5F6020001687F
:1035600021F0F8410A9A126A41EA82610160FFE79C
:103570000CE044F20C40C5F60200016821F07C51D9
:103580000A9A126A41EA02610160FFE7FFE7FFE77A
:1035900086E00A98C06900285AD0FFE744F200404C
:1035A000C5F60200016841F080010160FDF730FCC2
:1035B0000990FFE744F20040C5F60200006800F4FD
:1035C00080700021B1EB102F0ED1FFE7FDF720FC3A
:1035D000DDF824E0A0EB0E00032804D3FFE703206E
:1035E0008DF82F0047E3E5E7FFE7FDF709FC41F21F
:1035F000030E70451DD8FFE70A98006A20280AD1FB
:10360000FFE744F20440C5F602000168102262F3AD
:103610009E6101600CE044F20440C5F602000168BE
:1036200021F0F8410A9A126A41EA82610160FFE7DB
:103630000CE044F20C40C5F60200016821F07C5118
:103640000A9A126A41EA02610160FFE7FFE726E099
:1036500044F20040C5F60200016821F080010160DB
:10366000FDF7D6FB0990FFE744F20040C5F60200E3
:10367000006800F480700021B1EB102F0ED0FFE73E
:10368000FDF7C6FBDDF824E0A0EB0E00032804D311
:10369000FFE703208DF82F00EDE2E5E7FFE7FFE706
:1036A000FFE70A9800680007002854D5FFE70A984A
:1036B0004069002827D0FFE744F27440C5F60200B5
:1036C000016841F001010160FDF7A2FB0990FFE7ED
:1036D00044F27440C5F60200006800F002000021C8
:1036E000B1EB500F0ED1FFE7FDF792FBDDF824E0C0
:1036F000A0EB0E00032804D3FFE703208DF82F0072
:10370000B9E2E5E726E044F27440C5F6020001683C
:1037100021F001010160FDF77BFB0990FFE744F216
:103720007440C5F60200006800F002000021B1EB11
:10373000500F0ED0FFE7FDF76BFBDDF824E0A0EBA8
:103740000E00032804D3FFE703208DF82F0092E238
:10375000E5E7FFE7FFE70A9800688006002854D5F0
:10376000FFE70A988069002827D0FFE744F200406D
:10377000C5F60200016841F480510160FDF748FB85
:103780000990FFE744F20040C5F60200006800F42B
:1037900000500021B1EB503F0ED1FFE7FDF738FBA1
:1037A000DDF824E0A0EB0E00032804D3FFE703209C
:1037B0008DF82F005FE2E5E726E044F20040C5F611
:1037C0000200016821F480510160FDF721FB09909E
:1037D000FFE744F20040C5F60200006800F4005024
:1037E0000021B1EB503F0ED0FFE7FDF711FBDDF8F4
:1037F00024E0A0EB0E00032804D3FFE703208DF89C
:103800002F0038E2E5E7FFE7FFE70A980068400786
:10381000002840F1AF80FFE744F60000C5F6020043
:10382000016841F480710160FDF7F2FA0990FFE749
:1038300044F60000C5F602000068C00500280ED45A
:10384000FFE7FDF7E5FADDF824E0A0EB0E006528C0
:1038500004D3FFE703208DF82F000CE2E8E7FFE731
:103860000A988068012809D1FFE744F27040C5F644
:103870000200016841F00101016032E00A988068AD
:1038800000280DD1FFE744F27040C5F60200016840
:1038900021F001010160016821F0040101601FE0D5
:1038A0000A98806805280DD1FFE744F27040C5F6FC
:1038B0000200016841F004010160016841F001016A
:1038C00001600CE044F27040C5F60200016821F08E
:1038D00001010160016821F004010160FFE7FFE7D9
:1038E000FFE7FFE70A988068002821D0FFE7FDF78F
:1038F0008FFA0990FFE744F27040C5F602000068B5
:1039000000F002000021B1EB500F10D1FFE7FDF7EE
:103910007FFADDF824E0A0EB0E0041F2893E70450D
:1039200004D3FFE703208DF82F00A4E1E3E720E0B4
:10393000FDF76EFA0990FFE744F27040C5F6020009
:10394000006800F002000021B1EB500F10D0FFE73B
:10395000FDF75EFADDF824E0A0EB0E0041F2893EAF
:10396000704504D3FFE703208DF82F0083E1E3E7E0
:10397000FFE7FFE70A98406A002800F07881FFE738
:1039800044F21040C5F60200006800F03800182824
:1039900000F0E480FFE70A98406A022840F0B68011
:1039A000FFE744F20040C5F60200016821F0807193
:1039B0000160FDF72DFA0990FFE744F20040C5F6DB
:1039C0000200006800F000700021B1EB506F0ED0D3
:1039D000FFE7FDF71DFADDF824E0A0EB0E00032859
:1039E00004D3FFE703208DF82F0044E1E5E7FFE76C
:1039F00044F22840C5F60200016840F2F3329143D8
:103A00000A9A936AD26A43EA0212114301600A9841
:103A1000016B426B836BC06B01396FF35F214FF613
:103A2000006CCFF6FF7C0CEB422292B211440022D4
:103A3000CFF6FF7202EB034202F4FE0211444FF094
:103A40007F4202EB006000F0FE40084444F2304147
:103A5000C5F602010860FFE744F22C40C5F60200FB
:103A6000016821F00101016044F23441C5F6020110
:103A70000A684FF6F8739A430A9B9B6C42EAC302AA
:103A80000A60016821F00C010A9A126C114301606E
:103A9000016821F002010A9A526C11430160016829
:103AA00041F480310160016841F400310160016836
:103AB00041F480210160016841F00101016044F29C
:103AC0000040C5F60200016841F080710160FDF719
:103AD0009FF90990FFE744F20040C5F60200006834
:103AE00000F000700021B1EB506F0ED1FFE7FDF741
:103AF0008FF9DDF824E0A0EB0E00032804D3FFE7E4
:103B000003208DF82F00B6E0E5E726E044F2004000
:103B1000C5F60200016821F080710160FDF778F9B7
:103B20000990FFE744F20040C5F60200006800F08B
:103B300000700021B1EB506F0ED0FFE7FDF768F980
:103B4000DDF824E0A0EB0E00032804D3FFE70320F8
:103B50008DF82F008FE0E5E7FFE787E044F228408B
:103B6000C5F602000068089044F23040C5F6020035
:103B7000006807900A98406A012837D0FFE7089844
:103B800000F003000A99896A88422FD1FFE708985C
:103B900000F47C700A99C96AB1EB101F26D1FFE7C7
:103BA00007986FF35F200A99096B013988421DD18C
:103BB000FFE7BDF81C000A99496B0139B1EB502FA2
:103BC00014D1FFE7079800F4FE000A99896B0139C8
:103BD000B1EB104F0AD1FFE7079800F0FE400A99B9
:103BE000C96B0139B1EB106F04D0FFE701208DF8EC
:103BF0002F0040E044F23440C5F60200006880B275
:103C0000C00808900A98806C089988422CD0FFE779
:103C100044F22C40C5F60200016821F00101016068
:103C2000FDF7F6F80990FFE7FDF7F2F8DDF824E07C
:103C3000A0EB0E00002801D1FFE7F5E744F2344085
:103C4000C5F6020001684FF6F87291430A9A926C29
:103C500041EAC201016044F22C40C5F6020001684D
:103C600041F001010160FFE7FFE7FFE7FFE7002008
:103C70008DF82F00FFE79DF82F000CB080BD0000ED
:103C800080B582B0014601900198009101F02CF8B6
:103C900002B080BD0000000087B00A4603460590D0
:103CA000049101920093FFE7059890F83C000128E9
:103CB00004D1FFE702208DF81B0099E0059801214F
:103CC00080F83C10FFE7FFE70598022180F83D10DF
:103CD0000598006840680390059800688068029025
:103CE000059800680021C4F20101884209D0FFE76D
:103CF0000598006840F20041C4F2010188420AD1EF
:103D0000FFE7039820F4700003900498406803993B
:103D100008430390FFE7039820F070000390049895
:103D2000006803990843039003980599096848605F
:103D3000059800680021C4F2010188423CD0FFE7E9
:103D400005980068B0F1804F36D0FFE7059800680D
:103D500040F20041C4F2000188422DD0FFE70598EF
:103D6000006840F60001C4F20001884224D0FFE759
:103D70000598006840F60041C4F2000188421BD05B
:103D8000FFE70598006840F20041C4F20101884253
:103D900012D0FFE70598006841F60001C4F2000167
:103DA000884209D0FFE70598006844F20001C4F298
:103DB000010188420ED1FFE7029820F080000290B6
:103DC000049880680299084302900298059909684E
:103DD0008860FFE70598012180F83D10FFE705980E
:103DE000002180F83C10FFE700208DF81B00FFE762
:103DF0009DF81B0007B0704780B584B00146029063
:103E000002980028019104D1FFE701208DF80F00EE
:103E100049E0029890F83D00002808D1FFE7029899
:103E2000002180F83C10029800F042F8FFE7029869
:103E3000022180F83D10029850F8041B00900846BB
:103E4000009901F0E9F80298012180F84810FFE795
:103E50000298012180F83E10029880F83F100298E5
:103E600080F84010029880F84110029880F84210C3
:103E7000029880F84310FFE7FFE70298012180F8DD
:103E80004410029880F84510029880F84610029875
:103E900080F84710FFE70298012180F83D100020CC
:103EA0008DF80F00FFE79DF80F0004B080BD000003
:103EB00084B0014603900398006841F20042C4F2C6
:103EC00000029042019111D1FFE7FFE744F2E84080
:103ED000C5F60200016841F020010160006800F0B1
:103EE0002000029002980090FFE7FFE704B07047BF
:103EF00084B001460290029890F83D00012800919C
:103F000004D0FFE701208DF80F006BE0029802213A
:103F100080F83D10029800680021C4F20101884237
:103F20003CD0FFE702980068B0F1804F36D0FFE741
:103F30000298006840F20041C4F2000188422DD08E
:103F4000FFE70298006840F60001C4F200018842D1
:103F500024D0FFE70298006840F60041C4F2000157
:103F600088421BD0FFE70298006840F20041C4F28B
:103F70000101884212D0FFE70298006841F6000173
:103F8000C4F20001884209D0FFE70298006844F2B9
:103F90000001C4F20101884219D1FFE702980068CC
:103FA00080680721C0F201010840019001980628AD
:103FB0000CD0FFE70198B0F5803F07D0FFE70298EB
:103FC0000068016841F001010160FFE706E0029826
:103FD0000068016841F001010160FFE700208DF8F1
:103FE0000F00FFE79DF80F0004B0704700000000CD
:103FF00082B0014601900091FFE701980068006AD5
:1040000041F21111084210D1FFE701980068006ADF
:1040100040F24441084207D1FFE701980068016877
:1040200021F001010160FFE7FFE7FFE701980121AF
:1040300080F83D10002002B0704700000000000032
:1040400084B0014602900091FFE7029890F8840046
:10405000012804D1FFE702208DF80F002CE0029820
:10406000012180F88410FFE7FFE702982421C0F8BF
:104070008810029800680068019002980068016842
:1040800021F001010160019820F000500190029898
:104090000021416601980299096808600298202170
:1040A000C0F88810FFE70298002180F88410FFE72D
:1040B00000208DF80F00FFE79DF80F0004B0704757
:1040C00080B586B00A46034604900391019200939E
:1040D000FFE7049890F88400012804D1FFE702204C
:1040E0008DF8170032E00498012180F88410FFE772
:1040F000FFE704982421C0F888100498006800683D
:10410000029004980068016821F0010101600498A0
:104110000068806820F0606003990843049909688A
:104120008860049801F04CF80298049909680860C6
:1041300004982021C0F88810FFE70498002180F837
:104140008410FFE700208DF81700FFE79DF81700A7
:1041500006B080BD0000000080B586B00A46034668
:104160000490039101920093FFE7049890F8840073
:10417000012804D1FFE702208DF8170032E00498EF
:10418000012180F88410FFE7FFE704982421C0F89C
:10419000881004980068006802900498006801681C
:1041A00021F00101016004980068806820F06040FF
:1041B00003990843049909688860049801F000F89D
:1041C000029804990968086004982021C0F88810B2
:1041D000FFE70498002180F88410FFE700208DF8A5
:1041E0001700FFE79DF8170006B080BD0000000033
:1041F00080B584B00146029002980028019104D154
:10420000FFE701208DF80F0049E00298806900283F
:1042100001D0FFE700E0FFE70298D0F8880000280F
:1042200008D1FFE70298002180F88410029800F07E
:104230003BF8FFE702982421C0F888100298006834
:10424000016821F001010160029801F09DF9012847
:1042500004D1FFE701208DF80F0020E00298806A6A
:10426000002804D0FFE7029800F0F2FFFFE7029871
:104270000068416821F490414160029800688168BB
:1042800021F02A01816002980068016841F0010173
:104290000160029801F07CF88DF80F00FFE79DF8AF
:1042A0000F0004B080BD000080B5BCB001463B905B
:1042B00000203A90399038903790369006A8C02266
:1042C00003911146FCF73CF83B98006841F200016D
:1042D000C4F20101884240D1FFE70020079001218C
:1042E0000691259006A8FDF71FFA002803D0FFE7E6
:1042F000FCF736FBFFE7FFE744F2F040C5F60200AB
:10430000016841F010010160006800F010000590A4
:1043100005980290FFE7FFE744F2E040C5F602008F
:10432000016841F002010160006800F002000490A1
:1043300004980190FFE74FF44040369002203790F8
:1043400000203890399004203A9040F20040C5F6A1
:10435000020036A9FCF724FBFFE73CB080BD00005B
:10436000B0B58EB09C4696460C4605460C900B9117
:10437000ADF82A2009930C98D0F888002028CDF8B1
:1043800014C0CDF810E00394029540F08E80FFE752
:104390000B98002805D0FFE7BDF82A00002804D1BB
:1043A000FFE701208DF8370083E00C980021C0F86A
:1043B00090100C982121C0F88810FCF729FD069078
:1043C000BDF82A000C99A1F85400BDF82A000C99F8
:1043D000A1F856000C988068B0F5805F0AD1FFE71D
:1043E0000C980069002805D1FFE7002008900B9881
:1043F000079004E00B98089000200790FFE7FFE784
:104400000C98B0F85600002833D0FFE70C98069BB4
:1044100009996A4611608021002201F055FD0028AB
:1044200008D0FFE70C982021C0F8881003208DF8F1
:1044300037003EE0089800280BD1FFE70798008876
:104440006FF35F200C990968886207980230079023
:1044500008E0089800780C9909688862089801308B
:104460000890FFE70C98B0F856100139A0F85610E4
:10447000C6E70C98069B09996A4611604021002204
:1044800001F022FD002808D0FFE70C982021C0F899
:10449000881003208DF837000BE00C982021C0F81D
:1044A000881000208DF8370003E002208DF83700D7
:1044B000FFE79DF837000EB0B0BD0000000000001F
:1044C000FFE7FEE70000000080B58AB000200990F9
:1044D0000890079006900590FCF78AFD01208DF862
:1044E0001800DDF814E08DF819E04FF01051079135
:1044F00012218DF820108DF821E08DF82200032183
:104500008DF823108DF824E08DF825E08DF8260035
:104510008DF8270006AA0490104603920291FCF73A
:104520001BFD04988DF819004FF0405107911021A0
:104530008DF8201005998DF826108DF82710039816
:10454000FCF70AFD02208DF819000020C3F20200DA
:1045500007900398FCF700FD02988DF819000021E0
:10456000C3F2040107910E218DF820100398FCF787
:10457000F3FC04208DF819004FF0605107910F21D2
:104580008DF82010039901900846FCF7E5FC01988E
:10459000FCF742FD0AB080BD80B594B000201390B6
:1045A0001290119010900F90FFE744F2E040C5F692
:1045B0000200016841F010010160006800F0100085
:1045C0000E900E980A90FFE7FFE744F2E040C5F630
:1045D0000200016841F080010160006800F0800085
:1045E0000D900D980990FFE7FFE744F2E040C5F613
:1045F0000200016841F002010160006800F0020061
:104600000C900C980890FFE7FFE744F2E040C5F6F5
:104610000200016841F001010160006800F0010042
:104620000B900B980790FFE741F20000C5F60200DF
:104630000C210122069005910492FCF7BDFB10208D
:104640000021069A03901046DDF80CE002917146B5
:10465000029AFCF7B1FB05980F9004991091119103
:10466000032212920FAA069811460192FCF798F9BC
:1046700003980F900499109102221192029A1292BB
:1046800006980199FCF78CF914B080BD0000000079
:1046900080B584B0002003900290019040F2180190
:1046A000C2F2004141F20042C4F200020A60EF226D
:1046B0004A6088604FF6FF72CA6088610846FFF75B
:1046C0009BFB002803D0FFE7FCF74AF9FFE7002037
:1046D0000190039040F21800C2F2004001A9FFF7D8
:1046E000DBFA002803D0FFE7FCF73AF9FFE704B054
:1046F00080BD00000000000080B540F26400C2F2FE
:10470000004041F20001C4F2010101604FF4E131C7
:10471000416000218160C16001610C2242618161C0
:10472000C161016241628162FFF762FD002803D02E
:10473000FFE7FCF715F9FFE740F26400C2F2004022
:104740000021FFF709FD002803D0FFE7FCF708F977
:10475000FFE740F26400C2F200400021FFF7B0FC26
:10476000002803D0FFE7FCF7FBF8FFE740F2640006
:10477000C2F20040FFF764FC002803D0FFE7FCF71B
:10478000EFF8FFE780BD0000FFE7FEE70000000054
:10479000FFE7FEE70000000080B58BB013468C46B3
:1047A00086460A90099108920A9800F0070007903F
:1047B0000798C0F1070005280493CDF80CC0CDF888
:1047C00008E003D3FFE70420019004E00798C0F15C
:1047D00007000190FFE7019806900798043006282B
:1047E00003D8FFE70020009003E00798033800900B
:1047F000FFE70098059009980699012202FA01F155
:104800000139084005998840089B02FA01F10139F5
:10481000194008430BB080BD704700000000000045
:1048200080B584B00A4603468DF80E008DF80D1051
:104830000292019301F0B4FD9DF80E0001F054FDC9
:1048400001F016FE002804D0FFE701208DF80F00CC
:1048500013E09DF80D0001F047FD01F009FE00286E
:1048600004D0FFE701208DF80F0006E001F0CCFD39
:104870004FF0000E8DF80FE0FFE79DF80F0004B039
:1048800080BD00000000000080B588B00A460346E5
:104890000690059100208DF80F0044F22840C5F6DF
:1048A0000200006800F0030003280292019304D183
:1048B000FFE701208DF81F00CEE044F20040C5F66E
:1048C0000200016821F080610160FCF7A1FA049008
:1048D000FFE744F20040C5F60200006800F0006007
:1048E0000021B1EBD06F0ED0FFE7FCF791FADDF8B5
:1048F00010E0A0EB0E00032804D3FFE703208DF89F
:104900001F00A9E0E5E7FFE744F22840C5F60200F2
:10491000016821F47C31069A126841EA0231016093
:10492000069841688268C368006901396FF35F21A6
:104930004FF6006CCFF6FF7C0CEB422292B2114492
:104940000022CFF6FF7202EB034202F4FE02114492
:104950004FF07F4202EB006000F0FE40084444F25A
:104960003841C5F602010860FFE744F22C40C5F665
:104970000200016821F0C001069A526911430160EA
:10498000016821F02001069A9269114301600168D3
:1049900021F01001016044F23C41C5F602010A68B1
:1049A0004FF6F8739A43069BDB6942EAC3020A603A
:1049B000016841F0100101600598002809D1FFE766
:1049C00044F22C40C5F60200016841F40021016068
:1049D00016E00598012809D1FFE744F22C40C5F6FE
:1049E0000200016841F48011016008E044F22C40AB
:1049F000C5F60200016841F400110160FFE7FFE71E
:104A000044F20040C5F60200016841F08061016097
:104A1000FCF7FEF90490FFE744F20040C5F60200FF
:104A2000006800F000600021B1EBD06F0ED1FFE70D
:104A3000FCF7EEF9DDF810E0A0EB0E00032804D33C
:104A4000FFE703208DF81F0006E0E5E7FFE79DF88C
:104A50000F008DF81F00FFE79DF81F0008B080BD14
:104A600080B588B00A4603460690059100208DF86F
:104A70000F0044F22840C5F60200006800F0030071
:104A800003280292019304D1FFE701208DF81F0053
:104A9000CEE044F20040C5F60200016821F08051EA
:104AA0000160FCF7B5F90490FFE744F20040C5F659
:104AB0000200006800F000500021B1EB507F0ED0E2
:104AC000FFE7FCF7A5F9DDF810E0A0EB0E000328E6
:104AD00004D3FFE703208DF81F00A9E0E5E7FFE717
:104AE00044F22840C5F60200016821F07C71069A64
:104AF000126841EA02510160069841688268C36801
:104B0000006901396FF35F214FF6006CCFF6FF7C2F
:104B10000CEB422292B211440022CFF6FF7202EB5C
:104B2000034202F4FE0211444FF07F4202EB0060A8
:104B300000F0FE40084444F24041C5F6020108601E
:104B4000FFE744F22C40C5F60200016821F4406101
:104B5000069A526911430160016821F40071069AB6
:104B6000926911430160016821F48071016044F28F
:104B70004441C5F602010A684FF6F8739A43069B52
:104B8000DB6942EAC3020A60016841F48071016096
:104B90000598002809D1FFE744F22C40C5F6020031
:104BA000016841F48001016016E00598012809D1EF
:104BB000FFE744F22C40C5F60200016841F4000111
:104BC000016008E044F22C40C5F60200016841F0A3
:104BD00080710160FFE7FFE744F20040C5F6020084
:104BE000016841F080510160FCF712F90490FFE781
:104BF00044F20040C5F60200006800F000500021B9
:104C0000B1EB507F0ED1FFE7FCF702F9DDF810E0C1
:104C1000A0EB0E00032804D3FFE703208DF81F004C
:104C200006E0E5E7FFE79DF80F008DF81F00FFE7BE
:104C30009DF81F0008B080BD80B588B000200790A7
:104C40000690059004900390FFE744F2E040C5F61B
:104C50000200016841F010010160006800F01000DE
:104C6000029002980190FFE7082003900120049031
:104C7000022005900320069041F20000C5F60200D4
:104C800003A9FBF78DFE08B080BD00000000000006
:104C900080B588B00020079006900590049003909E
:104CA000FFE744F2E040C5F60200016841F0100160
:104CB0000160006800F01000029002980190FFE788
:104CC00008200390002004900220059041F200008B
:104CD000C5F6020003A9FBF763FE08B080BD000023
:104CE000704700000000000080B584B001460290CB
:104CF00002980138B0F1807F019103D3FFE70120D2
:104D000003901BE0029801384EF21401CEF200012C
:104D100008604FF0FF300F2101F072F94EF21800D9
:104D2000CEF20000002101604EF21000CEF2000031
:104D30004FF0070EC0F800E00391FFE7039804B0BE
:104D400080BD00000000000080B5FCF769F880BD60
:104D500080B5A2B00FA84C21FBF7F2FA00200E900C
:104D60000D900C900B900A900990089007900220EB
:104D7000FCF7B2F90390FFE70020069040F22C40C8
:104D8000C5F60000016821F001010160006800F033
:104D90000100069044F61800C5F60200016841F4CF
:104DA00040410160006800F440400690069802907F
:104DB000FFE7FFE744F61800C5F60200006800F4BC
:104DC0000050B0F5005F01D0FFE7F3E7FFE744F2E2
:104DD000F440C5F60200016841F00201016000687C
:104DE00000F00200059005980190FFE7FFE7002022
:104DF000049044F61800C5F60200016841F44041F1
:104E00000160006800F44040049040F22C40C5F678
:104E10000000016841F001010160006800F001003C
:104E2000049004980090FFE7FFE744F61800C5F6E9
:104E30000200006800F40050B0F5005F01D0FFE709
:104E4000F3E701200F904FF480301090022018906B
:104E5000199005211A91C0211B911C901D901E9044
:104E600008201F900020209021900FA8FEF728F91D
:104E7000002803D0FFE7FBF773FDFFE73F20079013
:104E8000032008900020099008200A9040200B90F1
:104E90000C904FF480610D910E9007A80421FDF74E
:104EA000CFFC002803D0FFE7FBF75AFDFFE722B055
:104EB00080BD0000000000004EF68850CEF20000D9
:104EC000016841F47001016042F20000C5F2002067
:104ED000006800F00F0006280AD8FFE742F2000041
:104EE000C5F200200168072262F303010160FFE7B9
:104EF00044F20040C5F60200016841F00101016082
:104F000044F21041C5F6020100220A6001684EF623
:104F10007F52CEF6F6221140016042F20000C5F247
:104F20000020006800F00F0008280AD3FFE742F2D3
:104F30000000C5F200200168072262F3030101604E
:104F4000FFE744F21840C5F602000021016044F278
:104F50001C40C5F60200016044F22040C5F6020084
:104F6000016044F22840C5F6020040F20022C0F27F
:104F70000222026044F22C40C5F602000022C0F278
:104F8000FF12026044F23040C5F6020040F2802277
:104F9000C0F20112026044F23440C5F60200016022
:104FA00044F23840C5F60200026044F23C40C5F6C7
:104FB0000200016044F24040C5F60200026044F283
:104FC0004440C5F60200016044F20040C5F602000C
:104FD000026822F48022026044F26040C5F60200BA
:104FE000016041F20000C5F600400068B1EB507F5F
:104FF00007D1FFE748F20810C5F200100121016057
:10500000FFE744F20000C5F2002043F2D201016044
:10501000704700000000000085B00A460346049077
:10502000039104980068029004980021C4F20101E1
:1050300088420192009325D0FFE70498B0F1804F99
:1050400020D0FFE7049840F20041C4F200018842FA
:1050500018D0FFE7049840F60001C4F2000188422E
:1050600010D0FFE7049840F60041C4F200018842E6
:1050700008D0FFE7049840F20041C4F201018842E1
:105080000AD1FFE7029820F0700002900398406870
:10509000029908430290FFE704980021C4F201013D
:1050A00088423DD0FFE70498B0F1804F38D0FFE749
:1050B000049840F20041C4F20001884230D0FFE77A
:1050C000049840F60001C4F20001884228D0FFE7AE
:1050D000049840F60041C4F20001884220D0FFE766
:1050E000049840F20041C4F20101884218D0FFE761
:1050F000049844F20001C4F20101884210D0FFE795
:10510000049844F20041C4F20101884208D0FFE74C
:10511000049844F60001C4F2010188420AD1FFE775
:10512000029820F4407002900398C06802990843E6
:105130000290FFE7029820F0800003994969084334
:105140000290029804990860039880680499C862E4
:10515000039800680499886204980021C4F2010150
:10516000884220D0FFE7049840F20041C4F20101D8
:10517000884218D0FFE7049844F20001C4F201010C
:10518000884210D0FFE7049844F20041C4F20101C4
:10519000884208D0FFE7049844F60001C4F20101F8
:1051A000884205D1FFE70398006904990863FFE787
:1051B00004980121416105B0704700000000000023
:1051C00083B0014602900298406E0028009108D1F9
:1051D000FFE702980121A0F86A100298A0F8681071
:1051E00034E010208DF807008DF806000298006862
:1051F0008068C0F342608DF80500029800688068FE
:10520000400F8DF804009DF806009DF8041047F249
:10521000D602C0F60002535C10FB03F047F2CE0347
:10522000C0F60003595CB0FBF1F00299A1F86A00E6
:105230009DF807009DF80510525C10FB02F0595CC8
:10524000B0FBF1F00299A1F86800FFE703B07047E6
:1052500082B0014601900198806AC0070028009141
:105260000BD0FFE701980068406820F400300199F6
:105270000A68C96A08435060FFE70198806A80079E
:1052800000280BD5FFE701980068406820F48030C3
:1052900001990A68096B08435060FFE70198806A2A
:1052A000400700280BD5FFE701980068406820F40C
:1052B000802001990A68496B08435060FFE7019814
:1052C000806A000700280BD5FFE701980068406856
:1052D00020F4004001990A68896B08435060FFE799
:1052E0000198806AC00600280BD5FFE70198006886
:1052F000806820F4805001990A68C96B0843906067
:10530000FFE70198806A800600280BD5FFE7019827
:105310000068806820F4005001990A68096C08430D
:105320009060FFE70198806A400600281CD5FFE7DF
:1053300001980068406820F4801001990A68496C5F
:10534000084350600198406CB0F5801F0BD1FFE717
:1053500001980068406820F4C00001990A68896CCF
:1053600008435060FFE7FFE70198806A00060028C5
:105370000BD5FFE701980068406820F400200199F0
:105380000A68C96C08435060FFE702B0704700002C
:1053900080B588B00146069006980022C0F890209B
:1053A0000191FBF735FD059006980068006800073D
:1053B000002830D5FFE70698059B69466FF07E42CE
:1053C0000A604FF40011002200F07EFD002821D079
:1053D000FFE7FFE7FFE70698006850E8000F20F0BE
:1053E00080000490FFE704980699096841E80002EC
:1053F000002AF0D1FFE7FFE706982021C0F88810C7
:10540000FFE70698002180F88410FFE703208DF85D
:105410001F0060E0FFE7069800680068400700286A
:1054200043D5FFE70698059B69466FF07E420A6008
:105430004FF48001002200F047FD002834D0FFE740
:10544000FFE7FFE70698006850E8000F20F490702F
:105450000390FFE703980699096841E80002002AD3
:10546000F0D1FFE7FFE7FFE7FFE70698006850E8A5
:10547000020F20F001000290FFE7029806990968E8
:1054800041E80202002AF0D1FFE7FFE70698202159
:10549000C0F88C10FFE70698002180F88410FFE721
:1054A00003208DF81F0016E0FFE706982021C0F8C2
:1054B00088100698C0F88C1006980021C1660698DE
:1054C0000167FFE70698002180F88410FFE70020BD
:1054D0008DF81F00FFE79DF81F0008B080BD000099
:1054E00085B0014604900091FFE7FFE7049800684B
:1054F00050E8000F20F490700390FFE703980499A0
:10550000096841E80002002AF0D1FFE7FFE7FFE762
:10551000FFE70498006850E8020F4FF6FE71CEF6E0
:10552000FF7108400290FFE702980499096841E87A
:105530000202002AEDD1FFE7FFE70498C06E0128C0
:1055400014D1FFE7FFE7FFE70498006850E8000F79
:1055500020F010000190FFE701980499096841E8E4
:105560000002002AF0D1FFE7FFE7FFE704982021BF
:10557000C0F88C1004980021C1660498416705B0FA
:10558000704700000000000080B59EB001461D90ED
:1055900000208DF867001D98006840F60042C5F6AF
:1055A00000029042109101D1FFE700E0FFE71D9853
:1055B000816802694369C0691143194308431C901B
:1055C0001D980068006846F6F311CCF6FF7108409C
:1055D0001C9908431D99096808601D980068406877
:1055E00020F440501D990A68C968084350601D980E
:1055F00080691C901D98006840F60041C5F60001C6
:10560000884206D0FFE71D98006A1C9908431C9049
:10561000FFE71D98006880684FF2FF41C1F2FF115B
:1056200008401C9908431D99096888601D98006806
:10563000C06A20F00F001D990A68496A0843D062C9
:10564000FFE71D98006841F20001C4F201018842A1
:1056500040F04180FFE744F25440C5F60200006884
:1056600000F03800014628280F912FD80F99DFE865
:1056700001F0152D2D2D2D2D2D2D192D2D2D2D2DEF
:105680002D2D1D2D2D2D2D2D2D2D212D2D2D2D2D66
:105690002D2D252D2D2D2D2D2D2D290001208DF881
:1056A0006D0017E004208DF86D0013E008208DF8E0
:1056B0006D000FE010208DF86D000BE020208DF8BC
:1056C0006D0007E040208DF86D0003E080208DF82C
:1056D0006D00FFE7D6E11D98006844F20041C4F276
:1056E000000188422ED1FFE744F25440C5F6020083
:1056F000006800F00700014605280E911DD80E999C
:10570000DFE801F003070B0F131700208DF86D0081
:1057100017E004208DF86D0013E008208DF86D006F
:105720000FE010208DF86D000BE020208DF86D004B
:1057300007E040208DF86D0003E080208DF86D00BB
:10574000FFE79EE11D98006844F60001C4F20001E5
:1057500088422ED1FFE744F25440C5F602000068AB
:1057600000F00700014605280D911DD80D99DFE8CE
:1057700001F003070B0F131700208DF86D0017E0E1
:1057800004208DF86D0013E008208DF86D000FE007
:1057900010208DF86D000BE020208DF86D0007E0E3
:1057A00040208DF86D0003E080208DF86D00FFE74C
:1057B00066E11D98006844F60041C4F20001884289
:1057C0002ED1FFE744F25440C5F60200006800F015
:1057D0000700014605280C911DD80C99DFE801F05F
:1057E00003070B0F131700208DF86D0017E004203E
:1057F0008DF86D0013E008208DF86D000FE010208B
:105800008DF86D000BE020208DF86D0007E0402042
:105810008DF86D0003E080208DF86D00FFE72EE12C
:105820001D98006845F20001C4F2000188422ED1A3
:10583000FFE744F25440C5F60200006800F007009C
:10584000014605280B911DD80B99DFE801F00307ED
:105850000B0F131700208DF86D0017E004208DF852
:105860006D0013E008208DF86D000FE010208DF81A
:105870006D000BE020208DF86D0007E040208DF8D2
:105880006D0003E080208DF86D00FFE7F6E01D98C5
:10589000006841F20041C4F20101884240F04180B9
:1058A000FFE744F25440C5F60200006800F03800FB
:1058B000014628280A912FD80A99DFE801F0152D12
:1058C0002D2D2D2D2D2D192D2D2D2D2D2D2D1D2D2C
:1058D0002D2D2D2D2D2D212D2D2D2D2D2D2D252D0C
:1058E0002D2D2D2D2D2D290001208DF86D0017E077
:1058F00004208DF86D0013E008208DF86D000FE096
:1059000010208DF86D000BE020208DF86D0007E071
:1059100040208DF86D0003E080208DF86D00FFE7DA
:10592000ABE01D98006847F60001C4F20001884210
:105930002ED1FFE744F25440C5F60200006800F0A3
:1059400007000146052809911DD80999DFE801F0F3
:1059500003070B0F131700208DF86D0017E00420CC
:105960008DF86D0013E008208DF86D000FE0102019
:105970008DF86D000BE020208DF86D0007E04020D1
:105980008DF86D0003E080208DF86D00FFE773E077
:105990001D98006847F60041C4F2000188422ED1EC
:1059A000FFE744F25440C5F60200006800F007002B
:1059B0000146052808911DD80899DFE801F0030782
:1059C0000B0F131700208DF86D0017E004208DF8E1
:1059D0006D0013E008208DF86D000FE010208DF8A9
:1059E0006D000BE020208DF86D0007E040208DF861
:1059F0006D0003E080208DF86D00FFE73BE01D980F
:105A0000006840F60041C5F6000188422ED1FFE74C
:105A100044F25840C5F60200006800F00700014655
:105A2000052807911DD80799DFE801F003070B0F40
:105A3000131702208DF86D0017E004208DF86D001B
:105A400013E008208DF86D000FE010208DF86D0038
:105A50000BE020208DF86D0007E040208DF86D00F0
:105A600003E080208DF86D00FFE703E080208DF8D3
:105A70006D00FFE7FFE7FFE7FFE7FFE7FFE7FFE76F
:105A8000FFE7FFE7FFE71D98006840F60041C5F615
:105A90000001884240F0B980FFE79DF86D000146A3
:105AA0000228069114D0FFE70698042814D0FFE7D7
:105AB0000698082816D0FFE70698102818D0FFE7A8
:105AC0000698202836D0FFE70698402838D03BE0DB
:105AD000FBF75AFB11903DE015A8FBF76DFB1698FC
