:020000040800F2
:10000000907E0020AD020008E97A000861720008C5
:10001000E17A00081112000879920008000000003F
:10002000000000000000000000000000E17D00086A
:100030001918000800000000217B0008197E000844
:10004000C7020008C7020008C7020008C70200086C
:10005000C7020008C7020008C7020008C70200085C
:10006000C7020008C7020008C702000819120008EA
:10007000C7020008C7020008C7020008C70200083C
:10008000C7020008C7020008C7020008C70200082C
:10009000C7020008C7020008C7020008C70200081C
:1000A000C7020008C7020008C7020008C70200080C
:1000B000C7020008C702000809800008C70200083C
:1000C000C7020008C7020008C7020008C7020008EC
:1000D000C7020008E9910008C7020008C70200082B
:1000E000C7020008C702000800000000C70200089D
:1000F000C7020008C7020008C7020008C7020008BC
:10010000C7020008C702000819800008C7020008DB
:10011000C7020008C7020008C7020008C70200089B
:10012000C7020008C7020008C7020008C70200088B
:10013000C7020008C7020008C7020008C70200087B
:1001400000000000000000000000000000000000AF
:10015000C7020008C7020008C7020008C70200085B
:10016000C7020008C7020008C7020008C70200084B
:10017000C7020008C7020008C7020008000000000C
:10018000C7020008C7020008C7020008C70200082B
:10019000C7020008C7020008C7020008C70200081B
:1001A000C7020008C7020008C7020008C70200080B
:1001B000C7020008C7020008C7020008C7020008FB
:1001C000C7020008C7020008C7020008C7020008EB
:1001D000C7020008C7020008C7020008C7020008DB
:1001E000C7020008C7020008C7020008C7020008CB
:1001F000C7020008C7020008C7020008C7020008BB
:10020000C7020008C7020008C7020008C7020008AA
:10021000C7020008C7020008C7020008C70200089A
:10022000C7020008C7020008C7020008000000005B
:10023000C7020008C702000800000000C70200084B
:10024000C7020008C7020008C7020008C70200086A
:10025000C7020008C7020008C7020008C70200085A
:10026000C7020008C7020008C7020008C70200084A
:10027000C7020008C7020008C7020008000000000B
:10028000C7020008C7020008C702000800000000FB
:1002900000000000C7020008DFF80CD000F048FAA8
:1002A00000480047F1980008907E002006488047EB
:1002B00006480047FEE7FEE7FEE7FEE7FEE7FEE74B
:1002C000FEE7FEE7FEE7FEE7397F00089902000837
:1002D0002DE9F05F0546002092469B46884606467B
:1002E000814640241BE0284641464746224600F00E
:1002F00057F853465A46C01A914110D31146184632
:10030000224600F03EF82D1A67EB01084F462246C0
:100310000120002100F035F817EB00094E41201EA6
:10032000A4F10104DFDC484631462A464346BDE8D5
:10033000F09FD2B201E000F8012B491EFBD27047BA
:100340000022F6E710B513460A4604461946FFF7A1
:10035000F0FF204610BD30B50B460146002020229C
:10036000012409E021FA02F59D4205D303FA02F5C2
:10037000491B04FA02F52844151EA2F10102F1DC22
:1003800030BD202A04DB203A00FA02F10020704739
:100390009140C2F1200320FA03F3194390407047C3
:1003A000202A04DB203A21FA02F00021704721FACA
:1003B00002F3D040C2F12002914008431946704731
:1003C0002DE9FE4F804681EA0300C00F0C460090E5
:1003D00021F0004123F00045B8EB0200A94105D20D
:1003E0004046214690461C460B46024623F00040FC
:1003F000104347D0270DC7F30A00C3F30A510290F8
:10040000401A019040286BDAC3F3130040F4801BBC
:100410000098924620B10023D2EB030A63EB0B0B4A
:1004200001985946C0F140025046FFF7AAFF064620
:100430000D4650465946019A00F08CF910EB080021
:100440006141002487EA115284EAE7731A4340D0DD
:10045000009A62B3019A012A4FEA075215DC001B89
:1004600061EB02014FF0004202EA0752CDE900427F
:10047000001C41F5801132462B4600F08CF903B088
:10048000BDE8F08F40462146F9E7001B61EB020111
:10049000001C41F5801300185B412018A2F50017DD
:1004A00047EB030140EAD570B6196D4111E06D08C4
:1004B0004FEA360645EAC0754FEA0752001B61EB6A
:1004C0000201001C41F5801149084FEA3000001973
:1004D000514132462B4603B0BDE8F04F00F04CB915
:1004E0000098012240000023D0EB020263EBE0738E
:1004F000009821464FEAE074B8EB000061EB04017C
:10050000E9E783F000435BE781F0004158E72DE91C
:10051000FE4F81EA030404F0004421F000410094FE
:100520004FF0000B23F0004350EA01045ED052EA82
:1005300003045BD0C3F30A54C1F30A552C44A4F25C
:10054000F3340194A0FB0254C1F3130141F4801170
:10055000C3F3130343F4801301FB024400FB034E77
:10056000840A970A44EA815447EA8357A4FB076840
:1005700002958D0A05FB07854FEA932C04FB0C546A
:100580002705029D4FEA065847EA1637B5EB0805DE
:100590006EEB070C870E920E47EA811742EA831230
:1005A000A7FB0201B6EB0B0164EB00042B0D43EA41
:1005B0000C335E1844EB1C50DA465146E7FB02014F
:1005C000C5F313044FEA0B3343EA14534FEA0432E2
:1005D000019C43EA0603A4F10C040294009CCDE9BB
:1005E00000B400F0D8F803B0BDE8F08F0020014659
:1005F000F9E72DE9F04D81EA030404F0004B21F006
:10060000004514464FF0000A23F0004150EA05026D
:1006100020D054EA01021DD0C5F30A570246C5F3A3
:100620001303C1F31300C1F30A5640F4801543F4D9
:100630008013A7EB0608101BD64608F2FD3873EBB3
:10064000050002D308F1010801E092185B41B8F1FE
:10065000000F03DA00200146BDE8F08D00204FF4C2
:100660008011064684460EE0171B73EB050705D381
:10067000121B63EB050306434CEA010C49084FEAE1
:10068000300092185B4150EA0107EDD152EA0300B5
:1006900012D082EA040083EA0501084305D0101B4A
:1006A000AB4106D20122002306E000224FF00043B6
:1006B00002E06FF0010253101AEB06004CEB0851F8
:1006C00010EB0A0041EB0B01BDE8F04D00F054B80F
:1006D000C1F30A52C1F3130140F2FF3341F4801118
:1006E0009A4202DA00200146704740F233439A42B0
:1006F000A2F2334202DC5242FFF752BEFFF741BE84
:1007000030B5041E71F1000404DB4FF00044404298
:1007100064EB0101141E73F1000405DB1C464FF06D
:100720000043524263EB0403994208BF904230BD3C
:10073000064C074D06E0E06840F0010394E807002E
:1007400098471034AC42F6D3FFF7AAFDECB300088B
:100750000CB40008202A06DBCB17203A41FA02F03D
:1007600043EAE07306E041FA02F3D040C2F120020E
:10077000914008431946704710B5141E73F10004E8
:1007800008DA401C41F1000192185B411A4301D183
:1007900020F0010010BD2DE9F04D92469B4611B1AD
:1007A000B1FA81F202E0B0FA80F220329046FFF70F
:1007B000E8FD04460F4640EA0A0041EA0B015346B1
:1007C0005A46084313D0114653EA010019D0C8F124
:1007D00040025046FFF7E4FD05460E465046594696
:1007E0004246FFF7CEFD084305D0012004E0204635
:1007F0003946BDE8F08D0020054346EAE0762C43FB
:1008000037430A986305E40AA0EB08000022FD0ABA
:1008100044EA47540A3002D500200146E9E70105C1
:1008200010196941DDE9084500196941BDE8F04D3D
:10083000A2E700000000000080B5002000F00CF8E6
:100840009FED030AF0EE400ABDE8804000F024B8B6
:10085000000000000000000080B5022808D0012838
:100860000CD0A8B94FF4005009F036FC00200AE083
:1008700042F2020009F030FC022004E042F22800BB
:1008800009F02AFC012040F26401C2F20001087064
:1008900080BD00000000000070B52DED048BB0EEAF
:1008A000608AB0EE409A08F0B3FDB5EEC08AF1EE72
:1008B00010FA02DA9FED328A08E09FED320AB4EEB8
:1008C000C08AF1EE10FAC8BFB0EE408AB7EEC90A8E
:1008D000B7EE002B40F684249FED251B20EE010B84
:1008E000C2F200049FED241B012240F25A05C2F21D
:1008F000000540F25806C2F2000680EE010BB2EE8F
:10090000061A28EE011ABDEEC11A11EE100A40F4C3
:100910004040206030EE020BBDEEC00B10EE100A1E
:10092000810B62F39F3062F39F3128804FF40450B3
:10093000318009F0D1FB288809F0CEFB308809F01E
:10094000CBFB208809F0C8FB4FF4005009F0C4FB32
:1009500008F05EFD40F26400C2F200000078FFF78C
:100960007BFFBDEC048BBDE8704008F051BD00BFBB
:10097000000000000000B0410000000084D7774173
:10098000000000000000B443B0B50024C5F6020426
:100990004FF400610122204603F0FEFC4FF40041B9
:1009A0000122204603F0F8FC4FF40071002220469B
:1009B00003F0F2FC04F540654FF4807101222846F3
:1009C00003F0EAFC4FF480710022284603F0E4FCB7
:1009D0001D20002100F054F81E200C2100F050F8DA
:1009E0001F20002100F04CF82020602100F048F882
:1009F0004FF400710122204603F0CEFC4FF4007149
:100A000000222046BDE8B04003F0C6BC0000000054
:100A100070B5044601F044F940F25C00C2F20000F7
:100A2000451D042015F80119461C00F029F80A2E6E
:100A30003046F7D1250A2120294600F021F8E4B2FA
:100A40002220214600F01CF82320294600F018F847
:100A50002420214600F014F80024C5F602044FF4C7
:100A600000710122204603F097FC4FF40071002230
:100A70002046BDE8704003F08FBC0000000000007D
:100A800070B540F600440E46C907C5F60204054697
:100A9000A4F540604FF4805101D1002200E0012212
:100AA00003F07AFCB00705D4A4F540604FF48061F0
:100AB000002204E0A4F540604FF48061012203F0BD
:100AC0006BFC700705D4A4F540604FF480710022E0
:100AD00004E0A4F540604FF48071012203F05CFC57
:100AE000300705D4A4F580604FF48071002204E043
:100AF000A4F580604FF48071012203F04DFCF006F4
:100B000004D4A4F580604021002203E0A4F58060B5
:100B10004021012203F040FC4FF48041B00601D493
:100B2000002200E00122204603F036FC4FF4805101
:100B3000700601D4002200E00122204603F02CFCC4
:100B40004FF48061300601D4002200E001222046EB
:100B500003F022FC4FF40071A80601D4002200E04B
:100B60000122204603F018FC4FF40061E80601D48E
:100B7000002200E00122204603F00EFC4FF4005159
:100B8000280701D4002200E00122204603F004FCE3
:100B90004FF40041680701D4002200E00122204602
:100BA00003F0FAFBA80704D4A4F58060802100229A
:100BB00003E0A4F580608021012203F0EDFBE8074B
:100BC00007D1A4F580604FF40071002203F0E4FB2C
:100BD00006E0A4F580604FF40071012203F0DCFB15
:100BE000A4F540644FF400610022204603F0D4FBDA
:100BF0004FF4006101222046BDE8704003F0CCBBF9
:100C0000B0B50446006842F2001140F48070C4F2AE
:100C10000201884204D142F20830C4F2020003E02B
:100C200046F20830C5F60200006810F4403F10D0CC
:100C300004F0F6FD61680546B1F5803F05D0B1F5D9
:100C4000403F21D0B1F5003F1FD1080CB5FBF0F5B6
:100C50001BE04FF4002003F047FE61680546A1F554
:100C600080224FEAB2420A2A0FD8DFE802F00606D5
:100C70000606060646484A4C4E006FF0010000EAA0
:100C80005140B5FBF0F500E0AD0803F08DFB41F2FB
:100C90000301884220680CD842F60151C0F231119C
:100CA0008D4281682CBF41F4807121F48071816094
:100CB000B0BD4BF62141C0F2BE018D4204D881681F
:100CC00021F440718160B0BD47F64101C0F27D1151
:100CD0008D4202D88168012207E04FF28101C0F203
:100CE000FA218D42816804D8022262F309218160D1
:100CF000B0BD41F440718160B0BD2D09C5E76D09FB
:100D0000C3E7AD09C1E7ED09BFE72D0ABDE7000064
:100D100010B5846B616D11F0500F616D06D0C9067E
:100D20001AD4E16CC96CBDE81040084741F400706A
:100D3000606520680168090713D4C068800722D164
:100D4000606D20F480706065606DC0041BD4606DC0
:100D500040F00100606516E02046BDE8104001F05B
:100D600077BA06F041FB70B12068C06880040AD4ED
:100D7000606D20F480706065606DC00403D4606DA8
:100D800040F0010060652046BDE8104001F038BA2F
:100D9000806B416D41F040014165816D41F004017E
:100DA000816501F055BA0000806B01F04DBA00007A
:100DB000B0B50446006806F0FFFA0546206806F064
:100DC000FFFA002D01464FF0000023D111B3206837
:100DD000816801F00D0101291DD106F0ADFA2068EE
:100DE0000321016003F0E8FA21688968C90701D18D
:100DF0000020B0BD054600BF03F0DEFA401B03280B
:100E000003D320688068C00705D120688068C007C8
:100E1000F2D10020B0BD606D40F010006065A06DA3
:100E200040F00100A0650120B0BD000000000000FE
:100E300070B50446006806F0C3FA08B1002070BD22
:100E400020683F228168C8F20002114209D0606D1B
:100E500040F010006065A06D40F00100A065012029
:100E600070BD06F07DFA03F0A7FA42F20005236890
:100E7000C4F2020505F5807646F2003105F54072B0
:100E8000C5F60201B34208BF1146AB4208BF114686
:100E90000546084606F080FA2168B1420A4604BFBA
:100EA00042F20002C4F20202002818BF8A421AD19C
:100EB00021680868C00716D1084606F081FA10B903
:100EC000206806F04DFA03F077FA401B032803D39D
:100ED00020680068C00708D021680868C0074FF084
:100EE0000000E9D070BD002070BD606D40F01000C2
:100EF0006065A06D40F00100A065012070BD00009C
:100F000070B5ADF59C4D88B06C4644F62061204626
:100F1000FFF716FA40F20000C3F2020000F5FA6093
:100F200041F28831224600BF30F8023B013942F8D5
:100F3000043BF9D1002141F28732204606F0F4FD4E
:100F400044F65850204490ED000AB8EE400A40F2B2
:100F50000C009DED321AB8EE411AC2F2000030EEDC
:100F6000410A90ED001A40F21000C2F2000090ED2C
:100F7000002A31EE421A40F23000C2F2000080EE48
:100F8000010ABFEE001A30EE010A9FED071BB7EE13
:100F9000C00A30EE010BB7EEC00B80ED000A0DF574
:100FA0009C4D08B070BD00BF9A9999999999A93F35
:100FB00040F20000C2F2044046F66051014440F69F
:100FC000AC509FED1D1A9FED1D0A40F6E44200BF94
:100FD00091ED002AB4EEC12AF1EE10FA05DC0138D9
:100FE0009042A1F10801F3D803E000EE100AB8EE38
:100FF000400A9FED131A30EE011A40F23C009FEDBB
:101000000A2B9FED0B3BB7EEC11AC2F2000080ED38
:10101000000A40F2380001EE023BC2F20000B7EED7
:10102000C31B80ED001A70470000000000802E40B6
:101030000000000000005E400000C84300805945E9
:1010400000C04CC50000000040F20000C2F20440A5
:1010500047F67031014440F66E709FED5B1A9FEDCC
:101060005B0A40F6FC5200BF91ED002AB4EEC12AA3
:10107000F1EE10FA05DC01389042A1F10801F3D835
:1010800003E000EE100AB8EE400A9FED511A30EE70
:10109000011A40F23C009FED482B9FED493BB7EE13
:1010A000C11AC2F200009FED4C4A01EE023B40F231
:1010B00038019FED482AC2F20001B7EEC31B9FED35
:1010C000473AB4EEC21AF1EE10FAB4EEC31AB0EE1B
:1010D000413AD8BFB0EE443AF1EE10FA33FE011AAD
:1010E0009FED3F3AB4EEC31A9FED3E4AF1EE10FA7F
:1010F000B4EEC21AB0EE412AD8BFB0EE442AF1EEE7
:1011000010FA32FE011A9FED382AB4EEC21A9FED92
:10111000374AF1EE10FAB4EEC31AB0EE413AD8BF36
:10112000B0EE443AF1EE10FA33FE011A9FED303A78
:10113000B4EEC31A9FED2F4AF1EE10FAB4EEC21AC4
:10114000B0EE412AD8BFB0EE442AF1EE10FA32FEDA
:10115000011A9FED292AB4EEC21A9FED284AF1EE3A
:1011600010FAB4EEC31AB0EE413AD8BFB0EE443A2A
:10117000F1EE10FA33FE011A9FED213AB4EEC31AD4
:101180009FED203AF1EE10FAB0EE414AB4EEC21AE9
:10119000D8BFB0EE434AF1EE10FA80ED000A34FEFB
:1011A000011A19A0B7EEC12A81ED001A53EC122BD7
:1011B00008F0EEBF00BF00BF0000000000802E401E
:1011C0000000000000409F400000C843000061454F
:1011D00000C04CC500E0AB4500409C4500A08C45DC
:1011E0000020CB450080BB450060EA4500C0DA45E1
:1011F00000D004460000FA450070144600A00C46DA
:101200000010244600401C4625660D0A0000000020
:10121000FEE700000000000040F26C70C2F2000027
:1012200001F076BE0000000040F20F420168C4F2F7
:101230000202914210DC6F22C4F20202914220DCD1
:101240003F22C4F20202914236DC1022C4F20202B2
:10125000914254D028224EE040F26F42C4F2020282
:1012600091421ADC40F23F42C4F2020291422ADC6F
:1012700040F21042C4F20202914240D040F22842B1
:1012800039E09F22C4F20202914225DC7022C4F2AE
:101290000202914233D088222DE040F29F42C4F2F4
:1012A000020291421FDC40F27042C4F202029142FB
:1012B00025D040F288421EE04022C4F20202914250
:1012C0001DD0582217E040F24042C4F2020291427F
:1012D00015D040F258420EE0A022C4F20202914220
:1012E0000DD0B82207E040F2B842C4F202029142A7
:1012F00005D040F2A042C4F2020291421FD110B5C3
:10130000D0F800C06FF00F024AF6AB2352FA8CF20D
:10131000CAF6AA23A2FB03310FF22C0EC1F302116D
:1013200040F2FF341EF801302CEA04015F2AC36545
:1013300088BF0431BDE810408165084670470168E8
:1013400021F0FF01F8E700BF000610160006101696
:1013500010B545F243410268C5F602018A4245F2E2
:101360009441C5F602010EDD45F26B43C5F602035A
:101370009A4217DC45F24443C5F602039A421DD057
:1013800045F2584316E045F20843C5F602039A4277
:1013900014D045F21C43C5F602039A420ED045F222
:1013A000304307E045F28043C5F602039A4205D078
:1013B00045F26C43C5F602039A4218D10378A3F1B3
:1013C00008024CF6CD43CCF6CC43A2FB03231B0909
:1013D00001F55B7201F57B7102EB830203F01F03E1
:1013E0000266012404FA03F2C0E9191210BD037861
:1013F0008A42E4D0A3F110014AF6AB23CAF6AA232D
:10140000A1FB031C082440F20F434FEA1C11C4F255
:10141000020303F1AA0E9A420B4688BF04EB1C1389
:10142000724540F6000228BF0B46C4F2020202F1E8
:101430008001D1E70000000001790139072988BF48
:10144000704745F243430268C5F602039A420EDD37
:1014500045F26B43C5F602039A4217DC45F244435A
:10146000C5F602039A421DD045F2584316E045F2F4
:101470000843C5F602039A4214D045F21C43C5F650
:1014800002039A420ED045F2304307E045F2804312
:10149000C5F602039A4205D045F26C43C5F6020335
:1014A0009A420ED18A0045F60013C5F602034FF0AA
:1014B000010C1A444033C2660CFA01F1C0E91C3138
:1014C000704745F29443C5F602039A424FEA8102FF
:1014D000E9D040F60013C4F20203E8E70000000080
:1014E0008269B2F5005F816A06D06AB9022910D01C
:1014F000012912D0D1B90CE0032917D8DFE801F097
:101500000209020D0120704703293CBF01207047EA
:101510000AD1C06AC0F300607047C06AA0F1C07011
:10152000B0FA80F0400970470020704700207047F3
:10153000F0B540F26F44D0F800E0C4F20204D0F8F5
:1015400058C0A64517DC9F25C4F20205AE452DDC28
:101550005725C4F20205AE4550DC1025C4F2020541
:10156000AE4500F08C802825C4F20205AE4500F09F
:10157000868040256BE045F22F45C5F60205AE4555
:1015800027DC40F2B745C4F20205AE4542DC40F22A
:101590007045C4F20205AE4571D040F28845C4F2F0
:1015A0000205AE456BD040F2A04550E040F2274521
:1015B000C4F20205AE453CDCA025C4F20205AE45EE
:1015C0005DD0B825C4F20205AE4558D040F21045B2
:1015D0003DE045F26B45C5F60205AE453CDC45F203
:1015E0003045C5F60205AE4549D045F24445C5F63D
:1015F0000205AE4543D045F258453BE05825C4F2BC
:101600000205AE453BD07025C4F20205AE4536D08A
:1016100088251CE040F2B845C4F20205AE452ED044
:1016200045F20845C5F60205AE4528D045F21C45F1
:1016300020E040F22845C4F20205AE451FD040F23A
:101640004045C4F20205AE4519D040F25845C4F2F7
:101650000205AE4513D0DBE045F26C45C5F6020548
:10166000AE450CD045F29445C5F60205AE4506D010
:1016700045F28045C5F60205AE4540F0C980C66E0C
:10168000D0E91957002E6F6002D0D0E91C566E6069
:10169000A64515DC9F24C4F20204A6452BDC572482
:1016A000C4F20204A6454EDC1024C4F20204A6458E
:1016B00076D02824C4F20204A64571D040246BE001
:1016C00045F22F44C5F60204A64527DC40F2B74494
:1016D000C4F20204A64542DC40F27044C4F20204A3
:1016E000A6455DD040F28844C4F20204A64557D016
:1016F00040F2A04450E040F22744C4F20204A64560
:101700003CDCA024C4F20204A64549D0B824C4F2AB
:101710000204A64544D040F210443DE045F26B443B
:10172000C5F60204A6454FDC45F23044C5F6020476
:10173000A6455BD045F24444C5F60204A64555D003
:1017400045F258444EE05824C4F20204A64527D07E
:101750007024C4F20204A64522D088241CE040F282
:10176000B844C4F20204A6451AD045F20844C5F6AE
:101770000204A6453AD045F21C4433E040F2284426
:10178000C4F20204A6450BD040F24044C4F2020465
:10179000A64505D040F25844C4F20204A64537D10C
:1017A000C76D3F2607F01F07046806FA07F7806831
:1017B000CCF808704028276827F4802727606360EA
:1017C00021D0A160E260F0BD45F26C44C5F6020490
:1017D000A6450BD045F28044C5F60204A64505D0C7
:1017E00045F29444C5F60204A64511D1C76D012601
:1017F00007F01F070468806806FA07F74028CCF84E
:101800000470636002D1A260E160F0BDA160E2609B
:10181000F0BD000000000000704700000000000064
:1018200010B538B1044600BF4FF47A7000F004F8E8
:10183000013CF9D110BD0000B0B56FF00501081AE8
:1018400040F6141485B2C2F20004206845622046B6
:1018500004F086FC4FF6F970854207D84FF6FA700F
:10186000216800BF4A6A92B28242FBD340F614104C
:10187000C2F20000BDE8B04004F02EBD0000000040
:10188000EFF3108072B600BFFEE70000000000001A
:101890002DE9F04F81B02DED048B82B040F244046D
:1018A0000190C2F2000422688A468A4259D032B1BD
:1018B00040F24800C2F20000006809F07DFCBAF175
:1018C000000FC4F800A000F00C81012000FA0AF615
:1018D00040F21400C2F200007410066040F24805A5
:1018E00000EE104A40F20000C2F20005C2F20040D1
:1018F0002860B8EEC00B9FED7E1B81EE000BB7EEAB
:10190000C00BB7EEC09AB0EE490B08F07DFCB0EE0C
:10191000408BB0EE490B08F0CFFC042E21DBB7EE74
:10192000C01B2868B7EEC80B0121B1EE411AB0EE1A
:10193000403AB0EE412A00BF23EE004A013123EEC7
:10194000015A80ED003AA14280ED012A02EE414A9F
:1019500000F1080002EE005AB0EE443AB0EE452A1B
:10196000EADB40F21400C2F20000BAF1010F006895
:10197000C0F2848040F24801C2F2000109684FF0D1
:101980000009083901230091844600BF01284FEA6D
:101990006C0B26DB6FF00801019C2CF0010201EAC0
:1019A000CC074FEACB060025A11994ED000A94ED6F
:1019B000011A91ED002A91ED013A30EE424A1544A8
:1019C00031EE435A854230EE020A31EE031A81EDC0
:1019D000004A81ED015A84ED000A84ED011A3C446D
:1019E000E2DBBCF1040F41DB6FF008012CF00106D3
:1019F00001EACC074FEACB054FF0010CDDE90018F6
:101A0000844501EBC3012BDA91ED000A91ED011A37
:101A10004446624604EB050E94ED022A94ED033A27
:101A20009EED024A9EED035A32EE446A324433EE92
:101A3000457A824232EE042A60EE060A60EE071A08
:101A400033EE053A41EE470A41EE061ACEED020AA0
:101A5000CEED031A84ED022A84ED033A3C44D9DB2F
:101A60000CF1010CDC4508F10808C9DB09F101099A
:101A7000D1454FEA4303DC467FF488AF01282EDBD3
:101A8000002103E00022914211DB23E0BAF1010FB3
:101A9000F8DB0023002200BF21FA03F707F001075B
:101AA00001339A4547EA4202F6D1914212DA019F88
:101AB00007EBC20357F832E007EBC106D3F804C0C6
:101AC000746857F8315047F832505C6047F831E09D
:101AD000C6F804C001318142D8D1012002E00120C2
:101AE00000E0002002B0BDEC048B01B0BDE8F08F37
:101AF000182D4454FB21094070B540F20000C2F299
:101B0000044045F6C051461840F6B83409A500BF58
:101B100096ED000AB7EEC00A2846214653EC102B7A
:101B200008F036FB0134B4F57A6F06F10806EFD100
:101B300070BD00BF25643A0925660D0A000000004B
:101B400070B52DED048B40F20004C2F2044440F263
:101B50000002201D00219FED260B9FED271BC3F2E5
:101B60000202002332F813600133B3F5004F02EE96
:101B7000106AB8EE422B22EE002B22EE012BB7EEBC
:101B8000C22B00ED012A016000F10800EAD10F210B
:101B90002046FFF77DFE00259FED199A661996ED08
:101BA000010A20EE008A96ED000A00EE008AB0EEEF
:101BB000490AB5EEC08AF1EE10FA0DDBB0EE480A24
:101BC00008F0D2FBB4EEC00AF1EE10FA04D7B0EE82
:101BD000480A08F0C9FB00BF083586ED000AB5F5D4
:101BE000802FDBD1BDEC048B70BD00BF00BF00BFF8
:101BF0006666666666660A40000000000000F03E09
:101C0000000000000000000040F20000C2F20440AA
:101C100047F2A031014440F674609FED1D1A9FED1C
:101C20001D0A40F6E44200BF91ED002AB4EEC12A3D
:101C3000F1EE10FA05DC01389042A1F10801F3D869
:101C400003E000EE100AB8EE400A9FED131A30EEE2
:101C5000011A40F254009FED0A2B9FED0B3BB7EEAB
:101C6000C11AC2F2000080ED000A40F2500001EEFD
:101C7000023BC2F20000B7EEC31B80ED001A7047B2
:101C80000000000000802E400000000000005E40C8
:101C900000007A440080594500C04CC50000000097
:101CA0009FED111B20EE010B40F25C019FED101B1C
:101CB000C2F2000180EE012BBDEEC22BB8EE423B1A
:101CC00003EE410BBCEEC00B10EE100A020A0870C6
:101CD0004A70020C8A7012EE102A000EC870100AA8
:101CE0000A714871704700BFDC7428674CE53141C8
:101CF0000000E0FFFFFFEF41F0B581B0002300934B
:101D0000044690F85000012801D1022535E0012059
:101D100084F85000204616460F46FFF749F805465E
:101D20000028606D02D040F0100022E041F2021164
:101D300088430230606539462068324605F0DCFB96
:101D40004FF60006C2F2C356206805F02DFB60B1C5
:101D50000098013000900098B042F5D3606D0125E5
:101D600040F0100020F0020003E0606D012161F3FB
:101D700001006065002084F85000284601B0F0BDE5
:101D80002DE9F04182B0044690F85000012803D1BB
:101D9000022002B0BDE8F081012084F8500000204C
:101DA000019042F200070090C4F202072068B84296
:101DB0000BD107F5807840460D4605F011FB06462D
:101DC000206805F00DFB30430AD0606D40F0200024
:101DD00060650120002184F8501002B0BDE8F08158
:101DE000216807F5407246F20000C5F60200414541
:101DF000164618BF00F54076B94208BF16462A6855
:101E0000B368002A23F4404215D06B6841F4807116
:101E10001A4342F20013B260C4F2020399421DD188
:101E2000384605F0D1FA0746404605F0CDFA38436A
:101E3000C0B10020CEE742F20013B26041F48071DD
:101E4000C4F20203994216D1384605F0BDFA0546A0
:101E5000404605F0B9FA284380B911E005F0B4FA1C
:101E60000028E6D1B06840F61F7188432968AA6847
:101E70000843104308E005F0A7FA08B10020A9E7DD
:101E8000B06840F61F718843B0600020A2E70000F0
:101E90002DE9F04782B000220192044690F85000EC
:101EA000012803D1022002B0BDE8F087012684F8A2
:101EB00050600D46206805F08FFA28B1606D40F043
:101EC00020006065012004E12A6892FAA2F0B0FACD
:101ED00080F01103696808BF900E00F01F032068AE
:101EE00006FA03F3C7693B43C36105F08DFA206826
:101EF00005F072FA0646206805F052FA304367D1C1
:101F000020682968AA6805F09FFA41F20000C5F62A
:101F10000040006800F07040B0F1805F206805D19B
:101F20006A690E21C06801EA50030BE0C1686A6962
:101F3000C906C0684FEA500002D400F00E0301E069
:101F400000F0080329690429206828D1016E01F0F6
:101F5000F8412A68B1EB826F4FEA826103D1026EC9
:101F600022F000420266426E02F0F8428A4203D139
:101F7000426E22F000424266826E02F0F8428A42CD
:101F800003D1826E22F000428266C26E02F0F842F5
:101F90008A421DD1C16E21F00041C16618E002FAEB
:101FA00003F32A6805F094FA687E0138B0FA80F1EC
:101FB00020684A092969D20705F096FA287E013877
:101FC000B0FA80F120684A092969D20205F074FA52
:101FD000206805F0F5F908B100207AE0206829684A
:101FE000EA6805F045FA0021E868C4F2FF7188420A
:101FF0006AD12A684FF6FF7392FAA2F0C0F20F037B
:10200000B0FA80F11340084608BF900E013000F08E
:102010001E00092820680ED8E3B14FF080624B1CE7
:1020200002EB816203F01F03012702F0F84207FA76
:1020300003F31A431FE033B34FF080624B1C02EBF3
:10204000816203F01F03012702F0F84207FA03F34D
:102050001A4329E002F0F84101F1806101F0F843F0
:10206000012101EB926707F01F0701FA07F7C2F39E
:10207000846147EA0302013101F01F0101EB4101D4
:1020800042EA01511DE002F0F84101F1806101F0E6
:10209000F843012101EB926707F01F0701FA07F7E8
:1020A000C2F3846147EA0302013101F01F010023FA
:1020B00001EB4101CFF6206303EB0151114341F0E5
:1020C0000071AA6805F0C0F92868B0F1FF3F06DD8D
:1020D0000020002184F8501002B0BDE8F08742F2E1
:1020E0000006226846F20008C4F20206C5F602089D
:1020F00006F5807708F5407A06F54071BA425046F9
:1021000008BF0846B24208BF084605F041F92168F9
:1021100042F2001241F48071C4F2020291428146FF
:102120000BD1304605F04CF90646384605F048F923
:10213000304300287FF4C2AE05E0404605F040F988
:1021400000287FF4BBAE00202968CCF25270814297
:102150000CD00020CCF6843081420FD15FEA0920F8
:102160001BD4206840451CD00020B2E75FEAC910AC
:1021700015D42068404535D00020AAE75FEA492001
:102180004FF00000A5D40022CCF6B8729142A0D145
:102190002068404529D000209BE7002099E70020D7
:1021A00097E749F40001504605F07EF940F2180027
:1021B000C2F20000006842F663518009C0F23E514D
:1021C000A0FB01018809022101EB40000190019868
:1021D00090B1019801380190019800284FF000005B
:1021E000F7D176E749F0807101E049F4800150466B
:1021F00005F05AF900206CE700206AE700000000B3
:1022000042F200010068C4F20201884214D1BFF317
:102210004F8F40F200014EF65C720020C3F20201C3
:10222000CEF20002431820301360B0F5005FF9D100
:10223000BFF34F8FBFF36F8F40F24000C2F2000038
:10224000012101707047000070470000000000008D
:102250007047000000000000F0B581B000210028A8
:10226000009133D00446406D30B9204600F004F9A7
:102270000020A06584F85000206805F099F810B19E
:10228000206805F065F8206805F0A2F8C0B920685C
:1022900005F072F840F21800C2F20000006842F641
:1022A00063518009C0F23E51A0FB0101012000EB07
:1022B000911001E000980138009000980028F9D1B1
:1022C000206805F085F818B100250AE00125C4E072
:1022D000606D012540F010006065A06D40F00100C8
:1022E000A065206805F078F8616D01F010010843E1
:1022F000606D03D040F010000125ADE020F4817046
:1023000002306065206805F05BF858BB206842F237
:10231000001140F48070C4F2020142F200068842CB
:10232000C4F2020640F09C80304605F049F80746AA
:1023300006F5807005F044F8384398B906F58070CA
:10234000216806F5407246F20003C5F60203814299
:10235000104618BF03F54070B142616808BF1046CF
:1023600005F09AF802F020F8627D41F20401236B37
:102370008842A16843EA423007D3102905D1217F62
:1023800040EA014040F01C0103E0227F084340EA9C
:102390000241207F012806D10022206ACFF6FE727A
:1023A00002EB40400143606A28B100F47870A26AF1
:1023B000084340EA020120684CF20303C268CFF6EA
:1023C000F0731A401143C16005F006F80646206814
:1023D00004F0E6FF304330D1207D44F20303E16A8C
:1023E00041EA80312068C2689A431143C16094F881
:1023F00038100129016914D14FF61E02276CCFF65F
:10240000004200231140E26BCFF6FF7303EB024260
:10241000636C39431143A26C1943114341F001012C
:1024200001E021F001010161016921F07041626B5D
:10243000114301612046FEF7E3FB2068E168026B6F
:10244000012922F00F0102D1A269013A114301636F
:102450000121606D61F301006065284601B0F0BDA7
:1024600046F20000C5F6020004F0AAFF00287FF43F
:1024700079AF63E70000000070B5B6B000250446F0
:1024800002A8BC21CDE93455CDE932553195FDF78F
:1024900057FF42F200012068C4F20201884201D0D5
:1024A00036B070BD4FF400200290192003904FF415
:1024B000B4700490052005900220CDE9060002A822
:1024C000CDE908550A952A9502F0FAFB08B1FFF705
:1024D000D7F944F2D840C5F602000168002641F061
:1024E00020010160016801F02001019101998168DA
:1024F00041F00401816031A9806800F0040001907E
:102500000198012031900320329040F60000C5F67A
:102510000200339601F06CFE40F26C751020C2F29E
:102520000005C4F20200092185E843004FF48060F1
:10253000EE604FF4006128614FF40050C5E90510CA
:102540002846C5E907666E6201F04EF908B1FFF74B
:1025500097F9E564AC6336B070BD00000000000080
:102560002DE9F04381B042F200050368C4F2020590
:10257000044605F5807646F2003005F54077C5F64D
:102580000200B34208BF3846AB4208BF3846904607
:10259000894604F001FF0746206804F01DFF18B9C2
:1025A00094F85000012803D1022001B0BDE8F08367
:1025B0000120092F84F8500056D8B84040F221215C
:1025C000084251D02046FEF733FC28B1002184F8A0
:1025D000501001B0BDE8F083206840F60172616DD3
:1025E000B04221EA020118BF054601F58071002FB3
:1025F000616518BF854203D1616D21F48011616569
:10260000616D40F61157C9044FF0000144BFA16D40
:1026100021F00601A16540F6A956E36CC0F600075B
:10262000E16AC0F60006C3E90F7640F69157C0F69E
:1026300000070022DF641C23036084F850204268F6
:1026400042F01002426004F0D7FE21684A46E06C76
:102650004031434601F070FB0546206804F0E8FE77
:10266000284601B0BDE8F083002084F85000012026
:1026700001B0BDE8F0830000F0B581B0044601F080
:102680009BFEECB1054694F8350002281BD140F2C0
:102690000F412068C4F20201884218DC6F22C4F2A4
:1026A0000202904229DC3F22C4F20202904242DC44
:1026B0001022C4F20202904202465BD0282253E06C
:1026C000012001B0F0BD802060650120C0E240F231
:1026D0006F42C4F2020290421CDC40F23F42C4F25C
:1026E000020290422FDC40F21042C4F202029042F9
:1026F00002463FD040F2284236E09F22C4F2020256
:1027000090422ADC7022C4F202029042024631D08A
:10271000882229E040F29F42C4F20202904200F374
:10272000948040F27042C4F202029042024621D0EC
:1027300040F2884218E04022C4F20202904202466F
:1027400018D0582210E040F24042C4F202029042F7
:1027500002460FD040F2584206E0A022C4F2020224
:102760009042024606D0B822C4F2020290420246CB
:1027700040F0F281136823F01E03136027687A6922
:1027800022F080027A6140F26F46C4F20206B7423C
:1027900017DC9F22C4F2020297422EDC5722C4F2B9
:1027A0000202974265DC1022C4F20202974200F056
:1027B000A0802822C4F20202974200F09A804022B0
:1027C00080E045F22F42C5F60202974228DC40F233
:1027D000B742C4F20202974257DC40F27042C4F2A0
:1027E0000202974200F0858040F28842C4F2020261
:1027F00097427ED040F2A04264E040F22742C4F209
:102800000202974250DCA022C4F20202974270D02A
:10281000B822C4F2020297426BD040F2104251E05B
:1028200045F26B42C5F60202974250DC45F2304257
:10283000C5F6020297425CD045F24442C5F6020258
:10284000974256D045F258424FE040F2A042C4F2BF
:102850000202904202463FF48DAF40F2B842C4F209
:102860000202904240F0788140F2B842C4F2020283
:1028700080E75822C4F2020297423AD07022C4F292
:102880000202974235D088221CE040F2B842C4F2DE
:10289000020297422DD045F20842C5F60202974245
:1028A00027D045F21C4220E040F22842C4F2020246
:1028B00097421ED040F24042C4F20202974218D022
:1028C00040F25842C4F20202974212D016E045F29A
:1028D0006C42C5F6020297420BD045F29442C5F60F
:1028E0000202974205D045F28042C5F602029742A5
:1028F00004D1226E136823F480731360884210DCC5
:102900006F21C4F2020188421CDC3F21C4F20201A3
:10291000884232DC1021C4F20201884252D02821C0
:102920004AE0B0421ADC40F23F41C4F20201884260
:102930002ADC40F21041C4F20201884242D040F247
:10294000284139E09F21C4F20201884225DC702130
:10295000C4F20201884235D088212DE040F29F4127
:10296000C4F2020188421FDC40F27041C4F202014D
:10297000884227D040F288411EE04021C4F2020183
:1029800088421FD0582117E040F24041C4F20201B2
:10299000884217D040F258410EE0A021C4F2020153
:1029A00088420FD0B82107E040F2B841C4F20201DA
:1029B000884207D040F2A041C4F20201884208BF19
:1029C000206800E02068016821F00101016000BF7B
:1029D0003868C0070BD001F0EFFC401B0628F7D386
:1029E00020206065032084F83500012030E1B72104
:1029F0002068C4F20201884213DD40F25741C4F25C
:102A0000020188421EDC40F22741C4F202018842E2
:102A100033DCB821C4F2020188424AD040F21041AE
:102A200043E05721C4F2020188421ADD8721C4F233
:102A3000020188422ADC5821C4F20201884238D0BF
:102A4000702132E040F28741C4F20201884224DC66
:102A500040F25841C4F2020188422AD040F270414B
:102A600023E01021C4F20201884222D02821C4F2BE
:102A7000020188421DD0402117E040F22841C4F2F3
:102A80000201884215D040F240410EE08821C4F294
:102A9000020188420DD0A02107E040F2A041C4F21B
:102AA0000201884205D040F28841C4F20201884206
:102AB00058D1A16DE26D3F2302F01F0203FA02F22A
:102AC0008A60B0425EDC9F21C4F20201884212DCBF
:102AD0005721C4F20201884222DC1021C4F2020113
:102AE000884200F0A4802821C4F20201884200F04C
:102AF0009E80402160E040F22741C4F202018842FA
:102B00001BDCA021C4F20201884200F09080B821B1
:102B1000C4F20201884200F08A8040F210414BE08A
:102B20005821C4F20201884200F081807021C4F271
:102B3000020188427BD088213EE040F22841C4F265
:102B40000201884273D040F24041C4F2020188423F
:102B50006DD040F258412FE0026822F00E02026070
:102B6000276810E640F2B841C4F202018842A16D24
:102B7000A0D0E26D012302F01F0203FA02F24A60C4
:102B8000B042A0DD45F22F41C5F60201884218DCB3
:102B900040F2B741C4F20201884227DC40F27041A2
:102BA000C4F20201884242D040F28841C4F20201DC
:102BB00088423CD040F2A041C4F20201884236D0A3
:102BC00042E045F26B41C5F6020188421DDC45F248
:102BD0003041C5F60201884229D045F24441C5F68C
:102BE0000201884223D045F258411CE040F2B8412E
:102BF000C4F2020188421AD045F20841C5F602012A
:102C0000884214D045F21C410DE045F26C41C5F6F6
:102C1000020188420BD045F29441C5F60201884278
:102C200005D045F28041C5F6020188420CD1E06E24
:102C3000D4E9191200284A6006D0016821F4807195
:102C40000160D4E91C014160012084F835000020B6
:102C5000002184F8341001B0F0BD00000000000035
:102C600010B5E8B190F83510022917D140F20F42A3
:102C70000168C4F20202914215DC6F22C4F2020222
:102C8000914225DC3F22C4F2020291423BDC102239
:102C9000C4F20202914259D0282253E080214165BA
:102CA0000121084610BD40F26F42C4F20202914277
:102CB0001ADC40F23F42C4F2020291422ADC40F2A6
:102CC0001042C4F20202914240D040F2284239E060
:102CD0009F22C4F20202914225DC7022C4F2020259
:102CE000914233D088222DE040F29F42C4F202028A
:102CF00091421FDC40F27042C4F20202914225D0A0
:102D000040F288421EE04022C4F2020291421DD0ED
:102D1000582217E040F24042C4F20202914215D01C
:102D200040F258420EE0A022C4F2020291420DD0BD
:102D3000B82207E040F2B842C4F20202914205D044
:102D400040F2A042C4F2020291424DD16F23C4F27C
:102D500002030422994280F835200BDC3F22C4F2A2
:102D60000202914212DC1022C4F2020291421ED0F1
:102D7000282218E09F22C4F2020291420DDC702248
:102D8000C4F20202914212D088220CE04022C4F226
:102D9000020291420BD0582205E0A022C4F20202A6
:102DA000914204D0B822C4F20202914207D10068D5
:102DB000016821F0010101600021084610BD40F2C8
:102DC0006F42C4F2020291422CDC40F23F42C4F254
:102DD0000202914244DC40F21042C4F202029142EB
:102DE000E5D040F228424CE00268136823F00E035D
:102DF000136045F257430A68C5F6020322F0010248
:102E000099420A601DDC45F22F42C5F6020291424A
:102E100041DC45F20842C5F60202914250D045F22B
:102E20001C4249E040F29F42C4F20202914220DC7F
:102E300040F27042C4F202029142B8D040F288429D
:102E40001FE045F27F42C5F6020291422CDC45F2BA
:102E50005842C5F60202914232D045F26C422BE054
:102E600040F24042C4F202029142A0D040F25842E5
:102E700007E040F2B842C4F20202914297D040F219
:102E8000A042C4F2020291423FF491AF086820F0E0
:102E90000100086090E745F23042C5F60202914217
:102EA0000ED045F2444207E045F29442C5F60202D4
:102EB000914205D045F28042C5F6020291421AD1F4
:102EC000D0E916C2D0E9183E196802F01F0221F4B9
:102ED00080710124196004FA02F1CCF80410816EAB
:102EE000CEF80410C16E31B10A6822F480720A6013
:102EF000D0E91C124A60012180F835100021026DD2
:102F0000002A80F8341001D090470021084610BDF7
:102F10002DE9F04381B00021009140F21801C2F286
:102F20000001076848F2B5120968C1F64E32866D95
:102F300040F26F493568A1FB0218C4F202093168FA
:102F400004464F4515DC9F20C4F2020087422BDC6B
:102F50005720C4F2020087424EDC1020C4F2020067
:102F6000874277D02820C4F20200874272D04020E6
:102F70006BE045F22F40C5F60200874227DC40F2A5
:102F8000B740C4F20200874242DC40F27040C4F213
:102F9000020087425ED040F28840C4F202008742BD
:102FA00058D040F2A04050E040F22740C4F2020066
:102FB00087423CDCA020C4F2020087424AD0B820FD
:102FC000C4F20200874245D040F210403DE045F295
:102FD0006B40C5F60200874271DC45F23040C5F611
:102FE000020087427ED045F24440C5F60200874287
:102FF00078D045F2584070E05820C4F20200874271
:1030000028D07020C4F20200874223D088201CE020
:1030100040F2B840C4F2020087421BD045F208409B
:10302000C5F6020087425DD045F21C4055E040F2F3
:103030002840C4F2020087420CD040F24040C4F263
:103040000200874206D040F25840C4F20200874294
:1030500040F05383E06D00F01F01082000FA01F2F8
:103060002A4200F0EA8040F20F40C4F20200874298
:1030700012DC6F20C4F20200874269DC3F20C4F2F8
:103080000200874200F3A6801020C4F202008742AB
:1030900000F0C4802820BCE04F4565DC40F23F4092
:1030A000C4F20200874200F39C8040F21040C4F258
:1030B0000200874200F0B28040F22840A9E045F2C9
:1030C0006C40C5F6020087420CD045F28040C5F640
:1030D0000200874206D045F29440C5F602008742BE
:1030E00040F00B832068E36D026803F01F03500774
:1030F00012D50420984010EA01050DD0110470602B
:1031000041D4900603D4386820F004003860216C64
:10311000002940F06483F0E290073CD502209840FB
:1031200010EA010537D01104706000F1DD829006CD
:1031300009D4386820F00A003860012084F835008E
:10314000002084F83400E16B002940F04883D4E289
:103150009F20C4F2020087424CDC7020C4F20200BF
:1031600087425BD0882054E040F29F40C4F20200C6
:10317000874246DC40F27040C4F2020087424DD0E4
:1031800040F2884045E0D00300F1B482A16C0029F0
:1031900040F02583B1E2100740F1AF82082098404B
:1031A000084000F0AA823868012120F00E00386043
:1031B00001FA03F070600020616584F83510E16C5D
:1031C000002984F8340000F098822046884701B036
:1031D000BDE8F0834020C4F2020087421ED0582090
:1031E00017E040F24040C4F20200874216D040F29D
:1031F00058400EE0A020C4F2020087420ED0B82052
:1032000007E040F2B840C4F20200874206D040F224
:10321000A040C4F20200874240F08D82206804235F
:103220000068184209D02068036823F00403036093
:10323000B260606D40F001006065012000FA01F2AB
:103240002A426FD040F20F40C4F20200874210DCE5
:103250006F20C4F2020087421CDC3F20C4F202004F
:10326000874232DC1020C4F20200874251D028206D
:103270004AE04F451ADC40F23F40C4F20200874268
:103280002ADC40F21040C4F20200874241D040F2F2
:10329000284039E09F20C4F20200874225DC7020DC
:1032A000C4F20200874234D088202DE040F29F40D3
:1032B000C4F2020087421FDC40F27040C4F20200F8
:1032C000874226D040F288401EE04020C4F202002F
:1032D00087421ED0582017E040F24040C4F202005E
:1032E000874216D040F258400EE0A020C4F20200FF
:1032F00087420ED0B82007E040F2A040C4F202009E
:10330000874206D040F2B840C4F20200874240F043
:10331000158220684069000604D5B260606D40F0F7
:1033200002006065042000FA01F22A426FD040F2E8
:103330000F40C4F20200874210DC6F20C4F202008A
:1033400087421CDC3F20C4F20200874232DC10209E
:10335000C4F20200874251D028204AE04F451ADCCF
:1033600040F23F40C4F2020087422ADC40F21040A3
:10337000C4F20200874241D040F2284039E09F2049
:10338000C4F20200874225DC7020C4F202008742AA
:1033900034D088202DE040F29F40C4F202008742E2
:1033A0001FDC40F27040C4F20200874226D040F297
:1033B00088401EE04020C4F2020087421ED0582000
:1033C00017E040F24040C4F20200874216D040F2BB
:1033D00058400EE0A020C4F2020087420ED0B82070
:1033E00007E040F2A040C4F20200874206D040F25B
:1033F000B840C4F20200874240F0A2812068006811
:10340000800704D5B260606D40F004006065102054
:1034100000FA01F129427ED040F20F40C4F20200CE
:10342000874210DC6F20C4F2020087421CDC3F2080
:10343000C4F20200874232DC1020C4F2020087424C
:1034400051D028204AE04F451ADC40F23F40C4F2F8
:10345000020087422ADC40F21040C4F20200874298
:1034600041D040F2284039E09F20C4F20200874258
:1034700025DC7020C4F20200874234D088202DE081
:1034800040F29F40C4F2020087421FDC40F27040CD
:10349000C4F20200874226D040F288401EE040205D
:1034A000C4F2020087421ED0582017E040F240408C
:1034B000C4F20200874216D040F258400EE0A0202D
:1034C000C4F2020087420ED0B82007E040F2B840B4
:1034D000C4F20200874206D040F2A040C4F20200CB
:1034E000874240F02F81276808223868104212D0A6
:1034F000B160206801684903016806D4C90506D493
:10350000016821F00801016001E008034FD4216C3B
:1035100009B120468847E06D202100F01F0081405E
:10352000294200F0AF8040F20F432268C4F2020348
:103530009A4210DC6F23C4F202039A421CDC3F2340
:10354000C4F202039A4236DC1023C4F202039A4208
:1035500055D028234EE04A451ADC40F23F43C4F2DE
:1035600002039A422EDC40F21043C4F202039A4254
:1035700045D040F228433DE09F23C4F202039A4223
:1035800029DC7023C4F202039A4238D0882331E048
:1035900040F29F43C4F202039A4223DC40F270439C
:1035A000C4F202039A422AD040F2884322E0A16C7E
:1035B0000029AED1AFE74023C4F202039A421ED0E5
:1035C000582317E040F24043C4F202039A4216D057
:1035D00040F258430EE0A023C4F202039A420ED0F8
:1035E000B82307E040F2B843C4F202039A4206D07F
:1035F00040F2A043C4F202039A4240F0A580226840
:10360000102312681A423DD0B16094F83520216829
:10361000042A0A681DD122F016020A604A6922F0C3
:1036200080024A61226C0AB9A26C1AB10A6822F0BF
:1036300008020A603F2101FA00F0B060012084F81E
:1036400035000020216D002984F8340040F0C78047
:1036500053E0500308680CD4C0050FD4086820F06C
:1036600010000860012084F83500002084F8340040
:1036700004E0000302D4616C11B903E0E16B09B10D
:1036800020468847606DC0B3606DC00700F0A3801E
:10369000042084F8350040F20F412068C4F2020192
:1036A000884210DC6F21C4F20201884228DC3F21ED
:1036B000C4F20201884249DC1021C4F202018842AE
:1036C0006CD0282164E0484526DC40F23F41C4F23A
:1036D0000201884241DC40F21041C4F202018842FA
:1036E0005CD040F2284153E0D0033FD4616C002904
:1036F00075D102E0216C002971D101B0BDE8F083E1
:103700009F21C4F20201884233DC7021C4F202011D
:10371000884243D088213BE040F29F41C4F202013D
:1037200088422DDC40F27041C4F20201884235D05B
:1037300040F288412CE00823384671E53868F1E50D
:10374000386864E60422D0E602235AE74021C4F236
:103750000201884222D058211AE040F24041C4F2CE
:10376000020188421AD040F2584111E0E16BB1BB2E
:10377000C3E7A021C4F2020188420FD0B82107E0BC
:1037800040F2B841C4F20201884207D040F2A041A1
:10379000C4F20201884208BF206800E02068016886
:1037A00021F001024FEA9821026000BF0098013029
:1037B0008842009003D820680068C007F6D12068CE
:1037C0000068C0074FF0030008BF012084F83500EF
:1037D000002084F83400E16C00293FF48EAF2046CD
:1037E000884701B0BDE8F0832DE9F04381B004467D
:1037F00000F0E2FD002C00F0DB8040F26F4805464F
:103800002068C4F20208404515DC9F21C4F2020181
:1038100088422BDC5721C4F20201884251DC10217E
:10382000C4F2020188427BD02821C4F202018842FE
:1038300076D040216FE045F22F41C5F60201884263
:1038400027DC40F2B741C4F20201884245DC40F275
:103850007041C4F20201884262D040F28841C4F251
:10386000020188425CD040F2A04154E040F227417E
:10387000C4F20201884240DCA021C4F20201884265
:103880004ED0B821C4F20201884249D040F2104122
:1038900041E045F26B41C5F60201884200F3C48065
:1038A00045F23041C5F60201884200F0D08045F271
:1038B0004441C5F60201884200F0C98045F25841F2
:1038C000C0E05821C4F20201884229D07021C4F21C
:1038D0000201884224D088211DE040F2B841C4F2A0
:1038E000020188421CD045F20841C5F60201884217
:1038F00000F0AD8045F21C41A4E040F22841C4F242
:10390000020188420CD040F24041C4F202018842D8
:1039100006D040F25841C4F20201884240F0EE81E4
:103920006F23C4F202030221002284F8351098426A
:1039300084F834200BDC3F21C4F20201884212DCFF
:103940001021C4F2020188421FD0282118E09F21D3
:10395000C4F2020188420DDC7021C4F202018842E7
:1039600013D088210CE04021C4F2020188420CD01F
:10397000582105E0A021C4F20201884205D0B821F7
:10398000C4F20201884240F0A8802068016821F05A
:103990000101016027683868C0070DD000F00CFDF8
:1039A000401B0628F6D320206065032084F83500EC
:1039B000012001B0BDE8F08348F23F013868CFF63E
:1039C00010610840D4E9021208432169104362697A
:1039D0000843A1691043E2690143606A1143226A06
:1039E000042841EA020103D1D4E90B23114319430E
:1039F00041F20002C5F600421268B2F1005FC0F069
:103A000082806268292A7ED32F2A7AD3A2F13F03CB
:103A1000042B76D3472A76D3492A72D34F3A032A06
:103A200098BF41F480116EE045F26C41C5F6020189
:103A300088420CD045F28041C5F60201884206D08A
:103A400045F29441C5F60201884240F057810220B8
:103A500084F83500002084F8340004F1080E206852
:103A60004AF6F8319EE84050CAF2FD714CF6CD435B
:103A70000144CCF6CC43A1FB0313402EA6F18006F3
:103A8000D4E90597E569B6FA86F6226A4FEA561632
:103A900001684FEA86366FF3101108BF102641EA1D
:103AA000DC01314341EADE0141EAD90141EAD701B3
:103AB00041EAD50141EA12116FF00302016002EA06
:103AC0009300E0652046FDF7AFFBE16D012201F0B8
:103AD0001F0102FA01F141603AE0404500F3FE8027
:103AE00040F23F41C4F20201884200F3098140F2F2
:103AF0001041C4F2020188423FF447AF40F228412E
:103B000011E141F4801139600428796921F007013D
:103B100041EA000511D1D4E90A10002845EA01055F
:103B20000BD02046FDF7DCFC38B140206065012059
:103B300084F8350001B0BDE8F08320467D61FDF7D3
:103B400073FBE16D3F2201F01F0102FA01F1816078
:103B50002068404517DC9F21C4F2020188422DDC19
:103B60005721C4F20201884250DC1021C4F2020144
:103B7000884200F08B802821C4F20201884200F0C4
:103B8000858040216BE045F22F41C5F60201884255
:103B900027DC40F2B741C4F20201884242DC40F225
:103BA0007041C4F20201884270D040F28841C4F2F0
:103BB000020188426AD040F2A04150E040F2274121
:103BC000C4F2020188423CDCA021C4F20201884216
:103BD0005CD0B821C4F20201884257D040F21041B3
:103BE0003DE045F26B41C5F6020188423CDC45F2FE
:103BF0003041C5F60201884248D045F24441C5F63D
:103C00000201884242D045F258413BE05821C4F2BB
:103C1000020188423AD07021C4F20201884235D0B4
:103C200088211CE040F2B841C4F2020188422DD044
:103C300045F20841C5F60201884227D045F21C41F1
:103C400020E040F22841C4F2020188421ED040F236
:103C50004041C4F20201884218D040F25841C4F2F7
:103C60000201884212D031E045F26C41C5F60201F2
:103C700088420BD045F29441C5F60201884205D036
:103C800045F28041C5F6020188421FD12046FDF76A
:103C90005FFBA068802801D1002060606068C3B22B
:103CA0000138D4E91812A76E07280B60576009D8AD
:103CB0002046FDF7C1FB04F16C0207CA0023036034
:103CC0004A6003E00020C4E91B0060670020012176
:103CD000606584F8351001B0BDE8F08340F29F4183
:103CE000C4F20201884215DC40F27041C4F20201C4
:103CF00088423FF44AAE40F2884114E0402053E647
:103D000040F24041C4F2020188423FF43EAE40F22C
:103D1000584108E040F2B841C4F2020188423FF441
:103D200034AE40F2A041C4F20201884208BF2068CC
:103D30002CE600000000000070B5002830D00446DA
:103D400090F83400012801D1022070BD012084F8D0
:103D5000340094F8350001281CD1022084F8350085
:103D60000020606540F20F462068C4F20206B042AF
:103D700018DC6F25C4F20205A84228DC3F25C4F2F6
:103D80000205A8423EDC1025C4F20205A8425ED01E
:103D9000282556E04FF400606065002084F8340068
:103DA000012070BD40F26F45C4F20205A8421ADC42
:103DB00040F23F45C4F20205A8422ADC40F2104519
:103DC000C4F20205A84242D040F2284539E09F25BE
:103DD000C4F20205A84225DC7025C4F20205A842FF
:103DE00035D088252DE040F29F45C4F20205A84257
:103DF0001FDC40F27045C4F20205A84227D040F211
:103E000088451EE04025C4F20205A8421FD058256F
:103E100017E040F24045C4F20205A84217D040F234
:103E200058450EE0A025C4F20205A8420FD0B825DF
:103E300007E040F2B845C4F20205A84207D040F2BC
:103E4000A045C4F20205A84208BF206800E020682F
:103E5000056825F0010505602046FDF769FB20682F
:103E6000B04211DC6F21C4F20201884222DC3F2102
:103E7000C4F2020188423BDC1021C4F202018842F4
:103E8000014654D028214CE040F26F41C4F20201B7
:103E900088421CDC40F23F41C4F2020188422FDC20
:103EA00040F21041C4F20201884201463FD040F284
:103EB000284136E09F21C4F2020188422ADC7021A9
:103EC000C4F202018842014631D0882129E040F243
:103ED0009F41C4F20201884200F3988040F2704191
:103EE000C4F202018842014621D040F2884118E024
:103EF0004021C4F202018842014618D0582110E046
:103F000040F24041C4F20201884201460FD040F223
:103F1000584106E0A021C4F202018842014606D0C1
:103F2000B821C4F202018842014640F03C810A688F
:103F30000B2161F34402236C2168002B0A6003D03B
:103F40000A6842F008020A6040F26F41C4F20201BE
:103F5000884217DC9F22C4F2020290422EDC5722D4
:103F6000C4F20202904265DC1022C4F202029042C6
:103F700000F0A0802822C4F20202904200F09A8051
:103F8000402280E045F22F42C5F60202904228DC32
:103F900040F2B742C4F20202904257DC40F2704253
:103FA000C4F20202904200F0858040F28842C4F2DE
:103FB000020290427ED040F2A04264E040F22742EA
:103FC000C4F20202904250DCA022C4F202029042EB
:103FD00070D0B822C4F2020290426BD040F210427C
:103FE00051E045F26B42C5F60202904250DC45F2C8
:103FF0003042C5F6020290425CD045F24442C5F61A
:104000000202904256D045F258424FE040F2A041A1
:10401000C4F20201884201463FF489AF40F2B84140
:10402000C4F20201884240F0BE8040F2B841C4F2BE
:1040300002017CE75822C4F2020290423AD0702278
:10404000C4F20202904235D088221CE040F2B8420D
:10405000C4F2020290422DD045F20842C5F6020297
:10406000904227D045F21C4220E040F22842C4F2A0
:10407000020290421ED040F24042C4F2020290423C
:1040800018D040F25842C4F20202904212D084E0AA
:1040900045F26C42C5F6020290420BD045F29442C2
:1040A000C5F60202904205D045F28042C5F60202F2
:1040B000904272D1226E1368DB0303D5136843F478
:1040C00080731360E26E1AB1136843F48073136057
:1040D000B04210DC6F21C4F2020188421CDC3F2197
:1040E000C4F20201884232DC1021C4F2020188428B
:1040F00052D028214AE088421ADC40F23F41C4F203
:10410000020188422ADC40F21041C4F202018842D6
:1041100042D040F2284139E09F21C4F20201884296
:1041200025DC7021C4F20201884235D088212DE0BF
:1041300040F29F41C4F2020188421FDC40F270410C
:10414000C4F20201884227D040F288411EE040219B
:10415000C4F2020188421FD0582117E040F24041CA
:10416000C4F20201884217D040F258410EE0A0216B
:10417000C4F2020188420FD0B82107E040F2B841F2
:10418000C4F20201884207D040F2A041C4F2020109
:10419000884208BF206800E02068016841F0010102
:1041A0000160002070BD0268052161F34302236CA9
:1041B0002168002B0A603FF4C7AE0A6842F004028F
:1041C000C1E6000000000000B0B5044600F0F4F8BD
:1041D00040F22001C2F200010978621C054618BFB6
:1041E0000C4400BF00F0E8F8401BA042FAD3B0BD79
:1041F0002DE9F04F83B00E68002E00F0C88000F16A
:10420000264202F1FF7242F200434FEAB222C5F6A3
:10421000020301920A22984208BF092200230025C6
:1042200000924FF0010800BFA8F1010A012202FA32
:104230000AFC16EA0C0900F0A080D1F804E00EF0A8
:104240000306A6F1010BBBF1010F15D84FF0030BCC
:1042500084680BFA03F224EA0202CC689C402243F1
:1042600082604268CEF3001422EA0C0204FA0AF4D7
:104270002243426004E000BF032E4FF0030B1AD02C
:10428000C2680BFA03F4A2438C689C402243022EBE
:10429000C26010D16FF0030202EA5A02024405F034
:1042A0001C06146A0F27B74024EA07070C6904FAB2
:1042B00006F63743176202680BFA03F7BA434F68F2
:1042C00007F003069E40324317F4403F026054D08B
:1042D00044F2F442C5F602021746126842F00202A6
:1042E0003A6040F208463A68C5F6000602F002025B
:1042F00002922AF00302029F0F2405F00C07B64633
:104300009659BC4026EA040C019E092E009C38BF39
:10431000344604FA07F747EA0C0742F80E704FF0EC
:10432000B04CDCF800204F6842EA0906FC0258BF96
:1043300022EA09060422CCF80060C5F60002944681
:10434000126842EA0906BC0258BF22EA0906BC0309
:10435000CCF80060DCF8802042EA090658BF22EA67
:104360000906FF03CCF88060DCF87C2042EA0906ED
:1043700058BF22EA0906CCF87C600E68043536FA8C
:1043800008F208F1010803F102037FF44DAF03B016
:10439000BDE8F08F00000000002A08BF0904816119
:1043A000704700000000000041F20000C5F6004028
:1043B0000068000C7047000040F68820C2F2000040
:1043C000006870470000000040F22000C2F20000C8
:1043D00040F688210078C2F200010A6810440860A3
:1043E000704700000000000080B5032000F080F856
:1043F00001F066FA44F21841C5F602010A684BF270
:104400005033C2F30322C0F600039A5C096801F03E
:104410000F01595C02F01F02D04001F01F0140F271
:104420001C0220FA01F1C2F20002116040F21801F0
:10443000C2F2000108600F2000F00AF808B1012064
:1044400080BD00F031F8002080BD000000000000B9
:10445000B0B540F22001C2F20001097801B3044670
:104460004FF47A70B0FBF1F040F21801C2F2000193
:104470000968B1FBF0F001F027FD0F2C4FF00105AA
:104480000CD858B94FF0FF3000222146002500F02B
:104490001FF840F22400C2F2000004602846B0BDBC
:1044A00001252846B0BD000081B044F2F440C5F6B5
:1044B0000200016841F002010160006800F00200A2
:1044C0000090009801B0704704F0DABE00000000D0
:1044D00070B514460D46064604F0E2FE2946224613
:1044E00003F006FB01463046BDE8704004F0E0BE34
:1044F00004F0F2BE00000000B0B544F60C05C5F6AD
:10450000020529684907296805D401F00701081A3E
:1045100018BF0120B0BD21F0070108432860FFF754
:104520004BFF044655F8080C800407D4FFF744FFFE
:10453000001BB0F57A7FF5D90120B0BD0020B0BDD9
:1045400080B501F06DF944F22041C5F60201096819
:104550004BF25032C1F30211C0F60002515C01F07F
:104560001F01C84080BD000080B544F2304EC5F642
:10457000020E5EF8083C5EF8082CC2F3051C5EF8DB
:10458000042CDEF8041002F00102C1F3CC01BCF1EE
:10459000000F11FB02F100EE101AB8EE400A0DD028
:1045A00003F00303022B0ED0012B0FD01BB95EF8D2
:1045B000301C89060DD49FED351A18E00021C0E9A2
:1045C0000011816080BD9FED301A10E09FED2D1A23
:1045D0000DE05EF8301C49F20002C1F3C101C0F2E7
:1045E000D03222FA01F101EE101AB8EE411A02EEB1
:1045F00010CA9FED273AB8EE422ADEF800106FF39A
:104600005F2181EE021A02EE101AB8EE422ADEF89D
:104610000010C1F3462100EE032AB7EE000A03EEB4
:10462000101A32EE002AB8EE433A21EE021A33EEA7
:10463000002A81EE022ABCEEC22A80ED002ADEF8B2
:104640000010C1F3064102EE101AB8EE422A32EE13
:10465000002A81EE022ABCEEC22A80ED012ADEF891
:104660000010C1F3066102EE101AB8EE422A32EED3
:10467000000A81EE000ABCEEC00A10EE101A81603A
:1046800080BD00BF0024744A20BCBE4B0024744C83
:10469000000000390000000080B544F2384EC5F635
:1046A000020E5EF8103C5EF8102CC2F3053C5EF87A
:1046B0000C2CC2F30012DEF80410C1F3CC01BCF1E3
:1046C000000F11FB02F100EE101AB8EE400A0BD0F9
:1046D00003F00303022B0CD073B95EF8381C890673
:1046E0000DD49FED351A18E00021C0E9001181605A
:1046F00080BD9FED301A10E09FED2D1A0DE05EF8A1
:10470000381C49F20002C1F3C101C0F2D03222FAD2
:1047100001F101EE101AB8EE411A02EE10CA9FED37
:10472000273AB8EE422ADEF800106FF35F2181EEDF
:10473000021A02EE101AB8EE422ADEF80010C1F397
:10474000462100EE032AB7EE000A03EE101A32EEFD
:10475000002AB8EE433A21EE021A33EE002A81EE27
:10476000022ABCEEC22A80ED002ADEF80010C1F356
:10477000064102EE101AB8EE422A32EE002A81EE0D
:10478000022ABCEEC22A80ED012ADEF80010C1F335
:10479000066102EE101AB8EE422A32EE000A81EEED
:1047A000000ABCEEC00A10EE101A816080BD00BF86
:1047B0000024744A20BCBE4B0024744C0000003915
:1047C00080B544F2404EC5F6020E5EF8183C5EF825
:1047D000182CC2F3055C5EF8142CC2F30022DEF83C
:1047E0000410C1F3CC01BCF1000F11FB02F100EE8B
:1047F000101AB8EE400A0BD003F00303022B0CD0C2
:1048000073B95EF8401C89060DD49FED351A18E087
:104810000021C0E90011816080BD9FED301A10E0D9
:104820009FED2D1A0DE05EF8401C49F20002C1F325
:10483000C101C0F2D03222FA01F101EE101AB8EE35
:10484000411A02EE10CA9FED273AB8EE422ADEF86E
:1048500000106FF35F2181EE021A02EE101AB8EE1B
:10486000422ADEF80010C1F3462100EE032AB7EE1B
:10487000000A03EE101A32EE002AB8EE433A21EE97
:10488000021A33EE002A81EE022ABCEEC22A80ED23
:10489000002ADEF80010C1F3064102EE101AB8EE4D
:1048A000422A32EE002A81EE022ABCEEC22A80EDB4
:1048B000012ADEF80010C1F3066102EE101AB8EE0C
:1048C000422A32EE000A81EE000ABCEEC00A10EE67
:1048D000101A816080BD00BF0024744A20BCBE4B0A
:1048E0000024744C0000003980B584B00146B0F556
:1048F000805F4FF0000023DBB1F5004F65DB00F077
:104900008280B1F5803F00F0C280B1F5002F40F009
:10491000F48044F20040C5F60200816D01F440319C
:10492000B1F5003F00F0F480B1F5803F00F0D58094
:10493000002940F0CF800068000100F14F81C9E0FC
:10494000B1F5806F21DAB1F5807F00F07480B1F5A8
:10495000007F40F0D28044F20041C5F60201086DAC
:10496000C0F38212042A00F2B58048F20000C0F2BF
:10497000BB00DFE812F0AC000500DB00C200DF0086
:104980000868000140F1A68028E100F06A80B1F5D6
:10499000006F40F0B28044F20041C5F60201886D1C
:1049A000C0F30262042A00F2958048F20000C0F2CF
:1049B000BB00DFE812F08C000500D100A200D5009A
:1049C0000868000140F1868008E1B1F5805F00F0E1
:1049D0006C80B1F5804F40F0908044F20040C5F605
:1049E0000200816DC1F30271052900F27380DFE8D6
:1049F00011F0060022012A01320141011B00FFF7DC
:104A00009FFD04B080BD44F20040C5F60200016D78
:104A100001F04051B1F1005F00F06880B1F1805FBA
:104A200000F06D80002955D1006847F640018003F1
:104A3000C0F27D1124E144F20041C5F60201086D87
:104A400000F00702042A45D848F20000C0F2BB007B
:104A5000DFE802F03D0397539B000868000139D559
:104A6000BCE044F20041C5F60201886DC0F3425239
:104A7000042A2FD848F20000C0F2BB00DFE802F0A1
:104A80002703953D9A000868000123D5A6E044F26B
:104A90000040C5F60200C16CC903006818D50001CA
:104AA00018D501A8FFF7F8FD1DE044F20041C5F656
:104AB0000201086DC0F30232042A0BD848F200004C
:104AC000C0F2BB00DFE802F0038690199A00086884
:104AD000800117D4002004B080BD00688000F9D5A3
:104AE00001A8FFF76DFE039804B080BD00680001C7
:104AF000F0D501A8FFF7D0FD029804B080BD006892
:104B00008001E7D501A8FFF72FFD029804B080BD12
:104B1000C16C11F040510368026840F0B58013F099
:104B2000040300F0B180C2F3C1009BE0086880007C
:104B3000D0D55DE0C86C10F040520B68086803D116
:104B400013F0040340F08C80B2F1805F65D110F463
:104B5000807040F09F8060E008688000BAD547E030
:104B6000C86C10F040520B68086802D113F00403BF
:104B700076D1B2F1805F50D110F4807040F08A801D
:104B80004BE008688000A5D532E0C86C10F04052B8
:104B90000B68086802D113F0040361D1B2F1805FA1
:104BA0003BD110F4807075D137E0086880007FF544
:104BB00091AF1DE0C86C10F040520B68086802D13C
:104BC00013F004034CD1B2F1805F26D110F4807051
:104BD00060D122E0086800017FF57CAF01A8FFF7F3
:104BE0005BFD019804B080BD086880007FF572AF5E
:104BF00001A8FFF7E5FD019804B080BDC86C10F076
:104C000040520B68086802D113F0040328D1B2F1B6
:104C1000805F02D110F480703CD1086810F400303D
:104C20001CBF47F64000C0F27D10B2F1005F18BF14
:104C3000002004B080BD006800017FF54BAF01A8E3
:104C4000FFF72AFD61E7006880007FF543AF01A808
:104C5000FFF7B6FD59E7016849077FF53BAF0068EC
:104C6000C0F3C10049F20001C0F2D03121FA00F0D6
:104C700004B080BD006840F60011C005C0F23D01DF
:104C800001EAE07004B080BDB1F1805F08D112F498
:104C9000807205D040F60010C0F23D0004B080BD27
:104CA000006810F400301CBF47F64000C0F27D10D1
:104CB000B1F1005F18BF002004B080BD000000000B
:104CC0002DE9F04F81B00446C07844F22C4800072B
:104CD000C5F6020825D5606E4FEA305003280AD881
:104CE000DFE800F0020B1017D8F8000040F40030A5
:104CF000C8F800000DE0012514E0201D022102F09B
:104D00004FFF04E004F12400022102F0D9FF054620
:104D100040B9D8F8240020F44010616E0843C8F868
:104D2000240000256078C00701D12F462AE0606D7D
:104D300004280DD82F46DFE800F0030E13191900E0
:104D4000D8F800002F4640F40030C8F800000DE00D
:104D50000127012617E0201D002102F021FF04E0B9
:104D600004F12400002102F0ABFF0746002F3E466D
:104D700009D1D8F82400002720F00700616D08430E
:104D8000C8F824002E46607880072AD5A06D4FEA27
:104D9000B01004280BD8DFE800F0030D121818003B
:104DA000D8F8000040F40030C8F800000DE00127FA
:104DB000012517E0201D002102F0F2FE04E004F1BD
:104DC0002400002102F07CFF0746002F3D4609D158
:104DD000D8F82400002720F4E070A16D0843C8F83B
:104DE00024003546607840072DD5D4F8A4004FEA5A
:104DF000705004280BD8DFE800F0030E13191900D7
:104E0000D8F8000040F40030C8F800000EE0012798
:104E10004FF0010918E0201D002102F0C1FE04E05E
:104E200004F12400002102F04BFF0746002FB94691
:104E30000AD1D8F82C00002720F46000D4F8A41080
:104E40000843C8F82C00A946607800072CD5D4F890
:104E5000A8004FEA306004280BD8DFE800F0030D0B
:104E600012181800D8F8000040F40030C8F800000C
:104E70000DE00127012618E0201D002102F090FE20
:104E800004E004F12400002102F01AFF0746002F7D
:104E90003E460AD1D8F82C00002720F0E060D4F874
:104EA000A8100843C8F82C004E46E078800723D5A8
:104EB000A06C4FEA301003280AD8DFE800F0110296
:104EC0000C11D8F8000040F40030C8F8000007E0EA
:104ED0000127012511E0201D022102F061FE074695
:104EE000002F3D4609D1D8F82000002720F03000DF
:104EF000A16C0843C8F8200035466078C0062AD562
:104F0000E06D4FEA303004280BD8DFE800F0030DE5
:104F100012181800D8F8000040F40030C8F800005B
:104F20000DE00127012617E0201D002102F038FEC8
:104F300004E004F12400002102F0C2FE0746002F25
:104F40003E4609D1D8F82400002720F4E040E16D66
:104F50000843C8F824002E466078800623D5206ECA
:104F60004FEA3040052809D8DFE800F011030B11A3
:104F70001111201D012102F013FE07E00127012578
:104F800012E004F12400012102F09AFE0746002FEE
:104F90003D4609D1D8F82400002720F4E020216EF6
:104FA0000843C8F8240035466078400625D5D4F873
:104FB000AC004FEA3070052809D8DFE800F0110393
:104FC0000B111111201D012102F0EAFD07E001275C
:104FD000012613E004F12400012102F071FE0746CE
:104FE000002F3E460AD1D8F82C00002720F0E040E0
:104FF000D4F8AC100843C8F82C002E4660780006A0
:105000001FD5E06E88B1B0F1005F09D0B0F1805FCC
:1050100029D1D8F8000040F40030C8F8000004E0BE
:10502000201D012102F0BCFD0746002F3D4609D19D
:10503000D8F82400002720F04050E16E0843C8F85B
:1050400024003546E078C00725D0606C03280DD8D1
:10505000DFE800F015021015D8F8000040F4003029
:10506000C8F800000BE001270125EBE701274FF00E
:10507000010911E0201D022102F092FD0746002FD8
:10508000B94609D1D8F82000002720F00300616C50
:105090000843C8F82000A946A078400602D43D463F
:1050A0004E4618E0D8F8D40340F48070C8F8D40312
:1050B000FFF782F9054600BFD8F8D403C00507D42E
:1050C000FFF77AF9401B6428F6D90325032602E08E
:1050D0009FB13D463E462078C00753D0A06F4FEAAF
:1050E000F000052839D8DFE800F041033B41414199
:1050F000201D012102F054FD37E0D8F84410D4F807
:10510000B000414011F4407F11D0D8F84410D8F8D5
:10511000442021F4407142F48032C8F84420D8F889
:10512000442022F48032C8F84420C8F84410B0F576
:10513000807F38D1FFF740F9824641F2883B032552
:10514000032600BFD8F8440080072CD4FFF734F9B9
:10515000A0EB0A005845F5D9BDE70125012712E06B
:1051600004F12400012102F0ABFD0546002D2F467D
:1051700009D1D8F82800002520F03800A16F084395
:10518000C8F828003746207880073DD5606F05288D
:1051900025D8DFE800F02D03272D2D2D201D01211E
:1051A00002F0FEFC23E0D4F8B00000F4407158F89F
:1051B0001C2CB1F5407F22F47C5106D14FF6CF7202
:1051C000C0F2FF0202EA1012114348F81C1C6FF3F0
:1051D0001F30D8F844100843C8F844005FE70125A1
:1051E000012612E004F12400012102F069FD0546C8
:1051F000002D2E4609D1D8F82800002520F0070000
:10520000616F0843C8F828003E462078400724D53F
:10521000D4F89000052809D8DFE800F012030C123A
:105220001212201D012102F0BBFC08E001254FF005
:10523000010913E004F12400012102F041FD0546BB
:10524000002DA9460AD1D8F82C00002520F007002F
:10525000D4F890100843C8F82C00B1462078800696
:1052600025D5D4F88C004FEA3070052809D8DFE83E
:1052700000F011030B111111201D002102F090FC10
:1052800007E00125012713E004F12400022102F0C8
:1052900017FD0546002D2F460AD1D8F82800002515
:1052A00020F0E040D4F88C100843C8F828004F469E
:1052B0002078400625D5D4F898004FEAB02005287C
:1052C00009D8DFE800F011030B111111201D002196
:1052D00002F066FC07E00125012613E004F124003A
:1052E000022102F0EDFC0546002D2E460AD1D8F829
:1052F0002C00002520F4E050D4F898100843C8F89A
:105300002C003E462078000625D5D4F89C004FEAB4
:105310007030052809D8DFE800F011030B111111D6
:10532000201D002102F03CFC07E00125012713E0CD
:1053300004F12400022102F0C3FC0546002D2F4693
:105340000AD1D8F82C00002520F46040D4F89C1035
:105350000843C8F82C0037462078000715D5D4F844
:105360008000B0F5805F07D104F12400022102F033
:10537000A7FC002818BF0127D8F8280020F44050C7
:10538000D4F880100843C8F828002078C00615D546
:10539000D4F89400B0F5807F07D104F124000221F5
:1053A00002F08EFC002818BF0127D8F82C0020F44A
:1053B0004070D4F894100843C8F82C00A078000777
:1053C00020D5D4F8A000B0F5003F0ED0B0F5803F56
:1053D00005D070BB201D002102F0E2FB04E004F1C7
:1053E0002400022102F06CFC0546002D2E460AD155
:1053F000D8F82C00002520F44030D4F8A010084341
:10540000C8F82C003E46A078400728D5D4F8840080
:10541000B0F5401F16D0B0F5001F0DD0B0F5801FBD
:1054200040F0C580D8F8000040F40030C8F8000013
:1054300008E001250126E6E704F12400012102F03D
:105440003FFC0546002D2F460AD1D8F8280000253C
:1054500020F44010D4F884100843C8F828003746D8
:10546000A078C00701D13E461FE0E06CB0F5803F58
:1054700007D0C0B9D8F8000040F40030C8F80000E8
:1054800004E0201D022102F08BFB0546002D2E4674
:105490000BD1D8F82000002520F48030E16C0843BF
:1054A000C8F82000DFE7012501262068810008D523
:1054B00004F12400022102F003FC002818BF012699
:1054C0002068810336D5E16F6FF0010202EB3122D3
:1054D000022A0AD34FEA31223AB1012A6AD1D8F816
:1054E000002042F40032C8F80020E5B1C10224D403
:1054F000C1002CD4810235D441003DD4B0F1FF3F2E
:105500004ADD000208D5D8F8280020F44000D4F87D
:1055100088100843C8F82800002D18BF0125284628
:1055200001B0BDE8F08FD8F8282022F44072114372
:10553000C8F828103546C102DAD5D8F8241021F071
:105540000041226F1143C8F82410C100D2D558F889
:105550001C1C21F48041D4F8B420114348F81C1CD1
:105560008102C9D5D8F8241021F08071A26E1143B0
:10557000C8F824104100C1D558F81C1C21F4004182
:1055800048F81C1CD4F8B81058F81C2C114348F8E3
:105590001C1CB0F1FF3FB4DCD8F8201021F04051C2
:1055A000226D1143C8F820100002B5D5ABE70125E4
:1055B000012755E70125C1029AD5BEE7000000008A
:1055C0002DE9F04381B0002800F0238142F2000869
:1055D000C5F200280446D8F8000000F00F00894604
:1055E00088420ED2D8F8000020F00F0040EA0900EF
:1055F000C8F80000D8F8000000F00F00484540F05F
:105600000881206844F218474107C5F602070AD509
:1056100021693A6802F07002914204D93A6822F096
:1056200070021143396001070AD561697A6802F096
:105630007002914204D97A6822F0700211437960B5
:10564000C1060AD5A1697A6802F4E062914204D9E0
:105650007A6822F4E0621143796081060AD5E16933
:10566000BA6802F07002914204D9BA6822F070025E
:105670001143B96081070AD5E1683A6802F00F0268
:10568000914204D93A6822F00F0211433960C007F1
:105690003FD0386820F47061D4E901021143032837
:1056A000396007D002280BD157F8181C890340F144
:1056B000B08010E057F8181C890140F1AA800AE078
:1056C000012857F8181C03D1C90540F1A28002E057
:1056D000490740F19E8057F8081C21F00701084354
:1056E00047F8080CFEF768FE064641F2883500BF11
:1056F00057F8080C00F038006168B0EBC10F08D013
:10570000FEF75AFE801BA842F2D9032001B0BDE883
:10571000F083206881070AD5E1683A6802F00F0239
:10572000914204D23A6822F00F0211433960D8F84E
:10573000001001F00F0149450DD9D8F8001021F0F3
:105740000F0141EA0901C8F80010D8F8001001F073
:105750000F0149455DD141070AD521693A6802F038
:105760007002914204D23A6822F07002114339600B
:1057700001070AD561697A6802F07002914204D289
:105780007A6822F0700211437960C1060AD5A169D6
:105790007A6802F4E062914204D27A6822F4E0620C
:1057A0001143796080060AD5E069B96801F070019B
:1057B000884204D2B96821F070010843B86000F053
:1057C0007FF839684BF25032C1F30321C0F6000272
:1057D000515C3B6803F00F03D25C01F01F0120FA1B
:1057E00001F102F01F0040F21C0221FA00F0C2F2A7
:1057F0000002106040F2240040F21802C2F20000E1
:10580000C2F200020068116001B0BDE8F043FEF78B
:105810001FBE012001B0BDE8F083000000000000C1
:1058200080B500F04DF844F21841C5F602010A684F
:105830004BF25033C2F30322C0F600039A5C0968AE
:1058400001F00F01595C02F01F0220FA02F201F090
:105850001F0040F21C0122FA00F0C2F200010860B1
:1058600040F21801C2F200010A6080BD0000000091
:1058700080B5FFF7D5FF44F21C41C5F60201096867
:105880004BF25032C1F30211C0F60002515C01F03C
:105890001F01C84080BD000080B5FFF7C1FF44F282
:1058A0001C41C5F6020109684BF25032C1F30221D6
:1058B000C0F60002515C01F01F01C84080BD00002D
:1058C00044F20041C5F602010869C0F3C200032892
:1058D0000FD002282BD078BB0868800649F2000060
:1058E000C0F2D03058BF70470968C1F3C101C84049
:1058F00070478A6A886AC0F3051CCB6A486B03F05C
:105900000103C0F3CC00BCF1000F10FB03F000EE6C
:10591000100AB8EE400A14D002F00302022A12D094
:10592000A2B90868800614D49FED251A1EE047F638
:105930004000C0F27D10704740F60010C0F23D00FC
:105940007047002070479FED1D1A0FE09FED1A1A57
:105950000CE0086849F20002C0F3C100C0F2D03286
:1059600022FA00F001EE100AB8EE411A02EE10CA57
:105970009FED143AB8EE422A086B6FF35F2081EE78
:10598000021A02EE100AB8EE422A086BC0F3462053
:1059900000EE032AB7EE000A013032EE000A21EED3
:1059A000000A01EE100AB8EE411A80EE010ABCEEC0
:1059B000C00A10EE100A70470024744A20BCBE4B87
:1059C0000024744C00000039F0B581B0002800F0CC
:1059D0009A810446007844F20046C007C5F60206E4
:1059E00021D12078800740F1B280306910F0380171
:1059F000B06A3CD0182908BF5FEA807037D0E068F1
:105A0000002831685CD021F0190108433060FEF7AE
:105A1000D3FC05463068400743D4FEF7CDFC401B5D
:105A20000228F7D985E1306900F03801B06A102901
:105A300005D018290AD100F00300022806D13068E9
:105A40008003CED560680028CBD15CE16068002877
:105A500047D0B0F5803F06D0B0F5A02F30685ED1BA
:105A600040F480203060306840F480305DE0306881
:105A7000400703D5E068002800F04581306820F039
:105A80001900E16808433060FEF796FC054600BF48
:105A90003068400705D4FEF78FFC401B0228F7D979
:105AA00047E1FEF781FC41F20301884230D82069CA
:105AB0007168402821F47C3146D141F4003045E042
:105AC00021F001003060FEF777FC054630684007A2
:105AD0003DD5FEF771FC401B02284FF00300F5D9BD
