:020000040800F2
:1000000018050024AD020008F3260008712400083A
:10001000F12600083D060008133300080000000028
:10002000000000000000000000000000F9280008A7
:100030003F06000800000000F5260008FB28000825
:10004000C7020008C7020008C7020008C70200086C
:10005000C7020008C7020008C7020008C70200085C
:10006000C7020008C7020008C7020008C70200084C
:10007000C7020008C7020008C7020008C70200083C
:10008000C7020008C7020008C7020008C70200082C
:10009000C7020008C7020008C7020008C70200081C
:1000A000C7020008C7020008C7020008C70200080C
:1000B000C7020008C7020008C7020008C7020008FC
:1000C000C7020008C7020008C7020008C7020008EC
:1000D000C7020008C7020008C7020008C7020008DC
:1000E000C7020008C702000800000000C70200089D
:1000F000C7020008C7020008C7020008C7020008BC
:10010000C7020008C7020008C7020008C7020008AB
:10011000C7020008C7020008C7020008C70200089B
:10012000C7020008C7020008C7020008C70200088B
:10013000C7020008C7020008C7020008C70200087B
:1001400000000000000000000000000000000000AF
:10015000C7020008C7020008C7020008C70200085B
:10016000C7020008C7020008C7020008C70200084B
:10017000C7020008C7020008C7020008000000000C
:10018000C7020008C7020008C7020008C70200082B
:10019000C7020008C7020008C7020008C70200081B
:1001A000C7020008C7020008C7020008C70200080B
:1001B000C7020008C7020008C7020008C7020008FB
:1001C000C7020008C7020008C7020008C7020008EB
:1001D000C7020008C7020008C7020008C7020008DB
:1001E000C7020008C7020008C7020008C7020008CB
:1001F000C7020008C7020008C7020008C7020008BB
:10020000C7020008C7020008C7020008C7020008AA
:10021000C7020008C7020008C7020008C70200089A
:10022000C7020008C7020008C7020008000000005B
:10023000C7020008C702000800000000C70200084B
:10024000C7020008C7020008C7020008C70200086A
:10025000C7020008C7020008C7020008C70200085A
:10026000C7020008C7020008C7020008C70200084A
:10027000C7020008C7020008C7020008000000000B
:10028000C7020008C7020008C702000800000000FB
:1002900000000000C7020008DFF80CD000F07AF878
:1002A00000480047753300081805002406488047B9
:1002B00006480047FEE7FEE7FEE7FEE7FEE7FEE74B
:1002C000FEE7FEE7FEE7FEE7012A000899020008C4
:1002D0002DE9F05F0546002092469B46884606467B
:1002E000814640241BE0284641464746224600F00E
:1002F00041F853465A46C01A914110D31146184648
:10030000224600F028F82D1A67EB01084F462246D6
:100310000120002100F01FF817EB00094E41201EBC
:10032000A4F10104DFDC484631462A464346BDE8D5
:10033000F09FD2B201E000F8012B491EFBD27047BA
:100340000022F6E710B513460A4604461946FFF7A1
:10035000F0FF204610BD202A04DB203A00FA02F10B
:10036000002070479140C2F1200320FA03F31943A3
:1003700090407047202A04DB203A21FA02F0002145
:10038000704721FA02F3D040C2F1200291400843A5
:1003900019467047064C074D06E0E06840F001033F
:1003A00094E8070098471034AC42F6D3FFF778FF83
:1003B000203D0008403D0008F8B59D4CA4F50065BF
:1003C000402100222846002600F02CFB002003F0EC
:1003D000A7F8124F03E0B85D03F0A2F80136042E2F
:1003E000F9D14021934E01222846B047924D012079
:1003F000A847202100222046B0470120A8472021FD
:1004000001222046B0470120A84720210022204693
:10041000B04701202946BDE8F8400847083D0008DC
:1004200070B5304C402100222046002500F0FAFA39
:10043000002003F075F82C4E03E0705D03F070F8B7
:100440000135042DF9D140210122204600F0EAFABD
:10045000012000F0F5F8402100222046002500F0A0
:10046000E1FA012003F05CF820A603E0705D03F0E0
:1004700057F80135042DF9D140210122204600F022
:10048000D1FA012000F0DCF84021002220460025AE
:1004900000F0C8FA0E2003F043F815A603E0705DE3
:1004A00003F03EF80135082DF9D14021F04E01222C
:1004B0002046B047EF4D0120A84704F500642021F5
:1004C00000222046B0470120A847202101222046D3
:1004D000B0470120A8472021002220463346BDE82E
:1004E0007040184700000258043D000801400820F1
:1004F0003FFF00000000000070B5244C40210022A6
:100500002046002500F08EFA002003F009F8204E66
:1005100003E0705D03F004F80135042DF9D14021AA
:100520000122204600F07EFA012000F089F84021E7
:1005300000222046002500F075FA012002F0F0FFAD
:1005400014A603E0705D02F0EBFF0135042DF9D134
:100550004021C74E01222046B047C64D0120A84782
:1005600004F50064202100222046B0470120A8475E
:10057000202101222046B0470120A8472021002247
:1005800020463346BDE87040184700BF00000258BF
:10059000043D000800410820F8B500EE100A244C84
:1005A000A4F500659FED201BB8EE400B002200264D
:1005B00020EE010BBCEEC00B10EE100A010A8DF804
:1005C00003008DF80210010C000E8DF801108DF85B
:1005D00000004021284600F025FA072002F0A0FF85
:1005E0006F4603E0B85D02F09BFF0136042EF9D19F
:1005F00040219F4E01222846B0479E4D0120A8472A
:10060000202100222046B0470120A84720210122B6
:100610002046B0470120A847202100222046B047AD
:10062000F8BD00BF00BF00BF95D626E80B2E1140D5
:1006300000080258250A000841060008FEE7704736
:1006400070B56FF005010A4C0E1A2168B0B24FF672
:10065000FA754862204601F0DDFD206800E0466A38
:10066000B1B2A942FBD30248BDE8704001F016BE0A
:1006700034000024EFF3108072B6FEE700000000A3
:100680002DE9F84F2DED127B824673480190744896
:100690008245904671480090894605D84DF29000F9
:1006A000B0FBFAF0010A01E0002000218DF80110F2
:1006B0006C4E40218DF8020000223046002400F0EC
:1006C000B1F9002002F02CFF674D03E0285D02F035
:1006D00027FF0134042CF9D140210122304600F0DB
:1006E000A1F90120FFF7ACFF402100223046002491
:1006F00000F098F9012002F013FF5C4D03E0285D43
:1007000002F00EFF0134042CF9D1402101223046C1
:1007100000F088F90120FFF793FF402100223046C6
:10072000002400F07FF90E2002F0FAFE6D4603E08F
:10073000285D02F0F5FE0134082CF9D140214C4F20
:1007400001223046B8474B4D0120A847344606F5F4
:100750000066202100223046B8470120A84720210A
:1007600001223046B8470120A84720210022304608
:10077000B8470120A847402100222046A346B84799
:10078000162002F0CDFE00EE10AA4FEA48009FEDC1
:100790002AABB8EE408B4FF47A7400EE109AB6EEA6
:1007A00000EBB7EE00DB9FED26CBB8EE409B00EEF2
:1007B000100A9FED27FBB8EE400B20EE0ABB1EE0AF
:1007C0002CEE0A0B9FED201B80EE010B02F0F0FED9
:1007D00020EE080BB0EE4B1B00EE091B21EE0E0BBA
:1007E00080EE0A0B20EE0F0BB7EEC00BBCEEC00A7A
:1007F00010EE100A02F06AFE3CEE0DCB013C002C1C
:10080000DED1402101225846B8472021002230463F
:10081000B8470120A847202101223046B8470120CF
:10082000A847202100223046B8470120A847BDEC48
:10083000127B01B0BDE8F08F4AD8124DFB21094070
:1008400000000000000000000000000000407F40A9
:1008500095D626E80B2E1140C000000400FFFFF9DA
:1008600090D0030000000258043D0008003D00083D
:10087000250A000841060008B0B5044600F0DEF87D
:100880009A49621C0978054618BF0C4400F0D6F856
:10089000401BA042FAD3B0BD2DE9FC4F5E4A0A27A7
:1008A0005E4C02444FEAB223A04208BF0927092B3D
:1008B00038BF4FEAB2274FF0000C009701274FF0E6
:1008C000000E00269EE007FA06F912EA090B00F076
:1008D00094804A6802F00308A8F1010ABAF1010FF6
:1008E00013D80324856804FA0EF325EA0303CD68C0
:1008F00005FA0EF52B4383604368C2F3001523EA23
:100900000903B5402B43436004E0B8F1030F4FF0F7
:1009100003041FD0C36804FA0EF5AB438D6805FAD3
:100920000EF52B43B8F1020FC36013D16FF0030231
:1009300002EA560202440CF01C03D2F820800F2574
:100940009D4028EA05080D6905FA03F343EA080308
:1009500013624A68036804FA0EF5AB4302F003051C
:1009600005FA0EF52B4312F4403F036045D0894A47
:1009700013462B4C12680F2542F002021A601A68C7
:1009800002F00202019226F00302019B0CF00C031C
:1009900052F804809D40009F28EA050507FA03F3FA
:1009A0002B4313514FF0B048D8F800204B6842EA6F
:1009B0000B05DF0258BF22EA0B05164A1446C8F899
:1009C00000509F02126842EA0B0558BF22EA0B054D
:1009D0009F0325604FF00107D4F8802042EA0B0501
:1009E00058BF22EA0B05DB03C4F88050E26F42EAED
:1009F0000B0558BF22EA0B05E56701360EF1020E22
:100A00000CF1040C0A6832FA06F47FF45CAFBDE81E
:100A1000FC8F00BF040000580000FEA7002402580D
:100A200008040058002A08BF0904816170470000CB
:100A300001480068000C70470010005C0548006821
:100A4000704700BF2948007802490A6810440860CE
:100A5000704700BF1401002480B5032000F0BCF8EB
:100A600001F024F80F490A68C2F3032209687C4B9D
:100A700001F00F019A5C595C02F01F02D0400A4A53
:100A800001F01F0120FA01F11160194908600F20DF
:100A900000F00CF808B1012080BD00F06DF80020D6
:100AA00080BD00BF184402581000002470B50F4EDE
:100AB0003178C1B104464FF47A70B0FBF1F00C49C3
:100AC0000968B1FBF0F001F005FB0F2C4FF00105B8
:100AD0000AD848B94FF0FF3000222146002500F027
:100AE0005BF8746000E00125284670BD0400002416
:100AF0000C000024B0B50278114D4378002A2B6019
:100B00001AD043686B60037BC17A847A42EA03722D
:100B1000437B42EA0161827B41EAC441C47B41EAF2
:100B20008341437A41EA4241007A41EA044141EA81
:100B3000032141EA400001E000206860A860B0BDE8
:100B400098ED00E0BFF35F8F0A48016821F480311F
:100B5000016000210167704740F001000549086706
:100B6000086840F480300860BFF34F8FBFF36F8F89
:100B7000704700BF24ED00E081B00648016841F0F5
:100B800002010160006800F002000090009801B0CE
:100B9000704700BFF444025880B5154B1B68C3F37F
:100BA000022C8CF0070EBEF1040F28BF4FF0040E8C
:100BB000BCF103034FF0FF3C38BF00230CFA0EFEDC
:100BC00021EA0E0199400CFA03F39A431143BDE860
:100BD000804002F0BFBB00BF05490A684FF6FF0323
:100BE0001A4060F30A22034810430860704700BFB0
:100BF0000CED00E00000FA05B0B5104D296849077A
:100C0000296805D401F00701081A18BF0120B0BDFA
:100C100021F0070108432860FFF710FF044655F84C
:100C2000080C800407D4FFF709FF001BB0F57A7F9A
:100C3000F5D90120B0BD0020B0BD00BF0C4802585E
:100C400080B500F0F3FE0549054A0968C1F30211B9
:100C5000515C01F01F01C84080BD00BF2044025814
:100C6000D83C000810B53C4CA36AA26AC2F3053C0C
:100C7000E26AC2F30012E16BC1F3CC01BCF1000FD8
:100C800011FB02F100EE101AB8EE400A0AD003F090
:100C90000303022B0AD063B9216889060CD49FEDA7
:100CA000311A13E00021C0E9001153E09FED2C1A26
:100CB0000CE09FED2A1A09E021682B4AC1F3C1011B
:100CC00022FA01F101EE101AB8EE411A02EE10CA32
:100CD0009FED263AB8EE422AA16B6FF35F2181EEB9
:100CE000021A02EE101AB8EE422AA16BC1F3462195
:100CF00000EE032AB7EE000A03EE101A32EE002AC5
:100D0000B8EE433A21EE021A33EE002A81EE022AAF
:100D1000BCEEC22A80ED002AA16BC1F3064102EEAF
:100D2000101AB8EE422A32EE002A81EE022ABCEEF8
:100D3000C22A80ED012AA16BC1F3066102EE101AEE
:100D4000B8EE422A32EE000A81EE000ABCEEC00A7A
:100D500010EE101A816010BD004402580024744A3D
:100D600020BCBE4B0024744C0090D003000000391E
:100D700010B53C4CA36AA26AC2F3055CE26AC2F3F6
:100D80000022616CC1F3CC01BCF1000F11FB02F138
:100D900000EE101AB8EE400A0AD003F00303022B4B
:100DA0000AD063B9216889060CD49FED311A13E08B
:100DB0000021C0E9001153E09FED2C1A0CE09FEDDB
:100DC0002A1A09E021682B4AC1F3C10122FA01F174
:100DD00001EE101AB8EE411A02EE10CA9FED263A43
:100DE000B8EE422A216C6FF35F2181EE021A02EE07
:100DF000101AB8EE422A216CC1F3462100EE032AF4
:100E0000B7EE000A03EE101A32EE002AB8EE433AAB
:100E100021EE021A33EE002A81EE022ABCEEC22A2B
:100E200080ED002A216CC1F3064102EE101AB8EEE3
:100E3000422A32EE002A81EE022ABCEEC22A80ED5E
:100E4000012A216CC1F3066102EE101AB8EE422AA3
:100E500032EE000A81EE000ABCEEC00A10EE101A53
:100E6000816010BD004402580024744A20BCBE4B6F
:100E70000024744C0090D003000000392DE9F047A5
:100E80000446C078B04F000722D5A06E4FEA30511B
:100E9000032908D8DFE801F002090F17F96941F4C6
:100EA0000031F9610FE0012613E004F1080002218E
:100EB00001F022FC04E004F12800022101F09CFC76
:100EC000064630B9A06E396C21F4401108433864ED
:100ED00000266078BA46C00701D135462AE0A06DE9
:100EE00004280BD83546DFE800F0030C1218180070
:100EF000F869354640F40030F8610EE0012501271D
:100F000019E004F10800002101F0F6FB04E004F10F
:100F10002800002101F070FC0546002D2F460AD163
:100F2000DAF84000002520F00700A16D0843524682
:100F3000CAF840003746607880072DD5E06D4FEA4B
:100F4000B01004280CD8DFE800F0030E141A1A00C1
:100F5000DAF81C00514640F40030CAF81C000EE0DC
:100F60000125012619E004F10800002101F0C4FB6D
:100F700004E004F12800002101F03EFC0546002DAC
:100F80002E460AD1DAF84000002520F4E070E16D29
:100F900008435246CAF840003E466078400702D4F3
:100FA000B04657462CE0D4F8A80057464FEA705098
:100FB000042809D8DFE800F0030C12181800F869BB
:100FC00040F40030F8610FE001254FF0010817E010
:100FD00004F10800002101F08FFB04E004F1280077
:100FE000002101F009FC0546002DA84608D1B86C87
:100FF000002520F46000D4F8A8100843B046B86477
:10100000607800072CD5D4F8AC004FEA3060042893
:1010100009D8DFE800F0030B11171700F86940F456
:101020000030F8610EE0012501271AE004F1080004
:10103000002101F061FB04E004F12800002101F02F
:10104000DBFB0546002D2F460BD1DAF848000025C2
:1010500020F0E060D4F8AC1008435246CAF84800CB
:101060004746E078800726D5E06C4FEA3010032829
:101070000BD8DFE800F013020D13DAF81C0051461C
:1010800040F40030CAF81C0008E00125012613E0F6
:1010900004F10800022101F02FFB0546002D2E4629
:1010A0000AD1DAF83C00002520F03000E16C08435A
:1010B0005246CAF83C003E466078C0062DD5206EE8
:1010C0004FEA303004280CD8DFE800F0030E141A81
:1010D0001A00DAF81C00514640F40030CAF81C002F
:1010E0000EE00125012719E004F10800002101F0BC
:1010F00003FB04E004F12800002101F07DFB05461C
:10110000002D2F460AD1DAF84000002520F4E040F7
:10111000216E08435246CAF8400037466078800680
:1011200027D5606E4FEA304005280AD8DFE800F086
:1011300014030E14141404F10800012101F0DCFA68
:1011400009E00125012615E01044025804F12800A9
:10115000012101F051FB0546002D2E460AD1DAF897
:101160004000002520F4E020616E08435246CAF892
:1011700040003E466078400627D5D4F8B0004FEADC
:10118000307005280AD8DFE800F012030C121212A2
:1011900004F10800012101F0AFFA07E00125012761
:1011A00014E004F12800012101F026FB0546002D82
:1011B0002F460BD1DAF84800002520F0E040D4F8A3
:1011C000B01008435246CAF8480037466078000617
:1011D00022D5206F98B1B0F1005F0AD0B0F1805FE6
:1011E0002ED1DAF81C00514640F40030CAF81C0039
:1011F00005E004F10800012101F07EFA0546002D0A
:101200002E460AD1DAF84000002520F04050216F28
:1012100008435246CAF840003E46E078C00702D173
:10122000B046574624E0A06C574603280BD8DFE8A9
:1012300000F014020E14F86940F40030F8610CE07C
:1012400001250126E9E701254FF0010810E004F12E
:101250000800022101F050FA0546002DA84607D1EA
:10126000F86B002520F00300A16C0843B046F8633A
:10127000A078400601D4474617E0D7F8F00340F4C1
:101280008070C7F8F003FFF7D9FB0646D7F8F003E4
:10129000C00507D4FFF7D2FB801B6428F6D90325CD
:1012A000032702E0002D2F4612D02078C00750D02F
:1012B000E06F4FEAF000052835D8DFE800F03D0385
:1012C000373D3D3D04F10800012101F015FA32E0FF
:1012D000DAF860105346D4F8B400414011F4407F6E
:1012E0000BD0196E1A6E21F4407142F480321A66E6
:1012F0001A6E22F480321A661966B0F5807F40F0CB
:101300007282FFF79BFB064641F2883903250327CB
:10131000DAF86000800700F16382FFF78FFB801B23
:101320004845F5D9C1E70125012613E004F128005D
:10133000012101F061FA0546002D2E460AD1DAF8A6
:101340004400002520F03800E16F08435246CAF8F7
:1013500044003E462078800723D5A06F05280AD890
:10136000DFE800F012030C12121204F10800012150
:1013700001F0C2F907E00125012713E004F128007C
:10138000012101F039FA0546002D2F460AD1DAF87D
:101390004400002520F00700A16F08435246CAF818
:1013A000440037462078400725D5D4F89400052816
:1013B0000AD8DFE800F012030C12121204F1080040
:1013C000012101F099F907E00125012614E004F15B
:1013D0002800012101F010FA0546002D2E460BD100
:1013E000DAF84800002520F00700D4F894100843EC
:1013F0005246CAF848003E462078800627D5D4F8E1
:1014000090004FEA307005280AD8DFE800F0120398
:101410000C12121204F10800002101F06DF907E02E
:101420000125012714E004F12800022101F0E4F96C
:101430000546002D2F460BD1DAF84400002520F098
:10144000E040D4F8901008435246CAF844003746AA
:101450002078400627D5D4F89C004FEAB020052814
:101460000AD8DFE800F012030C12121204F108008F
:10147000002101F041F907E00125012614E004F103
:101480002800022101F0B8F90546002D2E460BD1A7
:10149000DAF84800002520F4E050D4F89C10084306
:1014A0005246CAF848003E462078000627D5D4F8B0
:1014B000A0004FEA703005280AD8DFE800F01203D8
:1014C0000C12121204F10800002101F015F907E0D6
:1014D0000125012714E004F12800022101F08CF914
:1014E0000546002D2F460BD1DAF84800002520F4E0
:1014F0006040D4F8A01008435246CAF84800374666
:101500002068010717D5D4F88410B1F5805F0AD19F
:1015100004F12800022101F06FF90028206818BFAB
:101520000127D4F88410DAF84420534622F44052BC
:101530001143CAF84410C10617D5D4F89810B1F574
:10154000807F0AD104F12800022101F055F900281A
:10155000206818BF0127D4F89810DAF848205346BD
:1015600022F440721143CAF84810000322D5D4F87F
:10157000A400B0F5003F0FD0B0F5803F06D088BB87
:1015800004F10800002101F0B7F804E004F128009C
:10159000022101F031F90546002D2E460BD1DAF873
:1015A0004800002520F44030D4F8A41008435246E7
:1015B000CAF848003E46A07840072AD5D4F88800EB
:1015C000B0F5401F17D0B0F5001F0ED0B0F5801F4A
:1015D00040F00181DAF81C00514640F40030CAF8AE
:1015E0001C0008E001250126E5E704F1280001219F
:1015F00001F002F90546002D2F460BD1DAF8440020
:10160000002520F44010D4F8881008435246CAF848
:1016100044003746A078C00701D13E4622E0206D45
:10162000B0F5803F08D0D8B9DAF81C00514640F434
:101630000030CAF81C0005E004F10800022101F0A6
:101640005BF80546002D2E460CD1DAF83C0000254B
:1016500020F48030216D08435246CAF83C00DCE794
:10166000012501262168880001D4606809E004F1A1
:101670002800022101F0C0F8002818BF0126D4E993
:1016800000108A031BD5D4F880206FF0010303EB10
:101690003223022B0BD34FEA322343B1012B40F00C
:1016A0009D80DAF81C3043F40033CAF81C303DB991
:1016B000DAF8443023F440731A43CAF8442035461C
:1016C000CA0207D5DAF8402022F00042636F1A43BD
:1016D000CAF84020CA0008D5DAF8002022F4804277
:1016E000D4F8B8301A43CAF800208A0207D5DAF8CD
:1016F000402022F08072E36E1A43CAF840204A006C
:101700000CD5DAF8002022F40042CAF80020D4F800
:10171000BC20DAF800301A43CAF80020B1F1FF3FCC
:1017200007DCDAF83C2022F04052636D1A43CAF815
:101730003C20090208D5DAF8441021F44001D4F81D
:101740008C201143CAF84410C10708D004F10800E6
:10175000002100F0D1FF002818BF0546606881070E
:1017600008D504F10800012100F0C6FF002818BFC9
:1017700005466068410708D504F10800022100F021
:10178000BBFF002818BF05466068010708D504F1B3
:101790002800002101F030F8002818BF05466068D5
:1017A000C10608D504F12800012101F025F8002820
:1017B00018BF05466068800603D44DB10120BDE81E
:1017C000F08704F12800022101F016F82843F5D132
:1017D0000020BDE8F087012501271BE701256FE701
:1017E0005346D4F8B40000F440711A68B1F5407F54
:1017F00022F47C5103D1064A02EA10121143196007
:101800006FF31F30196E00250843186633E500BFDB
:10181000CFFFFF002DE9F843002800F0FE800446CA
:10182000804B186800F00F00884688420BD2186879
:1018300020F00F0040EA08001860186800F00F0060
:10184000404540F0EA802068CF4F41070AD5216922
:10185000BA6902F07002914204D9BA6922F07002AA
:101860001143B96101070AD56169FA6902F0700292
:10187000914204D9FA6922F070021143F961C1065C
:101880000AD5A169FA6902F4E062914204D9FA69C1
:1018900022F4E0621143F96181060AD5E1693A6AEE
:1018A00002F07002914204D93A6A22F070021143A8
:1018B000396281070AD5E168BA6902F00F029142E4
:1018C00004D9BA6922F00F021143B961C10736D0B9
:1018D000B86920F47061D4E9010211430328B961A9
:1018E00005D0022807D1396889030DD495E03968FD
:1018F000890109D491E00128396802D1C90503D4CE
:101900008BE0490740F189803969994621F0070148
:1019100008433861FFF792F8064641F28835386986
:1019200000F038006168B0EBC10F06D0FFF786F811
:10193000801BA842F3D9032070E020684B46810742
:101940000AD5E168BA6902F00F02914204D2BA697D
:1019500022F00F021143B961196801F00F014145EE
:101960000AD9196821F00F0141EA080119601968C4
:1019700001F00F01414550D141070AD52169BA69EB
:1019800002F07002914204D2BA6922F0700211434F
:10199000B96101070AD56169FA6902F070029142E2
:1019A00004D2FA6922F070021143F961C1060AD526
:1019B000A169FA6902F4E062914204D2FA6922F460
:1019C000E0621143F96180060AD5E069396A01F0E5
:1019D0007001884204D2396A21F0700108433862EC
:1019E00000F064F8B969C1F303212F4A515CBB6967
:1019F00003F00F03D25C01F01F0120FA01F102F0A5
:101A00001F00184A21FA00F01060174A06480068C3
:101A10001160BDE8F843FFF749B8012001B0BDE807
:101A2000F08300BF002000520800002480B500F0C1
:101A30003DF80B490A68C2F3032209681A4B01F00A
:101A40000F019A5C595C02F01F0220FA02F201F0C9
:101A50001F00044922FA00F0086003490A6080BDB3
:101A600018440258100000240C00002480B5FFF731
:101A7000DDFF0C490C4A0968C1F30211515C01F009
:101A80001F01C84080BD00BF80B5FFF7CFFF0549EB
:101A9000054A0968C1F30221515C01F01F01C840E9
:101AA00080BD00BF1C440258D83C00083649086974
:101AB000C0F3C20003280CD0022828D048BB086815
:101AC0008006374858BF70470968C1F3C101C84054
:101AD00070478A6A886AC0F3051CCB6A486B03F0BA
:101AE0000103C0F3CC00BCF1000F10FB03F000EECB
:101AF000100AB8EE400A0ED002F00302022A0CD0FF
:101B000072B9086880060ED49FED241A15E02048AB
:101B100070471E487047002070479FED1F1A0CE069
:101B20009FED1C1A09E008681D4AC0F3C10022FAA3
:101B300000F001EE100AB8EE411A02EE10CA9FED55
:101B4000193AB8EE422A086B6FF35F2081EE021A51
:101B500002EE100AB8EE422A086BC0F3462000EEEF
:101B6000032AB7EE000A013032EE000A21EE000A25
:101B700001EE100AB8EE411A80EE010ABCEEC00A6E
:101B800010EE100A704700BF0044025800093D00E3
:101B900040787D010024744A20BCBE4B0024744C64
:101BA0000090D00300000039F8B5002800F0B8819B
:101BB00004460078B04EC00721D12078800740F15C
:101BC000B580306910F03801B06A3CD0182908BFE0
:101BD0005FEA807037D0E068002831685CD021F07F
:101BE000190108433060FEF729FF054630684007B9
:101BF00043D4FEF723FF401B0228F7D9A4E1306944
:101C000000F03801B06A102905D018290AD100F077
:101C10000300022806D130688003CED56068002812
:101C2000CBD17DE16068002847D0B0F5803F06D079
:101C3000B0F5A02F306860D140F48020306030686B
:101C400040F480305FE030684007E06802D500284B
:101C500000F06681316821F0190108433060FEF719
:101C6000EDFE05463068400707D4FEF7E7FE401B4F
:101C700002284FF00300F5D967E1FEF7D9FE41F2E3
:101C80000301884232D820697168402821F47C31F0
:101C900049D141F4003048E021F001003060FEF706
:101CA000CDFE05463068400740D5FEF7C7FE401B15
:101CB00002284FF00300F5D947E1306820F4803066
:101CC0003060306820F480203060FEF7B7FE0546B3
:101CD00041F28837306880037FF56FAFFEF7AEFEC4
:101CE000401BB8424FF00300F4D92EE1706820F099
:101CF000FE40216940EA016017E020F48030306046
:101D0000306820F480203060FEF798FE054641F2EE
:101D10008837306880033FF550AFFEF78FFE401BD9
:101D2000B842F6D910E141EA003070602078C00670
:101D300053D5306900F03801B06A082905D0182958
:101D40000BD100F00300012807D13068C00519D578
:101D5000E069802840F0E48014E0E0690028306801
:101D600027D040F080003060FEF768FE05463068FE
:101D7000C00507D4FEF762FE401B02284FF00300A7
:101D8000F5D9E2E0FEF754FE41F20301884208D89B
:101D9000206A7168202821F0F8411BD141F0804071
:101DA0001AE0F06820F07C50216A40EA0160F0609F
:101DB00013E020F080003060FEF740FE05463068FA
:101DC000C0050AD5FEF73AFE401B02284FF003007B
:101DD000F5D9BAE041EA806070602078000723D529
:101DE00060690028706F0ED040F001007067FEF748
:101DF00025FE0546706F800716D4FEF71FFE401BB8
:101E00000228F7D9A0E020F001007067FEF716FE67
:101E10000546706F800707D5FEF710FE401B0228AD
:101E20004FF00300F5D990E02078800626D5A06910
:101E3000002830680ED040F480503060FEF7FEFD80
:101E400005463068800419D4FEF7F8FD401B0228CF
:101E5000F7D979E020F480503060FEF7EFFD0546B9
:101E6000306880040AD5FEF7E9FD401B02284FF0D8
:101E70000300F5D969E000BF00440258207840070C
:101E800050D4656A002D00F00A81306900F03800F6
:101E900018286BD1B16A012D306B41D001F00302DB
:101EA000A36A9A423CD1C1F30511E26A914237D14B
:101EB0000146226B6FF35F21013A914230D1C0F3AA
:101EC0004621626B013A91422AD1C0F30641A26BCE
:101ED000013A914224D1C0F30660E16B0139884296
:101EE0001ED1706BC0F3CC00A16C814200F0D78092
:101EF000F06A20F00100F062FEF7A0FD0546FEF753
:101F00009DFDA842FBD0706B4FF6F8718843A16C21
:101F100040EAC1007063F06A40F00100F062BEE088
:101F2000012012E0D6F8000440F48070C6F80004E6
:101F3000FEF784FD0546D6F80004C00507D4FEF779
:101F40007DFD401B6428F6D9032001B0F0BDA068D8
:101F500060B3012806D00528306F40F0A28040F021
:101F600004003067306F40F00100A0E0306820F0DE
:101F700080703060FEF762FD022D05460AD13068A0
:101F800080012CD5FEF75AFD401B02284FF00300BC
:101F9000F5D9DAE73068800140F18180FEF74EFD27
:101FA000401B02284FF00300F4D9CEE7306F20F039
:101FB00001003067306F20F004003067FEF73EFD0F
:101FC000054641F28837306F80077FF55AAFFEF73C
:101FD00035FD401BB8424FF00300F4D9B5E7B06AB5
:101FE00040F2F3318843A16A226B0843511E626BB1
:101FF0004FF47E4303EB4222E36A6FF35F2192B218
:1020000040EA0310B0625018A16B4FF4FE0202EBDD
:10201000014101F4FE010844E16B4FF0FE4202EB86
:10202000016101F0FE41084430634FF6F871F06A37
:1020300020F00100F062706B8843A16C40EAC1009F
:102040007063F06A20F00C00216C0843F062F06AC3
:1020500020F00200616C0843F062F06A40F48030C6
:10206000F062F06A40F40030F062F06A40F48020E0
:10207000F062F06A40F00100F062306840F0807079
:102080003060FEF7DBFC04463068800107D4FEF7C1
:10209000D5FC001B02284FF00300F5D955E70020BE
:1020A00053E720F001003067306F20F00400306704
:1020B000FEF7C4FC054641F28837306F80073FF5D4
:1020C000E0AEFEF7BBFC401BB8424FF00300F4D972
:1020D0003BE70000411E0020B0EB116F01D0012052
:1020E0007047044A5160F021034B1970072190603A
:1020F0001160704710E000E023ED00E090F83C2014
:10210000012A4FF0020233D070B50123614E80F8EE
:102110003C3080F83D20026842F480635468B3424A
:10212000936802BF24F470044D682C43B2F1804FD1
:1021300024F070050C6845EA040555600BD04F4C3F
:10214000A2421CBF4E4CA24205D04E4CA2421CBF24
:102150004D4CA2420ED123F080038968194391604F
:102160000121002280F83D1080F83C20BDE870403D
:1021700010467047454CA242EDD0454CA24218BFD4
:10218000B242E8D0ECE700BF60B310B5044690F867
:102190003D0028B9002084F83C00204600F024F8D7
:1021A000022084F83D00211D206800F083FC0120FE
:1021B00084F8480084F83E0084F83F0084F840002A
:1021C00084F8410084F8420084F8430084F8440015
:1021D00084F8450084F8460084F8470084F83D0000
:1021E000002010BD0120704700680849884218BFD0
:1021F000704781B00648016841F020010160006825
:1022000000F020000090009801B0704700140040DA
:10221000E844025890F83D1001291DD1022180F8B0
:102220003D100168B1F1804F0BD0144881421CBFB2
:102230001348814205D0134881421CBF1248814295
:102240000CD18868144A0240062A4FF0000018BFDB
:10225000B2F5803F0BD17047012070470B48814297
:10226000EFD00B488142ECD00A488142E9D008689F
:1022700040F0010008600020704700BF00040040EB
:1022800000080040000C0040001800400000014021
:1022900000400140000401400700010001460068C1
:1022A000026A41F211131A4208D1026A40F2444311
:1022B0001A4203D1026822F00102026001220020CA
:1022C00081F83D20704790F88410012901D1022146
:1022D00012E02421C0F8881002681368116823F006
:1022E000005321F00101116000214166136020229A
:1022F000C0F8882080F8841008467047B0B50446BE
:1023000090F88400012801D10220B0BD012084F89A
:1023100084002420C4F8880020680568026822F040
:1023200001020260826822F06062114381602046EF
:1023300000F0C2FC206805602020C4F8880000205E
:1023400084F88400B0BDB0B5044690F8840001283C
:1023500001D10220B0BD012084F884002420C4F8FB
:10236000880020680568026822F001020260826825
:1023700022F0604211438160204600F09DFC2068FD
:1023800005602020C4F88800002084F88400B0BDD7
:1023900010B5B0B10446D0F8880028B9002084F800
:1023A0008400204600F026F82420C4F88800206825
:1023B000016821F001010160204600F093FD012831
:1023C00001D1012010BDA06A10B1204600F09EFC92
:1023D0002068416821F490414160816821F02A0120
:1023E0008160016841F0010101602046BDE81040B4
:1023F00000F0F0BC10B5B8B0044633A81421FDF7C6
:102400009FFF02A8C021FDF79BFF2068B7498842C3
:102410002AD101200024029002A803942194FEF7FF
:102420002DFD08B1FEF726F98248016941F010013F
:102430000161016901F0100101910199016841F008
:102440000201016033A9006800F0020001900198C8
:102450004FF4404033900220CDE9340404203694F8
:1024600037900248FEF718FA38B010BD0004025841
:10247000FEE70000F8B5714C04F580556E4F4FF43F
:102480008051002228460026B8474FF40061002200
:102490002846B8474FF4806100222846B84704F523
:1024A0008065042100222846B8478021002220466A
:1024B000B8474FF4806101222846B8470520FEF74F
:1024C000BFF84FF4806100222846B847402100221F
:1024D0002046B847032001F023F8094D04E0A8196D
:1024E000007A01F01DF80136042EF8D140210122B6
:1024F0002046FEF797FABDE8F84000F057BB00BF52
:10250000140000242DE9F04F87B000204A4C0690BB
:10251000484800220168494D41F08001016001688E
:1025200001F0800101910199016841F00101016010
:10253000016801F0010101910199016841F0040174
:102540000160016801F0040101910199016841F005
:1025500002010160016801F0020101910199016825
:1025600041F010010160C021006800F010000190EE
:1025700001982846A04705F5006630210022304624
:10258000A04705F5806040F2054100900022A04779
:1025900005F5805A4FF4705100225046A047402064
:1025A000274C02904FF0010B0020CDF80CB002AF89
:1025B000CDE9040028463946A0478020CDE9020B2A
:1025C0004FF002094FF00308CDF810902846CDF8DF
:1025D00014803946A0471020CDE9020B0020CDE938
:1025E0000400304639460025A0472020CDE9020BE3
:1025F00030463946CDE90498A04740F20540CDE980
:10260000020BCDE9049800983946A0474FF470506A
:10261000CDE9020B50463946CDE90498A0474FF466
:102620008040CDE90205504604953946A04707B0E1
:10263000BDE8F08FE0440258250A00080000025867
:10264000990800081FB500240D480E49772203940D
:10265000CDE90144C0E900124FF6FF71C0E9024123
:102660008461FFF791FD08B1FEF704F8044801A961
:1026700001940394FFF742FD08B1FDF7FBFF1FBD76
:10268000340000240014004010B5174C17484FF4D4
:10269000E13120600020C4E901100C21E060C4E9B0
:1026A000040104F118001421FDF74AFE2046FFF74B
:1026B0006FFE08B1FDF7DEFF0B480021FFF743FE78
:1026C00008B1FDF7D7FF08480021FFF717FE08B152
:1026D000FDF7D0FF0448FFF7F6FD18B1BDE8104044
:1026E000FDF7C8BF10BD00BF8000002400100140EE
:1026F000FEE7FEE770470000F8B5E64FBA6A02F061
:102700000302032A01D1012074E00546386820F055
:1027100080600C463860FEF791F906463868000183
:1027200005D5FEF78BF9801B0228F7D95FE0B86A60
:102730004FF47E43696820F47C30AA68013903EBCA
:1027400042222B686FF35F2192B240EA03301144BA
:10275000EA684FF4FE03B86203EB024202F4FE02A1
:10276000881829694FF0FE4202EB016101F0FE4139
:102770000844B863002CF86A20F0C000696940EA98
:102780000100F862F86A20F02000A96940EA01001F
:10279000F8624FF6F871F86A20F01000F862F86BF2
:1027A00020EA0100E96940EAC100F863F86A40F0F4
:1027B0001000F86205D0012CF86A06D140F48010B0
:1027C00005E0F86A40F4002001E040F40010F862EF
:1027D000386840F080603860FEF730F904463868A9
:1027E000000106D4FEF72AF9001B0328F7D30320C3
:1027F00000E0002001B0F0BDF8B5A64FBA6A02F0C3
:102800000302032A01D1012074E00546386820F054
:1028100080500C463860FEF711F906463868800093
:1028200005D5FEF70BF9801B0228F7D95FE0B86ADF
:102830004FF47E43696820F07C70AA68013903EB8D
:1028400042222B686FF35F2192B240EA0350114499
:10285000EA684FF4FE03B86203EB024202F4FE02A0
:10286000881829694FF0FE4202EB016101F0FE4138
:1028700008443864002CF86A20F44060696940EA32
:102880000100F862F86A20F40070A96940EA0100CA
:10289000F8624FF6F871F86A20F48070F862786C8C
:1028A00020EA0100E96940EAC1007864F86A40F46E
:1028B0008070F86205D0012CF86A06D140F400005F
:1028C00005E0F86A40F4800001E040F08070F862B2
:1028D000386840F080503860FEF7B0F80446386839
:1028E000800006D4FEF7AAF8001B0328F7D30320C4
:1028F00000E0002001B0F0BD7047FEF7A3B8000073
:10290000B0B59CB009A83B4C3B4D4C21FDF718FDE0
:1029100001A82021FDF714FD0220FEF76DF900202B
:102920000090286820F001002860286800F001006D
:102930000090206840F440402060206800F440404F
:102940000090009820688004FCD52C48215841F064
:1029500002012150205800F0020000900098002051
:102960000090206840F440402060206800F440401F
:102970000090286840F001002860286800F00100FD
:102980000090009820688004FCD5012009904FF445
:1029900080300A9002200521CDE912001491C02157
:1029A000CDE91510CDE9170008240025199409A8D0
:1029B000CDE91A55FFF7F8F818B1EFF3108072B6A9
:1029C000FEE73F2001900320CDE90205402004945A
:1029D0004FF48061CDE90500CDE9071001A804217D
:1029E000FEF718FF18B1EFF3108072B6FEE71CB0C7
:1029F000B0BD00BF184802582C040058DCFCFFFF93
:102A000023480168214A41F470010160106800F018
:102A10000F00062804D81068072161F30300106036
:102A200010B51C4801681C4C41F0010101600021F7
:102A3000016103682340036013681B0704D5136812
:102A4000072464F303031360144A8161C1610162C6
:102A50008262134AC262134A026341638263C163A2
:102A600002644164026822F48022026001660E481A
:102A70000068B1EB507FBDE8104002D101200B4946
:102A8000086043F2D2000A490860704700200052F3
:102A900088ED00E0004402587FEDF6EA00020202F1
:102AA0000000FF01800201010010005C088100515C
:102AB00000400052F0B5B0F1804F0368334A05D0B2
:102AC000334CA0421CBF334CA04234D123F07003DE
:102AD0004C68234302F58044041BB4FA84F44FEAA3
:102AE000541C02F58844041BB4FA84F44FEA541EC3
:102AF00002F59044041BB4FA84F4640923F440738F
:102B0000CD682B4323F080034E690D6833438F68F3
:102B1000002C0360C762856208BFBEF1000F05D1BB
:102B200090421CBF02F5806290422BD1096901637B
:102B300001214161F0BD184CA042C7D0174CA04202
:102B400018BF9042C2D002F58044154D041BB4FA60
:102B500084F44FEA541C02F58844041BB4FA84F44C
:102B60004FEA541E02F59044041BB4FA84F4A842C0
:102B70004FEA5414C2D00B4DA842BFD00A4DA84210
:102B8000BCD0BFE7BCF1000FD2D0CFE700000140BE
:102B90000004004000080040000C00400004014018
:102BA000004001400048014000440140F8B53F4C5E
:102BB0004021002220460026FDF734FF002000F0CF
:102BC000AFFC244D03E0A85D00F0AAFC0136042E02
:102BD000F9D1402101222046FDF724FF40210022A7
:102BE00020460026FDF71EFF012000F099FC1A4F39
:102BF00003E0B85D00F094FC0136042EF9D14021C9
:102C000001222046FDF70EFF40210022204600262B
:102C1000FDF708FF022000F083FC04E0A81900790A
:102C200000F07EFC0136042EF8D14021214D012216
:102C30002046A84704F50064202101222046A84729
:102C4000202100222046A8470120BDE8F840FDF7DA
:102C500013BE00BF140000243000002470B5134CD4
:102C60004021002220460025FDF7DCFE0E2000F06A
:102C700057FC0F4E03E0705D00F052FC0135082D4B
:102C8000F9D140210B4D01222046A84704F50064EC
:102C9000202101222046A847202100222046A847C3
:102CA0000120BDE87040FDF7E7BD00BF00000258FD
:102CB00024000024250A0008416ED9B180B50168BE
:102CC0008A68C2F342628968490FDFF838C01CF88D
:102CD0000130DFF834E01EF801101B01B3FBF1F105
:102CE0001CF802301EF802201B01B3FBF2F2BDE813
:102CF000804001E001210122A0F86A10A0F86820BC
:102D0000704700BF103D0008183D0008816ACA07DF
:102D100008D00268D0F82CC0536823F4003343EA8B
:102D20000C0353608A0708D50268D0F830C0536896
:102D300023F4803343EA0C0353604A0708D5026842
:102D4000D0F834C0536823F4802343EA0C03536063
:102D50000A0708D50268D0F838C0536823F4004346
:102D600043EA0C035360CA0608D50268D0F83CC099
:102D7000936823F4805343EA0C0393608A0608D5D2
:102D80000268D0F840C0936823F4005343EA0C0370
:102D900093604A0612D50268D0F844C05368BCF567
:102DA000801F23F4801343EA0C03536006D1536859
:102DB00023F4C00C836C43EA0C035360090658BF2C
:102DC00070470168C06C4A6822F4002210434860D2
:102DD00070470000BCB500210446C0F89010FDF714
:102DE0002DFE216805460A68120718D525484FF4BC
:102DF00000110090002220462B4600F041FA68B1F5
:102E0000206850E8000F216820F0800041E80002AF
:102E1000002AF5D12020C4F8880024E02168086841
:102E2000400722D517484FF4800100900022204629
:102E30002B4600F025FAC0B1206850E8000F216849
:102E400020F4907041E80002002AF5D1206850E893
:102E5000020F216820F0010041E80202002AF5D1AA
:102E60002020C4F88C00032007E02020C4F888004C
:102E7000C4F88C000020E0662067002184F88410EC
:102E800002B0B0BDFFFFFF01016851E8001F0268FA
:102E900021F4907142E80013002BF5D110B5104CCD
:102EA000026852E8022F0368224043E80221002909
:102EB000F6D1C16E0129BDE8104009D1016851E881
:102EC000001F026821F0100142E80013002BF5D129
:102ED0002021C0F88C100021C1664167704700BFF7
:102EE000FEFFFFEFFEB50446006804F108038D4DB8
:102EF0008B4E0ECB194363690B43E16907680B43A3
:102F00002F409D4D3B430360A842436823F4405348
:102F100042EA03024260A2691CBF236A1A43836823
:102F20003340964E1A438260B042C26A944E22F0F9
:102F30000F03626A43EA0203C36228D0914B9842AE
:102F400032D0914B98423CD0904B984246D0904B17
:102F5000984200F050808F4B984200F05880A84271
:102F600000F061808C4B984200F069808B4B984256
:102F700040F07B80736DB446C3F3C206052E00F2A9
:102F800075800123DFE806F07367696B6D6F736D01
:102F9000B44603F00706052E00F268800023DFE840
:102FA00006F0665A5C5E6062736DB44603F0070615
:102FB000052E00F25B800023DFE806F0594D4F51EB
:102FC0005355736DB44603F00706052E00F24E808C
:102FD0000023DFE806F04C4042444648736DB44697
:102FE00003F00706052E00F241800023DFE806F01B
:102FF0003F333537393B736DB44603F00706052E72
:1030000034D80023DFE806F03327292B2D2F736DEA
:10301000B44603F00706052E28D80023DFE806F0A3
:10302000271B1D1F2123B36DB44603F00706052E91
:103030001CD80223DFE806F01B0F11131517736D60
:10304000B446C3F3C206052E10D80123DFE806F00C
:103050000F030507090B042309E0082307E01023E9
:1030600005E0202303E0402301E0B4468023A8428A
:103070007F4810D0B1F5004F1DD1082B4FF0010152
:1030800027D8DFE803F0058DD5D590D5D5D59400A8
:10309000FEF7ECFC8FE0402B32D0042B33D0082B12
:1030A00035D0102B40D0202B48D0022B40F0BF80D1
:1030B000FDF7C6FD2FE0082B4FF0010114D8DFE823
:1030C00003F00594B7B797B7B7B79B00FEF7CEFCF0
:1030D00096E0102B00F0B580202B6ED0402B40F0F6
:1030E000A7804FF4004068E0102B00F0B580202B43
:1030F00000F08880402B40F09B804FF4004081E03E
:103100004FF400401AE06846FDF7ACFD02E0684667
:10311000FDF72EFE0198002800F08780626A0DE01E
:10312000FFF4FF11F369FFCFDCF80000654680066D
:10313000504803D52968C1F3C101C8404E4931F850
:1031400012106268B0FBF1F002EB420188424FF0CE
:1031500001016DD3130398426AD8010E000210EBEF
:10316000520041F100010023FDF7B2F8A0F54071D3
:10317000424A914257D95AE0000C0058004400409E
:103180000044025800480040004C004000500040FD
:1031900000780040007C0040001401400010014015
:1031A000FEF772FC07E06846FDF75CFD02E068464A
:1031B000FDF7DEFD0198C0B3626A2F4931F81210A5
:1031C000B0FBF1F061684A0802EB4000B0FBF1F09F
:1031D0004FF6EF72A0F11001914228D84FF6F0712E
:1031E000C0F34202084010441DE0FEF74DFC07E02A
:1031F0006846FDF737FD02E06846FDF7B9FD019826
:1032000098B1626A1C4931F812104FF6EF72B0FBA8
:10321000F1F0616800EB5100B0FBF1F0A0F110019A
:10322000914204D880B22168C860002100E00121E9
:103230004FF00110A0660020C4E91D00084603B04D
:10324000F0BDDCF80000654680060A48B5D529685F
:10325000C1F3C101C840B0E7DCF800006546800654
:103260000448CFD52968C1F3C101C840CAE700BFEF
:1032700000093D000090D003E83C0008FFFC0F006F
:103280002DE9F843DDF82090984616460F4604468F
:10329000006809F10105C1693940C91BB1FA81F122
:1032A0004909B14225D1002DF5D0FDF7C7FBB9F191
:1032B000000F01464FF003001CD0A1EB0801494567
:1032C00018D8206801684907E5D5C169090714D4F1
:1032D000C1690905DFD54FF4006101622046FFF79F
:1032E000D3FD2020C4F89000002084F8840003203F
:1032F00000E0002001B0BDE8F0830825056220460B
:10330000FFF7C2FD0020C4F8905084F8840001202B
:10331000F0E7FEE70000000000EE100A43F6FF7041
:103320009FED091BB8EE400B20EE010BBCEEC00B6D
:1033300010EE101A814238BF084605494870000A4D
:103340000870FFF78BBC00BFCAB1AB7FC6343940F1
:103350002400002400F00F02554B1A44044BB0F136
:10336000FF3F4FEA0111C8BFC2181170704700BF7C
:1033700000E400E084B001264D4D0096FDF7E2FB2D
:103380004FF010504D4F01904A486C4602904A4809
:1033900003902046B8474FF040508DF801600190EF
:1033A00010208DF808004FF000082046ADF80E8080
:1033B000B8470220424E8DF8010020460196B847DA
:1033C00003208DF8010006F5003001900E208DF8E5
:1033D00008002046B84704208DF801004FF06050E7
:1033E00001900F208DF808002046B8470420FDF713
:1033F000B3FB2868800311D4BFF34F8FBFF36F8FE7
:10340000C5F83C82BFF34F8FBFF36F8F286840F43D
:1034100000302860BFF34F8FBFF36F8F2868C00361
:1034200026D40020286743F6E07CBFF34F8FE96E77
:10343000C1F34E30C1F3C901CC438E070CEA4017EB
:103440003246214642EA07030131C5F84C3202F107
:103450004042F7D10028A0F10100EFD1BFF34F8F18
:10346000286840F480302860BFF34F8FBFF36F8F20
:10347000FDF7F2FAFFF744FAFFF744F8FFF7E2F836
:10348000FFF702F9FEF7F6FF6420FFF745FFFCF7B0
:10349000C7FFFDF731F80B48FDF77EF844F62060D2
:1034A000094A0421FDF7ECF8FCF786FFFEE700BFB0
:1034B00014ED00E01200010300000101F50A00080C
:1034C00000000230005A620200093D002DE9F0417F
:1034D00080462A4D1021002228460027FDF7A2FA37
:1034E0004FF00044A5F5806615E0012114EA080FAD
:1034F00001D0012200E000223046FDF793FA1021AE
:1035000001222846FDF78EFA102100222846640881
:10351000FDF788FA01371F2FE7D9BDE8F08100BF1A
:103520002DE9F0418046154D102100222846FDF777
:1035300079FA80270824A5F580661BE01021002277
:103540002846FDF76FFA0120FDF77AF8012117EA06
:10355000080F01D0012200E000223046FDF762FA98
:103560000120FDF76DF8102101222846FDF75AFAD7
:103570007F08013C002CE1D1BDE8F0810008025831
:1035800003B401984100009850EAC12018BF0420FC
:103590004A0D18BF40F0010040F2FF72B2EB515FDC
:1035A00008BF40F00200012808BF052002B07047A4
:1035B00010B529499FED261B2DED020B84B005980F
:1035C00020F000408842D8BF9DED040B2DDD23493B
:1035D000884209D1049840B94FF0010000F0D8FAB0
:1035E00000F0AEFA06B010BD05DB9DED040B30EE29
:1035F000000B06B010BD68469DED040B00F030F8DE
:1036000010F0030004BF9DED021B9DED000B0CD0DC
:1036100001280ED09DED021B9DED000B022810D05D
:10362000012000F03DFA06B010BD00F09DF906B093
:1036300010BD9DED021B9DED000B012000F030FA46
:1036400001E000F091F9B1EE400B06B010BD0000B2
:103650000000000000000000FB21E93F0000F07FB7
:103660002DE9F14F04462DED020B2DED048B94B0A6
:103670009FED9D0B80ED020B199E9D4826F00045A5
:1036800085420ADC9DED180B002084ED000B14B080
:10369000BDEC048B03B0BDE8F08F96489FED969B80
:1036A0009FED978BA84225DD97489FED991B9FEDD5
:1036B0009A2B9DED180B002E0DDD30EE490B854247
:1036C00012BF30EE480B30EE410B30EE420B84ED72
:1036D000000B0120DBE730EE090B854212BF30EE14
:1036E000080B30EE010B30EE020B84ED000B4FF0B7
:1036F000FF30CCE78A48A84253DB9DED180B51EC14
:10370000100B00F04BFA41EC100BB0EE401B9FED9C
:10371000862BB6EE000B01EE020BFDEEC00B10EE99
:10372000903A00EE903AB8EEE02BB0EE410B02EE8C
:10373000490B22EE081BDFF8F8C1290D0120FC44DB
:1037400030EE411B84ED001B03281DD011EE902AA2
:1037500000EB4015113DC2F30A528A1A954213DA62
:10376000B0EE403B0CEB001292ED000B20EE021B82
:1037700033EE410B33EE403B33EE411B92ED023B07
:1037800012EE031B401CDBE7002EA8BF1846BFF655
:103790007EAF94ED000BB1EE400B84ED000B584270
:1037A00075E7C6F3130040F4801EC6F30A50A0F27A
:1037B000F530471100F01F05C5F12000DDF860B0BD
:1037C000139000200890099005200DF1080C59492C
:1037D000002D07EB0002794408BF51F8221009D0F0
:1037E00051F8223001EB8201AB404A68139922FA6A
:1037F00001F11943A1FB0E26A1FB0B131A449A42B7
:1038000034BF0123002303EB06080CEB8003D3E94C
:1038100001A60E448E4234BF0121002192448A4405
:1038200011B1924502D903E0924501D2012100E095
:103830000021C3E901A641444CF82010011EA0F16B
:103840000100C4DC04989DED050A00F10050810FD1
:103850000498DDED060A80009DED072A01EE100AAE
:10386000B8EEC13BB8EE401B9FED334B21EE041B7D
:10387000B8EE600B9FED324B20EE040BB8EE422BFE
:103880009FED314B22EE042B30EE024B34EE014B18
:1038900034EE034B8DED004B002000909DED004B6E
:1038A00034EE433B33EE411B31EE400B32EE401B16
:1038B0009DED000B9FED262B20EE020B9FED262B9E
:1038C00001EE020B9DED001B9FED252B01EE020B7F
:1038D000199810F0004F1CBF4942B1EE400B84ED27
:1038E000000B0846D3E600000000000000000000C6
:1038F000FB21E93F7CD9024000004054FB21F93F05
:103900003163621A61B4D03DFB21F93F0000000031
:103910000000601A61B4D03D7370032E8A19A33B76
:10392000FB2139410000000083C8C96D305FE43FCE
:10393000A60400003E040000000000000000103E4D
:10394000000000000000103C000000000000103AE1
:103950003326A611460B113C182D4454FB21F93D8A
:1039600000000054FB21F93D10B52DED040B2DEDA9
:10397000048B82B0B0EE419B079820F00044B4F174
:10398000795F0FDA9DED060BBDEEC00B10EE100A4D
:10399000002801BFB7EE000B02B0BDEC048B04B0F1
:1039A00008BF10BD9DED060B20EE008BB0EE480B5E
:1039B0001B480621784400F039F820EE080B28EE69
:1039C000000B9DED061B01EE490BB6EE001B28EE29
:1039D000011B1448B7EE002B8442BCBF31EE400BF4
:1039E00032EE400B16DB1048A042BCBFB5EE023BE6
:1039F0008DED003B06DBA4F5001001900020009047
:103A00009DED003B31EE431B32EE432B31EE400B7C
:103A100032EE400B02B0BDEC048B04B010BD0000D0
:103A2000000200003333D33F0000E93FB0EE401BFB
:103A3000491E00EBC10292ED000B31F006020DD0E1
:103A4000491E00EBC10292ED002BB0EE403BB0EE00
:103A5000420B03EE010B31F00602F1D1022914D022
:103A600004290AD0062918BF704790ED0A2B00EEF2
:103A7000012B90ED080B02EE010B90ED062B00EEF2
:103A8000012B90ED040B02EE010B90ED022B00EEEA
:103A9000012B90ED000B02EE010B704700000000BF
:103AA00031B504462DED040B2DED068BB0EE419B98
:103AB00007989DED060B20F00040B0F1795F0DDA1C
:103AC00051EC100BFFF75CFD042808BF00F044F830
:103AD0009DED060BBDEC068B05B030BD20EE008BD6
:103AE00028EE00ABB0EE480B114805217844FFF7F3
:103AF0009DFF9FED111B8CB1B6EE002B29EE022B22
:103B00000AEE402B18EE029B0AEE419B9DED060B40
:103B100030EE490BBDEC068B05B030BD08EE001B46
:103B20009DED060B0AEE010BBDEC068B05B030BD1A
:103B3000C001000000000000495555555555C5BF4E
:103B40009FED031B81EE010B704700000000000099
:103B500000000000000000009FED030B20EE000BB2
:103B6000704700000000000000000000000000108E
:103B700002E008C8121F08C1002AFAD17047704736
:103B8000002001E001C1121F002AFBD17047000094
:103B900001490860704700000000002482B0CDE9B0
:103BA000000121F0004001909DED000B02B051ECAE
:103BB000100B7047000000004C5555555555A53F5A
:103BC0007751C1166CC156BF9015CB19A001FA3EB2
:103BD000AD529C804F7E92BEC4B1B4BD9EEE213EDC
:103BE000D43888BEE9FAA8BD00004054FB21F93F53
:103BF0003163621A61B4D03D0000601A61B4D03DF7
:103C00007370032E8A19A33B0000002E8A19A33B70
:103C1000C14920259A837B39000000000000000084
:103C20006E83F9A22915444ED15727FCC0DD34F527
:103C3000999562DB4190433CAB6351FE61C5BBDEAD
:103C40003A6E24B7E0D24D42EA2E49061C92D109C1
:103C50001CEB1DFE3EA729B1F53582E88444BB2E3E
:103C600026709CE9417E5FB439D69139F43953838B
:103C70008B5F849C3B28F9BDFF97F81F0F9805DEEA
:103C80008B112FEF1F6D0A5ACF7E366DB709CB27E8
:103C9000663F464F2DEA5F9EC7BA27757BF1E5EB7D
:103CA000F739073DEA92528AB15FFB6B085D8D1FC1
:103CB000A6F810111111813FD561C119A0012ABFC9
:103CC0007DFEB157E31DC73EEB9C2B8AE6E55ABE4D
:103CD0007CD5CF5A3AD9E53D00000000010203042B
:103CE000010203040607080901000200040006009F
:103CF00008000A000C0010002000400080000001B5
:103D0000004008200040000080400000C04000004B
:103D10000101010307010000080402040801010178
:103D2000403D00080000002430000000703B000807
:103D3000703D000830000024E8040000803B0008CB
:103D40000000000001000000100000000090D003FF
:103D50000090D00300400000050F41320000007FBA
:103D60000000A7C63FFF000025097B4200000000BD
:040000050800029954
:00000001FF
