:020000040800F2
:1000000048750024AD020008B722000861210008ED
:10001000B5220008B9030008F72D00080000000011
:10002000000000000000000000000000BD240008E7
:10003000BB03000800000000B9220008BF2400082C
:10004000C7020008C7020008C7020008C70200086C
:10005000C7020008C7020008C7020008C70200085C
:10006000C7020008C7020008C7020008C70200084C
:10007000C7020008C7020008C7020008C70200083C
:10008000C7020008C7020008C7020008C70200082C
:10009000C7020008C7020008C7020008C70200081C
:1000A000C7020008C7020008C7020008C70200080C
:1000B000C7020008C7020008C7020008C7020008FC
:1000C000C7020008C7020008C7020008C7020008EC
:1000D000C7020008C7020008C7020008C7020008DC
:1000E000C7020008C702000800000000C70200089D
:1000F000C7020008C7020008C7020008C7020008BC
:10010000C7020008C7020008C7020008C7020008AB
:10011000C7020008C7020008C7020008C70200089B
:10012000C7020008C7020008C7020008C70200088B
:10013000C7020008C7020008C7020008C70200087B
:1001400000000000000000000000000000000000AF
:10015000C7020008C7020008C7020008C70200085B
:10016000C7020008C7020008C7020008C70200084B
:10017000C7020008C7020008C7020008000000000C
:10018000C7020008C7020008C7020008C70200082B
:10019000C7020008C7020008C7020008C70200081B
:1001A000C7020008C7020008C7020008C70200080B
:1001B000C7020008C7020008C7020008C7020008FB
:1001C000C7020008C7020008C7020008C7020008EB
:1001D000C7020008C7020008C7020008C7020008DB
:1001E000C7020008C7020008C7020008C7020008CB
:1001F000C7020008C7020008C7020008C7020008BB
:10020000C7020008C7020008C7020008C7020008AA
:10021000C7020008C702000879260008C7020008C4
:10022000C7020008C7020008C7020008000000005B
:10023000C7020008C702000800000000C70200084B
:10024000C7020008C7020008C7020008C70200086A
:10025000C7020008C7020008C7020008C70200085A
:10026000C7020008C7020008C7020008C70200084A
:10027000C7020008C7020008C7020008000000000B
:10028000C7020008C7020008C702000800000000FB
:1002900000000000C7020008DFF80CD000F07AF878
:1002A00000480047192E000848750024064880477A
:1002B00006480047FEE7FEE7FEE7FEE7FEE7FEE74B
:1002C000FEE7FEE7FEE7FEE7C52500089902000805
:1002D0002DE9F05F0546002092469B46884606467B
:1002E000814640241BE0284641464746224600F00E
:1002F00041F853465A46C01A914110D31146184648
:10030000224600F028F82D1A67EB01084F462246D6
:100310000120002100F01FF817EB00094E41201EBC
:10032000A4F10104DFDC484631462A464346BDE8D5
:10033000F09FD2B201E000F8012B491EFBD27047BA
:100340000022F6E710B513460A4604461946FFF7A1
:10035000F0FF204610BD202A04DB203A00FA02F10B
:10036000002070479140C2F1200320FA03F31943A3
:1003700090407047202A04DB203A21FA02F0002145
:10038000704721FA02F3D040C2F1200291400843A5
:1003900019467047064C074D06E0E06840F001033F
:1003A00094E8070098471034AC42F6D3FFF778FF83
:1003B000A82F0008C82F0008FEE77047EFF3108051
:1003C00072B6FEE72DE9FC4F5E4A0A275E4C0244F6
:1003D0004FEAB223A04208BF0927092B38BF4FEAD2
:1003E000B2274FF0000C009701274FF0000E0026B7
:1003F0009EE007FA06F912EA090B00F094804A68B9
:1004000002F00308A8F1010ABAF1010F13D803247E
:10041000856804FA0EF325EA0303CD6805FA0EF5A4
:100420002B4383604368C2F3001523EA0903B540F8
:100430002B43436004E0B8F1030F4FF003041FD0D7
:10044000C36804FA0EF5AB438D6805FA0EF52B432D
:10045000B8F1020FC36013D16FF0030202EA560233
:1004600002440CF01C03D2F820800F259D4028EA9E
:1004700005080D6905FA03F343EA080313624A68A5
:10048000036804FA0EF5AB4302F0030505FA0EF516
:100490002B4312F4403F036045D0894A13462B4C4E
:1004A00012680F2542F002021A601A6802F0020276
:1004B000019226F00302019B0CF00C0352F8048019
:1004C0009D40009F28EA050507FA03F32B431351CB
:1004D0004FF0B048D8F800204B6842EA0B05DF0225
:1004E00058BF22EA0B05164A1446C8F800509F026E
:1004F000126842EA0B0558BF22EA0B059F032560EC
:100500004FF00107D4F8802042EA0B0558BF22EAD9
:100510000B05DB03C4F88050E26F42EA0B0558BFBD
:1005200022EA0B05E56701360EF1020E0CF1040C10
:100530000A6832FA06F47FF45CAFBDE8FC8F00BFB6
:10054000040000580000FEA70024025808040058C8
:10055000002A08BF09048161704700000148006853
:10056000000C70470010005C05480068704700BF31
:100570002948007802490A6810440860704700BFA3
:100580004001002480B5032000F0CAF801F032F8E1
:100590000F490A68C2F303220968834B01F00F0177
:1005A0009A5C595C02F01F02D0400A4A01F01F0118
:1005B00020FA01F11160194908600F2000F00CF8D1
:1005C00008B1012080BD00F06DF8002080BD00BFA3
:1005D000184402580C00002470B50F4E3178C1B198
:1005E00004464FF47A70B0FBF1F00C490968B1FB96
:1005F000F0F001F00FFB0F2C4FF001050AD848B9BD
:100600004FF0FF3000222146002500F069F87460A9
:1006100000E00125284670BD0000002408000024E9
:10062000B0B50278114D4378002A2B601AD0436888
:100630006B60037BC17A847A42EA0372437B42EAAD
:100640000161827B41EAC441C47B41EA8341437A30
:1006500041EA4241007A41EA044141EA032141EA88
:10066000400001E000206860A860B0BD98ED00E0A7
:10067000BFF35F8F0A48016821F4803101600021D7
:100680000167704740F0010005490867086840F4B9
:1006900080300860BFF34F8FBFF36F8F704700BF8C
:1006A00024ED00E081B00648016841F002010160DC
:1006B000006800F002000090009801B0704700BF91
:1006C000F4440258002808DB00F01F01012202FA5E
:1006D00001F1024A400942F82010704700E100E0B1
:1006E00080B5154B1B68C3F3022C8CF0070EBEF1CE
:1006F000040F28BF4FF0040EBCF103034FF0FF3C82
:1007000038BF00230CFA0EFE21EA0E0199400CFAC4
:1007100003F39A431143BDE8804002F06DBB00BF74
:1007200005490A684FF6FF031A4060F30A2203489E
:1007300010430860704700BF0CED00E00000FA05B0
:10074000B0B5104D29684907296805D401F00701A3
:10075000081A18BF0120B0BD21F007010843286026
:10076000FFF702FF044655F8080C800407D4FFF792
:10077000FBFE001BB0F57A7FF5D90120B0BD00204B
:10078000B0BD00BF0C48025880B500F0F3FE05492B
:10079000054A0968C1F30211515C01F01F01C8400C
:1007A00080BD00BF204402586E2F000810B53C4C9D
:1007B000A36AA26AC2F3053CE26AC2F30012E16BCB
:1007C000C1F3CC01BCF1000F11FB02F100EE101AD5
:1007D000B8EE400A0AD003F00303022B0AD063B933
:1007E000216889060CD49FED311A13E00021C0E97D
:1007F000001153E09FED2C1A0CE09FED2A1A09E03E
:1008000021682B4AC1F3C10122FA01F101EE101A4D
:10081000B8EE411A02EE10CA9FED263AB8EE422A0F
:10082000A16B6FF35F2181EE021A02EE101AB8EE8F
:10083000422AA16BC1F3462100EE032AB7EE000A5B
:1008400003EE101A32EE002AB8EE433A21EE021AF5
:1008500033EE002A81EE022ABCEEC22A80ED002A85
:10086000A16BC1F3064102EE101AB8EE422A32EE35
:10087000002A81EE022ABCEEC22A80ED012AA16B79
:10088000C1F3066102EE101AB8EE422A32EE000AF7
:1008900081EE000ABCEEC00A10EE101A816010BD95
:1008A000004402580024744A20BCBE4B0024744CFF
:1008B0000090D0030000003910B53C4CA36AA26A36
:1008C000C2F3055CE26AC2F30022616CC1F3CC01A1
:1008D000BCF1000F11FB02F100EE101AB8EE400A55
:1008E0000AD003F00303022B0AD063B921688906FA
:1008F0000CD49FED311A13E00021C0E9001153E040
:100900009FED2C1A0CE09FED2A1A09E021682B4A72
:10091000C1F3C10122FA01F101EE101AB8EE411A39
:1009200002EE10CA9FED263AB8EE422A216C6FF310
:100930005F2181EE021A02EE101AB8EE422A216CF3
:10094000C1F3462100EE032AB7EE000A03EE101AA7
:1009500032EE002AB8EE433A21EE021A33EE002AB4
:1009600081EE022ABCEEC22A80ED002A216CC1F37E
:10097000064102EE101AB8EE422A32EE002A81EE4B
:10098000022ABCEEC22A80ED012A216CC1F3066165
:1009900002EE101AB8EE422A32EE000A81EE000A88
:1009A000BCEEC00A10EE101A816010BD004402585F
:1009B0000024744A20BCBE4B0024744C0090D00329
:1009C000000000392DE9F0470446C078B04F000719
:1009D00022D5A06E4FEA3051032908D8DFE801F094
:1009E00002090F17F96941F40031F9610FE001269E
:1009F00013E004F10800022101F060FC04E004F1BE
:100A00002800022101F0DAFC064630B9A06E396CEC
:100A100021F440110843386400266078BA46C007C4
:100A200001D135462AE0A06D04280BD83546DFE811
:100A300000F0030C12181800F869354640F4003035
:100A4000F8610EE00125012719E004F108000021FA
:100A500001F034FC04E004F12800002101F0AEFCB8
:100A60000546002D2F460AD1DAF84000002520F077
:100A70000700A16D08435246CAF840003746607827
:100A800080072DD5E06D4FEAB01004280CD8DFE8C0
:100A900000F0030E141A1A00DAF81C00514640F454
:100AA0000030CAF81C000EE00125012619E004F10F
:100AB0000800002101F002FC04E004F128000021FC
:100AC00001F07CFC0546002D2E460AD1DAF84000E4
:100AD000002520F4E070E16D08435246CAF840005A
:100AE0003E466078400702D4B04657462CE0D4F822
:100AF000A80057464FEA7050042809D8DFE800F0F4
:100B0000030C12181800F86940F40030F8610FE087
:100B100001254FF0010817E004F10800002101F061
:100B2000CDFB04E004F12800002101F047FC05465C
:100B3000002DA84608D1B86C002520F46000D4F838
:100B4000A8100843B046B864607800072CD5D4F8E4
:100B5000AC004FEA3060042809D8DFE800F0030B4E
:100B600011171700F86940F40030F8610EE0012514
:100B700001271AE004F10800002101F09FFB04E0C6
:100B800004F12800002101F019FC0546002D2F4634
:100B90000BD1DAF84800002520F0E060D4F8AC1062
:100BA00008435246CAF848004746E078800726D5F1
:100BB000E06C4FEA301003280BD8DFE800F0130296
:100BC0000D13DAF81C00514640F40030CAF81C003E
:100BD00008E00125012613E004F10800022101F0DC
:100BE0006DFB0546002D2E460AD1DAF83C000025A3
:100BF00020F03000E16C08435246CAF83C003E4603
:100C00006078C0062DD5206E4FEA303004280CD80D
:100C1000DFE800F0030E141A1A00DAF81C0051463F
:100C200040F40030CAF81C000EE00125012719E04D
:100C300004F10800002101F041FB04E004F1280068
:100C4000002101F0BBFB0546002D2F460AD1DAF842
:100C50004000002520F4E040216E08435246CAF8C7
:100C6000400037466078800627D5606E4FEA3040F6
:100C700005280AD8DFE800F014030E14141404F158
:100C80000800012101F01AFB09E00125012615E009
:100C90001044025804F12800012101F08FFB0546A1
:100CA000002D2E460AD1DAF84000002520F4E0207D
:100CB000616E08435246CAF840003E4660784006DE
:100CC00027D5D4F8B0004FEA307005280AD8DFE8FD
:100CD00000F012030C12121204F10800012101F0BD
:100CE000EDFA07E00125012714E004F128000121B5
:100CF00001F064FB0546002D2F460BD1DAF84800C1
:100D0000002520F0E040D4F8B01008435246CAF85D
:100D1000480037466078000622D5206F98B1B0F1C0
:100D2000005F0AD0B0F1805F2ED1DAF81C00514686
:100D300040F40030CAF81C0005E004F1080001216D
:100D400001F0BCFA0546002D2E460AD1DAF8400023
:100D5000002520F04050216F08435246CAF8400059
:100D60003E46E078C00702D1B046574624E0A06C6A
:100D7000574603280BD8DFE800F014020E14F86978
:100D800040F40030F8610CE001250126E9E7012577
:100D90004FF0010810E004F10800022101F08EFA82
:100DA0000546002DA84607D1F86B002520F003006A
:100DB000A16C0843B046F863A078400601D44746CA
:100DC00017E0D7F8F00340F48070C7F8F003FFF79E
:100DD000CBFB0646D7F8F003C00507D4FFF7C4FBEA
:100DE000801B6428F6D90325032702E0002D2F4637
:100DF00012D02078C00750D0E06F4FEAF0000528ED
:100E000035D8DFE800F03D03373D3D3D04F10800F3
:100E1000012101F053FA32E0DAF860105346D4F8B9
:100E2000B400414011F4407F0BD0196E1A6E21F4CA
:100E3000407142F480321A661A6E22F480321A66C9
:100E40001966B0F5807F40F07282FFF78DFB064691
:100E500041F2883903250327DAF86000800700F1A2
:100E60006382FFF781FB801B4845F5D9C1E7012567
:100E7000012613E004F12800012101F09FFA054644
:100E8000002D2E460AD1DAF84400002520F0380063
:100E9000E16F08435246CAF844003E462078800776
:100EA00023D5A06F05280AD8DFE800F012030C1242
:100EB000121204F10800012101F000FA07E00125F7
:100EC000012713E004F12800012101F077FA05461B
:100ED000002D2F460AD1DAF84400002520F0070043
:100EE000A16F08435246CAF84400374620784007AD
:100EF00025D5D4F8940005280AD8DFE800F01203BD
:100F00000C12121204F10800012101F0D7F907E0D8
:100F10000125012614E004F12800012101F04EFA18
:100F20000546002D2E460BD1DAF84800002520F0AA
:100F30000700D4F8941008435246CAF848003E46C9
:100F40002078800627D5D4F890004FEA3070052825
:100F50000AD8DFE800F012030C12121204F10800A4
:100F6000002101F0ABF907E00125012714E004F1AD
:100F70002800022101F022FA0546002D2F460BD150
:100F8000DAF84400002520F0E040D4F8901008433F
:100F90005246CAF8440037462078400627D5D4F890
:100FA0009C004FEAB02005280AD8DFE800F01203C1
:100FB0000C12121204F10800002101F07FF907E081
:100FC0000125012614E004F12800022101F0F6F9C0
:100FD0000546002D2E460BD1DAF84800002520F4F6
:100FE000E050D4F89C1008435246CAF848003E46E8
:100FF0002078000627D5D4F8A0004FEA70300528E5
:101000000AD8DFE800F012030C12121204F10800F3
:10101000002101F053F907E00125012714E004F154
:101020002800022101F0CAF90546002D2F460BD1F8
:10103000DAF84800002520F46040D4F8A0100843F6
:101040005246CAF8480037462068010717D5D4F839
:101050008410B1F5805F0AD104F12800022101F06B
:10106000ADF90028206818BF0127D4F88410DAF8F9
:101070004420534622F440521143CAF84410C1069A
:1010800017D5D4F89810B1F5807F0AD104F1280063
:10109000022101F093F90028206818BF0127D4F835
:1010A0009810DAF84820534622F440721143CAF8E7
:1010B0004810000322D5D4F8A400B0F5003F0FD0AB
:1010C000B0F5803F06D088BB04F10800002101F094
:1010D000F5F804E004F12800022101F06FF905465B
:1010E000002D2E460BD1DAF84800002520F44030C0
:1010F000D4F8A41008435246CAF848003E46A078E7
:1011000040072AD5D4F88800B0F5401F17D0B0F5B5
:10111000001F0ED0B0F5801F40F00181DAF81C00EE
:10112000514640F40030CAF81C0008E001250126B1
:10113000E5E704F12800012101F040F90546002D02
:101140002F460BD1DAF84400002520F44010D4F8E3
:10115000881008435246CAF844003746A078C007B2
:1011600001D13E4622E0206DB0F5803F08D0D8B9CD
:10117000DAF81C00514640F40030CAF81C0005E0C3
:1011800004F10800022101F099F80546002D2E46D1
:101190000CD1DAF83C00002520F48030216D0843A2
:1011A0005246CAF83C00DCE7012501262168880088
:1011B00001D4606809E004F12800022101F0FEF882
:1011C000002818BF0126D4E900108A031BD5D4F8E3
:1011D00080206FF0010303EB3223022B0BD34FEA85
:1011E000322343B1012B40F09D80DAF81C3043F4E8
:1011F0000033CAF81C303DB9DAF8443023F44073A8
:101200001A43CAF844203546CA0207D5DAF8402006
:1012100022F00042636F1A43CAF84020CA0008D582
:10122000DAF8002022F48042D4F8B8301A43CAF821
:1012300000208A0207D5DAF8402022F08072E36E9F
:101240001A43CAF840204A000CD5DAF8002022F4EC
:101250000042CAF80020D4F8BC20DAF800301A4363
:10126000CAF80020B1F1FF3F07DCDAF83C2022F099
:101270004052636D1A43CAF83C20090208D5DAF8D7
:10128000441021F44001D4F88C201143CAF84410D2
:10129000C10708D004F10800002101F00FF8002870
:1012A00018BF05466068810708D504F108000121D0
:1012B00001F004F8002818BF05466068410708D50A
:1012C00004F10800022100F0F9FF002818BF0546CC
:1012D0006068010708D504F12800002101F06EF8CC
:1012E000002818BF05466068C10608D504F128002B
:1012F000012101F063F8002818BF054660688006E8
:1013000003D44DB10120BDE8F08704F1280002218B
:1013100001F054F82843F5D10020BDE8F0870125FD
:1013200001271BE701256FE75346D4F8B40000F40A
:1013300040711A68B1F5407F22F47C5103D1064A0E
:1013400002EA1012114319606FF31F30196E002565
:101350000843186633E500BFCFFFFF002DE9F843CF
:10136000002800F0FE800446804B186800F00F0053
:10137000884688420BD2186820F00F0040EA080027
:101380001860186800F00F00404540F0EA802068BF
:10139000CF4F41070AD52169BA6902F07002914224
:1013A00004D9BA6922F070021143B96101070AD564
:1013B0006169FA6902F07002914204D9FA6922F077
:1013C00070021143F961C1060AD5A169FA6902F4F4
:1013D000E062914204D9FA6922F4E0621143F961B2
:1013E00081060AD5E1693A6A02F07002914204D995
:1013F0003A6A22F070021143396281070AD5E16826
:10140000BA6902F00F02914204D9BA6922F00F02C0
:101410001143B961C10736D0B86920F47061D4E9CD
:10142000010211430328B96105D0022807D13968A8
:1014300089030DD495E03968890109D491E0012828
:10144000396802D1C90503D48BE0490740F189808E
:101450003969994621F0070108433861FFF784F89C
:10146000064641F28835386900F038006168B0EB13
:10147000C10F06D0FFF778F8801BA842F3D90320EC
:1014800070E020684B4681070AD5E168BA6902F02E
:101490000F02914204D2BA6922F00F021143B961DE
:1014A000196801F00F0141450AD9196821F00F01AF
:1014B00041EA08011960196801F00F01414550D156
:1014C00041070AD52169BA6902F07002914204D23B
:1014D000BA6922F070021143B96101070AD5616946
:1014E000FA6902F07002914204D2FA6922F07002A5
:1014F0001143F961C1060AD5A169FA6902F4E062F3
:10150000914204D2FA6922F4E0621143F961800643
:101510000AD5E069396A01F07001884204D2396A5B
:1015200021F070010843386200F064F8B969C1F332
:1015300003212F4A515CBB6903F00F03D25C01F019
:101540001F0120FA01F102F01F00184A21FA00F0F1
:101550001060174A064800681160BDE8F843FFF7BD
:101560003BB8012001B0BDE8F08300BF002000526D
:101570000400002480B500F03DF80B490A68C2F36E
:10158000032209681A4B01F00F019A5C595C02F0C2
:101590001F0220FA02F201F01F00044922FA00F0B3
:1015A000086003490A6080BD184402580C000024FA
:1015B0000800002480B5FFF7DDFF0C490C4A0968DC
:1015C000C1F30211515C01F01F01C84080BD00BF92
:1015D00080B5FFF7CFFF0549054A0968C1F302212D
:1015E000515C01F01F01C84080BD00BF1C4402587F
:1015F0006E2F000836490869C0F3C20003280CD0DA
:10160000022828D048BB08688006374858BF704772
:101610000968C1F3C101C84070478A6A886AC0F38B
:10162000051CCB6A486B03F00103C0F3CC00BCF18E
:10163000000F10FB03F000EE100AB8EE400A0ED0C7
:1016400002F00302022A0CD072B9086880060ED498
:101650009FED241A15E0204870471E48704700206F
:1016600070479FED1F1A0CE09FED1C1A09E00868F7
:101670001D4AC0F3C10022FA00F001EE100AB8EED4
:10168000411A02EE10CA9FED193AB8EE422A086BD1
:101690006FF35F2081EE021A02EE100AB8EE422AC2
:1016A000086BC0F3462000EE032AB7EE000A0130B3
:1016B00032EE000A21EE000A01EE100AB8EE411ADD
:1016C00080EE010ABCEEC00A10EE100A704700BF9F
:1016D0000044025800093D0040787D010024744A0E
:1016E00020BCBE4B0024744C0090D0030000003995
:1016F000F8B5002800F0B48104460078D74EC00742
:1017000021D12078800740F1B180306910F0380194
:10171000B06A3CD0182908BF5FEA807037D0E06813
:10172000002831685CD021F0190108433060FEF7D1
:101730001BFF05463068400743D4FEF715FF401BEA
:101740000228F7D9A0E1306900F03801B06A102909
:1017500005D018290AD100F00300022806D130680C
:101760008003CED560680028CBD179E1606800287D
:1017700047D0B0F5803F06D0B0F5A02F30685ED1DD
:1017800040F480203060306840F480305DE03068A4
:101790004007E06802D5002800F06281316821F03E
:1017A000190108433060FEF7DFFE05463068400748
:1017B00007D4FEF7D9FE401B02284FF00300F5D9ED
:1017C00063E1FEF7CBFE41F20301884230D8206985
:1017D0007168402821F47C3145D141F4003044E067
:1017E00021F001003060FEF7BFFE0546306840077B
:1017F0003CD5FEF7B9FE401B02284FF00300F5D997
:1018000043E1306820F480303060306820F480207C
:101810003060FEF7A9FE0546306880037FF571AFA2
:10182000FEF7A2FE401B64284FF00300F4D92CE120
:10183000706820F0FE40216940EA016015E020F464
:1018400080303060306820F480203060FEF78CFEFD
:101850000546306880033FF554AFFEF785FE401B18
:101860006428F6D910E141EA003070602078C006A3
:1018700053D5306900F03801B06A082905D018291D
:101880000BD100F00300012807D13068C00519D53D
:10189000E069802840F0E48014E0E06900283068C6
:1018A00027D040F080003060FEF75EFE05463068CD
:1018B000C00507D4FEF758FE401B02284FF0030076
:1018C000F5D9E2E0FEF74AFE41F20301884208D86A
:1018D000206A7168202821F0F8411BD141F0804036
:1018E0001AE0F06820F07C50216A40EA0160F06064
:1018F00013E020F080003060FEF736FE05463068C9
:10190000C0050AD5FEF730FE401B02284FF0030049
:10191000F5D9BAE041EA806070602078000723D5ED
:1019200060690028706F0ED040F001007067FEF70C
:101930001BFE0546706F800716D4FEF715FE401B90
:101940000228F7D9A0E020F001007067FEF70CFE36
:101950000546706F800707D5FEF706FE401B02287C
:101960004FF00300F5D990E02078800623D5A069D8
:10197000002830680ED040F480503060FEF7F4FD4F
:1019800005463068800416D4FEF7EEFD401B0228A1
:10199000F7D979E020F480503060FEF7E5FD054688
:1019A0003068800407D5FEF7DFFD401B02284FF0AA
:1019B0000300F5D969E02078400753D4656A002D0B
:1019C00000F00D81306900F0380018286ED1B16A3E
:1019D000012D306B44D001F00302A36A9A423FD13B
:1019E000C1F30511E26A91423AD10146226B6FF3CD
:1019F0005F21013A914233D1C0F34621626B013A33
:101A000091422DD1C0F30641A26B013A914227D1F8
:101A1000C0F30660E16B0139884221D1706BC0F3DD
:101A2000CC00A16C814200F0DA80F06A20F0010065
:101A3000F062FEF799FD0546FEF796FDA842FBD041
:101A4000706B4FF6F8718843A16C40EAC100706377
:101A5000F06A40F00100F062C1E000BF00440258AB
:101A6000012012E0D6F8000440F48070C6F80004AB
:101A7000FEF77AFD0546D6F80004C00507D4FEF748
:101A800073FD401B6428F6D9032001B0F0BDA068A7
:101A900060B3012806D00528306F40F0A28040F0E6
:101AA00004003067306F40F00100A0E0306820F0A3
:101AB00080703060FEF758FD022D05460AD130686F
:101AC00080012CD5FEF750FD401B02284FF003008B
:101AD000F5D9DAE73068800140F18180FEF744FDF6
:101AE000401B02284FF00300F4D9CEE7306F20F0FE
:101AF00001003067306F20F004003067FEF734FDDE
:101B0000054641F28837306F80077FF557AFFEF703
:101B10002BFD401BB8424FF00300F4D9B5E7B06A83
:101B200040F2F3318843A16A226B0843511E626B75
:101B30004FF47E4303EB4222E36A6FF35F2192B2DC
:101B400040EA0310B0625018A16B4FF4FE0202EBA2
:101B5000014101F4FE010844E16B4FF0FE4202EB4B
:101B6000016101F0FE41084430634FF6F871F06AFC
:101B700020F00100F062706B8843A16C40EAC10064
:101B80007063F06A20F00C00216C0843F062F06A88
:101B900020F00200616C0843F062F06A40F480308B
:101BA000F062F06A40F40030F062F06A40F48020A5
:101BB000F062F06A40F00100F062306840F080703E
:101BC0003060FEF7D1FC04463068800107D4FEF790
:101BD000CBFC001B02284FF00300F5D955E700208D
:101BE00053E720F001003067306F20F004003067C9
:101BF000FEF7BAFC054641F28837306F80073FF5A3
:101C0000DDAEFEF7B1FC401BB8424FF00300F4D943
:101C10003BE70000411E0020B0EB116F01D0012016
:101C20007047044A5160F021034B197007219060FE
:101C30001160704710E000E023ED00E0704770474E
:101C40007047000090F83C20012A4FF0020233D088
:101C500070B501236F4E80F83C3080F83D2002685B
:101C600042F480635468B342936802BF24F4700462
:101C70004D682C43B2F1804F24F070050C6845EAA2
:101C8000040555600BD05D4CA2421CBF5C4CA242C7
:101C900005D05C4CA2421CBF5B4CA2420ED123F08B
:101CA00080038968194391600121002280F83D106A
:101CB00080F83C20BDE8704010467047534CA2426B
:101CC000EDD0534CA24218BFB242E8D0ECE700BFBF
:101CD00060B310B5044690F83D0028B9002084F8A0
:101CE0003C00204600F024F8022084F83D00211D2D
:101CF000206800F0D7FC012084F8480084F83E00FA
:101D000084F83F0084F8400084F8410084F84200E1
:101D100084F8430084F8440084F8450084F84600C1
:101D200084F8470084F83D00002010BD0120704772
:101D3000E0B50068124988420DD01249884209D1A5
:101D40001148016841F020010160006800F02000A6
:101D5000019001988CBD0C488168002241F48021DB
:101D600081600021806800F4802000900098762037
:101D7000FEF7B6FC7620BDE88C40FEF7A3BC00BFA2
:101D80000048014000140040E844025890F83D101B
:101D9000012921D1022180F83D100168C868B1F104
:101DA000804F40F00100C8600BD0144881421CBF36
:101DB0001348814205D0134881421CBF124881421A
:101DC0000CD18868144A0240062A4FF0000018BF60
:101DD000B2F5803F0BD17047012070470B4881421C
:101DE000EFD00B488142ECD00A488142E9D0086824
:101DF00040F0010008600020704700BF0004004070
:101E000000080040000C00400018004000000140A5
:101E1000004001400004014007000100704700003D
:101E200010B5044600680169890744BFC1685FEACC
:101E300081713FD40169490744BFC1685FEA4171BC
:101E400044D40169090744BFC1685FEA01714AD4FB
:101E50000169C90644BFC1685FEAC1614FD4016925
:101E6000C9071CBFC1685FEAC17155D10169090684
:101E700044BFC1685FEA016156D40169C90544BF26
:101E8000C1685FEA016157D40169490644BFC1686E
:101E90005FEA416157D40169890646BFC1685FEABC
:101EA000816110BD6FF0200101612046BDE8104046
:101EB000FFF7C6BE6FF00201016101212177806941
:101EC000800748D02046FFF7A9FF4AE06FF00401E1
:101ED000016102212177806910F4407F45D02046BE
:101EE000FFF79CFF47E06FF00801016104212177B3
:101EF000C069800743D02046FFF790FF45E06FF0B0
:101F00001001016108212177C06910F4407F40D0A1
:101F10002046FFF783FF42E06FF001010161204698
:101F200000F046F82068A1E76FF0800101612046CB
:101F3000FFF785FE2068A0E71B4901612046FFF7F7
:101F40007DFE2068A0E76FF040010161204600F0AF
:101F500030F820689FE7204600F028F8204600F07F
:101F600026F800202077206864E7204600F01EF85D
:101F7000204600F01CF800202077206861E720460A
:101F800000F014F8204600F012F8002020772068B6
:101F90005EE7204600F00AF8204600F008F800202E
:101FA000207720685BE700BFFFFEFFFF70477047A8
:101FB0007047704790F88410012901D1022112E086
:101FC0002421C0F8881002681368116823F00053B8
:101FD00021F0010111600021416613602022C0F848
:101FE000882080F8841008467047B0B5044690F801
:101FF0008400012801D10220B0BD012084F88400B2
:102000002420C4F8880020680568026822F00102D4
:102010000260826822F0606211438160204600F015
:10202000BDFB206805602020C4F88800002084F8EB
:102030008400B0BDB0B5044690F88400012801D1F9
:102040000220B0BD012084F884002420C4F8880058
:1020500020680568026822F001020260826822F0AE
:10206000604211438160204600F098FB20680560C3
:102070002020C4F88800002084F88400B0BD10B58A
:10208000B0B10446D0F8880028B9002084F8840054
:10209000204600F027F82420C4F888002068016852
:1020A00021F001010160204600F08EFC012801D1E1
:1020B000012010BDA06A10B1204600F099FB2068F5
:1020C000416821F490414160816821F02A018160DA
:1020D000016841F0010101602046BDE8104000F0B8
:1020E000EBBB000010B5B8B0044633A81421FEF7CE
:1020F00027F902A8C021FEF723F920686C4988421D
:102100002AD101200024029002A803942194FEF712
:1021100059FC08B1FEF752F92B48016941F0100152
:102120000161016901F0100101910199016841F01B
:102130000201016033A9006800F0020001900198DB
:102140004FF4404033900220CDE93404042036940B
:1021500037900248FEF736F938B010BD0004025837
:10216000FEE70000F0B587B000251748174C06952C
:1021700001220168022641F0800101600127016807
:1021800001F0800101910199016841F001010160B4
:10219000016801F0010101910199016841F002011A
:1021A00001600221006800F00200019001982046C1
:1021B000FEF7CEF902A92046CDE90267CDE9047504
:1021C000FEF700F907B0F0BDE044025800000258E5
:1021D00080B50B480B4940F65F1201600021426058
:1021E0004CF25032C0E9021280220161C0E90512AE
:1021F000FFF76EFD18B1BDE88040FEF7DFB880BD87
:1022000010000024004801401FB500240D480E496D
:10221000EF220394CDE90144C0E900124FF6FF71AB
:10222000C0E902418461FFF753FD08B1FEF7C6F82B
:10223000044801A901940394FFF704FD08B1FEF7D7
:10224000BDF81FBD5C0000240014004010B5174C01
:1022500017484FF4E13120600020C4E901100C213F
:10226000E060C4E9040104F118001421FEF768F8E5
:102270002046FFF704FF08B1FEF7A0F80B48002145
:10228000FFF7D8FE08B1FEF799F808480021FFF7DC
:10229000ACFE08B1FEF792F80448FFF78BFE18B1C8
:1022A000BDE81040FEF78AB810BD00BFA8000024AA
:1022B00000100140FEE7FEE770470000F8B5E64F6A
:1022C000BA6A02F00302032A01D1012074E0054634
:1022D000386820F080600C463860FEF745F9064605
:1022E0003868000105D5FEF73FF9801B0228F7D9B1
:1022F0005FE0B86A4FF47E43696820F47C30AA68D6
:10230000013903EB42222B686FF35F2192B240EA5E
:1023100003301144EA684FF4FE03B86203EB024253
:1023200002F4FE02881829694FF0FE4202EB0161B7
:1023300001F0FE410844B863002CF86A20F0C000A8
:10234000696940EA0100F862F86A20F02000A96992
:1023500040EA0100F8624FF6F871F86A20F01000C8
:10236000F862F86B20EA0100E96940EAC100F8630D
:10237000F86A40F01000F86205D0012CF86A06D126
:1023800040F4801005E0F86A40F4002001E040F4D9
:102390000010F862386840F080603860FEF7E4F8BA
:1023A00004463868000106D4FEF7DEF8001B032857
:1023B000F7D3032000E0002001B0F0BDF8B5A64F30
:1023C000BA6A02F00302032A01D1012074E0054633
:1023D000386820F080500C463860FEF7C5F8064695
:1023E0003868800005D5FEF7BFF8801B0228F7D9B2
:1023F0005FE0B86A4FF47E43696820F07C70AA6899
:10240000013903EB42222B686FF35F2192B240EA5D
:1024100003501144EA684FF4FE03B86203EB024232
:1024200002F4FE02881829694FF0FE4202EB0161B6
:1024300001F0FE4108443864002CF86A20F4406042
:10244000696940EA0100F862F86A20F40070A9693D
:1024500040EA0100F8624FF6F871F86A20F48070E3
:10246000F862786C20EA0100E96940EAC10078640A
:10247000F86A40F48070F86205D0012CF86A06D141
:1024800040F4000005E0F86A40F4800001E040F00C
:102490008070F862386840F080503860FEF764F869
:1024A00004463868800006D4FEF75EF8001B032857
:1024B000F7D3032000E0002001B0F0BD7047FEF725
:1024C00057B80000B0B59CB009A83B4C3B4D4C211F
:1024D000FDF736FF01A82021FDF732FF0220FEF7AD
:1024E0002FF900200090286820F00100286028685B
:1024F00000F001000090206840F440402060206817
:1025000000F440400090009820688004FCD52C48DE
:10251000215841F002012150205800F002000090A3
:10252000009800200090206840F44040206020681F
:1025300000F440400090286840F0010028602868BE
:1025400000F001000090009820688004FCD5012074
:1025500009904FF480300A9002200521CDE9120045
:102560001491C021CDE91510CDE9170008240025EC
:10257000199409A8CDE91A55FFF7BAF818B1EFF385
:10258000108072B6FEE73F2001900320CDE90205DE
:10259000402004944FF48061CDE90500CDE9071097
:1025A00001A80421FEF7DAFE18B1EFF3108072B62D
:1025B000FEE71CB0B0BD00BF184802582C040058FC
:1025C000DCFCFFFF23480168214A41F470010160EF
:1025D000106800F00F00062804D81068072161F386
:1025E0000300106010B51C4801681C4C41F001014B
:1025F00001600021016103682340036013681B0729
:1026000004D51368072464F303031360144A81613B
:10261000C16101628262134AC262134A026341636A
:102620008263C16302644164026822F48022026012
:1026300001660E480068B1EB507FBDE8104002D142
:1026400001200B49086043F2D2000A490860704734
:102650000020005288ED00E0004402587FEDF6EAC9
:10266000000202020000FF01800201010010005C74
:10267000088100510040005280B50748FFF7D0FBA9
:1026800006480168C1F10103DAB20360022104487F
:10269000BDE88040FDF75CBF100000243C01002431
:1026A00000000258F0B5B0F1804F0368334A05D0FE
:1026B000334CA0421CBF334CA04234D123F07003F2
:1026C0004C68234302F58044041BB4FA84F44FEAB7
:1026D000541C02F58844041BB4FA84F44FEA541ED7
:1026E00002F59044041BB4FA84F4640923F44073A3
:1026F000CD682B4323F080034E690D6833438F6808
:10270000002C0360C762856208BFBEF1000F05D1CF
:1027100090421CBF02F5806290422BD1096901638F
:1027200001214161F0BD184CA042C7D0174CA04216
:1027300018BF9042C2D002F58044154D041BB4FA74
:1027400084F44FEA541C02F58844041BB4FA84F460
:102750004FEA541E02F59044041BB4FA84F4A842D4
:102760004FEA5414C2D00B4DA842BFD00A4DA84224
:10277000BCD0BFE7BCF1000FD2D0CFE700000140D2
:102780000004004000080040000C0040000401402C
:10279000004001400048014000440140416ED9B171
:1027A00080B501688A68C2F342628968490FDFF820
:1027B00038C01CF80130DFF834E01EF801101B01AE
:1027C000B3FBF1F11CF802301EF802201B01B3FB31
:1027D000F2F2BDE8804001E001210122A0F86A1078
:1027E000A0F86820704700BF962F00089E2F0008B1
:1027F000816ACA0708D00268D0F82CC0536823F455
:10280000003343EA0C0353608A0708D50268D0F806
:1028100030C0536823F4803343EA0C0353604A0703
:1028200008D50268D0F834C0536823F4802343EA03
:102830000C0353600A0708D50268D0F838C0536803
:1028400023F4004343EA0C035360CA0608D5026828
:10285000D0F83CC0936823F4805343EA0C039360A0
:102860008A0608D50268D0F840C0936823F4005364
:1028700043EA0C0393604A0612D50268D0F844C0BC
:102880005368BCF5801F23F4801343EA0C035360A4
:1028900006D1536823F4C00C836C43EA0C035360E5
:1028A000090658BF70470168C06C4A6822F40022CC
:1028B0001043486070470000BCB500210446C0F8D2
:1028C0009010FDF751FE216805460A68120718D5D9
:1028D00025484FF400110090002220462B4600F0BE
:1028E00041FA68B1206850E8000F216820F08000AC
:1028F00041E80002002AF5D12020C4F8880024E035
:1029000021680868400722D517484FF480010090DD
:10291000002220462B4600F025FAC0B1206850E87E
:10292000000F216820F4907041E80002002AF5D1E0
:10293000206850E8020F216820F0010041E80202FF
:10294000002AF5D12020C4F88C00032007E02020C5
:10295000C4F88800C4F88C000020E06620670021DD
:1029600084F8841002B0B0BDFFFFFF01016851E898
:10297000001F026821F4907142E80013002BF5D18A
:1029800010B5104C026852E8022F0368224043E859
:1029900002210029F6D1C16E0129BDE8104009D1FC
:1029A000016851E8001F026821F0100142E800139D
:1029B000002BF5D12021C0F88C100021C1664167A1
:1029C000704700BFFEFFFFEFFEB50446006804F14C
:1029D00008038D4D8B4E0ECB194363690B43E169A0
:1029E00007680B432F409D4D3B430360A84243685B
:1029F00023F4405342EA03024260A2691CBF236AE7
:102A00001A4383683340964E1A438260B042C26ACA
:102A1000944E22F00F03626A43EA0203C36228D095
:102A2000914B984232D0914B98423CD0904B984277
:102A300046D0904B984200F050808F4B984200F067
:102A40005880A84200F061808C4B984200F0698069
:102A50008B4B984240F07B80736DB446C3F3C20643
:102A6000052E00F275800123DFE806F07367696BBD
:102A70006D6F736DB44603F00706052E00F2688093
:102A80000023DFE806F0665A5C5E6062736DB44650
:102A900003F00706052E00F25B800023DFE806F056
:102AA000594D4F515355736DB44603F00706052E2B
:102AB00000F24E800023DFE806F04C4042444648D6
:102AC000736DB44603F00706052E00F24180002323
:102AD000DFE806F03F333537393B736DB44603F01A
:102AE0000706052E34D80023DFE806F03327292B0C
:102AF0002D2F736DB44603F00706052E28D800234A
:102B0000DFE806F0271B1D1F2123B36DB44603F039
:102B10000706052E1CD80223DFE806F01B0F111351
:102B20001517736DB446C3F3C206052E10D80123E2
:102B3000DFE806F00F030507090B042309E008236B
:102B400007E0102305E0202303E0402301E0B44622
:102B50008023A8427F4810D0B1F5004F1DD1082B2B
:102B60004FF0010127D8DFE803F0058DD5D590D5CA
:102B7000D5D59400FEF71EFD8FE0402B32D0042BFC
:102B800033D0082B35D0102B40D0202B48D0022B2F
:102B900040F0BF80FDF7F8FD2FE0082B4FF001015A
:102BA00014D8DFE803F00594B7B797B7B7B79B0021
:102BB000FEF700FD96E0102B00F0B580202B6ED0C4
:102BC000402B40F0A7804FF4004068E0102B00F04D
:102BD000B580202B00F08880402B40F09B804FF484
:102BE000004081E04FF400401AE06846FDF7DEFD4A
:102BF00002E06846FDF760FE0198002800F087803B
:102C0000626A0DE0FFF4FF11F369FFCFDCF800000A
:102C100065468006504803D52968C1F3C101C84004
:102C20004E4931F812106268B0FBF1F002EB42013C
:102C300088424FF001016DD3130398426AD8010E08
:102C4000000210EB520041F100010023FDF740FBB0
:102C5000A0F54071424A914257D95AE0000C005801
:102C6000004400400044025800480040004C00402E
:102C70000050004000780040007C004000140140FB
:102C800000100140FEF7A4FC07E06846FDF78EFD4A
:102C900002E06846FDF710FE0198C0B3626A2F4952
:102CA00031F81210B0FBF1F061684A0802EB400005
:102CB000B0FBF1F04FF6EF72A0F11001914228D86D
:102CC0004FF6F071C0F34202084010441DE0FEF7D9
:102CD0007FFC07E06846FDF769FD02E06846FDF706
:102CE000EBFD019898B1626A1C4931F812104FF659
:102CF000EF72B0FBF1F0616800EB5100B0FBF1F056
:102D0000A0F11001914204D880B22168C86000216E
:102D100000E001214FF00110A0660020C4E91D0071
:102D2000084603B0F0BDDCF80000654680060A489E
:102D3000B5D52968C1F3C101C840B0E7DCF800008F
:102D4000654680060448CFD52968C1F3C101C84053
:102D5000CAE700BF00093D000090D0037E2F0008A5
:102D6000FFFC0F002DE9F843DDF820909846164649
:102D70000F460446006809F10105C1693940C91BC5
:102D8000B1FA81F14909B14225D1002DF5D0FDF705
:102D9000EBFBB9F1000F01464FF003001CD0A1EB93
:102DA0000801494518D8206801684907E5D5C16977
:102DB000090714D4C1690905DFD54FF40061016228
:102DC0002046FFF7D3FD2020C4F89000002084F8AF
:102DD0008400032000E0002001B0BDE8F083082556
:102DE00005622046FFF7C2FD0020C4F8905084F829
:102DF00084000120F0E7FEE700F00F024E4B1A447A
:102E0000044BB0F1FF3F4FEA0111C8BFC218117067
:102E1000704700BF00E400E047480168890312D40E
:102E2000BFF34F8F0021BFF36F8FC0F83C12BFF389
:102E30004F8FBFF36F8F016841F400310160BFF322
:102E40004F8FBFF36F8F84B00168C90327D400216F
:102E5000016743F6E07CBFF34F8FC26EC2F34E3181
:102E6000C2F3C9026FEA020E95070CEA41142B4621
:102E7000724643EA04060132C0F84C6203F1404353
:102E8000F7D10029A1F10101EFD1BFF34F8F016804
:102E900041F480310160BFF34F8FBFF36F8FFDF7B7
:102EA00071FB01260096FDF7E3FB4FF01050254D16
:102EB000019022486C460290214803902046A84782
:102EC0004FF040508DF80160019010208DF80800FF
:102ED0000020ADF80E002046A84702201A4E8DF8BB
:102EE000010020460196A84703208DF8010006F551
:102EF000003001900E208DF808002046A8470420DD
:102F00008DF801004FF0605001900F208DF80800FF
:102F10002046A8470420FDF7B5FBFFF7D3FAFFF7DB
:102F200021F9FFF771F9FFF791F9FFF751F9074818
:102F3000FEF72CFF04B0FEE714ED00E012000103E1
:102F400000000101210600080000023010000024EA
:102F500002E008C8121F08C1002AFAD17047704762
:102F6000002001E001C1121F002AFBD170470000C0
:102F7000000001020304010203040607080901001E
:102F800002000400060008000A000C0010002000E7
:102F90004000800000010101010307010000080456
:102FA0000204080101010000C82F000800000024ED
:102FB00010000000502F0008D82F00081000002437
:102FC00038750000602F00080100000010000000AC
:082FD0000090D0030090D00333
:040000050800029954
:00000001FF
