:020000040800F2
:10000000C023002049010008ED160008EF16000883
:10001000F3160008F7160008FB16000800000000A1
:10002000000000000000000000000000FF160008B3
:10003000011700080000000003170008051700085A
:100040006301000863010008630100086301000800
:1000500063010008630100086301000863010008F0
:1000600063010008630100086301000863010008E0
:1000700063010008630100086301000863010008D0
:1000800063010008630100086301000863010008C0
:1000900063010008630100086301000863010008B0
:1000A00063010008630100086301000863010008A0
:1000B0006301000863010008630100086301000890
:1000C0006301000863010008630100086301000880
:1000D0006301000863010008630100086301000870
:1000E0006301000863010008630100086301000860
:1000F0006301000863010008630100086301000850
:10010000630100086301000863010008630100083F
:10011000630100086301000863010008630100082F
:10012000630100086301000863010008630100081F
:10013000DFF810D002F016FB00480047E715000872
:10014000AFF30080C02300200648804706480047E0
:10015000FEE7FEE7FEE7FEE7FEE7FEE7FEE7FEE777
:10016000FEE7FEE74B020008310100080CB5002055
:10017000019000906C48006840F480306A49086043
:1001800000BF6948006800F4003000900198401CEE
:100190000190009818B90198B0F5A06FF1D16248AC
:1001A000006800F4003010B10120009001E0002050
:1001B00000900098012843D15C48006840F010008E
:1001C0005A4908600846006820F0030008600846A5
:1001D000006840F002000860534840685249486097
:1001E0000846406848600846406840F480604860BF
:1001F0000846406820F47C1048600846406840F497
:10020000E81048600846006840F08070086000BF51
:100210004548006800F000700028F9D04248406866
:1002200020F00300404948600846406840F0020062
:10023000486000BF3C48406800F00C000828F9D135
:100240000CBD10B5FFF792FF10BD10B53648006821
:1002500040F00100344908600846406834490840CD
:100260003149486008460068324908402E49086014
:100270000846006820F4802008600846406820F4A2
:10028000FE0048604FF41F008860FFF7DAFF4FF070
:1002900000602949086010BD10B50021002000222F
:1002A000214B5B6803F00C0121B1042906D0082919
:1002B00028D107E0214B224C236027E01F4B204C24
:1002C000236023E0184B5B6803F47010164B5B68E7
:1002D00003F48032022303EB904022B9194B4343CD
:1002E000174C23600DE0104B5B6803F4003323B11F
:1002F000144B4343124C236003E0104B4343104C18
:10030000236003E00D4B0E4C236000BF00BF064B83
:100310005B68C3F303130C4CE15C094B1B68CB40D7
:10032000074C236010BD0000001002400020024076
:100330000000FFF8FFFFF6FE08ED00E000127A0073
:100340000000002000093D00040000203149014365
:10035000314A1160704770B5002100230F22C47824
:1003600004B32D4C246804F4E064C4F5E064210A6D
:10037000C1F10403CA40447804FA03F184781440BC
:1003800021430901254C0678A155047804F01F0586
:100390000124AC4005786D11AD0005F1E025C5F8EC
:1003A000004109E0047804F01F050124AC401C4D15
:1003B0000678761145F8264070BD1A4A0A40024375
:1003C000154B1B1F1A60704739B1134A121D126872
:1003D0000243114B1B1D1A6006E00F4A121D1268E2
:1003E00082430D4B1B1D1A607047042808D14FF043
:1003F000E021096941F004014FF0E022116107E0BA
:100400004FF0E021096921F004014FF0E022116171
:10041000704700000000FA050CED00E000E400E089
:1004200080E100E080FFFF1F10B50446FA488442D7
:1004300008D10121401500F07FFE0021601500F079
:100440007BFE17E0F548844208D10121001500F039
:1004500073FE0021201500F06FFE0BE0F04884428F
:1004600008D10121C80300F067FE00214FF40040CD
:1004700000F062FE10BD30B5024600200023506837
:10048000E84C20400D790C6844EA05242043506074
:100490009068E54C2040D1E902542C434D7944EA60
:1004A000450420439060D06A20F470000C7C641EE8
:1004B000E4B2234340EA0350D06230BD0021016022
:1004C000017141718160C16001210174704721B1E6
:1004D000826842F00102826003E0826822F0010239
:1004E0008260704721B1826842F48072826003E0CA
:1004F000826822F480728260704710B50023CBB20C
:100500001AB144681C43446002E044689C43446060
:1005100010BD816841F008018160704701460020EC
:100520008A6802F008020AB1012000E0002070474A
:10053000816841F0040181607047014600208A68AB
:1005400002F004020AB1012000E00020704721B14E
:10055000826842F4A002826003E0826822F4A00272
:1005600082607047014600208A6802F480020AB166
:10057000012000E00020704710B50A46002100234A
:10058000416821F46041531E41EA4331416010BD8E
:1005900021B1426842F40062426003E0426822F402
:1005A000006242607047F0B504460D46002000210D
:1005B000092D11DDE068A5F10A0606EB46070726BE
:1005C00006FA07F18843A5F10A0606EB460603FA88
:1005D00006F10843E0600CE0206905EB45070726BB
:1005E00006FA07F1884305EB450603FA06F10843CE
:1005F0002061072A0FDA606B561E06EB86071F265E
:1006000006FA07F18843561E06EB860605FA06F140
:100610000843606322E00D2A0FDA206BD61F06EB39
:1006200086071F2606FA07F18843D61F06EB8606C3
:1006300005FA06F10843206310E0E06AA2F10D0616
:1006400006EB86071F2606FA07F18843A2F10D067E
:1006500006EB860605FA06F10843E062F0BD21B11B
:10066000826842F48012826003E0826822F4801281
:10067000826070470146C86C80B2704766484C3053
:100680000068704721B1426842F48062426003E032
:10069000426822F480624260704721B1426842F4AD
:1006A0008052426003E0426822F480524260704708
:1006B0000A460021816821F4E041114381607047BE
:1006C00021B1826842F40042826003E0826822F431
:1006D00000428260704721B1826842F40212826057
:1006E00003E0826822F40212826070470146002013
:1006F0008A6802F400120AB1012000E0002070476D
:10070000F0B504461546002000220026092911DD17
:10071000E068A1F10A0707EB470C072707FA0CF27C
:100720009043A1F10A0707EB470703FA07F21043CA
:10073000E0600CE0206901EB410C072707FA0CF29E
:10074000904301EB410703FA07F210432061A06BCD
:10075000C0F30156EF1C06F1010CA7EB0C0707EBE9
:10076000870C1F2707FA0CF29043EF1C06F1010CCF
:10077000A7EB0C0707EB870701FA07F21043A0630A
:10078000F0BD10B50A4600210023816B21F4401111
:10079000531E41EA0351816310BD08B50023009345
:1007A0000090009B0B440093009B1A6008BD08B5A5
:1007B000024600200090009201F12800009B18449E
:1007C00000900098006880B208BD0A460021416888
:1007D000164B194011434160704741628262704775
:1007E0000A460021416821F01F0111434160704712
:1007F00040B109490831096841F40001064A08324C
:10080000116007E004490831096821F40001024A37
:1008100008321160704700000024014000280140A8
:10082000003C0140FFFEF0FFFDF7F1FFFFFD3FFF41
:100830000246002013680B400BB1012000E00020AD
:100840007047CA430260704770B50246002000231B
:1008500000240B125568CEB205EA060415681D4047
:1008600015B10CB1012000E0002070BD00220A1279
:10087000D34303607047000001684FF6FE721140D9
:1008800001600021016041608160C1608D49884242
:1008900008D18C490839496841F00F01894A083A62
:1008A00051608AE087491431884208D18549083966
:1008B000496841F0F001834A083A51607DE081497E
:1008C0002831884208D17F490839496841F470616C
:1008D0007C4A083A516070E07A493C31884208D13C
:1008E00078490839496841F47041764A083A5160BC
:1008F00063E074495031884208D172490839496827
:1009000041F470216F4A083A516056E06D496431F4
:10091000884208D16B490839496841F47001694A35
:10092000083A516049E067497831884208D1654901
:100930000839496841F07061624A083A51603CE008
:100940006149884206D1011F096841F00F01021F69
:10095000116032E05C491431884208D15A49091FBC
:10096000096841F0F001584A121F116025E056490C
:100970002831884208D15449091F096841F470613F
:10098000514A121F116018E04F493C31884208D18A
:100990004D49091F096841F470414B4A121F11600B
:1009A0000BE049495031884207D14749091F09687E
:1009B00041F47021444A121F1160704710B50022A3
:1009C000026847F6F0739A430C6A8B6823430C69FC
:1009D00023434C6923438C692343CC6923434C6AEA
:1009E00023438C6A23431A430260CB6843600B683D
:1009F00083604B68C36010BD00210160416081606D
:100A0000C160016141618161C161016241628162D4
:100A1000704721B1026842F00102026004E00268FE
:100A20004FF6FE731A40026070471AB103680B4319
:100A3000036002E003688B430360704741607047C6
:100A40000146486880B2704701460020002201F04C
:100A500080531BB11C4B083B1A6802E0194B083B42
:100A60001A6802EA01030BB1012000E00020704780
:100A700000F0805119B11449091F086002E01149C2
:100A800008394860704701460020002201F0805379
:100A90001BB10D4B083B1A6802E00A4B083B1A6871
:100AA00002EA01030BB1012000E00020704700F0D2
:100AB000805119B10449091F086002E00149083951
:100AC00048607047080002400804024010B5044620
:100AD000CC48844208D10121042000F02DFB0021E4
:100AE000042000F029FB46E0C748844208D10121D8
:100AF000082000F021FB0021082000F01DFB3AE057
:100B0000C248844208D10121102000F015FB0021C9
:100B1000102000F011FB2EE0BD48844208D10121D5
:100B2000202000F009FB0021202000F005FB22E03E
:100B3000B848844208D10121402000F0FDFA00218C
:100B4000402000F0F9FA16E0B348844208D10121B0
:100B5000802000F0F1FA0021802000F0EDFA0AE098
:100B6000AE48844207D10121801500F0E5FA00214A
:100B7000A01500F0E1FA10BD10B50121084600F003
:100B8000DBFA0021012000F0D7FA10BD2DE9F04179
:100B9000024600250026002000230024002791F8AB
:100BA00003C00CF00F0591F803C00CF0100CBCF161
:100BB000000F03D091F802C04CEA050591F800C07F
:100BC000BCF1000F31D0146800202BE04FF0010C75
:100BD0000CFA00F3B1F800C00CEA03069E4220D1E3
:100BE00083004FF00F0C0CFA03F7BC4305FA03FC2B
:100BF0004CEA040491F803C0BCF1280F06D14FF071
:100C0000010C0CFA00FCC2F814C00AE091F803C011
:100C1000BCF1480F05D14FF0010C0CFA00FCC2F8F2
:100C200010C0401C0828D1D31460B1F800C0BCF13A
:100C3000FF0F34DD546800202EE000F1080C4FF067
:100C4000010808FA0CF3B1F800C00CEA03069E4252
:100C500021D183004FF00F0C0CFA03F7BC4305FAC7
:100C600003FC4CEA040491F803C0BCF1280F05D141
:100C700000F1080C08FA0CF8C2F8148091F803C0CF
:100C8000BCF1480F07D100F1080C4FF0010808FA39
:100C90000CF8C2F81080401C0828CED35460BDE880
:100CA000F0814FF6FF710180022181700421C17033
:100CB00070470246002093680B400BB1012000E012
:100CC000002070470146886880B2704702460020C5
:100CD000D3680B400BB1012000E0002070470146B3
:100CE000C86880B2704701617047416170470AB1BE
:100CF000016100E041617047C16070474FF480328C
:100D00000A43826181618261826982697047024619
:100D10000020434B18684FF68073184040EA0210D9
:100D200008433F4B186070473E49C8617047F0B5B3
:100D30000A46002300240021002500F00046B6F1F9
:100D4000004F02D1364EF16901E0354E7168C0F3B3
:100D5000034583B200F44016B6F5401F08D121F0D8
:100D600070612F4E766826F070662D4F7E6012E01F
:100D700000F48016B6F5801F06D1032606FA05F4A6
:100D8000A14341F0706106E0460D360103FA06F614
:100D9000B14341F0706122B1460D360103FA06F607
:100DA000314300F00046B6F1004F02D11C4EF16114
:100DB00001E01B4E7160F0BD30B500228B071C0FA7
:100DC0000F2303FA04F2164B08338C1053F8243027
:100DD0009343134C08348D1044F8253023468C106F
:100DE00053F824308C07240F00FA04F423430C4CEE
:100DF00008348D1044F8253030BD0A49DC310860D4
:100E00007047000000080140000C01400010014044
:100E10000014014000180140001C01400020014066
:100E20000000014000002042DF48006840F001005F
:100E3000DD49086008464068DC490840DA494860F6
:100E400008460068DA490840D74908600846006843
:100E500020F4802008600846406820F4FE004860C6
:100E60004FF41F0088607047CF49096821F4803132
:100E7000CD4A11601146096821F480211160B0F556
:100E8000803F03D0B0F5802F0ED106E0C649096837
:100E900041F48031C44A116007E0C349096841F454
:100EA000A021C14A116000E000BF00BF704710B52B
:100EB00001460022002300204A11012A02D1BA4C27
:100EC000236806E0022A02D1B74C236A01E0B64C3F
:100ED000636A01F01F02012494401C400CB1012000
:100EE00000E0002010BD38B500200090002400254F
:100EF00000BF3120FFF7DBFF05460098401C009043
:100F00000098B0F5A06F01D0002DF2D03120FFF78E
:100F1000CEFF08B1012400E00024204638BD014680
:100F20000020A14A106820F0F80040EAC1001060DB
:100F30007047A04908607047024600209A4B5868E5
:100F400020F47C1042EA01031843974B5860704725
:100F500098490866704701460020934A506820F07F
:100F600003000843506070478F48406800F00C0051
:100F70007047014600208C4A506820F0F00008437A
:100F80005060704701460020874A506820F4E060B6
:100F900008435060704701460020834A506820F49F
:100FA000605040EAC1005060704729B17E4A527AD1
:100FB00002437D4B5A7204E07B4A527A82437A4B59
:100FC0005A7270477B49D83108607047014600204B
:100FD000754A506820F44040084350607047002133
:100FE000714A20321170704A82F82010012802D014
:100FF00004280AD104E001216B4A2032117005E077
:101000000521694A2032117000E000BF00BF70471F
:101010006949086070476449096A0143624A11627C
:101020007047654944390860704730B50021002297
:10103000002400235C4D6D6805F00C0121B10429EA
:1010400005D0082923D105E05C4D056022E05B4D09
:1010500005601FE0544D6D6805F47012524D6D68C7
:1010600005F48034022505EB92421CB9544D5543DA
:1010700005600BE04C4D6D6805F400351DB1504D19
:101080005543056002E04D4D5543056002E04B4D70
:10109000056000BF00BF444D6D6805F0F00109090F
:1010A000484D6B5C0568DD4045603F4D6D6805F45B
:1010B000E061090A434D6B5C4568DD4085603A4D4F
:1010C0006D6805F46051C90A3E4D6B5C4568DD40B2
:1010D000C560354D6D6805F44041890B3A4D6B5C38
:1010E000C568B5FBF3F5056130BD29B12E4A5269DB
:1010F00002432D4B5A6104E02B4A526982432A4B2A
:101100005A61704729B1284A92690243264B9A6175
:1011100004E0254A92698243234B9A61704729B1C2
:10112000214AD2690243204BDA6104E01E4AD269A7
:1011300082431D4BDA61704729B11B4AD2680243D2
:10114000194BDA6004E0184AD2688243164BDA6021
:10115000704729B1144A12690243134B1A6104E023
:10116000114A12698243104B1A6170471249403983
:10117000086070470F49C86470470B49C8717047D1
:101180000948406A40F0807007494862704701464C
:101190000020054A92680A400AB1012000E00020C0
:1011A0007047014988727047001002400000FFF844
:1011B000FFFFF6FE000042428004424200127A0025
:1011C00000093D00140000202400002010B5044652
:1011D000FB48844209D101218803FFF7ADFF0021BC
:1011E0004FF48040FFF7A8FF32E0F648844209D16F
:1011F00001214804FFF7ADFF00214FF40030FFF755
:10120000A8FF25E0F048844209D101218804FFF7B6
:10121000A0FF00214FF48020FFF79BFF18E0EB4870
:10122000844209D10121C804FFF793FF00214FF444
:101230000020FFF78EFF0BE0E548844208D1012132
:101240000805FFF786FF00214FF48010FFF781FFAC
:1012500010BD2DE9F04786B005460E460024A24693
:1012600000BFA1460027B08900B100BF2F462C8ADD
:101270004CF6FF700440F08804432C82AC894EF693
:10128000F3100440B088318908437189084304434E
:10129000AC81AC8A4FF6FF400440B0890443AC8275
:1012A00001A8FFF7C2FEC648874202D1DDF810A0B0
:1012B00001E0DDF80CA0A88900F4004040B10AEB81
:1012C000CA0000EB0A1031684900B0FBF1F807E0F2
:1012D0000AEBCA0000EB0A1031688900B0FBF1F894
:1012E0006420B8FBF0F004012009642101FB10899F
:1012F000A88900F4004040B1322000EBC900B0FBE7
:10130000F1F000F00700044308E0322000EB091080
:101310006421B0FBF1F000F00F0004432C8106B013
:10132000BDE8F0874FF41651016000218180C18033
:1013300001810C21418100218181704710B5024655
:101340000020108A4FF2FF0318400B884C8823437B
:101350008C882343CC8823431843108210BD00217E
:10136000018041808180C180704721B1828942F42F
:101370000052828104E082894DF6FF731A40828117
:101380007047F0B50346002400260025002040F6F3
:101390006A17B94200D100BF1846C1F3421401F0E8
:1013A0001F06012707FA06F5012C01D10C3004E0D5
:1013B000022C01D1103000E014301AB107682F431D
:1013C000076002E00768AF430760F0BD1AB1838A87
:1013D0000B43838202E0838A8B4383827047028AB5
:1013E0004FF6F0731A400282028A0A430282704763
:1013F00082894FF2FF731A40828182890A43828177
:10140000704721B1828942F00202828104E0828920
:101410004FF6FD731A4082817047028A4FF6DF73E0
:101420001A400282028A0A430282704721B1028A6C
:1014300042F48042028204E0028A4BF6FF731A40B3
:1014400002827047C1F30802828070470146888893
:10145000C0F308007047818941F001018181704724
:10146000028BD2B20283028B42EA012202837047CE
:10147000028B02F47F420283028B0A43028370478D
:1014800021B1828A42F02002828204E0828A4FF6F1
:10149000DF731A408282704721B1828A42F01002C3
:1014A000828204E0828A4FF6EF731A40828270478C
:1014B00021B1828A42F00802828204E0828A4FF6D9
:1014C000F7731A408282704721B1828942F4004248
:1014D000828103E08289C2F30E028281704721B1CA
:1014E000828A42F40062828204E0828A4FF2FF73B1
:1014F0001A4082827047828A4FF6FB731A408282BA
:10150000828A0A438282704721B1828A42F00202B3
:10151000828204E0828A4FF6FD731A40828270470D
:1015200002460020B1F5007F00D100BF13880B40B8
:101530000BB1012000E00020704701F40072B2F509
:10154000007F00D100BFCA430280704770B50246D9
:10155000002400230025002040F66A16B14200D185
:1015600000BFC1F3421501F01F03012606FA03F381
:10157000012D02D19689334006E0022D02D1168A50
:10158000334001E0968A33400C12012606FA04F437
:101590001688344013B10CB1012000E0002070BD6A
:1015A00010B50022002340F66A14A14200D100BF0A
:1015B0000A1201249440A3B2DC43048010BD000051
:1015C000003801400044004000480040004C00400A
:1015D0000050004001B502E00098401E00900098C5
:1015E0000028F9D108BD2DE9FC4700F04EF900F0C4
:1015F00010F900F0BDFA00F00AFC00F043FC2BA04B
:1016000001F014F901212C48FEF7A1FF00F074FA53
:101610004FF0000A44E0294931F81A0000F0BEFEFC
:1016200081464FF08B4100F0F3FC804600F0F3FE62
:1016300006464FF06632224B00F0CFFD044600F024
:10164000FDFE204941F82A0051F82A0000F0E3FE8F
:10165000044622460B461CA001F0E8F8194951F84F
:101660002A0000F0D8FE80464FF06632144B00F09E
:1016700026FE064600221A4B00F0AFFD044600226B
:10168000184B00F0AAFDCDE9000100F0A5FE1649B7
:1016900041F82A0051F82A0000F05AFC0AF1020A27
:1016A000BAF5806FB7DB0020BDE8FC870D0A205338
:1016B00054415254200D0A0000240140C01700205C
:1016C00066660A40400000200D0A204348207661EB
:1016D0006C7565203D2025662056200D0A0000000F
:1016E00000E06F400000104040100020704700BF35
:1016F000FEE700BFFEE700BFFEE700BFFEE7704762
:10170000704770477047000008B501211020FFF7AF
:10171000F9FC0620ADF8000000208DF803006946B2
:101720003F48FFF733FA08BD00B591B001210846E4
:10173000FFF7DBFC01214802FFF7E4FC3948FFF723
:101740009BF83948069039480790002008904FF4DC
:101750008060099000200A9080200B9040000C903F
:1017600080000D9000200E904FF400500F9000204C
:10177000109006A92B48FFF721F901212948FFF70E
:1017800048F90020019001208DF808008DF809002B
:101790004FF4602003900020049002208DF8140084
:1017A00001A921484C38FEF766FE4FF40040FFF7D0
:1017B0000DFC002301220C211B484C38FEF7F3FEE0
:1017C000002302220B2118484C38FEF7ECFE0121C1
:1017D00015484C38FEF786FE012113484C38FEF7B9
:1017E00076FE11484C38FEF794FE00BF0E484C3888
:1017F000FEF794FE0028F9D10B484C38FEF798FE0E
:1018000000BF09484C38FEF798FE0028F9D111B006
:1018100000BD10B5FFF778FFFFF786FF10BD000091
:1018200000100140080002404C240140C017002075
:101830000EB54FF4A060FEF789FD25208DF8080055
:1018400001208DF809008DF80A008DF80B0002A820
:10185000FEF781FD34208DF8040001208DF805008D
:101860008DF806008DF8070001A8FEF774FD27200B
:101870008DF8000001208DF801008DF802008DF830
:1018800003006846FEF767FD0EBD00B58BB0012171
:101890000420FFF737FC01211020FFF733FC012162
:1018A0003020FFF72FFC01218803FFF72BFC0121DB
:1018B000C804FFF734FC01210805FFF730FC4FF4A2
:1018C0000070ADF8280018208DF82B0003208DF84B
:1018D0002A000AA98248FFF759F94FF48060ADF851
:1018E000140018208DF8170003208DF8160005A9A4
:1018F0007C48FFF74BF94FF48050ADF800001820FA
:101900008DF8030003208DF8020069467548FFF743
:101910003DF94FF48060ADF8280004208DF82B00CD
:101920000AA96F48FFF732F94FF40060ADF81400D0
:1019300004208DF8170005A96A48FFF727F904204D
:10194000ADF800008DF8030069466748FFF71EF9FF
:101950004FF4E130069001900020ADF81C00ADF886
:101960000800ADF81E00ADF80A00ADF82000ADF893
:101970000C00ADF82400ADF810000C20ADF82200EA
:10198000ADF80E0006A95948FFF763FC01A95848B5
:10199000FFF75FFC01A95748FFF75BFCFFF748FF23
:1019A000012240F225515148FFF7EBFC002240F2A2
:1019B00025514F48FFF7E5FC01214C48FFF7D5FCC6
:1019C00001214B48FFF7D1FC01214A48FFF7CDFC2C
:1019D0000BB000BD70B504460D4629462046FFF702
:1019E00031FD00BF80212046FFF79AFD0028F9D085
:1019F00070BD2DE9F04107460D461646002405E06E
:101A0000295D3846FFF7E6FF601CC4B2B442F7DB3D
:101A100000BF40213846FFF783FD0028F9D0BDE81C
:101A2000F08170B506460C46002500BF615D30466A
:101A3000FFF7D0FF6D1C605D0028F7D100BF40218B
:101A40003046FFF76DFD0028F9D070BD10B5044693
:101A500021462748FFF7E5FF10BD10B50446214693
:101A60002448FFF7DEFF10BD2DE9F04105460C4686
:101A7000260AE7B231462846FFF7E4FC00BF802182
:101A80002846FFF74DFD0028F9D039462846FFF7D4
:101A9000D9FC00BF80212846FFF742FD0028F9D07D
:101AA000BDE8F08170B504460D46E1B20F48FFF77E
:101AB000C9FC00BF80210D48FFF732FD0028F9D096
:101AC000204670BD10B5044600BF20210748FFF72F
:101AD00027FD0028F9D00548FFF7B8FC10BD00002D
:101AE000000801400010014000140140003801408E
:101AF000004C00400050004008B501210820FFF7CD
:101B000001FB0120ADF8000010208DF80300032038
:101B10008DF8020069460248FFF738F808BD00005A
:101B2000000C014030B50146B1F1807F01D30120A6
:101B300030BD21F07F40401E4FF0E0225061501731
:101B40000F22002807DA13071D0E3B4B00F00F048D
:101B5000241F1D5503E013071C0E384B1C5400BFF7
:101B600000204FF0E0229061072010610020DFE7A5
:101B700010B5334800683349B0FBF1F42046FFF755
:101B8000D1FF08B100BFFEE710BD01B52E49009896
:101B900008604FF0E020006940F001004FF0E021C4
:101BA000086100BF284800680028FBD108BD26480E
:101BB000006820B124480068401E2349086070472F
:101BC00031B54820FFF7AEFF002408E000BF4FF01A
:101BD000E020006900F480300028F8D0641C0098F0
:101BE0008442F3D34FF0E020006920F001004FF071
:101BF000E021086138BD31B5114800684FF47A71B1
:101C0000B0FBF1F52846FFF78DFF002408E000BF88
:101C10004FF0E020006900F480300028F8D0641C08
:101C200000988442F3D34FF0E020006920F00100D7
:101C30004FF0E021086138BD18ED00E000E400E05D
:101C400000000020A08601002800002010B501201F
:101C5000FFF7B6FF10BD70B50446002500207C4993
:101C60000860FFF7F3FF01207A49C1F89401FFF7FC
:101C7000EDFF00207649091D0860FFF7E7FF00BF70
:101C80001CE004F4004020B101207149091F0860E4
:101C900003E000206E49091F0860FFF7D7FF00200E
:101CA0006B490860FFF7D2FF01206A49C1F894012F
:101CB0004FF6FF7000EA4404681CC5B2102DE0DB4B
:101CC000FFF7C4FF01206249091D08606149C1F89E
:101CD0009001FFF7BBFF00205D490860FFF7B6FFEA
:101CE00070BD10B5044624B1012C0AD0022C18D1C5
:101CF0000FE04FF40050FFF7AEFF00205649087088
:101D000010E042F22800FFF7A6FF012052490870B8
:101D100008E042F20200FFF79EFF02204E490870E1
:101D200000E000BF00BF10BD2DE9F34F85B08A462B
:101D30004FF0000BFFF78AFF0021504600F09AFB9E
:101D400000D2DA464549504600F09EFB01D2DFF84A
:101D50000CA14349504600F029F9044600F023FB4A
:101D600040F440403F49086000223F4B10464FF08E
:101D7000804101F069FACDE90001059800F04BFBC4
:101D80008046DDE9002300F028FA0022374BCDE938
:101D9000020100F094FA06460022354B00F076F975
:101DA000044600F019FB8346CBF38D30314908809F
:101DB000CBF30D00304908800846008840F480408D
:101DC00008802C48008840F480402A4908804FF45D
:101DD0000450FFF740FF28480088FFF73CFF2548E4
:101DE0000088FFF738FF1F49098888B2FFF733FFE3
:101DF0004FF40050FFF72FFFFFF728FF1648007839
:101E0000FFF76FFFFFF722FF07B0BDE8F08F08B5BF
:101E100001210420FFF776F97020ADF800001020B2
:101E20008DF8030003208DF8020069461348FEF781
:101E3000ADFE70211148FEF756FF002004490860EE
:101E4000FFF74FFF00210E48FFF76EFF08BD0000AF
:101E50009401214200002142340000200000B443DC
:101E6000000030413000002000003C4084D7774122
:101E70000000F03F2E0000202C0000200008014050
:101E800000409C4508B501211420FFF73BF90120D3
:101E9000ADF8000004208DF8030069461648FEF7EF
:101EA00075FE4FF40050ADF8000004208DF80300DB
:101EB00069461248FEF76AFE08BD70B504460D4635
:101EC00029462046FEF7F5FE012813D11420FFF71E
:101ED00092FE29462046FEF7ECFE012808D100BFFD
:101EE00029462046FEF7E5FE0128F9D0012070BD05
:101EF0000020FCE70020FAE7000801400010014044
:101F000070B592B004460D462046294600F064FAAA
:101F10000646324615A1684600F098FC6846FFF771
:101F200095FD12B070BD10B592B00446224613A1C3
:101F3000684600F08BFC6846FFF788FD224613A137
:101F4000684600F083FC6846FFF780FD12B010BDC4
:101F500010B592B00446224610A1684600F076FC07
:101F60006846FFF773FD12B010BD000078322E7680
:101F7000616C3D2564FFFFFF0000000078302E7685
:101F8000616C3D2564FFFFFF0000000078312E7674
:101F9000616C3D2564FFFFFF000000006164642068
:101FA00031302C302C2564FFFFFF000080EA010255
:101FB00010B502F00043400022D04A001FD0010EAD
:101FC00001EB1261C0F35600C2F3560240F4000068
:101FD00042F40002A0FB022000047F39140400D068
:101FE000401C50EA124001D44000491EC2B20C0607
:101FF00004EBD010401C4008802A02D003E00020EF
:1020000010BD20F00100002900DA0020184310BDA7
:1020100030B480EA010202F0004530F0004221F0C5
:10202000004013D090B1C30DD40DC2F31601C0F31C
:102030001600E41A41F4000140F400027D3491429C
:1020400001D3641C00E04900002C02DA30BC0020FF
:1020500070474FF400000023914201D3891A0343D3
:1020600040084FEA4101F7D151B1914202D14FF0FE
:10207000004105E002D24FF0010101E06FF00101E3
:1020800003EBC450284430BC00F080BA2DE9FE4F69
:10209000804681EA0300C00F0C46009021F0004109
:1020A00023F00045B8EB0200A94105D24046214685
:1020B00090461C460B46024623F00040104347D092
:1020C000270DC7F30A00C3F30A510290401A01908A
:1020D00040286BDAC3F3130040F4801B009892464B
:1020E00020B10023D2EB030A63EB0B0B0198594696
:1020F000C0F14002504600F018FA06460D46504620
:102100005946019A00F030FA10EB080061410024B2
:1021100087EA115284EAE7731A4340D0009A62B307
:10212000019A012A4FEA075215DC001B61EB0201FC
:102130004FF0004202EA0752CDE90042001C41F58F
:10214000801132462B4600F067FA03B0BDE8F08FED
:1021500040462146F9E7001B61EB0201001C41F5F6
:10216000801300185B412018A2F5001747EB03010C
:1021700040EAD570B6196D4111E06D084FEA360698
:1021800045EAC0754FEA0752001B61EB0201001CD3
:1021900041F5801149084FEA30000019514132469B
:1021A0002B4603B0BDE8F04F00F027BA009801229B
:1021B00040000023D0EB020263EBE073009821465D
:1021C0004FEAE074B8EB000061EB0401E9E783F04B
:1021D00000435BE781F0004158E72DE9FE4F81EABB
:1021E000030404F0004421F0004100944FF0000B80
:1021F00023F0004350EA01045ED052EA03045BD0AE
:10220000C3F30A54C1F30A552C44A4F2F3340194E5
:10221000A0FB0254C1F3130141F48011C3F3130373
:1022200043F4801301FB024400FB034E840A970A27
:1022300044EA815447EA8357A4FB076802958D0A54
:1022400005FB07854FEA932C04FB0C542705029DE0
:102250004FEA065847EA1637B5EB08056EEB070C50
:10226000870E920E47EA811742EA8312A7FB02010A
:10227000B6EB0B0164EB00042B0D43EA0C335E1844
:1022800044EB1C50DA465146E7FB0201C5F3130448
:102290004FEA0B3343EA14534FEA0432019C43EAFA
:1022A0000603A4F10C040294009CCDE900B400F0F4
:1022B000B3F903B0BDE8F08F00200146F9E72DE93E
:1022C000F04D81EA030404F0004B21F00045144670
:1022D0004FF0000A23F0004150EA050220D054EAF2
:1022E00001021DD0C5F30A570246C5F31303C1F31B
:1022F0001300C1F30A5640F4801543F48013A7EB92
:102300000608101BD64608F2FD3873EB050002D311
:1023100008F1010801E092185B41B8F1000F03DAFF
:1023200000200146BDE8F08D00204FF480110646E4
:1023300084460EE0171B73EB050705D3121B63EBF6
:10234000050306434CEA010C49084FEA3000921895
:102350005B4150EA0107EDD152EA030012D082EA54
:10236000040083EA0501084305D0101BAB4106D2E7
:102370000122002306E000224FF0004302E06FF04C
:10238000010253101AEB06004CEB085110EB0A0047
:1023900041EB0B01BDE8F04D00F02FB99623002270
:1023A000114600F0FCB800F0004220F00040C10DE2
:1023B000C0F3160040F400007F2901DA00207047C6
:1023C000962903DCC1F19601C84001E096398840A6
:1023D000002AF4D04042704770B5C1F30A5201F0B0
:1023E00000450024C1F3130140F2FF3341F4801192
:1023F0009A4201DA002070BD40F233439A42A2F2C1
:10240000334203DC524200F09FF800E090402C433E
:10241000F1D0404270BD00F0004230F000400AD0E0
:10242000C10D01F56071C0F3160042EA0151C20806
:1024300040071143704700200146704701F00043F8
:1024400030B421F0004150EA010206D00A0DA2F595
:102450006072C1F31301002A02DC30BC0020704717
:10246000440F44EAC104C100E01830BC00EBC25084
:1024700000F08CB8002801DBC0F10040002901DB2E
:10248000C1F1004181427047002801DBC0F10040EA
:10249000002901DBC1F100418842704730B50B468D
:1024A000014600202022012409E021FA02F59D4284
:1024B00005D303FA02F5491B04FA02F52844151E58
:1024C000A2F10102F1DC30BD2DE9F05F05460020EC
:1024D00092469B4688460646814640241BE0284695
:1024E00041464746224600F02FF853465A46C01A46
:1024F000914110D311461846224600F016F82D1AC5
:1025000067EB01084F4622460120002100F00DF83C
:1025100017EB00094E41201EA4F10104DFDC484600
:1025200031462A464346BDE8F09F202A04DB203A84
:1025300000FA02F1002070479140C2F1200320FA16
:1025400003F3194390407047202A04DB203A21FA14
:1025500002F00021704721FA02F3D040C2F12002BC
:102560009140084319467047202A06DBCB17203AD2
:1025700041FA02F043EAE07306E041FA02F3D04088
:10258000C2F1200291400843194670470029A8BFB4
:102590007047401C490008BF20F00100704710B48C
:1025A000B0FA80FC00FA0CF050EA010404BF10BC41
:1025B000704749B1CCF1200421FA04F411FA0CF16E
:1025C00018BF012121430843A3EB0C01CB1D4FEAA7
:1025D00000614FEA102042BF002010BC704700EBA2
:1025E000C35010440029A4BF10BC7047401C4900D0
:1025F00008BF20F0010010BC704710B5141E73F125
:10260000000408DA401C41F1000192185B411A43B2
:1026100001D120F0010010BD2DE9F04D92469B46FE
:1026200011B1B1FA81F202E0B0FA80F220329046A4
:10263000FFF77BFF04460F4640EA0A0041EA0B0120
:1026400053465A46084313D0114653EA010019D0A5
:10265000C8F140025046FFF777FF05460E46504648
:1026600059464246FFF761FF084305D0012004E0C8
:1026700020463946BDE8F08D0020054346EAE07665
:102680002C4337430A986305E40AA0EB08000022B4
:10269000FD0A44EA47540A3002D500200146E9E722
:1026A000010510196941DDE9084500196941BDE8D6
:1026B000F04DA2E770B521F0004303430CD0C1F305
:1026C0000A550024D5EB040564EB0403D617AD1AB4
:1026D000B34102DB0020014670BD201841EB0251DE
:1026E00070BD0EB5C10F80EAE0700844CA07002132
:1026F00040F233438DE80E000A460B46FFF78CFF8D
:1027000003B000BDC1F30A52C1F3130140F2FF331D
:1027100041F480119A4202DA00200146704740F2EB
:1027200033439A42A2F2334202DC5242FFF70CBF1B
:10273000FFF7FBBE30B5041E71F1000404DB4FF05F
:102740000044404264EB0101141E73F1000405DBF8
:102750001C464FF00043524263EB0403994208BF0A
:10276000904230BD064C074D06E0E06840F00103A2
:1027700094E8070098471034AC42F6D3FDF7DCFC30
:10278000003D0008203D00082DE9F04D00231A46C9
:102790001B1A8A4103DB00200146BDE8F08DC1F31E
:1027A0000A52C1F3130141F480154FF0000BD10719
:1027B00002D100186D41521E0027044640F2FF115D
:1027C000384601EB620A3E468046024600204FF43E
:1027D0008011FFF7B9FEC2197141BB1846EB010029
:1027E000B4EB030C75EB000C04D3E41A65EB0005A5
:1027F00017460E46241908F101006D418046342821
:10280000E3DDF91946EB0600091BA84103D24FF09E
:10281000FF32134601E0002213461BEB070046EB94
:102820000A51BDE8F04DFFF7E8BE00000FB4054BBC
:1028300010B503A9044A029800F07EF910BC5DF8B7
:1028400014FB0000A51A0008380000200FB4084B44
:1028500010B504A902AA039800F06EF9044602A973
:10286000002000F0ECFC204610BC5DF814FB0000DA
:102870003F320008490050EAC12018BF04204A0D29
:1028800018BF40F0010040F2FF72B2EB515F08BF89
:1028900040F00200012808BF052070472DE9F041F3
:1028A0004F1E00EBC7010446D1E9000115461E4644
:1028B00037F006020DD02A463346FFF78EFC7F1E06
:1028C00004EBC703D3E90023FFF7E0FB37F0060270
:1028D000F1D1022F25D0042F13D0062F18BFBDE849
:1028E000F0812A463346FFF778FCD4E90A23FFF744
:1028F000CDFB2A463346FFF770FCD4E90823FFF7E7
:10290000C5FB2A463346FFF768FCD4E90623FFF7E8
:10291000BDFB2A463346FFF760FCD4E90423FFF7EA
:10292000B5FB2A463346FFF758FCD4E90223FFF7EC
:10293000ADFB2A463346FFF750FCD4E90023BDE83F
:10294000F041FFF7A3BB00000022134610460149E7
:10295000FFF7B5BC0000F03FFFF798BB002213461D
:1029600010461146FFF7ABBC40F2013200204FF099
:10297000E041FFF79FBE0000024A00201107FFF769
:1029800099BE000001FDFFFF02E008C8121F08C148
:10299000002AFAD170477047002001E001C1121FE0
:1029A000002AFBD170470000014908607047000011
:1029B0003C0000202DE9FF5F82B00021DDE90430FA
:1029C000020DDDF840B0034318D044F61050A2F2D7
:1029D000FF3242431514119801281FD0A5EB0B00BC
:1029E000401C5FEA000A4FF000064E4FDFF83891B6
:1029F000B046504615D5CAF1000413E011980124E1
:102A00004AA3012801D16FEA0B010298119AC0E98B
:102A10000031C0E9024206B0BDE8F09FCBF10000F2
:102A2000DFE704460021404A491842EB0450CDE953
:102A3000001012E0E00707D032463B4640464946C8
:102A4000FFF7CBFB8046894632463B461046194687
:102A5000FFF7C3FB06460F466410002CEAD1DDE900
:102A60000401DDE90023BAF1000F06DAFFF7B5FB38
:102A700042464B46FFF7B1FB05E0FFF720FC42461C
:102A80004B46FFF71CFC04460E460022284BFFF77E
:102A900051FE03D84FF0FF30014607E00022254BDE
:102AA00020463146FFF7F2FAFFF72CFE102409E02A
:102AB000002C0ADB0A220023FFF706FD039B3032BD
:102AC0001A55641E50EA0102F2D1641C039AC4F143
:102AD00011031444119A012A03D0012208430DD195
:102AE0000AE0084304D000204FF0110B119072E768
:102AF000A3EB0B056D1E0DE05B4504DD4FF00002FE
:102B000005F1010504E003DA4FF00002A5F101052B
:102B1000002AECD002981199C0E90231C0E90045C1
:102B200079E70000000014400000F03F3000000092
:102B30000000F0430000E03F2DE9FF4F95B09A46BA
:102B4000884606460025EEE1252877D10024274651
:102B5000F94A0121039400E0044316F8013F203BA9
:102B600001FA03F01042F7D130782A2811D06FF023
:102B70002F033078A0F13002092A16D8039A44F0C6
:102B8000020402EB820203EB42021044761C039023
:102B9000EFE758F8042B0392002A03DA504244F47A
:102BA0000054039044F00204761C30782E2816D18D
:102BB00016F8010F44F004042A280DD06FF02F02FC
:102BC0003078A0F13003092B09D807EB870302EB1B
:102BD0004303C718761CF3E758F8047B761C30785B
:102BE0006C280FD006DC4C2817D068280DD06A2836
:102BF00014D104E0742810D07A280FD10DE044F4E9
:102C000000140AE044F4801401E044F440147278A3
:102C1000824202D104F58014761C761C3078662836
:102C20000BD013DC582877D009DC002875D0452854
:102C3000F6D04628F4D047281AD193E118E063284B
:102C400035D0642879D0652812D18BE1702873D0F3
:102C500008DC6728F1D069286FD06E280DD06F2866
:102C600006D1ACE073282CD0752874D0782853D0C6
:102C70005246179990476D1C54E1C4F30250022844
:102C800009D003280DD0D8F8001004280DD00D600D
:102C900008F1040846E1D8F80010EA17C1E900522B
:102CA000F6E7D8F800100D80F2E70D70F0E718F89D
:102CB000041B8DF8001000208DF80100EB46012068
:102CC00003E058F804BB4FF0FF3061074FF00001FC
:102CD00002D40DE009F101018946B9420FDA8145BC
:102CE000F8DB1BF809100029F4D108E009F1010113
:102CF00089468142FADB1BF809100029F6D10398B6
:102D00005346A0EB090721463846179A00F080FA8F
:102D1000284400EB090507E044E008E10DE01BF85A
:102D2000010B524617999047B9F10109F7D2534662
:102D300021463846179AF2E039E00A21C4F30252DC
:102D40004FF0000B0091022A06D058F8040BC1176F
:102D5000032A09D00AE023E008F1070020F0070267
:102D6000F2E80201904605E000B2C117042A01D141
:102D700040B2C117002906DA0A460021404261EB41
:102D800002012D2202E0220504D52B228DF8042019
:102D9000012203E0E20701D02022F7E7914657E045
:102DA0000A2100E010214FF0000B00910BE01021F0
:102DB0004FF0000B44F004040827009103E00820C2
:102DC0004FF0000B0090C4F30252022A05D058F8CD
:102DD000040B0021032A08D008E008F1070020F0C6
:102DE0000702F2E80201904603E080B2042A00D113
:102DF000C0B24FF0000922072AD53278702A07D0D6
:102E0000DDF800C08CF0100C5CEA0B0C05D00EE075
:102E100040228DF80420012208E050EA010306D088
:102E200030238DF804308DF8052002229146009B56
:102E300083F0080353EA0B030AD150EA010201D1DF
:102E4000620705D530228DF804204FF001097F1E5E
:102E50003278582A04D039A20C920CAA02920BE0C4
:102E60003BA2F9E75B46009AFFF72EFB0C9B9B5CAD
:102E7000029A521E0292137050EA0102F2D1029895
:102E800004A9081A00F1200B600702D524F480344D
:102E900000E001275F4502DDA7EB0B0000E000200A
:102EA00000EB0B01009003984944401A0390E003A3
:102EB00006D453462146179A039800F0A9F9054411
:102EC000002706E001A85246C05D179990476D1C87
:102ED0007F1C4F45F6DBE0030CD553462146179A7D
:102EE000039800F095F9054404E030205246179904
:102EF00090476D1C0099481E00900029F5DC08E001
:102F00000298029952460078491C029117999047FD
:102F10006D1CBBF10001ABF1010BF1DC5BE100F0DA
:102F200065F90544761C307800287FF40DAE19B0A1
:102F30002846BDE8F08F0000092801003031323307
:102F400034353637383961626364656600000000E5
:102F500030313233343536373839414243444546CF
:102F600000000000600700D4062708F1070020F0E9
:102F70000700F0E80223804603F0004C5FEA0C00F3
:102F800001D097A009E0200501D596A005E0E00753
:102F900001D095A001E0AFF24C001390307823F0FF
:102FA000004365280CD006DC452809D046281DD0F2
:102FB00047287FD13BE0662818D067287AD136E0D1
:102FC0000021112F01DB112000E0781CCDE9000168
:102FD00004A90CA8FFF7EEFCDDE90D010C9A4FF0F7
:102FE000000B07F10109109200914EE04FF00040F4
:102FF0000097CDE9011004A90CA8FFF7DBFCDDE97F
:103000000D020C9B0F994FF0000B9146109300920C
:1030100011B9791C00EB0109B7EB090003D4C0F129
:10302000FF3B07F10109A9EB0700019042E0012FE6
:1030300000DA01270021112F01DD112000E03846C0
:10304000CDE9000104A90CA8FFF7B4FCDDE90D01EE
:103050000C9A00914FF0000BB946109221070FD443
:10306000009A4A4503DA914601E0A9F10109B9F154
:10307000010F05DD109AA9F10101515C3029F4D04E
:10308000B84202DA10F1040F03DA0121CDE9011090
:1030900010E0002803DC8344A9EB000102E0411C9E
:1030A000494500DD8946A0EB0B00401C01904FF024
:1030B00000400290200705D40198484502DB4FF0FC
:1030C000FF30019000208DF84B0002980DF14B0766
:1030D000B0F1004F25D002200C902B200D900298CB
:1030E00000280CDA404202902D200D9007E00A21C2
:1030F0000298FFF7D3F93031029007F8011D0C99BF
:10310000481E0C900029F2DC02980028EFD1791EAD
:103110000D980870307800F0200040F0450007F866
:10312000020D11A8C01BC01D02901398007800B1B9
:10313000012000EB0901019801EBE07102980144C4
:103140000398401A401E0390E00306D453462146DC
:10315000179A039800F05CF805441398007818B1AA
:103160005246179990476D1CE00323D553462146DC
:10317000179A039800F04CF805441BE0BBF1000FD0
:1031800007DB0098584504DD1098179910F80B00DC
:1031900001E0179930205246904701980BF1010B3E
:1031A000401E05F10105019004D12E2052461799C9
:1031B00090476D1CB9F10001A9F10109DEDC05E0C1
:1031C00017F8010B5246179990476D1C0299481E3B
:1031D00002900029F4DC53462146179A03989EE694
:1031E0002D0000002B000000200000002DE9F04120
:1031F000044600251E461746880404D405E03946D7
:103200002020B0476D1C641EF9D52846BDE8F0812A
:103210002DE9F041044600251E469046C80301D51D
:10322000302700E02027880404D505E041463846D1
:10323000B0476D1C641EF9D52846BDE8F0810A68C8
:10324000531C0B60107070472DE9F04D1D460C4665
:1032500098B0174621F0004123F00043002814BF26
:103260004FF0010C4FF0000C0CEB440CFE4A0CEB41
:1032700002064FEA620C66452BD33E0018BF0126BA
:1032800006EB45061644F94A964222D3F84A53EA19
:10329000070C02D0944205D148B918B0002011465D
:1032A000BDE8F08D002808BF4FF0000C01D04FF0B2
:1032B000010C0CEB440212F5001F0AD8002F14BFBA
:1032C0004FF0010C4FF0000C0CEB450212F5001F03
:1032D00007D918B03A462B462146BDE8F04DFFF716
:1032E0003BBB0022DFF88CA3002CB8BF534526DA85
:1032F000DFF884C36345A8BF022220DADFF870C379
:103300009C451CDCDFF874C30CEB235CBCF1140F90
:1033100008DDCCF1340627FA06FC0CFA06F6BE42AC
:103320000DD108E05FB9CCF1140623FA06FC0CFAC3
:1033300006F69E4203D10CF00102C2F1020251EAEC
:10334000000C19D1002D17DA002C18BF022A01D069
:10335000012A07D00220FFF727FB18B0BDE8F04D87
:10336000FFF7F2BA0220FFF71FFBFFF7EDFA18B0E4
:1033700081F00041BDE8F08DB7F1000C6CD15345F0
:1033800025D104F1804212F5801201BF00280020EF
:10339000B74918B008BFBDE8F08DB548884207DCD2
:1033A000002DA1BF6046294618B0BDE8F08D07E0AA
:1033B000281E05DA80F0004118B06046BDE8F08DA7
:1033C000AF497944D1E9000118B0BDE8F08DDFF8CC
:1033D000A0C2634525D1002D1FDA19B1514512D184
:1033E000D8B909E0002840F0EC82A24A214618B082
:1033F00062F31E01BDE8F08D0020214618B060F395
:103400001E01BDE8F08D08DA18B02346BDE8F04D86
:10341000024600206146FEF752BF18B02146BDE8C3
:10342000F08D514518DAB5F1804F0DD0A5F1005C53
:10343000BCF1FF5C10D1B4F1000C0DDB18B061469B
:10344000BDE8F04D00F0ECBB234618B00246BDE8E5
:10345000F04D1946FEF7C1BE060024F0004C3BD1EA
:10346000D9B1514533D1002C06DD002DA1BF00207C
:10347000514618B0BDE8F08D002C01DD002D1BDB9E
:10348000002C13DA002D11DB012A4FF0000014BFCD
:1034900078497C4918B0BDE8F08D022A18BF002C8D
:1034A0000AD0012A08D1002C06DA0AE0002CB8BFA5
:1034B000002D11DA012A04D0002018B00146BDE821
:1034C000F08D18B000204FF00041BDE8F08DA1F163
:1034D0004050B0F17F601AD0012000EBE47050EA58
:1034E000020421D0624C521E4FF0000B104304BF67
:1034F0004FF0000B644C654883427CDD644A6548AC
:1035000093421FDD884217DB002D25DB37E0002CBE
:1035100000DA4AB1022A0CBF01204FF0FF3018B088
:10352000BDE8F04DFFF7DDB80120FFF73DFA18B018
:10353000BDE8F04DFFF712BA4D4A8A4202DC002D79
:103540000ADC1CE0814202DA002D18DA04E0484B64
:10355000994220DD002D12DD0220FFF725FAFFF74A
:1035600003FA05460E460022534658462146FEF70A
:1035700034FE18B066F31E012846BDE8F08D022027
:10358000FFF712FAFFF7F8F90A46214618B062F37E
:103590001E01BDE8F08D002230466146FEF717FEA1
:1035A00080460E466FF00102FFF784F84FF0553267
:1035B000394BFEF70FFE42463346FEF70EFE002261
:1035C000364BFEF707FE82464246334604911046CC
:1035D0001946FEF702FE5246049BFEF7FEFD8A46A0
:1035E00000904FF0C0422E4B40463146FEF7F5FDAD
:1035F0002C4A2B4B00E027E0CDE90601514600980C
:10360000FEF7EBFD82460191274A284B40463146A2
:10361000FEF7E3FD5246019BFEF7D9FD82460B46BD
:1036200002460591DDE90601FEF730FDDDE90623DE
:10363000002688463046FEF7CAFD5246059BFEF737
:10364000C9FD024600F07EB90020B1F5801F07DAFF
:10365000352230466146FFF72DF806466FF03400FC
:1036600000EB215024E00000FFFF1F00FFFF0F00D0
:103670000000F03F0000F07F0000404301FCFFFF2E
:10368000320900000000F0FF0000F0BF0000E04140
:103690000000F043FFFFEF3F5555D53F0000E03FEE
:1036A0004715F73FFE822B6544DF5DF80BAE543EB5
:1036B000A0F2FF300190C1F3130040F07F6141F0B0
:1036C00040510291FE498842D8BF002004DDFD49E7
:1036D0008142C8BF012001DD0D9008E000200D905F
:1036E0000198401C01900298A0F580100290029968
:1036F000F54878440B910D9900EBC100D0E9002307
:103700000F9330460A920B99FEF761FDCDE9060151
:10371000DDE90A2130460F9BFEF7B8FC02460B4656
:103720000020EA49FEF7CBFD059102460B460090CA
:10373000DDE90601FEF751FD1490E5488A464FF099
:10374000000878440299006812904FF0005040EA57
:1037500061010D980F9B01EB804000F5002109915C
:103760000A9A1298FEF733FD32460B9BFEF732FDA4
:1037700042465346FEF731FD064602914046514609
:10378000099B129AFEF729FDDDE90623FEF722FDCB
:103790003246029BFEF71BFD059B009AFEF71DFDBE
:1037A0000091149A0490534610461946FEF715FDF1
:1037B00006460246C7480B46029106217844FFF7A9
:1037C0006DF8CDE90510029B324610461946FEF70A
:1037D00004FDDDE90532FEF700FD0591064653467E
:1037E00040461946149AFEF751FC009B049AFEF7D6
:1037F000F4FC3246059BFEF749FCCDE90510424634
:10380000534610461946FEF7E8FC0022B24B0291DF
:103810000A90FEF73BFCDDE90532FEF737FC0E4669
:103820004246AD4B4046FEF7D2FC029B0A9AFEF799
:10383000CEFCDDE90532FEF7CDFC424602910A904E
:10384000334610465146FEF7C8FCCDE90601534603
:10385000149A02990A98FEF7C0FC8A4602903346F1
:10386000424600990498FEF7B8FC5346029AFEF7C8
:103870000DFC82460B4602460591DDE90601FEF786
:1038800005FCDDE90623002088460646FEF79FFC7E
:103890005246059BFEF79EFC824609914FF060421E
:1038A0008E4B30464146FEF798FC049006918C4AB8
:1038B0008A4B50460999FEF790FC82460291894A4C
:1038C000894B30464146FEF788FC5246029BFEF784
:1038D000DDFB864B7B440D9A03EBC203D3E9002347
:1038E000FEF7D4FB0E9007910198FEF7FAFE0591C2
:1038F000DDE9061382460E9A0498FEF7C7FB7C4A60
:103900007A440D9B02EBC303D3E900230093029298
:10391000FEF7BCFB5246059BFEF7B8FB0026884627
:1039200052463046059BFEF752FC009B029AFEF77A
:103930004EFC069B049AFEF74AFC079B0E9AFEF784
:1039400049FC024600200B46029038462946FEF705
:1039500044FC824601912B4638461946029AFEF7EE
:1039600036FC32464346FEF738FC5246019BFEF7D2
:103970008DFB07468A463246434629460298FEF7A3
:103980002CFC05460E463A465346FEF77FFB594A45
:103990008846914221DBA8EB020353EA000210D1D2
:1039A0002A463346FEF713FCCDE90401524A534B35
:1039B00038465146FEF76AFBDDE90423FEF7BAFEFE
:1039C00021D20220FEF7F0FFFEF7CEFF0A46214685
:1039D00018B062F31E01BDE8F08D494B28F000429B
:1039E0009A4210D3474A08EB020353EA00027FF4DD
:1039F000C6AD2A463346FEF7EAFB3A465346FEF783
:103A000099FE7FF6BCAD0022019228F000403E49AD
:103A10003E4A01EB2051824223DA481C4FF48011C8
:103A200021FA00F040443A4AC0F30A517A44394B33
:103A3000A1F2FF31CB4020EA0303C0F3130040F4AE
:103A40008010C1F11401C84012680190B8F1000F54
:103A5000BCBF4042019028463146FEF7B8FB054600
:103A60000E462A46334638465146FEF70FFB4FF0C6
:103A700000084246284B40460591FEF7AEFBCDE9D3
:103A80000601264A264B40460599FEF7A6FB009103
:103A900002902A46334640460599FEF798FB3A467F
:103AA0005346FEF797FB1F4A1F4BFEF796FB009B02
:103AB000029AFEF7EBFA0746884602460B4635E0C7
:103AC0008E9803007AB60B007A0500000000F03FE4
:103AD000B2050000E00400000000084009C7EE3F06
:103AE000FD033ADCF5015B14E02F3EBEB803000095
:103AF0007C03000000009040FE822B654715973C38
:103B000000CC904000346F3F01FCFFFF0000E03F1D
:103B1000C8020000FFFF0F00432EE63F396CA80CDF
:103B2000615C20BEEF39FAFE422EE63FDDE9060178
:103B3000FEF7ACFADDE9062305460E46FEF747FB25
:103B40003A464346FEF746FB0F462A463346009068
:103B500010461946FEF741FB824602462E4888462B
:103B60000B4605217844FEF799FE52464346FEF780
:103B700034FB2A463346FEF72DFB80468A463B46F9
:103B800028463146009AFEF728FB3B46009AFEF78E
:103B90007DFA0691009000224FF080434046514646
:103BA000FEF715FB0F460C90424653462846314619
:103BB000FEF713FB3B460C9AFEF781FB069B009A2F
:103BC000FEF705FB2A463346FEF701FB0022134BA6
:103BD000FEF700FB054601980E4601EB0051081563
:103BE000002810DC28463146019AFEF763FDFEF7F7
:103BF00041FE042808BFFEF7BFFE28463146019A61
:103C0000FEF758FD05460B4618B02A465846214691
:103C1000BDE8F04DFEF7E1BA680100000000F03F9A
:103C20002DE9F04106460F46FEF7AEFD041E0D4697
:103C300018BF0120284320F00040C0F17F6000F150
:103C4000E040C00F0ED0301C18BF0120384320F0D8
:103C50000040C0F17F6000F1E040C00F04BF0120D0
:103C6000FEF7A2FE20462946BDE8F08100000000D4
:103C7000000000000000F03F000000000000F83FDE
:103C800000000000000000000000004003B8E23F18
:103C9000000000000000000006D0CF43EBFD4C3ECA
:103CA000033333333333E33FFFAB6FDBB66DDB3FBF
:103CB0004D268F515555D53F01411DA96074D13F07
:103CC00065DBC9934A86CD3FEF4E454A287ECA3F01
:103CD0003E5555555555C53F93BDBE166CC166BF83
:103CE0002CDE25AF6A56113FF16BD2C541BDBBBE7C
:103CF000D0A4BE726937663E0000000000000000DC
:103D0000203D000800000020400000008829000835
:103D1000603D000840000020802300009829000832
:103D200000A24A0400000000000000000102030499
:103D30000607080900000000010203040102030451
:103D40000607080902040608000000000000000041
:103D50000000000000000000000000000000000063
:0400000508000131BD
:00000001FF
