:020000040800F2
:10000000F07B002051030008274D00080B4A000830
:10001000254D000879100008C958000800000000AC
:10002000000000000000000000000000314F000848
:100030007D14000800000000294D0008A54F0008AD
:100040006B0300086B0300086B0300086B030008D8
:100050006B0300086B0300086B0300086B030008C8
:100060006B0300086B0300086B030008D91000083D
:10007000E51000086B0300086B0300086B03000821
:100080006B0300086B0300086B0300086B03000898
:100090006B0300086B0300086B0300086B03000888
:1000A0006B0300086B0300086B0300086B03000878
:1000B0006B0300086B0300086B0300086B03000868
:1000C0006B0300086B0300086B0300086B03000858
:1000D0006B0300086B0300086B0300086B03000848
:1000E0006B0300086B030008000000006B030008AE
:1000F0006B0300086B0300086B0300086B03000828
:100100006B0300086B0300086B0300086B03000817
:100110006B0300086B0300086B0300086B03000807
:100120006B0300086B0300086B0300086B030008F7
:100130006B0300086B0300086B0300086B030008E7
:1001400000000000000000000000000000000000AF
:100150006B0300086B0300086B0300086B030008C7
:100160006B0300086B0300086B0300086B030008B7
:100170006B0300086B0300086B030008000000001D
:100180006B0300086B0300086B0300086B03000897
:100190006B0300086B0300086B0300086B03000887
:1001A0006B0300086B0300086B0300086B03000877
:1001B0006B0300086B0300086B0300086B03000867
:1001C0006B0300086B0300086B0300086B03000857
:1001D0006B0300086B0300086B0300086B03000847
:1001E0006B0300086B0300086B0300086B03000837
:1001F0006B0300086B0300086B0300086B03000827
:100200006B0300086B0300086B0300086B03000816
:100210006B0300086B0300086B0300086B03000806
:100220006B0300086B0300086B030008000000006C
:100230006B0300086B030008000000006B0300085C
:100240006B0300086B0300086B0300086B030008D6
:100250006B0300086B0300086B0300086B030008C6
:100260006B0300086B0300086B0300086B030008B6
:100270006B0300086B0300086B030008000000001C
:100280006B0300086B0300086B030008000000000C
:10029000000000006B03000800F002F800F049F8CD
:1002A0000AA090E8000C82448344AAF10107DA45D1
:1002B00001D100F03EF8AFF2090EBAE80F0013F0DA
:1002C000010F18BFFB1A43F001031847985F0000A5
:1002D000B85F0000103A24BF78C878C1FAD8520736
:1002E00024BF30C830C144BF04680C6070470000B0
:1002F0000023002400250026103A28BF78C1FBD82F
:10030000520728BF30C148BF0B607047642900F016
:10031000FF80002070471FB505F0C6FE9DE8030072
:1003200000F004FC00F0F6F91FBD10B500F05BFA18
:1003300010BD00F08FFA1146FFF7EDFF05F0E4FA6B
:1003400000F094FB03B4FFF7F0FF03BC00F060FD86
:100350000948804709480047FEE7FEE7FEE7FEE759
:10036000FEE7FEE7FEE7FEE7FEE7FEE70448054995
:10037000054A064B70470000C1500008990200086A
:10038000F0050020F07B0020F0070020F00700209F
:1003900053EA020C00F069802DE9F04B4FF00006A3
:1003A000002B1FBFB3FA83F503FA05F424FA05F610
:1003B0005E4012BF1643B2FA82F502FA05F4C5F1A7
:1003C00020051EBF22FA05FC44EA0C04203556EA3B
:1003D000044C4FEA144418BF641C4FF000084FF05F
:1003E0000009904271EB030C39D3002919BFB1FA0F
:1003F00081F701FA07F6B0FA80F700FA07F6C7F1BD
:1004000020071EBF20FA07FC46EA0C062037B6FB81
:10041000F4FCA7EB0507103F07F01F0BCBF12006FC
:100420002CFA06F60CFA0BFB44BFB3460026202F2D
:10043000A4BF5E464FF0000B5BEA060C08BF4FF00E
:10044000010B19EB0B0948EB0608ABFB027C06FB22
:1004500002CC0BFB03CCC01B71EB0C01C1E70B46BC
:10046000024641464846BDE8F08B13B54FF0000008
:100470004FF00001AFF30080BDE81C407047000062
:100480000FB41CB5074B06AA7B446946009005983B
:1004900000F023F90020694600F032F91CBC5DF839
:1004A00014FB0000750200002DE9F0410E460446E1
:1004B000002020622046E168884730B3252805D017
:1004C000D4E901219047206A401CF2E7E168204608
:1004D00000278847050018D0A5F14100192802D847
:1004E00020354FF400673246294620462760FFF743
:1004F0000DFF40B1012804D0F61D26F0070608368E
:10050000D8E7361DD6E72846DAE7206ABDE8F0814D
:100510002DE9F0410646002410687529314616A5DC
:1005200010D0AFF30080002802DA404213A507E0A4
:1005300031688A0701D512A502E0490704D511A543
:10054000012401E0AFF3008000210A2206F1240714
:1005500009E0B0FBF2FCB0FBF2F302FB1C00303010
:1005600078541846491C0028F3D123462A463046C1
:10057000BDE8F04100F053B8000000002D0000007D
:100580002B0000002000000010B5044603E005F039
:10059000ADF9401C09D014F8010B05490028F6D12B
:1005A000BDE810400A2005F0A1B94FF0FF3010BDA2
:1005B000740000204FF0000200B5134694469646A2
:1005C000203922BFA0E80C50A0E80C50B1F1200166
:1005D000BFF4F7AF090728BFA0E80C5048BF0CC014
:1005E0005DF804EB890028BF40F8042B08BF704772
:1005F00048BF20F8022B11F0804F18BF00F8012BE4
:10060000704770477047704710B500F07FF800687A
:1006100010BD10B5044600F079F8046010BD2DE956
:10062000F0470D4699469246044600F124080168B9
:10063000880604D5E06921F01001216000E0012066
:10064000A84201DD471B00E00027A1697A1902EBEF
:100650000900081AA0612078C00602D42046AFF332
:100660000080002608E0D4E901211AF8060090472E
:10067000206A401C761C20624E45F4DB2078C006C0
:100680000AD52046AFF3008006E0D4E901213020EE
:100690009047206A401C2062381EA7F10107F4DC55
:1006A00007E0D4E9012118F805009047206A401CB2
:1006B0002062281EA5F10105F3DC2046AFF300807F
:1006C0002078000602D50220BDE8F0870120FBE774
:1006D00001694A1C02610878704700B58FB0CDE906
:1006E00001310021059105497944CDE903101146F6
:1006F0006846FFF7D9FE0FB000BD0000E5FFFFFF21
:100700000A6802F8010B0A60704700000048704751
:100710001C01002010B542485421FFF74BFF41480F
:100720005421FFF747FF40485421FFF743FF3F495B
:100730003B483C4A3F4B08603D490A603A491960D2
:10074000531C0365481C1065012008653B48344A6A
:1007500039A1784400F0EEF820B9384878440A38D6
:1007600000F08DF937482F4A35A1784400F0E2F8BF
:1007700020B9344878440A3800F081F932482A4ACE
:100780002FA1784400F0D6F820B92F4878440A38D1
:1007900000F075F940232248DC000021224600F0D9
:1007A000A5F820B125487844543800F068F91D4870
:1007B00022464023002100F099F820B121487844D6
:1007C000543800F05CF9184822461023002100F04C
:1007D0008DF8002806D01C487844BDE810405638F3
:1007E00000F04DB910BD104870B5006D20F0010447
:1007F0000B4800F015F90B4800F012F90A4800F018
:100800000FF909E0206D20F00105204600F008F9FD
:10081000204600F044F82C46002CF3D170BD0000B7
:100820002000002074000020C800002000000020EC
:10083000040000200800002072000000925A00000E
:10084000770000007E5A00006A5A00000048704796
:100850001C0100207546FFF7F9FFAE46050069460A
:10086000534620F00700854618B020B5FFF77EFDFF
:10087000BDE820404FF000064FF000074FF00008A1
:100880004FF0000BAC46ACE8C009ACE8C009ACE8DE
:10089000C009ACE8C00921F007018D46704770B56A
:1008A0000446051F00F026F90068002C14BF4468B8
:1008B00070BD002C18BFAC423CBF20466468F8D322
:1008C00001680A18AA4218BF456003D12A68054684
:1008D0001144016028684119A1421CBF6C6070BDC1
:1008E0006168696021680844286070BD70B5C4689B
:1008F000A50713D0650211D4B2F5807F09D0B2F5F7
:10090000007F06D0B2F5806F08D1012300F12401E9
:1009100006E05D1E6FF07F46B54201D3012070BD39
:100920000161C361416024F470611143C160002022
:1009300070BD00002DE9F0410C46074616461046F2
:1009400000F06EF82078611C61280AD0722802D06D
:1009500077283CD102E00125002405E0022504248B
:1009600002E0082448F2020511F8010B2B2806D0FA
:10097000622809D011F8010C74280AD00BE045F068
:10098000030544F00204EFE745F0040544F00104D8
:10099000EAE744F010043846214600F077F8411C9D
:1009A00015D00021316171604FF40071F560F16183
:1009B0007061200704D530460222002100F014F9AE
:1009C000306D40F0010030653046BDE8F081002018
:1009D000FBE72DE9F0410D460646104C206DC1079E
:1009E00004D0410804D020F00104F7E722460EE0CD
:1009F000542000F0CAF807000ED0206D47F0010126
:100A00000843542120653846FFF7D4FD3A4629466D
:100A10003046BDE8F0418DE70020D6E720000020F9
:100A20002DE9F04704464FF000094FF0FF37C56845
:100A3000D4E90486A80707D0204600F085F930469F
:100A400000F02EF8002802DA3846BDE8F0872805C5
:100A500002D54046FFF723FF4C212046FFF7AAFDB1
:100A6000206D20F0010020654846EEE710B50446F1
:100A7000AFF300802046BDE81040FFF763BC10B51F
:100A800000F0ACF9BDE8104000F0A2B90EB5CDE918
:100A9000000100F026FA029069460120ABBE0EBDAF
:100AA00008B5694600900220ABBE08BD1FB58DE8B1
:100AB000070069460520ABBE04B010BD1FB58DE828
:100AC0000F0069460620ABBEF6E708B56946009000
:100AD0000920ABBE08BD1CB5CDE9000169460A205E
:100AE000ABBE1CBD704708B5694600900C20ABBE7C
:100AF00008BD00000048704724010020704770477F
:100B00007047704738B504460A4600206946AFF37F
:100B10000080002808BF38BD02460099204600F03A
:100B200085F9012038BD012000F0D4B9F8B5AFF344
:100B30000080054600200C46102000BF0646A8197C
:100B4000A0420DD9324669460020AFF3008007006D
:100B500008BF00F0BFF90098A04218BF0546C419AD
:100B6000FFF7C8FF05600746F01D20F00700461993
:100B7000284600F054F9B44208BFF8BDA21B314624
:100B80003868BDE8F84000F051B970B50646FFF787
:100B9000B1FF056806F10B0020F00704B4429CBFCA
:100BA000002070BD2B466A68BAB11068A04210D30D
:100BB00004F1080188423CBF5068586007D351686F
:100BC000101941601168091B016058601460101D04
:100BD00070BD13465268002AE7D121462846FFF728
:100BE00091FF0028DED170BD2DE9F0410446164684
:100BF0000D464769007B80072ED03846FFF765FF1A
:100C000050BB3EB3012E02D0022E25D104E0204677
:100C100000F026F905441DE03846FFF764FFE1685F
:100C2000002841F01001E16005DA204600F058F894
:100C30000120BDE8F081C9030BD56268E16A9142E9
:100C400000D81146A26911442269891A814200DD47
:100C500008460544002D01DA0220EAE7E16A6068EF
:100C6000E268814206D29103E06203D522F40031AA
:100C700041F01002A6690027AE4213DCE16A81420E
:100C800001D90B4600E0034603EB060C2369ACEBED
:100C9000030CAC4506DD814201D98C4600E0844658
:100CA0009C4505D1A760276042F02000A5620DE0B9
:100CB000AD1BE669AE1B8142A66000D90846C01A8A
:100CC000281A20605819606022F02000034908406B
:100CD000E060002084F84870ABE70000BFCFD7FF8A
:100CE000C16821F4001141F08001C16000218160E0
:100CF000016070472DE9F047814614460E464FF0DB
:100D0000FF383248D5685769054209D03846A1698D
:100D1000FFF7E1FE002811DB2C48C0430540E560E9
:100D20002B46324649463846FFF7C0FEA16920F0FF
:100D30000042B21A11440028A16103D02046FFF7F7
:100D4000CFFF4046BDE8F08770B504460569C06A2C
:100D50006168884200D80846E16821F42011E1600A
:100D6000C90312D5A84208D02246411B2846FFF7E6
:100D7000C1FF10B14FF0FF3070BD0020E562C4E943
:100D80000150E06820F48030E060002070BD10B5B4
:100D90000446C06820F02000E060A16AA069884293
:100DA0000DD02046FFF7D0FFE06820F4405040F01F
:100DB0001000E060A06AA0612069E062606044F217
:100DC0004001E0688843E06010BD000010000200B0
:100DD000002801D000F01CB87047000010B5014693
:100DE00002A000F05EF8012010BD000053494752F8
:100DF000545245443A2052656469726563743A20DE
:100E000063616E2774206F70656E3A2000000000E9
:100E100001491820ABBEFEE7260002007047002102
:100E20000160C0E901107047102070470346406818
:100E30008C46002818BF88423CBF03464068F8D360
:100E400018681844884207D00CF1030020F007000E
:100E5000001D411A521A0146081D0A60FFF71FBD06
:100E600010B50146C268900703D0900607D5886A7E
:100E70000AE0FFF74BFC01210160881E10BD8B6961
:100E8000486818440B69C01A91F848301BB191F8B2
:100E90004910401A10BD1103FCD50028FADD401E90
:100EA00010BD70B505460C460A2000E06D1C00F030
:100EB00037F835B128780028F8D102E0641C00F03A
:100EC0002FF814B120780028F8D1BDE870400A202E
:100ED00000F026B810B500F02BF8BDE81040FFF781
:100EE00077BF10B5431C02E010F8011B71B18107F8
:100EF000FAD14FF0013202C88C1A8C4314EAC211A5
:100F0000F9D0C01A0A0603D0C01E10BDC01A10BD09
:100F10000A0401D0801E10BD0902FCD0401E10BD85
:100F200008B569468DF800000320ABBE08BD00007F
:100F300010B5012805D0002103A0FFF7B2FF012062
:100F400010BD09A1F8E7000053494752544D454DE3
:100F50003A204F7574206F662068656170206D655A
:100F60006D6F7279000000003A2048656170206D55
:100F7000656D6F727920636F72727570746564004D
:100F8000B0B50446006840F480703449884214BF0C
:100F900034483348006810F4403F0ED002F032FF6E
:100FA00061680546B1F5803F05D0B1F5403F1FD0DF
:100FB000B1F5003F1DD1080C17E04FF4002002F0FE
:100FC0007BF861680546A1F580224FEAB2420A2A01
:100FD0000FD8DFE802F0060606060606383A3C3E61
:100FE00040006FF0010000EA5140B5FBF0F500E071
:100FF000AD0801F0A5FD41F203018842206806D842
:101000001C498D42816809D341F4807119E0164969
:101010008D4206D8816821F4407112E021F480717C
:101020000FE012498D4202D88168012204E0104984
:101030008D42816803D8022262F3092101E041F464
:1010400040718160B0BD2D09D3E76D09D1E7AD09CD
:10105000CFE7ED09CDE72D0ACBE700BF0021024025
:10106000082302400863025821BCBE0041787D017C
:1010700081F0FA02012D3101FEE710B5846B2046A4
:1010800000F0FEFD0120207110BD10B5846B2046DC
:1010900000F050FD0120207110BD10B5846B206957
:1010A00040F004002061204600F0ECFD012020719A
:1010B00010BD10B5846B206940F00400206120460B
:1010C00000F03AFD0120207110BD806B00F0D9BD09
:1010D000806B00F030BD0000014800F0B1BE00BFE1
:1010E000FC030020014800F0ABBE00BF84030020D9
:1010F0000168CA4A914223D0C94A91421CBFC94AD9
:1011000091421DD0C84A91421CBFC84A914217D093
:10111000C74A91421CBFC74A914211D0C64A914268
:101120001CBFC64A91420BD0C54A91421CBFC54A5A
:10113000914205D0C44A91421CBFC44A91421AD17F
:1011400080B56FF00F02DFF848C052FA81F2182321
:10115000B2FBF3F340F2FF3E21EA0E015F2A03F0F7
:1011600007031CF80330C36588BF0431BDE8804025
:10117000816508467047B64A9142E1D0B64A91422D
:10118000DED0B44A9142DBD021F0FF01F0E700BF8E
:101190001C6200080268B1498A421F491CBFB04B5B
:1011A0009A4205D0AF4B9A421CBFAF4B9A4213D123
:1011B000D3B2A3F108021423B2FBF3F301F18002CE
:1011C00001EB830103F01F0301664FF0010C0CFAE1
:1011D00003F1C0E919217047A44B9A42E8D0A64B0D
:1011E0009A42E5D0A24B9A42E2D0A1F55B7CD3B201
:1011F0006245DED0A3F110011823B1FBF3F1084BD7
:1012000003F1AA0C9A420B4688BF0833624528BFF7
:101210000B460249D2E700BF0058025800080240BE
:101220000F04024001790139072988BF704702681D
:101230008A4B9A421CBF8A4B9A4205D0894B9A42EC
:101240001CBF894B9A420BD18A000E4B4FF0010C08
:101250001A444033C2660CFA01F1C0E91C317047F0
:10126000824B9A42F0D0844B9A42EDD0804B9A4206
:10127000EAD0804B9A424FEA8102E6D0004BE5E784
:101280000009024000590258F0B5D0F800C0634C84
:10129000A445D0F858E03BD0614DAC451CBF614D32
:1012A000AC4535D0604DAC451CBF604DAC452FD032
:1012B0005F4DAC451CBF5F4DAC4529D05E4DAC4584
:1012C0001CBF5E4DAC4523D05D4DAC451CBF5D4D94
:1012D000AC451DD05C4DAC451CBF5C4DAC4517D03A
:1012E0005B4DAC451CBF5B4DAC4511D05A4DAC4578
:1012F0001CBF5A4DAC450BD0594DAC451CBF594D88
:10130000AC4505D0584DAC451CBF584DAC456DD1D2
:10131000C66ED0E91957002E6F6002D0D0E91C5676
:101320006E60A44529D03E4CA4451CBF3D4CA4454D
:1013300023D03D4CA4451CBF3C4CA4451DD03C4C87
:10134000A4451CBF3B4CA44517D03B4CA4451CBF37
:101350003A4CA44511D03A4CA4451CBF394CA44585
:101360000BD0394CA4451CBF384CA44505D0384C93
:10137000A4451CBF374CA4451CD1C46D3F2504F0C7
:101380001F04806805FA04F4CEF80840DCF8007009
:1013900027F48027CCF800704028CCF8043004D122
:1013A000CCF80820CCF80C10F0BDCCF80810CCF824
:1013B0000C20F0BD2F4CA4451CBF284CA4450BD0DD
:1013C000274CA4451CBF274CA44505D0264CA4455A
:1013D0001CBF264CA44516D1C46D012504F01F0482
:1013E000806805FA04F4CEF80440D5E7204DAC45FA
:1013F0003FF48EAF1F4DAC453FF48AAF1E4DAC4558
:101400003FF486AFD5E71A4CA445E5D01A4CA44565
:10141000E2D0114CA445B0D0CBE700BF1000024091
:101420002800024040000240580002407000024084
:1014300088000240A0000240B800024010040240B0
:101440002804024040040240580402407004024054
:1014500088040240A0040240B80402400854025824
:101460001C540258305402584454025858540258DC
:101470006C54025894540258805402587047EFF349
:10148000108072B6FEE7000090F85020012A01D1CA
:10149000022137E01CB50122F14C80F850200022D7
:1014A000019200920368A34222D1D4F80831A268C5
:1014B0001A4352071CD4D1F800C0D4F80823BCF159
:1014C000000F22F440431FD04A681A43C4F808238F
:1014D000A268D4F808311A43D20724D1D4F80823DB
:1014E00040F61F7389689A4341EA0C01114318E0E2
:1014F000416D41F0200141650121002280F850201A
:10150000BDE81C4008467047C4F80833A168D4F809
:1015100008211143C90706D1D4F8081340F61F72F9
:101520009143C4F808130021E7E700BFF8B5002293
:101530000092074690F85000012801D1022059E19D
:101540000D46012187F8501038688268520700F173
:1015500049812A6892FAA2F3B3FA83F3140308BF0D
:10156000930E6C6803F01F039940C3691943C1616E
:10157000C4F3012104F01F0300EB81011F240E6B53
:10158000C2F384629C40A6439A4032430A63816856
:101590008268D20842EA9101C90772D12968AA6813
:1015A00003F034FAAA48006800F07040B0F1805FA0
:1015B000386805D169690E23C26803EA52020BE05C
:1015C000C2686969D206C3684FEA530202D402F0C6
:1015D0000E0201E002F008022B69042B28D1016EF3
:1015E00001F0F8412A68B1EB826F4FEA826103D1C2
:1015F000026E22F000420266426E02F0F8428A4217
:1016000003D1426E22F000424266826E02F0F8423E
:101610008A4203D1826E22F000428266C26E02F0DC
:10162000F8428A422DD1C16E21F00041C16628E006
:101630002E6800F16004914054F8232006F0F8462B
:1016400002F000423143114344F8231029696A7EB5
:1016500054F8213023F00043012A08BF03F100436E
:1016600044F82130297E2A6901390369B1FA81F1F0
:101670004909C90202F01F0223F4F04391401943C3
:1016800001618168C9076CD1EE68704AD5F800E045
:1016900006F01801D0F8C0400EEA020322FA01F168
:1016A0006C4A9C43194021439642C0F8C01055D162
:1016B0009EFAAEF1B1FA81F2002B114608BF4FEA53
:1016C0009E614FEA9E6C013101F01E0109290CD880
:1016D000C3B14FF0806101EB826101F0F843511C0E
:1016E00001F01F0101228A4018E0EBB14FF0806148
:1016F00001EB826101F0F843511C01F01F0101224E
:101700008A401DE00EF0F84101F1806101F0F842DD
:101710000CF1010101F01F0101238B401A4301EB81
:10172000410142EA015114E00EF0F84101F18061FB
:1017300001F0F8420CF1010101F01F0101238B407F
:1017400001EB41011A43444B03EB0151114341F0BA
:101750000071AA6803F05AF9D5F800E0BEF1FF3F26
:1017600001DD002043E0EE4D05F58071386805F598
:1017700040733A4AB44C8842194618BF02F540718A
:10178000A84208BF194640F48073A3428B6805D174
:10179000A968D5F8086146EA010500E09568E907FF
:1017A00020D130498E4503F0E0752CD02E498E456E
:1017B00038D190424FF0000008BF13F4000116D159
:1017C000D2F808039F4920F0E070284340F400005D
:1017D000C2F808039A480068B0FBF1F0022101EB5F
:1017E00040000BE0786D40F020007865012000217A
:1017F00087F8501001B0F0BD0098013800900098B3
:101800000028F9D1ADE790424FF0000008BF13F077
:101810008071ECD1D2F8080320F0E070284340F04A
:10182000807010E090424FF00000E0D10F498E45EB
:1018300008BF13F48001DAD1D2F8080320F0E07079
:10184000284340F48000C2F808038AE7FFFF0F0036
:101850000010005C0000FF47000020FE00600258FE
:1018600000200240000052C7000084CB0000B8CF27
:101870007CB500210028019136D00446406D30B976
:10188000204600F0EDF80020A06584F850002068A4
:101890008168890003D58168684A11408160816848
:1018A000C90014D4654A816802F180521140654A2A
:1018B00041F08051816062490968B1FBF2F1013168
:1018C00001E001990139019101990029F9D181685B
:1018D000C9000BD4616D012541F010016165A16D56
:1018E00041F00101A16502E00125A4E00025816825
:1018F000C1F38001626D02F010028918616D03D09E
:1019000041F01000012595E021F4817102316165FB
:101910008168C90721D140F480714B4A91428049C6
:1019200004D18A68D1F808311A4301E0474A1268A5
:10193000D20712D101F58072444E01F540739042F6
:101940001A4618BF06F53E72884208BF1A466068FC
:10195000916821F47C110843906001F0F1F8617DF9
:1019600041F20402236B9042A26843EA413107D35B
:10197000102A05D1207F41EA004141F01C0103E01B
:10198000207F114341EA0041012804D1206A304AF6
:1019900002EB40400143606A28B100F47870A26A0B
:1019A000084340EA020120682A4BC2681A401143EA
:1019B000C16081688268D20842EA9101C9072BD1CF
:1019C000217D44F20303E26A42EA8131C2689A430C
:1019D0001143C16094F83810012901690FD11E4AE2
:1019E00011401E4ED4E90F2306EB02421943636CEB
:1019F0001143A26C1943114341F0010101E021F0B0
:101A000001010161016921F07041626B11430161C3
:101A10002046FFF7B5FA2068E168026B012922F041
:101A20000F0102D1A269013A114301630121606DE6
:101A300061F301006065284602B070BDC0FFFF5F22
:101A400014000020400D03000021024008600258ED
:101A50000000FEFF03C0F0FF1EF800FC0000FFFFC7
:101A600070B5B6B0044631A81421FEF7A3FD02A854
:101A7000BC21FEF79FFD2068294988424DD14FF4D3
:101A800000200290192003904FF4B47004900520B8
:101A900005900220CDE90600002602A8CDE90866DF
:101AA0000A962A9601F030FC08B1FFF7E8FC1D48C1
:101AB000016841F020010160016801F020010191FD
:101AC0000199816841F00401816031A9806800F0CA
:101AD000040001900198012031900320CDE93206E5
:101AE000114800F067FF114D1148092185E84300B6
:101AF0004FF48060EE604FF4006128614FF40050B5
:101B0000C5E905102846C5E907666E6200F050FC7D
:101B100008B1FFF7B4FCE564AC6336B070BD00BF3C
:101B200000200240D84402580008025884030020D4
:101B30002800024070477047704700002DE9F041CF
:101B40000446407901284FF0020000F094800D46D1
:101B500001216171904620712868042845D100F068
:101B6000F5FFB8F1000F07460AD02068406BB0F1CE
:101B7000FF3F17DC00F0EAFFC01B0228F5D309E0A5
:101B80003E4E2068406B304213D000F0DFFFC01B98
:101B90000228F6D3206940F008002061032020715C
:101BA000BDE8F081012000F0F5FEA96920684164DC
:101BB00005E0012000F0EEFEA9692068016408F04C
:101BC0001001836C40F2FF322F6A8A4023EA02023E
:101BD000EB698B401A438264FF22C36C8A4023EA7C
:101BE000020207FA01F11143C164286908F01002EA
:101BF0000128216808D11F208B6B904023EA000048
:101C00006B699340184388630720CB6B9040EF6863
:101C100023EA000C012F4FF0000003D0022F03D164
:101C2000012705E0002703E0AF68B7FA87F77F09CF
:101C30002E68AB6837433B436F68934043EA0C031D
:101C4000CB634FF4804393400E6826EA03030B6096
:101C500040F6FE730E68934026EA030397403B4329
:101C60000B60C02303FA02F20B6823EA02020A6047
:101C7000012121716071BDE8F08100BF008000206A
:101C800070477047704778B110B50446007920B9A5
:101C900000206071204600F009F802202071002029
:101CA00001212061217110BD0120704770B586B0FF
:101CB000044601A81421FEF77DFC20681F498842D4
:101CC0003AD11F488168002641F000518160816847
:101CD00001F0005100910099016841F0010101609B
:101CE00001A9006800F00100009000981020019008
:101CF000032002901348039600F05CFE124D134837
:101D0000432128604020C5E901104FF48060EE6057
:101D10004FF4006128614FF4005069614FF4807105
:101D200005F1180243C228466E6200F041FB08B17B
:101D3000FFF7A5FBA560AC6306B070BD0074004062
:101D4000E044025800000258FC030020100002404A
:101D50002DE9F0410446407901284FF0020060D09F
:101D60008846069D01216171B8F1000F207121683C
:101D700012D0E068082D2C4E2C4FC0E90F672C4F75
:101D8000C7640F6847F080570F601AD0042D1BD02E
:101D9000EDB901F114051BE0A068082DDFF894C02F
:101DA000DFF894E0254EC0E90FCEC6640E6846F415
:101DB00080560E6013D0042D14D0B5B901F1080C73
:101DC00015E001F11C0503E001F1180500E0002514
:101DD0000F6847F000570F6011462A460DE001F1E9
:101DE000100C04E001F10C0C01E04FF0000C0F6846
:101DF00047F400570F601146624600F08DFC002149
:101E00000028617103D004F11001042206E008F0FB
:101E10001000012101FA00F2216800200B681A432A
:101E20000A60BDE8F08100BF8B100008D1100008E7
:101E3000B31000087B100008CB1000089B100008AE
:101E40002DE9FC410021C64F01910446DFF8B01D89
:101E50000068A56DB842D1F800802E6829682AD0A4
:101E6000C04A90421CBFC04A904224D0BF4A904210
:101E70001CBFBF4A90421ED0BE4A90421CBFBE4A01
:101E8000904218D0BD4A90421CBFBD4A904212D029
:101E9000BC4A90421CBFBC4A90420CD0BB4A904204
:101EA0001CBFBB4A904206D0BA4A90421CBFBA4AF5
:101EB000904240F0A181E16D082201F01F018A40AB
:101EC000324236D0BC46B8424FF0040324D0A54F6E
:101ED000B8421CBFA44FB8421ED0A44FB8421CBF8A
:101EE000A34FB84218D0A34FB8421CBFA24FB8426C
:101EF00012D0A24FB8421CBFA14FB8420CD0A14F84
:101F0000B8421CBFA04FB84206D0A04FB8421CBF79
:101F10009F4FB84240F0988107681F42674608D03B
:101F2000036823F004030360AA60626D42F00102BB
:101F3000626501228A4032422ED0B84224D0894BB9
:101F400098421CBF884B98421ED0884B98421CBFB9
:101F5000874B984218D0874B98421CBF864B9842BB
:101F600012D0864B98421CBF854B98420CD0854BB3
:101F700098421CBF844B984206D0844B98421CBFA9
:101F8000834B984240F06D8143691B0604D5AA60DB
:101F9000626D42F00202626504228A4032422ED013
:101FA000B84224D06F4B98421CBF6F4B98421ED052
:101FB0006E4B98421CBF6E4B984218D06D4B9842A6
:101FC0001CBF6D4B984212D06C4B98421CBF6C4B9F
:101FD00098420CD06B4B98421CBF6B4B984206D07A
:101FE0006A4B98421CBF6A4B984240F04881036894
:101FF0009B0704D5AA60626D42F00402626510225C
:1020000002FA01F131423FD0B8424FF0080224D029
:10201000D24B98421CBFD24B98421ED0D14B984213
:102020001CBFD14B984218D0D04B98421CBFD04B0C
:10203000984212D0CF4B98421CBFCF4B98420CD045
:10204000CE4B98421CBFCE4B984206D0CD4B984207
:102050001CBFCD4B984240F020810368134213D03F
:10206000A96001684903016806D4C90506D401685E
:1020700021F00801016001E0080301D4216C00E0B7
:10208000A16C09B120468847E06D00F01F012020B7
:1020900000FA01F2324200F0858020681023B84235
:1020A00024D0AE4EB0421CBFAD4EB0421ED0AD4E9D
:1020B000B0421CBFAC4EB04218D0AC4EB0421CBFB8
:1020C000AB4EB04212D0AB4EB0421CBFAA4EB04293
:1020D0000CD0AA4EB0421CBFA94EB04206D0A94EA9
:1020E000B0421CBFA84EB04240F0E48007681F42D7
:1020F00058D0AA6094F83520042A02681BD122F037
:1021000016020260426922F080024261226C0AB922
:10211000A26C1AB1026822F0080202603F208840D7
:10212000A860012084F835000020216D002984F882
:1021300034005DD15EE0510301680CD4C9052DD493
:10214000016821F010010160012084F835000020B1
:1021500084F8340022E0080320D4616C1FE000BF43
:102160001000024028000240400002405800024097
:102170007000024088000240A0000240B800024007
:102180001004024028040240400402405804024067
:102190007004024088040240A0040240E16B09B1CF
:1021A00020468847606D28B3606DC0071ED04FF48D
:1021B0001650B8FBF0F0042184F8351021680A6845
:1021C00022F001020A60019A01328242019202D891
:1021D0000A68D207F7D10868C0074FF0030008BFAC
:1021E000012084F83500002084F83400E16C09B146
:1021F00020468847BDE8FC81664A90421CBF664A7B
:1022000090420CD0654A90421CBF654A904206D06D
:10221000644A90421CBF644A904240F09180026838
:10222000E36D570703F01F0351D504279F4017EABA
:1022300001064CD011046F6060D4910662D401682D
:1022400021F0040101605DE0504FB8423FF464AEFC
:102250004F4FB8423FF460AE544FB84218BF082306
:102260005AE64A4B98423FF48FAE494B98423FF4AE
:102270008BAE4E4B98423FF487AE02688CE6434BE0
:1022800098423FF4B4AE424B98423FF4B0AE474B55
:1022900098423FF4ACAE0268B1E63C4B98423FF442
:1022A000DCAE3B4B98423FF4D8AE404B984218BF4F
:1022B0000422D2E6354EB0423FF418AF344EB0425D
:1022C0003FF414AF394EB04218BF02230EE7970710
:1022D0001AD502279F4017EA010615D011046F6036
:1022E00028D491062AD4016821F00A010160012056
:1022F00084F83500002084F834001FE0D00301D4B6
:10230000A16C74E7216C72E712077FF573AF0822A6
:102310009A4011403FF46EAF0168012221F00E0196
:10232000016002FA03F068600020626584F83520DD
:10233000E16CFBE6D00301D4616C58E7E16B56E732
:10234000F04A90423FF46BAFEF4A90423FF467AFE0
:10235000EE4988423FF4AFAD4CE700BF2800024091
:1023600040000240580002407000024088000240D5
:10237000A0000240B80002401004024028040240BD
:1023800040040240580402407004024088040240A5
:10239000A004024094540258085402581C54025895
:1023A000305402584454025858540258B804024059
:1023B000F8B5044600F0CAFB002C7BD00546206827
:1023C000C14FB8422AD0C14988421CBFC049884287
:1023D00024D0C04988421CBFBF4988421ED0BF4993
:1023E00088421CBFBE49884218D0BE4988421CBFE3
:1023F000BD49884212D0BD4988421CBFBC498842B1
:102400000CD0BC4988421CBFBB49884206D0BB499E
:1024100088421CBFBA49884240F0F280022184F809
:102420003510002184F83410016821F001010160A9
:1024300005E000F08BFB401B052836D820680168BA
:10244000C907F6D10168B24A1140D4E90223114309
:102450002269194363691143A2691943E36941EA97
:102460000205616A2B43256A042943EA050303D167
:10247000D4E90B562B433343A64D2E68B6F1005FCB
:102480001CD36568292D19D32F2D15D3A5F13F062F
:10249000042E11D3472D11D3492D0DD3A5F14F068D
:1024A000032E98BF43F4801308E0202060650320CA
:1024B00084F835000120A1E043F48013036004296F
:1024C000436923F0070341EA030127D1D4E90A5302
:1024D000002B41EA050121D0B2F5005F06D08AB990
:1024E000022D12D0012D07D07DB117E0032D15D894
:1024F000DFE805F00E0B0E02A3F1C072B2FA82F211
:10250000520904E0032D03D308D1C3F300622AB1BA
:1025100040206065012084F835006FE0416120466D
:10252000FEF7E6FDE16D3F2201F01F0102FA01F125
:1025300081602068B8423BD0644988421CBF64492E
:10254000884235D0634988421CBF634988422FD0F6
:10255000624988421CBF6249884229D06149884249
:102560001CBF6149884223D0604988421CBF604932
:1025700088421DD05F4988421CBF5F49884217D0FE
:102580005E4988421CBFF949884211D0F849884207
:102590001CBFF84988420BD0F74988421CBFF74955
:1025A000884205D0F64988421CBFF64988427ED150
:1025B0002046FEF7EFFDA068802802D10020606071
:1025C00000E06068C2B2216E0138D4E919370728EB
:1025D0000A605F6009D82046FEF724FE04F16C0211
:1025E00007CA002303604A6003E00020C4E91B001F
:1025F000606700200121606584F8351001B0F0BDEE
:10260000E24988421CBFDB4988420BD0DA49884244
:102610001CBFDA49884205D0D94988421CBFD94934
:10262000884238D1022184F83510002184F8341012
:102630000168A2686FF31011A2F18003B3FA83F36B
:102640005B099B03402AE26808BF102341EAD201DC
:1026500022691943636941EAD201A26941EAD301BF
:10266000E36941EAD201226A41EAD30141EA121147
:1026700040F808191421C0B2B0FBF1F08000E06509
:102680002046FEF735FDE16D012201F01F0102FA3F
:1026900001F141604DE7BC498842C3D0BC49884242
:1026A000C0D0B34988423FF4B9AE4020FEE6B649F7
:1026B00088423FF47DAFB54988423FF479AFB449D1
:1026C00088423FF475AF94E71000024028000240B2
:1026D0004000024058000240700002408800024062
:1026E000A0000240B800024010040240280402404A
:1026F0004004024058040240700402408804024032
:10270000A00402406C54025880540258B80402409D
:102710003F8010FE0010005CB0B5002800F0E7809C
:10272000054690F83400012801D10220B0BD0120F7
:1027300085F8340095F83500012840F0D280022059
:1027400085F83500002068652868046824F00104D5
:1027500004602846FEF798FD2868764988420246BC
:102760003CD0754A9042024638D0744A90420246A4
:1027700034D0734A9042024630D0724A90420246A8
:102780002CD0714A9042024628D0704A90420246AC
:1027900024D06F4A9042024620D06E4A90420246B0
:1027A0001CD06D4A9042024618D06C4A90420246B4
:1027B00014D06B4A9042024610D06A4A90420246B8
:1027C0000CD0694A9042024608D0684A90420246BC
:1027D00004D0674A904240F08C80654A12680B230F
:1027E00063F3440202602A6C1AB1026842F00802E4
:1027F000026088423BD0504A90421CBF4F4A9042F0
:1028000035D04F4A90421CBF4E4A90422FD04E4A7C
:1028100090421CBF4D4A904229D04D4A90421CBF65
:102820004C4A904223D04C4A90421CBF4B4A9042A3
:102830001DD04B4A90421CBF4A4A904217D04A4A88
:1028400090421CBF494A904211D0494A90421CBF55
:10285000484A90420BD0484A90421CBF474A904297
:1028600005D0474A90421CBF464A904257D12A6E33
:102870001368DB0303D5136843F480731360EA6EB7
:102880001AB1136843F480731360884223D02A4935
:1028900088421CBF294988421DD0294988421CBF53
:1028A0002849884217D0284988421CBF27498842B6
:1028B00011D0274988421CBF264988420BD026499F
:1028C00088421CBF2549884205D0254988421CBF43
:1028D000244988421AD1016841F0010101600020B9
:1028E000B0BD4FF400606865002085F83400012019
:1028F000B0BD0268052363F3430202602A6C002A1C
:102900003FF477AF026842F0040271E7164988424B
:10291000E1D017498842DED014498842DBE71A4AE1
:102920009042A4D0194A9042A1D0194A90429ED018
:10293000D1E700BF100002402800024040000240E2
:10294000580002407000024088000240A00002408F
:10295000B800024010040240280402404004024033
:10296000580402407004024088040240A00402405F
:10297000B8040240085402581C54025830540258FB
:1029800044540258585402586C54025894540258F3
:1029900080540258B0B5044600F0D8F89749621C3C
:1029A0000978054618BF0C4400F0D0F8401BA0423F
:1029B000FAD3B0BD2DE9FC4F5E4A0A275E4C0244B3
:1029C0004FEAB223A04208BF0927092B38BF4FEABC
:1029D000B2274FF0000C009701274FF0000E0026A1
:1029E0009EE007FA06F912EA090B00F094804A68A3
:1029F00002F00308A8F1010ABAF1010F13D8032469
:102A0000856804FA0EF325EA0303CD6805FA0EF58E
:102A10002B4383604368C2F3001523EA0903B540E2
:102A20002B43436004E0B8F1030F4FF003041FD0C1
:102A3000C36804FA0EF5AB438D6805FA0EF52B4317
:102A4000B8F1020FC36013D16FF0030202EA56021D
:102A500002440CF01C03D2F820800F259D4028EA88
:102A600005080D6905FA03F343EA080313624A688F
:102A7000036804FA0EF5AB4302F0030505FA0EF500
:102A80002B4312F4403F036045D0864A13462B4C3B
:102A900012680F2542F002021A601A6802F0020260
:102AA000019226F00302019B0CF00C0352F8048003
:102AB0009D40009F28EA050507FA03F32B431351B5
:102AC0004FF0B048D8F800204B6842EA0B05DF020F
:102AD00058BF22EA0B05164A1446C8F800509F0258
:102AE000126842EA0B0558BF22EA0B059F032560D6
:102AF0004FF00107D4F8802042EA0B0558BF22EAC4
:102B00000B05DB03C4F88050E26F42EA0B0558BFA7
:102B100022EA0B05E56701360EF1020E0CF1040CFA
:102B20000A6832FA06F47FF45CAFBDE8FC8F00BFA0
:102B3000040000580000FEA70024025808040058B2
:102B400001480068000C70470010005C05480068F0
:102B5000704700BF2948007802490A68104408609D
:102B6000704700BFE805002080B5032000F0CAF8D8
:102B700001F088F90F490A68C2F303220968834B00
:102B800001F00F019A5C595C02F01F02D0400A4A22
:102B900001F01F0120FA01F11160194908600F20AE
:102BA00000F00CF808B1012080BD00F06DF80020A5
:102BB00080BD00BF184402581800002070B50F4EA9
:102BC0003178C1B104464FF47A70B0FBF1F00C4992
:102BD0000968B1FBF0F001F045FC0F2C4FF0010546
:102BE0000AD848B94FF0FF3000222146002500F0F6
:102BF00069F8746000E00125284670BD0C000020D3
:102C000014000020B0B50278114D4378002A2B60E3
:102C10001AD043686B60037BC17A847A42EA0372FC
:102C2000437B42EA0161827B41EAC441C47B41EAC1
:102C30008341437A41EA4241007A41EA044141EA50
:102C4000032141EA400001E000206860A860B0BDB7
:102C500098ED00E0BFF35F8F0A48016821F48031EE
:102C6000016000210167704740F0010005490867D5
:102C7000086840F480300860BFF34F8FBFF36F8F58
:102C8000704700BF24ED00E081B00648016841F0C4
:102C900002010160006800F002000090009801B09D
:102CA000704700BFF4440258002808DB00F01F0101
:102CB000012202FA01F1024A400942F8201070474D
:102CC00000E100E080B5154B1B68C3F3022C8CF0CB
:102CD000070EBEF1040F28BF4FF0040EBCF1030332
:102CE0004FF0FF3C38BF00230CFA0EFE21EA0E0124
:102CF00099400CFA03F39A431143BDE8804002F077
:102D0000E5BD00BF05490A684FF6FF031A4060F3AE
:102D10000A22034810430860704700BF0CED00E032
:102D20000000FA05B0B5104D29684907296805D497
:102D300001F00701081A18BF0120B0BD21F00701FA
:102D400008432860FFF702FF044655F8080C80048A
:102D500007D4FFF7FBFE001BB0F57A7FF5D9012001
:102D6000B0BD0020B0BD00BF0C48025880B501F0D6
:102D700049F80549054A0968C1F30211515C01F09F
:102D80001F01C84080BD00BF20440258F461000804
:102D900010B53D4CA36AA26AC2F3051CE26A616BDE
:102DA00002F00102C1F3CC01BCF1000F11FB02F1F2
:102DB00000EE101AB8EE400A0CD003F00303022B09
:102DC0000CD0012B0DD013B9216889060CD49FEDCE
:102DD000311A13E00021C0E9001153E09FED2C1AD5
:102DE0000CE09FED2A1A09E021682B4AC1F3C101CA
:102DF00022FA01F101EE101AB8EE411A02EE10CAE1
:102E00009FED263AB8EE422A216B6FF35F2181EEE7
:102E1000021A02EE101AB8EE422A216BC1F34621C3
:102E200000EE032AB7EE000A03EE101A32EE002A73
:102E3000B8EE433A21EE021A33EE002A81EE022A5E
:102E4000BCEEC22A80ED002A216BC1F3064102EEDE
:102E5000101AB8EE422A32EE002A81EE022ABCEEA7
:102E6000C22A80ED012A216BC1F3066102EE101A1D
:102E7000B8EE422A32EE000A81EE000ABCEEC00A29
:102E800010EE101A816010BD004402580024744AEC
:102E900020BCBE4B0024744C0090D00300000039CD
:102EA00010B53C4CA36AA26AC2F3053CE26AC2F3C5
:102EB0000012E16BC1F3CC01BCF1000F11FB02F178
:102EC00000EE101AB8EE400A0AD003F00303022BFA
:102ED0000AD063B9216889060CD49FED311A13E03A
:102EE0000021C0E9001153E09FED2C1A0CE09FED8A
:102EF0002A1A09E021682B4AC1F3C10122FA01F123
:102F000001EE101AB8EE411A02EE10CA9FED263AF1
:102F1000B8EE422AA16B6FF35F2181EE021A02EE36
:102F2000101AB8EE422AA16BC1F3462100EE032A23
:102F3000B7EE000A03EE101A32EE002AB8EE433A5A
:102F400021EE021A33EE002A81EE022ABCEEC22ADA
:102F500080ED002AA16BC1F3064102EE101AB8EE13
:102F6000422A32EE002A81EE022ABCEEC22A80ED0D
:102F7000012AA16BC1F3066102EE101AB8EE422AD3
:102F800032EE000A81EE000ABCEEC00A10EE101A02
:102F9000816010BD004402580024744A20BCBE4B1E
:102FA0000024744C0090D0030000003910B53C4C54
:102FB000A36AA26AC2F3055CE26AC2F30022616CF2
:102FC000C1F3CC01BCF1000F11FB02F100EE101AAD
:102FD000B8EE400A0AD003F00303022B0AD063B90B
:102FE000216889060CD49FED311A13E00021C0E955
:102FF000001153E09FED2C1A0CE09FED2A1A09E016
:1030000021682B4AC1F3C10122FA01F101EE101A25
:10301000B8EE411A02EE10CA9FED263AB8EE422AE7
:10302000216C6FF35F2181EE021A02EE101AB8EEE6
:10303000422A216CC1F3462100EE032AB7EE000AB2
:1030400003EE101A32EE002AB8EE433A21EE021ACD
:1030500033EE002A81EE022ABCEEC22A80ED002A5D
:10306000216CC1F3064102EE101AB8EE422A32EE8C
:10307000002A81EE022ABCEEC22A80ED012A216CD0
:10308000C1F3066102EE101AB8EE422A32EE000ACF
:1030900081EE000ABCEEC00A10EE101A816010BD6D
:1030A000004402580024744A20BCBE4B0024744CD7
:1030B0000090D00300000039F8B5B0F5002F51D0D2
:1030C000B0F5007F5FD0B0F5806F00F06980B0F59B
:1030D000006F20D0B0F5805F2AD0B0F5804F00F0AF
:1030E0006E80B0F5004F00F07880B0F5803F2CD0B6
:1030F000B0F5807F40F0CE807E49086D00F0070279
:10310000042A00F2C7807F48DFE812F057007700FA
:103110007E00C50086007749886DC0F30262042AEC
:1031200000F2B8807748DFE802F048686FB67700B1
:103130007049086DC0F30232042A00F2AB80714876
:10314000DFE802F03B5B62A96A006A48C16CC90310
:10315000006840F19D80000140F19C8001A8FFF7CC
:103160009FFE92E06348816D01F44031B1F5003F6C
:1031700000F07980B1F5803F00F08180002940F0B7
:10318000898000683AE05B49086DC0F38212042A26
:1031900000F280805B48DFE802F01030377E3F00AD
:1031A0005449886DC0F34252042A00F27380554896
:1031B000DFE802F003232A713200086868E04D4816
:1031C000816DC1F30271052964D8DFE801F0034580
:1031D0006B727712FFF7CAFD5DE04648016D01F0A2
:1031E0004051B1F1005F37D0B1F1805F4FD000297D
:1031F00050D100684049800363E00868000149D568
:1032000001A8FFF74DFE05E00868800042D501A83F
:10321000FFF7CCFE01983EE0C86C10F040520B68FE
:10322000086808D113F0040305D0C0F3C100344985
:1032300021FA00F02FE0B2F1805F02D110F480702B
:1032400048D1086810F400301CBF47F64000C0F2B7
:103250007D10B2F1005F49E0006800011AD501A8B5
:10326000FFF71EFE1CE0C16C11F0405103680268BC
:103270002AD113F0040327D0C2F3C100D7E70068B6
:10328000800007D501A8FFF791FE039803E00068CE
:10329000800102D4002004B080BD01A8FFF778FDB2
:1032A0000298F8E700688000F4D501A8FFF77EFED9
:1032B000F6E701684907EDD50068B6E700680F49F1
:1032C000C00501EAE070E6E7B1F1805F04D112F4D5
:1032D000807201D00948DEE7006810F400301CBF9E
:1032E00047F64000C0F27D10B1F1005F18BF00202A
:1032F000D1E700BF0044025840787D0100093D003D
:103300000090D0030080BB002DE9F0470446C07850
:10331000AC4F000721D5606E4FEA3051032908D821
:10332000DFE801F002090E16F96941F40031F96194
:103330000EE0012612E0201D022101F0F7FC04E05E
:1033400004F12400022101F071FD064630B9606EDF
:10335000396C21F440110843386400266078BA467D
:10336000C00701D1354629E0606D04280BD83546E9
:10337000DFE800F0030C11171700F869354640F438
:103380000030F8610DE00125012718E0201D002123
:1033900001F0CCFC04E004F12400002101F046FD22
:1033A0000546002D2F460AD1DAF84000002520F00E
:1033B0000700616D08435246CAF8400037466078FE
:1033C00080072CD5A06D4FEAB01004280CD8DFE898
:1033D00000F0030E13191900DAF81C00514640F4EE
:1033E0000030CAF81C000DE00125012618E0201D60
:1033F000002101F09BFC04E004F12400002101F015
:1034000015FD0546002D2E460AD1DAF840000025AC
:1034100020F4E070A16D08435246CAF840003E46D1
:103420006078400702D4B04657462BE0D4F8A40099
:1034300057464FEA7050042809D8DFE800F0030C23
:1034400011171700F86940F40030F8610EE001250B
:103450004FF0010816E0201D002101F067FC04E098
:1034600004F12400002101F0E1FC0546002DA846EE
:1034700008D1B86C002520F46000D4F8A4100843EB
:10348000B046B864607800072BD5D4F8A8004FEA9E
:103490003060042809D8DFE800F0030B101616008E
:1034A000F86940F40030F8610DE00125012719E0CA
:1034B000201D002101F03AFC04E004F12400002169
:1034C00001F0B4FC0546002D2F460BD1DAF8480078
:1034D000002520F0E060D4F8A81008435246CAF84E
:1034E00048004746E078800725D5A06C4FEA3010A9
:1034F00003280BD8DFE800F012020D12DAF81C00E6
:10350000514640F40030CAF81C0007E001250126AE
:1035100012E0201D022101F009FC0546002D2E4677
:103520000AD1DAF83C00002520F03000A16C0843F5
:103530005246CAF83C003E466078C0062CD5E06D85
:103540004FEA303004280CD8DFE800F0030E1319DE
:103550001900DAF81C00514640F40030CAF81C008B
:103560000DE00125012718E0201D002101F0DEFB00
:1035700004E004F12400002101F058FC0546002D70
:103580002F460AD1DAF84000002520F4E040E16D32
:1035900008435246CAF8400037466078800626D570
:1035A000206E4FEA3040052809D8DFE800F0130309
:1035B0000D131313201D012101F0B8FB09E00125B3
:1035C000012615E01044025804F12400012101F005
:1035D0002DFC0546002D2E460AD1DAF840000025C4
:1035E00020F4E020216E08435246CAF840003E46CF
:1035F0006078400626D5D4F8AC004FEA3070052834
:1036000009D8DFE800F011030B111111201D012171
:1036100001F08CFB07E00125012714E004F12400F0
:10362000012101F003FC0546002D2F460BD1DAF8ED
:103630004800002520F0E040D4F8AC100843524682
:10364000CAF8480037466078000621D5E06E90B190
:10365000B0F1005F0AD0B0F1805F2DD1DAF81C0024
:10366000514640F40030CAF81C0004E0201D01213E
:1036700001F05CFB0546002D2E460AD1DAF8400029
:10368000002520F04050E16E08435246CAF8400041
:103690003E46E078C00702D1B046574623E0606C52
:1036A000574603280BD8DFE800F013020E13F86921
:1036B00040F40030F8610BE001250126E9E701251F
:1036C0004FF001080FE0201D022101F02FFB0546FD
:1036D000002DA84607D1F86B002520F00300616C8F
:1036E0000843B046F863A078400601D4474617E087
:1036F000D7F8F00340F48070C7F8F003FFF726FA1C
:103700000646D7F8F003C00507D4FFF71FFA801B61
:103710006428F6D90325032702E0002D2F4611D097
:103720002078C0074FD0A06F4FEAF000052834D8AA
:10373000DFE800F03C03363C3C3C201D012101F059
:10374000F5FA32E0DAF860105346D4F8B0004140A0
:1037500011F4407F0BD0196E1A6E21F4407142F4BF
:1037600080321A661A6E22F480321A661966B0F533
:10377000807F40F02582FFF7E9F9064641F288395B
:1037800003250327DAF86000800700F11682FFF7AF
:10379000DDF9801B4845F5D9C2E70125012613E074
:1037A00004F12400012101F041FB0546002D2E46C5
:1037B0000AD1DAF84400002520F03800A16F084350
:1037C0005246CAF844003E462078800722D5606FF2
:1037D000052809D8DFE800F011030B111111201D95
:1037E000012101F0A3FA07E00125012713E004F10C
:1037F0002400012101F01AFB0546002D2F460AD1B5
:10380000DAF84400002520F00700616F08435246B3
:10381000CAF8440037462078400724D5D4F89000F1
:10382000052809D8DFE800F011030B111111201D44
:10383000012101F07BFA07E00125012614E004F1E3
:103840002400012101F0F2FA0546002D2E460BD18D
:10385000DAF84800002520F00700D4F8901008435B
:103860005246CAF848003E462078800626D5D4F84D
:103870008C004FEA3070052809D8DFE800F011030A
:103880000B111111201D002101F050FA07E0012554
:10389000012714E004F12400022101F0C7FA0546D3
:1038A000002D2F460BD1DAF84400002520F0E0402F
:1038B000D4F88C1008435246CAF8440037462078A2
:1038C000400626D5D4F898004FEAB020052809D83C
:1038D000DFE800F011030B111111201D002101F090
:1038E00025FA07E00125012614E004F12400022155
:1038F00001F09CFA0546002D2E460BD1DAF848005F
:10390000002520F4E050D4F8981008435246CAF835
:1039100048003E462078000626D5D4F89C004FEAA1
:103920007030052809D8DFE800F011030B111111E0
:10393000201D002101F0FAF907E00125012714E01C
:1039400004F12400022101F071FA0546002D2F46F2
:103950000BD1DAF84800002520F46040D4F89C1020
:1039600008435246CAF8480037462068010717D571
:10397000D4F88010B1F5805F0AD104F1240002214F
:1039800001F054FA0028206818BF0127D4F88010ED
:10399000DAF84420534622F440521143CAF8441046
:1039A000C10617D5D4F89410B1F5807F0AD104F17F
:1039B0002400022101F03AFA0028206818BF0127EC
:1039C000D4F89410DAF84820534622F44072114398
:1039D000CAF84810000321D5D4F8A000B0F5003F84
:1039E0000ED0B0F5803F05D080BB201D002101F036
:1039F0009DF904E004F12400022101F017FA0546C4
:103A0000002D2E460BD1DAF84800002520F4403076
:103A1000D4F8A01008435246CAF848003E46A078A1
:103A200040072AD5D4F88400B0F5401F17D0B0F570
:103A3000001F0ED0B0F5801F40F0BA80DAF81C00ED
:103A4000514640F40030CAF81C0008E00125012668
:103A5000E5E704F12400012101F0E8F90546002D15
:103A60002F460BD1DAF84400002520F44010D4F89A
:103A7000841008435246CAF844003746A078C0076D
:103A800001D13E4621E0E06CB0F5803F08D0D0B9CE
:103A9000DAF81C00514640F40030CAF81C0004E07B
:103AA000201D022101F042F90546002D2E460CD1C1
:103AB000DAF83C00002520F48030E16C08435246DF
:103AC000CAF83C00DDE7012501262068810008D501
:103AD00004F12400022101F0A9F9002818BF0126F1
:103AE0002068810319D5E16F6FF0010202EB3122EA
:103AF000022A0AD34FEA31223AB1012A5BD1DAF81D
:103B00001C2042F40032CAF81C203DB9DAF84420E7
:103B100022F440721143CAF844103546C10207D559
:103B2000DAF8401021F00041226F1143CAF840102A
:103B3000C10008D5DAF8001021F48041D4F8B4208F
:103B40001143CAF80010810207D5DAF8401021F0BD
:103B50008071A26E1143CAF8401041000CD5DAF80A
:103B6000001021F40041CAF80010D4F8B810DAF8B7
:103B700000201143CAF80010B0F1FF3F07DCDAF86B
:103B80003C1021F04051226D1143CAF83C10000254
:103B900008D5DAF8440020F44000D4F8881008432F
:103BA000CAF84400002D18BF01252846BDE8F0875B
:103BB0000125012762E70125B0E75346D4F8B0009C
:103BC00000F440711A68B1F5407F22F47C5103D1B2
:103BD000054A02EA1012114319606FF31F30196E83
:103BE00000250843186681E5CFFFFF002DE9F84363
:103BF000002800F0FE800446804B186800F00F009B
:103C0000884688420BD2186820F00F0040EA08006E
:103C10001860186800F00F00404540F0EA80206806
:103C2000CF4F41070AD52169BA6902F0700291426B
:103C300004D9BA6922F070021143B96101070AD5AB
:103C40006169FA6902F07002914204D9FA6922F0BE
:103C500070021143F961C1060AD5A169FA6902F43B
:103C6000E062914204D9FA6922F4E0621143F961F9
:103C700081060AD5E1693A6A02F07002914204D9DC
:103C80003A6A22F070021143396281070AD5E1686D
:103C9000BA6902F00F02914204D9BA6922F00F0208
:103CA0001143B961C10736D0B86920F47061D4E915
:103CB000010211430328B96105D0022807D13968F0
:103CC00089030DD495E03968890109D491E0012870
:103CD000396802D1C90503D48BE0490740F18980D6
:103CE0003969994621F0070108433861FEF72EFF34
:103CF000064641F28835386900F038006168B0EB5B
:103D0000C10F06D0FEF722FF801BA842F3D9032083
:103D100070E020684B4681070AD5E168BA6902F075
:103D20000F02914204D2BA6922F00F021143B96125
:103D3000196801F00F0141450AD9196821F00F01F6
:103D400041EA08011960196801F00F01414550D19D
:103D500041070AD52169BA6902F07002914204D282
:103D6000BA6922F070021143B96101070AD561698D
:103D7000FA6902F07002914204D2FA6922F07002EC
:103D80001143F961C1060AD5A169FA6902F4E0623A
:103D9000914204D2FA6922F4E0621143F96180068B
:103DA0000AD5E069396A01F07001884204D2396AA3
:103DB00021F070010843386200F064F8B969C1F37A
:103DC00003212F4A515CBB6903F00F03D25C01F061
:103DD0001F0120FA01F102F01F00184A21FA00F039
:103DE0001060174A064800681160BDE8F843FEF706
:103DF000E5BE012001B0BDE8F08300BF0020005205
:103E00001000002080B500F03DF80B490A68C2F3AD
:103E1000032209681A4B01F00F019A5C595C02F009
:103E20001F0220FA02F201F01F00044922FA00F0FA
:103E3000086003490A6080BD184402581800002039
:103E40001400002080B5FFF7DDFF0C490C4A09681B
:103E5000C1F30211515C01F01F01C84080BD00BFD9
:103E600080B5FFF7CFFF0549054A0968C1F3022174
:103E7000515C01F01F01C84080BD00BF1C440258C6
:103E8000F461000836490869C0F3C20003280CD069
:103E9000022828D048BB08688006374858BF7047BA
:103EA0000968C1F3C101C84070478A6A886AC0F3D3
:103EB000051CCB6A486B03F00103C0F3CC00BCF1D6
:103EC000000F10FB03F000EE100AB8EE400A0ED00F
:103ED00002F00302022A0CD072B9086880060ED4E0
:103EE0009FED241A15E0204870471E4870470020B7
:103EF00070479FED1F1A0CE09FED1C1A09E008683F
:103F00001D4AC0F3C10022FA00F001EE100AB8EE1B
:103F1000411A02EE10CA9FED193AB8EE422A086B18
:103F20006FF35F2081EE021A02EE100AB8EE422A09
:103F3000086BC0F3462000EE032AB7EE000A0130FA
:103F400032EE000A21EE000A01EE100AB8EE411A24
:103F500080EE010ABCEEC00A10EE100A704700BFE6
:103F60000044025800093D0040787D010024744A55
:103F700020BCBE4B0024744C0090D00300000039DC
:103F8000F8B5002800F0928104460078D34EC007AF
:103F90004ED0306900F03801B06A102905D01829D8
:103FA00009D100F00300022805D1306880033FD515
:103FB0006068E8BB7AE1606868B1B0F5803F06D020
:103FC000B0F5A02F30681ED140F4802030603068FA
:103FD00040F480301DE0306820F48030306030687C
:103FE00020F480203060FEF7B1FD054641F28837AD
:103FF000306880031CD5FEF7A9FD401BB8424FF086
:104000000300F5D967E120F480303060306820F497
:1040100080203060FEF79AFD054641F2883730680F
:10402000800305D4FEF792FD401BB842F7D951E159
:104030002078800761D5306910F03801B06A18D057
:10404000182908BF5FEA807013D0E0680028316843
:1040500038D021F0190108433060FEF777FD05469E
:10406000306840071FD4FEF771FD401B0228F7D9C6
:1040700030E130684007E06802D5002800F0168182
:10408000316821F0190108433060FEF75FFD0546F5
:104090003068400707D4FEF759FD401B02284FF057
:1040A0000300F5D917E1FEF74BFD41F20301884209
:1040B00019D820697168402821F47C311AD141F463
:1040C000003019E021F001003060FEF73FFD0546A9
:1040D0003068400711D5FEF739FD401B02284FF02C
:1040E0000300F5D9F7E0706820F0FE40216940EA4E
:1040F000016001E041EA003070602078C00653D5CD
:10410000306900F03801B06A082905D018290BD1B0
:1041100000F00300012807D13068C00519D5E06917
:10412000802840F0C38014E0E0690028306827D080
:1041300040F080003060FEF709FD05463068C0059C
:1041400007D4FEF703FD401B02284FF00300F5D90A
:10415000C1E0FEF7F5FC41F20301884208D8206A6D
:104160007168202821F0F8411BD141F080401AE00D
:10417000F06820F07C50216A40EA0160F06013E0B2
:1041800020F080003060FEF7E1FC05463068C00595
:104190000AD5FEF7DBFC401B02284FF00300F5D9DF
:1041A00099E041EA806070602078000723D560695B
:1041B0000028706F0ED040F001007067FEF7C6FC5B
:1041C0000546706F800716D4FEF7C0FC401B02281E
:1041D000F7D97FE020F001007067FEF7B7FC0546D5
:1041E000706F800707D5FEF7B1FC401B02284FF027
:1041F0000300F5D96FE02078800623D5A069002858
:1042000030680ED040F480503060FEF79FFC0546C9
:104210003068800416D4FEF799FC401B0228F7D9B9
:1042200058E020F480503060FEF790FC054630687E
:10423000800407D5FEF78AFC401B02284FF00300DC
:10424000F5D948E02078400732D4656A002D00F0A7
:10425000EF80306900F03800182850D1B16A012D84
:10426000306B23D001F00302A36A9A421ED1C1F33E
:104270000511E26A914219D10146226B6FF35F2169
:10428000013A914212D1C0F34621626B013A914248
:104290000CD1C0F30641A26B013A914206D1C0F3A2
:1042A0000660E16B0139884200F0C280012012E013
:1042B000D6F8000440F48070C6F80004FEF746FC0F
:1042C0000546D6F80004C0050AD4FEF73FFC401BA3
:1042D0006428F6D9032001B0F0BD00BF00440258A5
:1042E000A06860B3012806D00528306F40F0A28096
:1042F00040F004003067306F40F00100A0E030680B
:1043000020F080703060FEF721FC022D05460AD1B6
:10431000306880012CD5FEF719FC401B02284FF0B5
:104320000300F5D9D7E73068800140F18180FEF7BE
:104330000DFC401B02284FF00300F4D9CBE7306F8F
:1043400020F001003067306F20F004003067FEF786
:10435000FDFB054641F28837306F80077FF575AF6A
:10436000FEF7F4FB401BB8424FF00300F4D9B2E76C
:10437000B06A40F2F3318843A16A226B0843511EB0
:10438000626B4FF47E4303EB4222E36A6FF35F21DB
:1043900092B240EA0310B0625018A16B4FF4FE02D3
:1043A00002EB014101F4FE010844E16B4FF0FE42D3
:1043B00002EB016101F0FE41084430634FF6F871F1
:1043C000F06A20F00100F062706B8843A16C40EA53
:1043D000C1007063F06A20F00C00216C0843F062A9
:1043E000F06A20F00200616C0843F062F06A40F469
:1043F0008030F062F06A40F40030F062F06A40F41D
:104400008020F062F06A40F00100F062306840F015
:1044100080703060FEF79AFB04463068800107D454
:10442000FEF794FB001B02284FF00300F5D952E77A
:10443000002050E720F001003067306F20F00400CA
:104440003067FEF783FB054641F28837306F8007FF
:104450003FF5FBAEFEF77AFB401BB8424FF003007E
:10446000F4D938E7411E0020B0EB116F01D00120D4
:104470007047044A5160F021034B19700721906086
:104480001160704710E000E023ED00E090F83C2060
:10449000012A4FF0020233D070B50123704E80F82C
:1044A0003C3080F83D20026842F480635468B34297
:1044B000936802BF24F470044D682C43B2F1804F1E
:1044C00024F070050C6845EA040555600BD05E4C7D
:1044D000A2421CBF5D4CA24205D05D4CA2421CBF53
:1044E0005C4CA2420ED123F080038968194391608D
:1044F0000121002280F83D1080F83C20BDE870408A
:1045000010467047544CA242EDD0544CA24218BF02
:10451000B242E8D0ECE700BF60B310B5044690F8B3
:104520003D0028B9002084F83C00204600F024F823
:10453000022084F83D00211D206800F01BFE0120B0
:1045400084F8480084F83E0084F83F0084F8400076
:1045500084F8410084F8420084F8430084F8440061
:1045600084F8450084F8460084F8470084F83D004C
:10457000002010BD0120704783B000683749884291
:1045800010D01449884218D0134988421FD11348CB
:10459000016841F010010160006800F01000029015
:1045A000029814E00D48816841F480318160806890
:1045B00000F480300090009809E00848016841F05C
:1045C00020010160006800F020000190019803B014
:1045D000704700BF0014004000100040E84402583B
:1045E00090F83D1001291DD1022180F83D1001688D
:1045F000B1F1804F0BD0144881421CBF1348814257
:1046000005D0134881421CBF124881420CD18868F2
:10461000144A0240062A4FF0000018BFB2F5803F4E
:104620000BD17047012070470B488142EFD00B48F7
:104630008142ECD00A488142E9D0086840F001008C
:1046400008600020704700BF0004004000080040E0
:10465000000C0040001800400000014000400140F4
:10466000000401400700010010B5044690F83C002A
:1046700001284FF002001FD00122404B84F83C205B
:1046800084F83D00206882681A4082600A682AB176
:10469000102A03D0202A18BF302A0ED181683B4B44
:1046A0001940114341F0070181600020012184F885
:1046B0003D10002184F83C1010BD402A2AD0502A19
:1046C00033D0602A3CD02E4B9A42E7D0B2F5805FBF
:1046D000EBD0B2F5005F3ED0B2F5801F18BFB2F14B
:1046E000101FDBD0274B9A42D8D0274B9A42D5D007
:1046F000702A40D1D1E901C3C96843EA0C0382683A
:1047000043EA012122F47F4211438160816841F034
:104710007701C9E74B68CA68194600F0A7FD206811
:104720001A4A816811404731BEE74B68CA6819468A
:1047300000F09CFD2068154A816811405731B3E7AD
:104740004B68CA68194600F0A2FD20680F4A8168CC
:1047500011406731A8E7D1E901C3C96843EA0C03F6
:10476000826843EA012122F47F421143816081681B
:1047700041F4804198E7012098E700BF8800CEFF10
:1047800040001000200010003000100088FFCFFF14
:1047900090F88010012901D1022112E02421C0F8F3
:1047A000841002681368116823F0005321F001019E
:1047B00011600021416613602022C0F8842080F837
:1047C000801008467047B0B5044690F88000012874
:1047D00001D10220B0BD012084F880002420C4F85B
:1047E000840020680568026822F001020260826885
:1047F00022F0606211438160204600F05BFD20687A
:1048000005602020C4F88400002084F88000B0BD3A
:10481000B0B5044690F88000012801D10220B0BD57
:10482000012084F880002420C4F8840020680568F2
:10483000026822F001020260826822F060421143A5
:104840008160204600F036FD206805602020C4F815
:104850008400002084F88000B0BD10B5B0B10446DB
:10486000D0F8840028B9002084F88000204600F0A9
:1048700027F82420C4F884002068016821F0010191
:104880000160204600F0D8FD012801D1012010BDB3
:10489000A06A10B1204600F037FD2068416821F47D
:1048A00090414160816821F02A018160016841F0F6
:1048B000010101602046BDE8104000F089BD000004
:1048C00010B5B6B0044631A81421FBF773FE02A858
:1048D000BC21FBF76FFE20681749884229D10120CF
:1048E0000290002402A82094FEF70EFD08B1FCF708
:1048F000C6FDB348016941F010010161016901F091
:10490000100101910199016841F00201016031A992
:10491000006800F00200019001984FF4404031908F
:104920000220CDE932040420349435900348FEF788
:1049300041F836B010BD00BF00100140000402581D
:104940002DE9F8430446D0F8840020280AD10E4609
:1049500000294FF0010006D0174622B194F88000DC
:10496000012803D1022001B0BDE8F083012084F8C2
:1049700080004FF000092120C4F88C901D46C4F837
:104980008400FEF7E3F8A4F85470A4F856700746C4
:10499000A168B1F5805F07D1206900281CBF3046AF
:1049A0004E46B046064601E04FF0000884F880907D
:1049B00018E080210095002220463B4600F00AFFC7
:1049C000E0B9002E206802D016F8011B04E038F888
:1049D000021B00266FF35F218162B4F85600013894
:1049E000A4F85600B4F856000028E2D14021009502
:1049F000002220463B4600F0EDFE08B10320B2E75E
:104A00002020C4F884000020ADE7FEE7C1F3406336
:104A100000EB8300D0F814C0C1F3045107238B408E
:104A20002CEA030302FA01F11943416170470000C7
:104A300010B58AB00024684609941C21CDE90744CA
:104A4000FBF7B8FD1E481F494FF4802280E816008E
:104A50000421C0E903410121848281614FF4B861DE
:104A600004774FF4806241620321C0E90A21C0E962
:104A70000C4480F83840FCF7FBFE08B1FCF7FFFC63
:104A80000F4807A90794FCF7FFFC08B1FCF7F7FCF7
:104A90000D48009040F2FF71062001900020029026
:104AA00003910421CDE904108DF8190069460448EA
:104AB000FCF73CFD08B1FCF7E2FC0AB010BD00BFFA
:104AC0000C030020002002400004002A80B58AB0B8
:104AD00001A82421FBF76EFD0D480E490160FDF78A
:104AE000D2F808B1FCF7CBFC00201621019002910E
:104AF000022103910121CDE9041001A904480022FB
:104B0000FDF71CF808B1FCF7BAFC0AB080BD00BF85
:104B10007003002000740040E0B50E4801680022D8
:104B200041F0010101600021006800F001000190E6
:104B300001980B20FEF7C6F80B20FEF7B5F80C2005
:104B400000210022FEF7BEF80C20BDE88C40FEF7E5
:104B5000ABB800BFD8440258FEB500201849CDE9D3
:104B600004000A6842F080020A600A6802F08002CB
:104B70000092009A0A6842F004020A600A6802F091
:104B800004020092009A0A6842F001020A600A6870
:104B900002F001020092009A0A6842F002020A60E2
:104BA000096801F00201009100990121019103219E
:104BB000CDE9021001A90348FDF7FCFE06B080BD57
:104BC000E04402580008025880B588B00021174818
:104BD000174A31230791CDE90511CDE90311CDE93C
:104BE0000111C0E900230F22C0E90212C0E904113B
:104BF0008161FFF791FC08B1FCF741FC4FF4805054
:104C0000049004A90948FFF72FFD08B1FCF737FC11
:104C1000202001900020039001A90448FFF736FCF2
:104C200008B1FCF72CFC08B080BD00BF7404002064
:104C3000004001401FB500240D480E49772203941F
:104C4000CDE90144C0E90012C721C0E902418461F5
:104C5000FFF762FC08B1FCF712FC2020019001A9CB
:104C600003480394FFF712FC08B1FCF708FC1FBDD2
:104C7000C0040020001000401FB500240D480E495C
:104C8000EF220394CDE90144C0E900124FF6FF7111
:104C9000C0E902418461FFF73FFC08B1FCF7EFFB7C
:104CA000044801A901940394FFF7F0FB08B1FCF755
:104CB000E6FB1FBD0C0500200014004010B5174C8A
:104CC00017484FF4E13120600020C4E901100C21A5
:104CD000E060C4E9040104F118001421FBF76AFC48
:104CE0002046FFF7BAFD08B1FCF7C9FB0B480021CD
:104CF000FFF78EFD08B1FCF7C2FB08480021FFF763
:104D000062FD08B1FCF7BBFB0448FFF741FD18B199
:104D1000BDE81040FCF7B3BB10BD00BF5805002034
:104D200000100140FEE7FEE770470000F8B57F4F36
:104D3000BA6A02F00302032A01D1012074E0054699
:104D4000386820F080600C463860FDF7FFFE0646AC
:104D50003868000105D5FDF7F9FE801B0228F7D958
:104D60005FE0B86A4FF47E43696820F47C30AA683B
:104D7000013903EB42222B686FF35F2192B240EAC4
:104D800003301144EA684FF4FE03B86203EB0242B9
:104D900002F4FE02881829694FF0FE4202EB01611D
:104DA00001F0FE410844B863002CF86A20F0C0000E
:104DB000696940EA0100F862F86A20F02000A969F8
:104DC00040EA0100F8624FF6F871F86A20F010002E
:104DD000F862F86B20EA0100E96940EAC100F86373
:104DE000F86A40F01000F86205D0012CF86A06D18C
:104DF00040F4801005E0F86A40F4002001E040F43F
:104E00000010F862386840F080603860FDF79EFE60
:104E100004463868000106D4FDF798FE001B0328FD
:104E2000F7D3032000E0002001B0F0BDF8B5C94F72
:104E3000BA6A02F00302032A01D1012074E0054698
:104E4000386820F080500C463860FDF77FFE06463B
:104E50003868800005D5FDF779FE801B0228F7D958
:104E60005FE0B86A4FF47E43696820F07C70AA68FE
:104E7000013903EB42222B686FF35F2192B240EAC3
:104E800003501144EA684FF4FE03B86203EB024298
:104E900002F4FE02881829694FF0FE4202EB01611C
:104EA00001F0FE4108443864002CF86A20F44060A8
:104EB000696940EA0100F862F86A20F40070A969A3
:104EC00040EA0100F8624FF6F871F86A20F4807049
:104ED000F862786C20EA0100E96940EAC100786470
:104EE000F86A40F48070F86205D0012CF86A06D1A7
:104EF00040F4000005E0F86A40F4800001E040F072
:104F00008070F862386840F080503860FDF71EFE0F
:104F100004463868800006D4FDF718FE001B0328FD
:104F2000F7D3032000E0002001B0F0BD0044025898
:104F30007047000000000000B0B52DED068B9FED1E
:104F4000128B9FED139B9FED14AB0024144D13E0C7
:104F500000EE104AB8EEC00B20EE080B80EE090BF5
:104F600000F0B6FD20EE0A0BBDEEC00B10EE100AED
:104F700000F5006028530234B4F5C87FE8D1BDECD9
:104F8000068BB0BD00BF00BF6E861BF0F921094043
:104F900000000000000069400000000000409F4049
:104FA0007C010020FDF7D6BDB0B59CB009A8424CED
:104FB000424D4C21FBF7FEFA01A82021FBF7FAFA3B
:104FC0000220FDF7AFFE00200090286820F00100CD
:104FD0002860286800F001000090D4F8F00340F445
:104FE0004040C4F8F003D4F8F00300F440400090CF
:104FF0000098D4F8F0038004FBD5D4F8CC0040F03E
:105000000200C4F8CC00D4F8CC0000F002000090FC
:10501000009800200090D4F8F00340F44040C4F819
:10502000F003D4F8F00300F440400090286840F00A
:1050300001002860286800F0010000900098D4F872
:10504000F0038004FBD52068022161F301000025F4
:105050002060012009904FF480300A900520CDE9AE
:1050600012111490C020CDE91501082409A8CDE93A
:1050700017111994CDE91A55FEF782FF18B1EFF315
:10508000108072B6FEE73F2001900320CDE90205B3
:10509000402004944FF48061CDE90500CDE907106C
:1050A00001A80421FEF7A2FD18B1EFF3108072B63B
:1050B000FEE71CB0B0BD00BF284402582C040058C5
:1050C00023480168214A41F470010160106800F032
:1050D0000F00062804D81068072161F30300106050
:1050E00010B51C4801681C4C41F001010160002111
:1050F000016103682340036013681B0704D513682C
:10510000072464F303031360144A8161C1610162DF
:105110008262134AC262134A026341638263C163BB
:1051200002644164026822F48022026001660E4833
:105130000068B1EB507FBDE8104002D101200B495F
:10514000086043F2D2000A4908607047002000520C
:1051500088ED00E0004402587FEDF6EA000202020A
:105160000000FF01800201010010005C0881005175
:1051700000400052F0B5B0F1804F0368334A05D0CB
:10518000334CA0421CBF334CA04234D123F07003F7
:105190004C68234302F58044041BB4FA84F44FEABC
:1051A000541C02F58844041BB4FA84F44FEA541EDC
:1051B00002F59044041BB4FA84F4640923F44073A8
:1051C000CD682B4323F080034E690D6833438F680D
:1051D000002C0360C762856208BFBEF1000F05D1D5
:1051E00090421CBF02F5806290422BD10969016395
:1051F00001214161F0BD184CA042C7D0174CA0421C
:1052000018BF9042C2D002F58044154D041BB4FA79
:1052100084F44FEA541C02F58844041BB4FA84F465
:105220004FEA541E02F59044041BB4FA84F4A842D9
:105230004FEA5414C2D00B4DA842BFD00A4DA84229
:10524000BCD0BFE7BCF1000FD2D0CFE700000140D7
:105250000004004000080040000C00400004014031
:10526000004001400048014000440140D0F820C007
:10527000036A23F001030362836923F0F00343EA26
:1052800002122CF00A038261194301627047036A1B
:1052900023F010030362836923F47043D0F820C025
:1052A00043EA02322CF0A003826143EA0111016259
:1052B00070470000416ED9B180B501688A68C2F3B9
:1052C00042628968490FDFF838C01CF80130DFF806
:1052D00034E01EF801101B01B3FBF1F11CF80230A1
:1052E0001EF802201B01B3FBF2F2BDE8804001E092
:1052F00001210122A0F86A10A0F86820704700BFC1
:10530000246200082C620008816ACA0708D002687B
:10531000D0F82CC0536823F4003343EA0C035360E5
:105320008A0708D50268D0F830C0536823F4803368
:1053300043EA0C0353604A0708D50268D0F834C02A
:10534000536823F4802343EA0C0353600A0708D50B
:105350000268D0F838C0536823F4004343EA0C03D2
:105360005360CA0608D50268D0F83CC0936823F49D
:10537000805343EA0C0393608A0608D50268D0F88C
:1053800040C0936823F4005343EA0C0393604A0639
:1053900012D50268D0F844C05368BCF5801F23F4CE
:1053A000801343EA0C03536006D1536823F4C00C06
:1053B000836C43EA0C035360090658BF70470168C9
:1053C000C06C4A6822F40022104348607047000015
:1053D000BCB500210446C0F88C10FDF7B7FB21686E
:1053E00005460A6812070AD512484FF400110090CA
:1053F000002220462B4600F0EDF968B921680868C4
:1054000040070BD50B484FF4800100900022204646
:105410002B4600F0DFF908B1032008E02020C4F893
:105420008400C4F888000020E06684F8800002B0A0
:10543000B0BD00BFFFFFFF01FEB50446006804F1E8
:1054400008038D4D8B4E0ECB194363690B43E16905
:1054500007680B432F409D4D3B430360A8424368C0
:1054600023F4405342EA03024260A2691CBF236A4C
:105470001A4383683340964E1A438260B042C26A30
:10548000944E22F00F03626A43EA0203C36228D0FB
:10549000914B984232D0914B98423CD0904B9842DD
:1054A00046D0904B984200F050808F4B984200F0CD
:1054B0005880A84200F061808C4B984200F06980CF
:1054C0008B4B984240F07B80736DB446C3F3C206A9
:1054D000052E00F275800123DFE806F07367696B23
:1054E0006D6F736DB44603F00706052E00F26880F9
:1054F0000023DFE806F0665A5C5E6062736DB446B6
:1055000003F00706052E00F25B800023DFE806F0BB
:10551000594D4F515355736DB44603F00706052E90
:1055200000F24E800023DFE806F04C40424446483B
:10553000736DB44603F00706052E00F24180002388
:10554000DFE806F03F333537393B736DB44603F07F
:105550000706052E34D80023DFE806F03327292B71
:105560002D2F736DB44603F00706052E28D80023AF
:10557000DFE806F0271B1D1F2123B36DB44603F09F
:105580000706052E1CD80223DFE806F01B0F1113B7
:105590001517736DB446C3F3C206052E10D8012348
:1055A000DFE806F00F030507090B042309E00823D1
:1055B00007E0102305E0202303E0402301E0B44688
:1055C0008023A8427F4810D0B1F5004F1DD1082B91
:1055D0004FF0010127D8DFE803F0058DD5D590D530
:1055E000D5D59400FEF72EFC8FE0402B32D0042B53
:1055F00033D0082B35D0102B40D0202B48D0022B95
:1056000040F0BF80FDF7B2FB2FE0082B4FF0010107
:1056100014D8DFE803F00594B7B797B7B7B79B0086
:10562000FEF710FC96E0102B00F0B580202B6ED01A
:10563000402B40F0A7804FF4004068E0102B00F0B2
:10564000B580202B00F08880402B40F09B804FF4E9
:10565000004081E04FF400401AE06846FDF720FC6E
:1056600002E06846FDF7A2FC0198002800F0878060
:10567000626A0DE0FFF4FF11F369FFCFDCF8000070
:1056800065468006504803D52968C1F3C101C8406A
:105690004E4931F812106268B0FBF1F002EB4201A2
:1056A00088424FF001016DD3130398426AD8010E6E
:1056B000000210EB520041F100010023FAF768FEEE
:1056C000A0F54071424A914257D95AE0000C005867
:1056D000004400400044025800480040004C004094
:1056E0000050004000780040007C00400014014061
:1056F00000100140FEF7B4FB07E06846FDF7D0FB61
:1057000002E06846FDF752FC0198C0B3626A2F4977
:1057100031F81210B0FBF1F061684A0802EB40006A
:10572000B0FBF1F04FF6EF72A0F11001914228D8D2
:105730004FF6F071C0F34202084010441DE0FEF73E
:105740008FFB07E06846FDF7ABFB02E06846FDF71C
:105750002DFC019898B1626A1C4931F812104FF67D
:10576000EF72B0FBF1F0616800EB5100B0FBF1F0BB
:10577000A0F11001914204D880B22168C8600021D4
:1057800000E001214FF00110A0660020C4E91C00D8
:10579000084603B0F0BDDCF80000654680060A4804
:1057A000B5D52968C1F3C101C840B0E7DCF80000F5
:1057B000654680060448CFD52968C1F3C101C840B9
:1057C000CAE700BF00093D000090D0030462000852
:1057D000FFFC0F002DE9F843DDF8209098461646AF
:1057E0000F460446006809F10105C1693940C91B2B
:1057F000B1FA81F14909B14216D1002DF5D0FDF77A
:10580000A5F9B9F1000F13D0A0EB080048450FD857
:1058100020680168490744BFC1695FEA0151E4D5C6
:105820004FF4006101621EE0002001B0BDE8F0838A
:10583000206850E8000F216820F4D07041E8000291
:10584000002AF5D1206850E8020F216820F00100FD
:1058500041E80202002AF5D12020C4F8840004F1B6
:1058600088001AE0206850E8000F216820F4D0700A
:1058700041E80002002AF5D1206850E8020F2168B3
:1058800020F0010041E80202002AF5D12020C4F8EE
:105890008400C4F8880004F18C00202101600020FD
:1058A00084F880000320C0E7B0B50446154D0122FE
:1058B0004FF47A7328462146FFF742F814F8010F97
:1058C0000028F4D1B0BD00BFFEE7000000F00F02D9
:1058D000614B1A44044BB0F1FF3F4FEA0111C8BFBE
:1058E000C2181170704700BF00E400E0E0B50190FD
:1058F00001A9012203484FF47A73FFF721F80198B8
:1059000002B080BD5805002094B00126524D029689
:10591000FDF7A0F94FF01050524F03904F4802ACE2
:1059200004904F4805902046B8474FF040508DF8FE
:105930000960039010208DF810004FF000082046F9
:10594000ADF81680B8470220474E8DF80900204672
:105950000396B84703208DF8090006F50030039040
:105960000F208DF810002046B8470420FDF77CF981
:105970002868800311D4BFF34F8FBFF36F8FC5F832
:105980003C82BFF34F8FBFF36F8F286840F4003025
:105990002860BFF34F8FBFF36F8F2868C00326D4F2
:1059A0000020286743F6E07CBFF34F8FE96EC1F318
:1059B0004E30C1F3C901CC438E070CEA4017324682
:1059C000214642EA07030131C5F84C3202F1404258
:1059D000F7D10028A0F10100EFD1BFF34F8F286865
:1059E00040F480302860BFF34F8FBFF36F8FFDF717
:1059F000BBF8FFF7D9FAFFF7AFF8FFF73DF9FFF76C
:105A00005DF9FFF763F8FFF787F8FFF713F9FFF782
:105A10000FF8FFF7D9F8FFF78FFA1448FEF7E0FD0B
:105A2000002713480021134AC8230097FCF790F978
:105A300012A4114E16A502AF3046FAF7A5FD204676
:105A4000FFF732FF002238462946FAF719FD38469B
:105A5000FFF72AFFF0E700BF14ED00E0120001039A
:105A600000000101052C000800000230C0040020E5
:105A7000700300207C0100203462000874362E740C
:105A800078743D224E6F6E6522FFFFFF000000001C
:105A900078312E76616C3D2564FFFFFF0000000029
:105AA00003B401984100009850EAC12018BF0420B7
:105AB0004A0D18BF40F0010040F2FF72B2EB515F97
:105AC00008BF40F00200012808BF052002B070475F
:105AD00010B529499FED261B2DED020B84B00598CA
