:020000040800F2
:10000000C8060024390300080B140008EB1100088F
:100010000914000851040008D5160008000000006B
:100020000000000000000000000000000F140008A5
:1000300053040008000000000D140008111400080B
:100040005303000853030008530300085303000838
:100050005303000853030008530300085303000828
:100060005303000853030008530300085303000818
:100070005303000853030008530300085303000808
:1000800053030008530300085303000853030008F8
:1000900053030008530300085303000853030008E8
:1000A00053030008530300085303000853030008D8
:1000B00053030008530300085303000853030008C8
:1000C00053030008530300085303000853030008B8
:1000D00053030008530300085303000853030008A8
:1000E00053030008530300080000000053030008F6
:1000F0005303000853030008530300085303000888
:100100005303000853030008530300085303000877
:100110005303000853030008530300085303000867
:100120005303000853030008530300085303000857
:100130005303000853030008530300085303000847
:1001400000000000000000000000000000000000AF
:100150005303000853030008530300085303000827
:100160005303000853030008530300085303000817
:100170005303000853030008530300080000000065
:1001800053030008530300085303000853030008F7
:1001900053030008530300085303000853030008E7
:1001A00053030008530300085303000853030008D7
:1001B00053030008530300085303000853030008C7
:1001C00053030008530300085303000853030008B7
:1001D00053030008530300085303000853030008A7
:1001E0005303000853030008530300085303000897
:1001F0005303000853030008530300085303000887
:100200005303000853030008530300085303000876
:100210005303000853030008530300085303000866
:1002200053030008530300085303000800000000B4
:1002300053030008530300080000000053030008A4
:100240005303000853030008530300085303000836
:100250005303000853030008530300085303000826
:100260005303000853030008530300085303000816
:100270005303000853030008530300080000000064
:100280005303000853030008530300080000000054
:10029000000000005303000800F002F800F03CF8F2
:1002A0000AA090E8000C82448344AAF10107DA45D1
:1002B00001D100F031F8AFF2090EBAE80F0013F0E7
:1002C000010F18BFFB1A43F001031847EC1400009C
:1002D0000C150000103A24BF78C878C1FAD852072C
:1002E00024BF30C830C144BF04680C6070470000B0
:1002F0000023002400250026103A28BF78C1FBD82F
:10030000520728BF30C148BF0B6070471FB501F0CE
:1003100037FA1FBD10B510BD00F058F81146FFF7B1
:10032000F5FF01F0EBF900F076F803B4FFF7F2FF08
:1003300003BC00F07DF800000948804709480047E9
:10034000FEE7FEE7FEE7FEE7FEE7FEE7FEE7FEE785
:10035000FEE7FEE704480549054A064B70470000E2
:10036000C914000899020008C8000024C806002427
:10037000C8020024C80200244FF0000200B5134652
:1003800094469646203922BFA0E80C50A0E80C50B5
:10039000B1F12001BFF4F7AF090728BFA0E80C5066
:1003A00048BF0CC05DF804EB890028BF40F8042B5F
:1003B00008BF704748BF20F8022B11F0804F18BFCC
:1003C00000F8012B7047704770477047754600F082
:1003D0002BF8AE4605006946534620F007008546D7
:1003E00018B020B5FFF7B6FFBDE820404FF000067B
:1003F0004FF000074FF000084FF0000BAC46ACE8A0
:10040000C009ACE8C009ACE8C009ACE8C00921F0FB
:1004100007018D46704710B50446AFF300802046B3
:10042000BDE81040FFF781BF004870471800002466
:1004300001491820ABBEFEE726000200704700000D
:10044000C0F30521264A1170507001F013B900BFA6
:10045000FEE7704710B5044604E04FF47A7000F0F0
:1004600005F8013C002CF8D110BD000070B56FF00C
:1004700005010A4C0E1A2168B0B24FF6FA754862AF
:10048000204600F059FE206800E0466AB1B2A94259
:10049000FBD30248BDE8704000F092BE7800002413
:1004A000EFF3108072B6FEE700EE100A0C499FEDE4
:1004B0000A1BB8EE400B20EE010BBCEEC00B10EE99
:1004C000100A020AC8718A71020C000E4A71087182
:1004D00001F0D0B800BF00BF95D626E80B2E114022
:1004E000100000242DE9FC4F5E4A0A275E4C0244AE
:1004F0004FEAB223A04208BF0927092B38BF4FEAB1
:10050000B2274FF0000C009701274FF0000E002695
:100510009EE007FA06F912EA090B00F094804A6897
:1005200002F00308A8F1010ABAF1010F13D803245D
:10053000856804FA0EF325EA0303CD6805FA0EF583
:100540002B4383604368C2F3001523EA0903B540D7
:100550002B43436004E0B8F1030F4FF003041FD0B6
:10056000C36804FA0EF5AB438D6805FA0EF52B430C
:10057000B8F1020FC36013D16FF0030202EA560212
:1005800002440CF01C03D2F820800F259D4028EA7D
:1005900005080D6905FA03F343EA080313624A6884
:1005A000036804FA0EF5AB4302F0030505FA0EF5F5
:1005B0002B4312F4403F036045D0664A13462B4C50
:1005C00012680F2542F002021A601A6802F0020255
:1005D000019226F00302019B0CF00C0352F80480F8
:1005E0009D40009F28EA050507FA03F32B431351AA
:1005F0004FF0B048D8F800204B6842EA0B05DF0204
:1006000058BF22EA0B05164A1446C8F800509F024C
:10061000126842EA0B0558BF22EA0B059F032560CA
:100620004FF00107D4F8802042EA0B0558BF22EAB8
:100630000B05DB03C4F88050E26F42EA0B0558BF9C
:1006400022EA0B05E56701360EF1020E0CF1040CEF
:100650000A6832FA06F47FF45CAFBDE8FC8F00BF95
:10066000040000580000FEA70024025808040058A7
:10067000002A08BF09048161704700000148006832
:10068000000C70470010005C05480068704700BF10
:100690002848007802490A6810440860704700BF83
:1006A000C400002480B5032000F076F800F0BAF909
:1006B0000F490A68C2F303220968D64B01F00F0103
:1006C0009A5C595C02F01F02D040D34A01F01F012E
:1006D00020FA01F11160D14908600F2000F00AF8FA
:1006E00008B1012080BD00F027F8002080BD00BFC8
:1006F0001844025870B50F4E3178C1B104464FF41A
:100700007A70B0FBF1F0C5490968B1FBF0F000F078
:1007100075FC0F2C4FF001050AD848B94FF0FF3097
:1007200000222146002500F017F8746000E0012542
:10073000284670BD0000002481B00648016841F0E1
:1007400002010160006800F002000090009801B012
:10075000704700BFF444025880B5154B1B68C3F3C3
:10076000022C8CF0070EBEF1040F28BF4FF0040ED0
:10077000BCF103034FF0FF3C38BF00230CFA0EFE20
:1007800021EA0E0199400CFA03F39A431143BDE8A4
:10079000804000F0A1BF00BF05490A684FF6FF0383
:1007A0001A4060F30A22034810430860704700BFF4
:1007B0000CED00E00000FA05B0B5104D29684907BE
:1007C000296805D401F00701081A18BF0120B0BD3F
:1007D00021F0070108432860FFF756FF044655F84B
:1007E000080C800407D4FFF74FFF001BB0F57A7F99
:1007F000F5D90120B0BD0020B0BD00BF0C480258A3
:100800002DE9F843002800F0FE800446804B18686C
:1008100000F00F00884688420BD2186820F00F00C5
:1008200040EA08001860186800F00F00404540F0EA
:10083000EA802068B24F41070AD52169BA6902F0FF
:100840007002914204D9BA6922F070021143B96171
:1008500001070AD56169FA6902F07002914204D970
:10086000FA6922F070021143F961C1060AD5A16943
:10087000FA6902F4E062914204D9FA6922F4E06272
:100880001143F96181060AD5E1693A6A02F0700202
:10089000914204D93A6A22F0700211433962810709
:1008A0000AD5E168BA6902F00F02914204D9BA6927
:1008B00022F00F021143B961C10736D0B86920F4A4
:1008C0007061D4E9010211430328B96105D00228FF
:1008D00007D1396889030DD495E03968890109D4B5
:1008E00091E00128396802D1C90503D48BE049079A
:1008F00040F189803969994621F007010843386140
:10090000FFF7C2FE064641F28835386900F038002C
:100910006168B0EBC10F06D0FFF7B6FE801BA8429E
:10092000F3D9032070E020684B4681070AD5E168BF
:10093000BA6902F00F02914204D2BA6922F00F02A2
:100940001143B961196801F00F0141450AD91968CD
:1009500021F00F0141EA08011960196801F00F0147
:10096000414550D141070AD52169BA6902F07002A8
:10097000914204D2BA6922F070021143B9610107B1
:100980000AD56169FA6902F07002914204D2FA69EB
:1009900022F070021143F961C1060AD5A169FA6912
:1009A00002F4E062914204D2FA6922F4E062114357
:1009B000F96180060AD5E069396A01F07001884260
:1009C00004D2396A21F070010843386200F02AF835
:1009D000B969C1F303210F4A515CBB6903F00F03EE
:1009E000D25C01F01F0120FA01F102F01F000A4A57
:1009F00021FA00F01060094A094800681160BDE85A
:100A0000F843FFF777BE012001B0BDE8F08300BFD7
:100A1000002000529A1700080C000024080000244F
:100A20000400002436490869C0F3C20003280CD032
:100A3000022828D048BB08688006374858BF70474E
:100A40000968C1F3C101C84070478A6A886AC0F367
:100A5000051CCB6A486B03F00103C0F3CC00BCF16A
:100A6000000F10FB03F000EE100AB8EE400A0ED0A3
:100A700002F00302022A0CD072B9086880060ED474
:100A80009FED241A15E0204870471E48704700204B
:100A900070479FED1F1A0CE09FED1C1A09E00868D3
:100AA0001D4AC0F3C10022FA00F001EE100AB8EEB0
:100AB000411A02EE10CA9FED193AB8EE422A086BAD
:100AC0006FF35F2081EE021A02EE100AB8EE422A9E
:100AD000086BC0F3462000EE032AB7EE000A01308F
:100AE00032EE000A21EE000A01EE100AB8EE411AB9
:100AF00080EE010ABCEEC00A10EE100A704700BF7B
:100B00000044025800093D0040787D010024744AE9
:100B100020BCBE4B0024744C0090D0030000003970
:100B2000F8B5002800F08E8104460078D14EC00749
:100B30004AD0306900F03801B06A102905D0182970
:100B400009D100F00300022805D1306880033BD5AD
:100B50006068C8BB76E1606868B1B0F5803F06D0D8
:100B6000B0F5A02F30681CD140F480203060306890
:100B700040F480301BE0306820F480303060306812
:100B800020F480203060FFF77FFD05463068800349
:100B90001AD5FFF779FD401B64284FF00300F5D903
:100BA00065E120F480303060306820F480203060CF
:100BB000FFF76AFD05463068800305D4FFF764FD42
:100BC000401B6428F7D951E12078800761D530694E
:100BD00010F03801B06A18D0182908BF5FEA807099
:100BE00013D0E0680028316838D021F0190108439B
:100BF0003060FFF749FD0546306840071FD4FFF716
:100C000043FD401B0228F7D930E130684007E06817
:100C100002D5002800F01681316821F0190108433F
:100C20003060FFF731FD05463068400707D4FFF715
:100C30002BFD401B02284FF00300F5D917E1FFF709
:100C40001DFD41F20301884219D8206971684028CE
:100C500021F47C311AD141F4003019E021F0010077
:100C60003060FFF711FD05463068400711D5FFF7EA
:100C70000BFD401B02284FF00300F5D9F7E0706828
:100C800020F0FE40216940EA016001E041EA0030C5
:100C900070602078C00653D5306900F03801B06A22
:100CA000082905D018290BD100F00300012807D12D
:100CB0003068C00519D5E069802840F0C38014E091
:100CC000E0690028306827D040F080003060FFF7EE
:100CD000DBFC05463068C00507D4FFF7D5FC401B98
:100CE00002284FF00300F5D9C1E0FFF7C7FC41F23D
:100CF0000301884208D8206A7168202821F0F84151
:100D00001BD141F080401AE0F06820F07C50216A4D
:100D100040EA0160F06013E020F080003060FFF7EF
:100D2000B3FC05463068C0050AD5FFF7ADFC401B93
:100D300002284FF00300F5D999E041EA8060706025
:100D40002078000723D560690028706F0ED040F02E
:100D500001007067FFF798FC0546706F800716D496
:100D6000FFF792FC401B0228F7D97FE020F001003A
:100D70007067FFF789FC0546706F800707D5FFF79E
:100D800083FC401B02284FF00300F5D96FE0207868
:100D9000800623D5A069002830680ED040F480502A
:100DA0003060FFF771FC05463068800416D4FFF709
:100DB0006BFC401B0228F7D958E020F480503060CB
:100DC000FFF762FC05463068800407D5FFF75CFC3E
:100DD000401B02284FF00300F5D948E02078400777
:100DE00032D4656A002D00F0EF80306900F03800E1
:100DF000182850D1B16A012D306B23D001F00302C5
:100E0000A36A9A421ED1C1F30511E26A914219D137
:100E10000146226B6FF35F21013A914212D1C0F378
:100E20004621626B013A91420CD1C0F30641A26B9C
:100E3000013A914206D1C0F30660E16B0139884264
:100E400000F0C280012012E0D6F8000440F4807067
:100E5000C6F80004FFF718FC0546D6F80004C005E4
:100E60000AD4FFF711FC401B6428F6D9032001B017
:100E7000F0BD00BF00440258A06860B3012806D04E
:100E80000528306F40F0A28040F004003067306FDA
:100E900040F00100A0E0306820F080703060FFF783
:100EA000F3FB022D05460AD1306880012CD5FFF7EF
:100EB000EBFB401B02284FF00300F5D9D7E7306861
:100EC000800140F18180FFF7DFFB401B02284FF0DB
:100ED0000300F4D9CBE7306F20F001003067306FAA
:100EE00020F004003067FFF7CFFB054641F288375A
:100EF000306F80077FF575AFFFF7C6FB401BB84228
:100F00004FF00300F4D9B2E7B06A40F2F3318843FE
:100F1000A16A226B0843511E626B4FF47E4303EBC0
:100F20004222E36A6FF35F2192B240EA0310B0629B
:100F30005018A16B4FF4FE0202EB014101F4FE01D7
:100F40000844E16B4FF0FE4202EB016101F0FE410B
:100F5000084430634FF6F871F06A20F00100F06247
:100F6000706B8843A16C40EAC1007063F06A20F0A6
:100F70000C00216C0843F062F06A20F00200616C02
:100F80000843F062F06A40F48030F062F06A40F4A6
:100F90000030F062F06A40F48020F062F06A40F0C5
:100FA0000100F062306840F080703060FFF76CFB49
:100FB00004463068800107D4FFF766FB001B022857
:100FC0004FF00300F5D952E7002050E720F0010070
:100FD0003067306F20F004003067FFF755FB05469F
:100FE00041F28837306F80073FF5FBAEFFF74CFBCF
:100FF000401BB8424FF00300F4D938E7411E0020EF
:10100000B0EB116F01D001207047044A5160F0210C
:10101000034B1970072190601160704710E000E0E9
:1010200023ED00E090F83C20012A4FF0020233D07B
:1010300070B50123604E80F83C3080F83D20026896
:1010400042F480635468B342936802BF24F470048E
:101050004D682C43B2F1804F24F070050C6845EACE
:10106000040555600BD04E4CA2421CBF4D4CA24211
:1010700005D04D4CA2421CBF4C4CA2420ED123F0D5
:1010800080038968194391600121002280F83D1096
:1010900080F83C20BDE8704010467047444CA242A6
:1010A000EDD0444CA24218BFB242E8D0ECE700BFFA
:1010B00060B310B5044690F83D0028B9002084F8CC
:1010C0003C00204600F024F8022084F83D00211D59
:1010D000206800F053FA012084F8480084F83E00AC
:1010E00084F83F0084F8400084F8410084F842000E
:1010F00084F8430084F8440084F8450084F84600EE
:1011000084F8470084F83D00002010BD012070479E
:101110000068BC49884218BF704781B00548016823
:1011200041F020010160006800F02000009000986C
:1011300001B07047E844025890F83D1001291DD1D4
:10114000022180F83D100168B1F1804F0BD01448A6
:1011500081421CBF1348814205D0134881421CBF05
:10116000124881420CD18868144A0240062A4FF086
:10117000000018BFB2F5803F0BD1704701207047C7
:101180000B488142EFD00B488142ECD00A488142A3
:10119000E9D0086840F0010008600020704700BFF7
:1011A0000004004000080040000C0040001800400F
:1011B0000000014000400140000401400700010020
:1011C00001460068026A41F211131A4208D1026A0C
:1011D00040F244431A4203D1026822F00102026045
:1011E0000122002081F83D207047FEE72DE9F04103
:1011F000434DA5F54064434E4FF400410022204684
:101200000027B0474FF4006100222846B0474FF452
:10121000805100222046B0474FF4806100222846CA
:10122000B0474FF4005100222846B0474FF48041A8
:1012300000222046B0474FF4806101222046B0478B
:101240000520FFF707F94FF4806100222046B047E0
:101250004FF4007100222846A846B047002000F055
:1012600061FA294D03E0E85D00F05CFA0137042FD4
:10127000F9D14FF40071012240464546FFF7F8F9D5
:101280004FF40071002240460027FFF7F1F90120DA
:1012900000F048FA1D4D03E0E85D00F043FA013725
:1012A000042FF9D14FF40071012240464546FFF763
:1012B000DFF94FF40071002240460027FFF7D8F90C
:1012C000022000F02FFA124D03E0E85D00F02AFA48
:1012D0000137042FF9D14FF4007101224046B04785
:1012E0004FF4005101222046B0474FF40051002234
:1012F0002046B0470120BDE8F041FFF7ABB800BF82
:101300000010025871060008AA170008AE1700085E
:10131000B21700082DE9F04786B04FF000082848C2
:10132000CDF81480002201684FF47E4641F0800120
:101330000160016801F0800100910099016841F0AD
:1013400010010160016801F010010091009901682D
:1013500041F002010160016801F002010091009971
:10136000016841F0010101604FF47E41006800F026
:10137000010000900098D44800F540658246284658
:10138000FFF776F94FF47C41002250464FF47C4938
:10139000FFF76EF9019601AE012703242846314676
:1013A000CDE902780494FFF79DF850463146CDE927
:1013B0000197CDE90384FFF795F806B0BDE8F08703
:1013C000E04402581FB500240D480E4964220394DE
:1013D000CDE90144C0E900124FF6FF71C0E90241B6
:1013E0008461FFF765FE08B1FFF75AF8044801A9C8
:1013F00001940394FFF716FE08B1FFF751F81FBDE3
:101400007800002400140040FEE7FEE770477047B4
:10141000FFF73EB9B0B59CB009A8294D4C21FEF7A5
:10142000ABFF01AC20212046FEF7A6FF0220FFF70C
:10143000C3F9002000902348016821F001010160F8
:101440000121006800F001000090286861F38F30EE
:101450002860286800F440400090009828688004C4
:10146000FCD5012009904FF480300A900220102111
:10147000CDE912001490CDE91510CDE917000C202C
:1014800019900020CDE91A0009A8FFF749FB18B10F
:10149000EFF3108072B6FEE73F2001900320029028
:1014A00004F108001821FEF767FF02212046FFF72C
:1014B000A7F918B1EFF3108072B6FEE71CB0B0BD0B
:1014C000184802582C04005823480168214A41F466
:1014D00070010160106800F00F00062804D8106841
:1014E000072161F30300106010B51C4801681C4C13
:1014F00041F00101016000210161036823400360A4
:1015000013681B0704D51368072464F303031360EF
:10151000144A8161C16101628262134AC262134A44
:10152000026341638263C16302644164026822F41E
:101530008022026001660E480068B1EB507FBDE872
:10154000104002D101200B49086043F2D2000A4941
:10155000086070470020005288ED00E00044025807
:101560007FEDF6EA000202020000FF0180020101A5
:101570000010005C0881005100400052F0B5B0F14D
:10158000804F0368334A05D0334CA0421CBF334C14
:10159000A04234D123F070034C68234302F5804409
:1015A000041BB4FA84F44FEA541C02F58844041B6B
:1015B000B4FA84F44FEA541E02F59044041BB4FAC2
:1015C00084F4640923F44073CD682B4323F0800333
:1015D0004E690D6833438F68002C0360C7628562D3
:1015E00008BFBEF1000F05D190421CBF02F580621A
:1015F00090422BD10969016301214161F0BD184C72
:10160000A042C7D0174CA04218BF9042C2D002F5EA
:101610008044154D041BB4FA84F44FEA541C02F5BF
:101620008844041BB4FA84F44FEA541E02F5904433
:10163000041BB4FA84F4A8424FEA5414C2D00B4DF0
:10164000A842BFD00A4DA842BCD0BFE7BCF1000FF2
:10165000D2D0CFE700000140000400400008004065
:10166000000C0040000401400040014000480140DF
:1016700000440140F8B5144C04F540654FF4007186
:10168000002228460026FEF7F3FF0E2000F04AF85D
:101690000E4F03E0B85D00F045F80136082EF9D191
:1016A0004FF400710A4E01222846B0474FF4005112
:1016B00001222046B0474FF4005100222046334615
:1016C00001B0BDE8F04018470004025810000024A3
:1016D00071060008FEE7000000F00F02054B1A44F7
:1016E000054BB0F1FF3F4FEA0111C8BFC21811709E
:1016F000704700BF14ED00E000E400E0FEF7D2FF09
:10170000FFF788FEFFF706FEFFF75CFEFFF76EFDB2
:101710000348FEF7C9FE43F6FF70FEF791FEFEE7B1
:1017200040420F002DE9F0418046144D4FF48041B6
:10173000002228460027FEF79BFF8024A5F540667F
:1017400018E04FF4804114EA080F01D0012200E0B4
:1017500000223046FEF78CFF4FF4804101222846DC
:10176000FEF786FF4FF48041002228466408FEF70A
:101770007FFF0137072FE4D9BDE8F0810010025840
:10178000F1EE100A4FF6FF71C0F2C03120EA0100FD
:1017900040F04070E1EE100A7047000000000102C6
:1017A00003040102030406070809004000000100C9
:1017B0000000050F41320000D81700080000002487
:1017C00018000000D4020008F017000818000024D8
:1017D000B0060000F0020008010000001000000048
:1017E0000090D0030090D0033FFF000025097B420A
:040000050800029954
:00000001FF
